{
  "_format": "hh-sol-artifact-1",
  "contractName": "AntiBotBuybackBabyToken",
  "sourceName": "contracts/tokens/AntiBotBuybackBabyToken.sol",
  "abi": [
    {
      "inputs": [
        {
          "internalType": "string",
          "name": "name_",
          "type": "string"
        },
        {
          "internalType": "string",
          "name": "symbol_",
          "type": "string"
        },
        {
          "internalType": "uint256",
          "name": "totalSupply_",
          "type": "uint256"
        },
        {
          "internalType": "address",
          "name": "rewardToken_",
          "type": "address"
        },
        {
          "internalType": "address",
          "name": "router_",
          "type": "address"
        },
        {
          "internalType": "address",
          "name": "antiBot_",
          "type": "address"
        },
        {
          "internalType": "uint256[5]",
          "name": "feeSettings_",
          "type": "uint256[5]"
        },
        {
          "internalType": "address",
          "name": "serviceFeeReceiver_",
          "type": "address"
        },
        {
          "internalType": "uint256",
          "name": "serviceFee_",
          "type": "uint256"
        }
      ],
      "stateMutability": "payable",
      "type": "constructor"
    },
    {
      "anonymous": false,
      "inputs": [
        {
          "indexed": true,
          "internalType": "address",
          "name": "owner",
          "type": "address"
        },
        {
          "indexed": true,
          "internalType": "address",
          "name": "spender",
          "type": "address"
        },
        {
          "indexed": false,
          "internalType": "uint256",
          "name": "value",
          "type": "uint256"
        }
      ],
      "name": "Approval",
      "type": "event"
    },
    {
      "anonymous": false,
      "inputs": [
        {
          "indexed": false,
          "internalType": "uint256",
          "name": "amountBNB",
          "type": "uint256"
        },
        {
          "indexed": false,
          "internalType": "uint256",
          "name": "amountBOG",
          "type": "uint256"
        }
      ],
      "name": "AutoLiquify",
      "type": "event"
    },
    {
      "anonymous": false,
      "inputs": [
        {
          "indexed": false,
          "internalType": "uint256",
          "name": "duration",
          "type": "uint256"
        }
      ],
      "name": "BuybackMultiplierActive",
      "type": "event"
    },
    {
      "anonymous": false,
      "inputs": [
        {
          "indexed": false,
          "internalType": "address",
          "name": "owner",
          "type": "address"
        }
      ],
      "name": "OwnershipTransferred",
      "type": "event"
    },
    {
      "anonymous": false,
      "inputs": [
        {
          "indexed": true,
          "internalType": "address",
          "name": "owner",
          "type": "address"
        },
        {
          "indexed": true,
          "internalType": "address",
          "name": "token",
          "type": "address"
        },
        {
          "indexed": false,
          "internalType": "enum TokenType",
          "name": "tokenType",
          "type": "uint8"
        },
        {
          "indexed": false,
          "internalType": "uint256",
          "name": "version",
          "type": "uint256"
        }
      ],
      "name": "TokenCreated",
      "type": "event"
    },
    {
      "anonymous": false,
      "inputs": [
        {
          "indexed": true,
          "internalType": "address",
          "name": "from",
          "type": "address"
        },
        {
          "indexed": true,
          "internalType": "address",
          "name": "to",
          "type": "address"
        },
        {
          "indexed": false,
          "internalType": "uint256",
          "name": "value",
          "type": "uint256"
        }
      ],
      "name": "Transfer",
      "type": "event"
    },
    {
      "inputs": [],
      "name": "VERSION",
      "outputs": [
        {
          "internalType": "uint256",
          "name": "",
          "type": "uint256"
        }
      ],
      "stateMutability": "view",
      "type": "function"
    },
    {
      "inputs": [
        {
          "internalType": "address",
          "name": "holder",
          "type": "address"
        },
        {
          "internalType": "address",
          "name": "spender",
          "type": "address"
        }
      ],
      "name": "allowance",
      "outputs": [
        {
          "internalType": "uint256",
          "name": "",
          "type": "uint256"
        }
      ],
      "stateMutability": "view",
      "type": "function"
    },
    {
      "inputs": [
        {
          "internalType": "address",
          "name": "spender",
          "type": "address"
        },
        {
          "internalType": "uint256",
          "name": "amount",
          "type": "uint256"
        }
      ],
      "name": "approve",
      "outputs": [
        {
          "internalType": "bool",
          "name": "",
          "type": "bool"
        }
      ],
      "stateMutability": "nonpayable",
      "type": "function"
    },
    {
      "inputs": [
        {
          "internalType": "address",
          "name": "spender",
          "type": "address"
        }
      ],
      "name": "approveMax",
      "outputs": [
        {
          "internalType": "bool",
          "name": "",
          "type": "bool"
        }
      ],
      "stateMutability": "nonpayable",
      "type": "function"
    },
    {
      "inputs": [
        {
          "internalType": "address",
          "name": "adr",
          "type": "address"
        }
      ],
      "name": "authorize",
      "outputs": [],
      "stateMutability": "nonpayable",
      "type": "function"
    },
    {
      "inputs": [],
      "name": "autoBuybackAccumulator",
      "outputs": [
        {
          "internalType": "uint256",
          "name": "",
          "type": "uint256"
        }
      ],
      "stateMutability": "view",
      "type": "function"
    },
    {
      "inputs": [],
      "name": "autoBuybackAmount",
      "outputs": [
        {
          "internalType": "uint256",
          "name": "",
          "type": "uint256"
        }
      ],
      "stateMutability": "view",
      "type": "function"
    },
    {
      "inputs": [],
      "name": "autoBuybackBlockLast",
      "outputs": [
        {
          "internalType": "uint256",
          "name": "",
          "type": "uint256"
        }
      ],
      "stateMutability": "view",
      "type": "function"
    },
    {
      "inputs": [],
      "name": "autoBuybackBlockPeriod",
      "outputs": [
        {
          "internalType": "uint256",
          "name": "",
          "type": "uint256"
        }
      ],
      "stateMutability": "view",
      "type": "function"
    },
    {
      "inputs": [],
      "name": "autoBuybackCap",
      "outputs": [
        {
          "internalType": "uint256",
          "name": "",
          "type": "uint256"
        }
      ],
      "stateMutability": "view",
      "type": "function"
    },
    {
      "inputs": [],
      "name": "autoBuybackEnabled",
      "outputs": [
        {
          "internalType": "bool",
          "name": "",
          "type": "bool"
        }
      ],
      "stateMutability": "view",
      "type": "function"
    },
    {
      "inputs": [],
      "name": "autoLiquidityReceiver",
      "outputs": [
        {
          "internalType": "address",
          "name": "",
          "type": "address"
        }
      ],
      "stateMutability": "view",
      "type": "function"
    },
    {
      "inputs": [
        {
          "internalType": "address",
          "name": "account",
          "type": "address"
        }
      ],
      "name": "balanceOf",
      "outputs": [
        {
          "internalType": "uint256",
          "name": "",
          "type": "uint256"
        }
      ],
      "stateMutability": "view",
      "type": "function"
    },
    {
      "inputs": [
        {
          "internalType": "address",
          "name": "",
          "type": "address"
        }
      ],
      "name": "buyBacker",
      "outputs": [
        {
          "internalType": "bool",
          "name": "",
          "type": "bool"
        }
      ],
      "stateMutability": "view",
      "type": "function"
    },
    {
      "inputs": [],
      "name": "buybackFee",
      "outputs": [
        {
          "internalType": "uint256",
          "name": "",
          "type": "uint256"
        }
      ],
      "stateMutability": "view",
      "type": "function"
    },
    {
      "inputs": [],
      "name": "buybackMultiplierDenominator",
      "outputs": [
        {
          "internalType": "uint256",
          "name": "",
          "type": "uint256"
        }
      ],
      "stateMutability": "view",
      "type": "function"
    },
    {
      "inputs": [],
      "name": "buybackMultiplierLength",
      "outputs": [
        {
          "internalType": "uint256",
          "name": "",
          "type": "uint256"
        }
      ],
      "stateMutability": "view",
      "type": "function"
    },
    {
      "inputs": [],
      "name": "buybackMultiplierNumerator",
      "outputs": [
        {
          "internalType": "uint256",
          "name": "",
          "type": "uint256"
        }
      ],
      "stateMutability": "view",
      "type": "function"
    },
    {
      "inputs": [],
      "name": "buybackMultiplierTriggeredAt",
      "outputs": [
        {
          "internalType": "uint256",
          "name": "",
          "type": "uint256"
        }
      ],
      "stateMutability": "view",
      "type": "function"
    },
    {
      "inputs": [],
      "name": "clearBuybackMultiplier",
      "outputs": [],
      "stateMutability": "nonpayable",
      "type": "function"
    },
    {
      "inputs": [],
      "name": "decimals",
      "outputs": [
        {
          "internalType": "uint8",
          "name": "",
          "type": "uint8"
        }
      ],
      "stateMutability": "pure",
      "type": "function"
    },
    {
      "inputs": [],
      "name": "distributor",
      "outputs": [
        {
          "internalType": "contract DividendDistributor",
          "name": "",
          "type": "address"
        }
      ],
      "stateMutability": "view",
      "type": "function"
    },
    {
      "inputs": [],
      "name": "distributorGas",
      "outputs": [
        {
          "internalType": "uint256",
          "name": "",
          "type": "uint256"
        }
      ],
      "stateMutability": "view",
      "type": "function"
    },
    {
      "inputs": [],
      "name": "enableAntiBot",
      "outputs": [
        {
          "internalType": "bool",
          "name": "",
          "type": "bool"
        }
      ],
      "stateMutability": "view",
      "type": "function"
    },
    {
      "inputs": [],
      "name": "feeDenominator",
      "outputs": [
        {
          "internalType": "uint256",
          "name": "",
          "type": "uint256"
        }
      ],
      "stateMutability": "view",
      "type": "function"
    },
    {
      "inputs": [],
      "name": "getCirculatingSupply",
      "outputs": [
        {
          "internalType": "uint256",
          "name": "",
          "type": "uint256"
        }
      ],
      "stateMutability": "view",
      "type": "function"
    },
    {
      "inputs": [
        {
          "internalType": "uint256",
          "name": "accuracy",
          "type": "uint256"
        }
      ],
      "name": "getLiquidityBacking",
      "outputs": [
        {
          "internalType": "uint256",
          "name": "",
          "type": "uint256"
        }
      ],
      "stateMutability": "view",
      "type": "function"
    },
    {
      "inputs": [],
      "name": "getMultipliedFee",
      "outputs": [
        {
          "internalType": "uint256",
          "name": "",
          "type": "uint256"
        }
      ],
      "stateMutability": "view",
      "type": "function"
    },
    {
      "inputs": [
        {
          "internalType": "bool",
          "name": "selling",
          "type": "bool"
        }
      ],
      "name": "getTotalFee",
      "outputs": [
        {
          "internalType": "uint256",
          "name": "",
          "type": "uint256"
        }
      ],
      "stateMutability": "view",
      "type": "function"
    },
    {
      "inputs": [
        {
          "internalType": "address",
          "name": "adr",
          "type": "address"
        }
      ],
      "name": "isAuthorized",
      "outputs": [
        {
          "internalType": "bool",
          "name": "",
          "type": "bool"
        }
      ],
      "stateMutability": "view",
      "type": "function"
    },
    {
      "inputs": [
        {
          "internalType": "address",
          "name": "",
          "type": "address"
        }
      ],
      "name": "isDividendExempt",
      "outputs": [
        {
          "internalType": "bool",
          "name": "",
          "type": "bool"
        }
      ],
      "stateMutability": "view",
      "type": "function"
    },
    {
      "inputs": [
        {
          "internalType": "address",
          "name": "",
          "type": "address"
        }
      ],
      "name": "isFeeExempt",
      "outputs": [
        {
          "internalType": "bool",
          "name": "",
          "type": "bool"
        }
      ],
      "stateMutability": "view",
      "type": "function"
    },
    {
      "inputs": [
        {
          "internalType": "uint256",
          "name": "target",
          "type": "uint256"
        },
        {
          "internalType": "uint256",
          "name": "accuracy",
          "type": "uint256"
        }
      ],
      "name": "isOverLiquified",
      "outputs": [
        {
          "internalType": "bool",
          "name": "",
          "type": "bool"
        }
      ],
      "stateMutability": "view",
      "type": "function"
    },
    {
      "inputs": [
        {
          "internalType": "address",
          "name": "account",
          "type": "address"
        }
      ],
      "name": "isOwner",
      "outputs": [
        {
          "internalType": "bool",
          "name": "",
          "type": "bool"
        }
      ],
      "stateMutability": "view",
      "type": "function"
    },
    {
      "inputs": [],
      "name": "liquidityFee",
      "outputs": [
        {
          "internalType": "uint256",
          "name": "",
          "type": "uint256"
        }
      ],
      "stateMutability": "view",
      "type": "function"
    },
    {
      "inputs": [],
      "name": "marketingFee",
      "outputs": [
        {
          "internalType": "uint256",
          "name": "",
          "type": "uint256"
        }
      ],
      "stateMutability": "view",
      "type": "function"
    },
    {
      "inputs": [],
      "name": "marketingFeeReceiver",
      "outputs": [
        {
          "internalType": "address",
          "name": "",
          "type": "address"
        }
      ],
      "stateMutability": "view",
      "type": "function"
    },
    {
      "inputs": [],
      "name": "name",
      "outputs": [
        {
          "internalType": "string",
          "name": "",
          "type": "string"
        }
      ],
      "stateMutability": "view",
      "type": "function"
    },
    {
      "inputs": [],
      "name": "pair",
      "outputs": [
        {
          "internalType": "address",
          "name": "",
          "type": "address"
        }
      ],
      "stateMutability": "view",
      "type": "function"
    },
    {
      "inputs": [],
      "name": "pinkAntiBot",
      "outputs": [
        {
          "internalType": "contract IPinkAntiBot",
          "name": "",
          "type": "address"
        }
      ],
      "stateMutability": "view",
      "type": "function"
    },
    {
      "inputs": [],
      "name": "reflectionFee",
      "outputs": [
        {
          "internalType": "uint256",
          "name": "",
          "type": "uint256"
        }
      ],
      "stateMutability": "view",
      "type": "function"
    },
    {
      "inputs": [],
      "name": "rewardToken",
      "outputs": [
        {
          "internalType": "address",
          "name": "",
          "type": "address"
        }
      ],
      "stateMutability": "view",
      "type": "function"
    },
    {
      "inputs": [],
      "name": "router",
      "outputs": [
        {
          "internalType": "contract IUniswapV2Router02",
          "name": "",
          "type": "address"
        }
      ],
      "stateMutability": "view",
      "type": "function"
    },
    {
      "inputs": [
        {
          "internalType": "bool",
          "name": "_enabled",
          "type": "bool"
        },
        {
          "internalType": "uint256",
          "name": "_cap",
          "type": "uint256"
        },
        {
          "internalType": "uint256",
          "name": "_amount",
          "type": "uint256"
        },
        {
          "internalType": "uint256",
          "name": "_period",
          "type": "uint256"
        }
      ],
      "name": "setAutoBuybackSettings",
      "outputs": [],
      "stateMutability": "nonpayable",
      "type": "function"
    },
    {
      "inputs": [
        {
          "internalType": "address",
          "name": "acc",
          "type": "address"
        },
        {
          "internalType": "bool",
          "name": "add",
          "type": "bool"
        }
      ],
      "name": "setBuyBacker",
      "outputs": [],
      "stateMutability": "nonpayable",
      "type": "function"
    },
    {
      "inputs": [
        {
          "internalType": "uint256",
          "name": "numerator",
          "type": "uint256"
        },
        {
          "internalType": "uint256",
          "name": "denominator",
          "type": "uint256"
        },
        {
          "internalType": "uint256",
          "name": "length",
          "type": "uint256"
        }
      ],
      "name": "setBuybackMultiplierSettings",
      "outputs": [],
      "stateMutability": "nonpayable",
      "type": "function"
    },
    {
      "inputs": [
        {
          "internalType": "uint256",
          "name": "_minPeriod",
          "type": "uint256"
        },
        {
          "internalType": "uint256",
          "name": "_minDistribution",
          "type": "uint256"
        }
      ],
      "name": "setDistributionCriteria",
      "outputs": [],
      "stateMutability": "nonpayable",
      "type": "function"
    },
    {
      "inputs": [
        {
          "internalType": "uint256",
          "name": "gas",
          "type": "uint256"
        }
      ],
      "name": "setDistributorSettings",
      "outputs": [],
      "stateMutability": "nonpayable",
      "type": "function"
    },
    {
      "inputs": [
        {
          "internalType": "bool",
          "name": "_enable",
          "type": "bool"
        }
      ],
      "name": "setEnableAntiBot",
      "outputs": [],
      "stateMutability": "nonpayable",
      "type": "function"
    },
    {
      "inputs": [
        {
          "internalType": "address",
          "name": "_autoLiquidityReceiver",
          "type": "address"
        },
        {
          "internalType": "address",
          "name": "_marketingFeeReceiver",
          "type": "address"
        }
      ],
      "name": "setFeeReceivers",
      "outputs": [],
      "stateMutability": "nonpayable",
      "type": "function"
    },
    {
      "inputs": [
        {
          "internalType": "uint256",
          "name": "_liquidityFee",
          "type": "uint256"
        },
        {
          "internalType": "uint256",
          "name": "_buybackFee",
          "type": "uint256"
        },
        {
          "internalType": "uint256",
          "name": "_reflectionFee",
          "type": "uint256"
        },
        {
          "internalType": "uint256",
          "name": "_marketingFee",
          "type": "uint256"
        },
        {
          "internalType": "uint256",
          "name": "_feeDenominator",
          "type": "uint256"
        }
      ],
      "name": "setFees",
      "outputs": [],
      "stateMutability": "nonpayable",
      "type": "function"
    },
    {
      "inputs": [
        {
          "internalType": "address",
          "name": "holder",
          "type": "address"
        },
        {
          "internalType": "bool",
          "name": "exempt",
          "type": "bool"
        }
      ],
      "name": "setIsDividendExempt",
      "outputs": [],
      "stateMutability": "nonpayable",
      "type": "function"
    },
    {
      "inputs": [
        {
          "internalType": "address",
          "name": "holder",
          "type": "address"
        },
        {
          "internalType": "bool",
          "name": "exempt",
          "type": "bool"
        }
      ],
      "name": "setIsFeeExempt",
      "outputs": [],
      "stateMutability": "nonpayable",
      "type": "function"
    },
    {
      "inputs": [
        {
          "internalType": "bool",
          "name": "_enabled",
          "type": "bool"
        },
        {
          "internalType": "uint256",
          "name": "_amount",
          "type": "uint256"
        }
      ],
      "name": "setSwapBackSettings",
      "outputs": [],
      "stateMutability": "nonpayable",
      "type": "function"
    },
    {
      "inputs": [
        {
          "internalType": "uint256",
          "name": "_target",
          "type": "uint256"
        },
        {
          "internalType": "uint256",
          "name": "_denominator",
          "type": "uint256"
        }
      ],
      "name": "setTargetLiquidity",
      "outputs": [],
      "stateMutability": "nonpayable",
      "type": "function"
    },
    {
      "inputs": [],
      "name": "swapEnabled",
      "outputs": [
        {
          "internalType": "bool",
          "name": "",
          "type": "bool"
        }
      ],
      "stateMutability": "view",
      "type": "function"
    },
    {
      "inputs": [],
      "name": "swapThreshold",
      "outputs": [
        {
          "internalType": "uint256",
          "name": "",
          "type": "uint256"
        }
      ],
      "stateMutability": "view",
      "type": "function"
    },
    {
      "inputs": [],
      "name": "symbol",
      "outputs": [
        {
          "internalType": "string",
          "name": "",
          "type": "string"
        }
      ],
      "stateMutability": "view",
      "type": "function"
    },
    {
      "inputs": [],
      "name": "targetLiquidity",
      "outputs": [
        {
          "internalType": "uint256",
          "name": "",
          "type": "uint256"
        }
      ],
      "stateMutability": "view",
      "type": "function"
    },
    {
      "inputs": [],
      "name": "targetLiquidityDenominator",
      "outputs": [
        {
          "internalType": "uint256",
          "name": "",
          "type": "uint256"
        }
      ],
      "stateMutability": "view",
      "type": "function"
    },
    {
      "inputs": [],
      "name": "totalFee",
      "outputs": [
        {
          "internalType": "uint256",
          "name": "",
          "type": "uint256"
        }
      ],
      "stateMutability": "view",
      "type": "function"
    },
    {
      "inputs": [],
      "name": "totalSupply",
      "outputs": [
        {
          "internalType": "uint256",
          "name": "",
          "type": "uint256"
        }
      ],
      "stateMutability": "view",
      "type": "function"
    },
    {
      "inputs": [
        {
          "internalType": "address",
          "name": "recipient",
          "type": "address"
        },
        {
          "internalType": "uint256",
          "name": "amount",
          "type": "uint256"
        }
      ],
      "name": "transfer",
      "outputs": [
        {
          "internalType": "bool",
          "name": "",
          "type": "bool"
        }
      ],
      "stateMutability": "nonpayable",
      "type": "function"
    },
    {
      "inputs": [
        {
          "internalType": "address",
          "name": "sender",
          "type": "address"
        },
        {
          "internalType": "address",
          "name": "recipient",
          "type": "address"
        },
        {
          "internalType": "uint256",
          "name": "amount",
          "type": "uint256"
        }
      ],
      "name": "transferFrom",
      "outputs": [
        {
          "internalType": "bool",
          "name": "",
          "type": "bool"
        }
      ],
      "stateMutability": "nonpayable",
      "type": "function"
    },
    {
      "inputs": [
        {
          "internalType": "address payable",
          "name": "adr",
          "type": "address"
        }
      ],
      "name": "transferOwnership",
      "outputs": [],
      "stateMutability": "nonpayable",
      "type": "function"
    },
    {
      "inputs": [
        {
          "internalType": "uint256",
          "name": "amount",
          "type": "uint256"
        },
        {
          "internalType": "bool",
          "name": "triggerBuybackMultiplier",
          "type": "bool"
        }
      ],
      "name": "triggerZeusBuyback",
      "outputs": [],
      "stateMutability": "nonpayable",
      "type": "function"
    },
    {
      "inputs": [
        {
          "internalType": "address",
          "name": "adr",
          "type": "address"
        }
      ],
      "name": "unauthorize",
      "outputs": [],
      "stateMutability": "nonpayable",
      "type": "function"
    },
    {
      "stateMutability": "payable",
      "type": "receive"
    }
  ],
  "bytecode": "0x6080604052604051620043c5380380620043c58339810160408190526200002691620007d6565b600080546001600160a01b0319163390811782558152600160208181526040909220805460ff1916909117905589516200006791600291908c019062000657565b5087516200007d9060039060208b019062000657565b506004878155602580546001600160a01b0319166001600160a01b0387169081179091556040516318e02bd960e01b81523392810192909252906318e02bd990602401600060405180830381600087803b158015620000db57600080fd5b505af1158015620000f0573d6000803e3d6000fd5b50506025805460ff60a01b1916600160a01b1790555050600580546001600160a01b038089166001600160a01b0319928316179092556006805492881692909116821790556040805163c45a015560e01b8152905163c45a015591600480820192602092909190829003018186803b1580156200016c57600080fd5b505afa15801562000181573d6000803e3d6000fd5b505050506040513d601f19601f82011682018060405250810190620001a79190620007b9565b6001600160a01b031663c9c6539630600660009054906101000a90046001600160a01b03166001600160a01b031663ad5c46486040518163ffffffff1660e01b815260040160206040518083038186803b1580156200020557600080fd5b505afa1580156200021a573d6000803e3d6000fd5b505050506040513d601f19601f82011682018060405250810190620002409190620007b9565b6040516001600160e01b031960e085901b1681526001600160a01b03928316600482015291166024820152604401602060405180830381600087803b1580156200028957600080fd5b505af11580156200029e573d6000803e3d6000fd5b505050506040513d601f19601f82011682018060405250810190620002c49190620007b9565b600760006101000a8154816001600160a01b0302191690836001600160a01b031602179055508585604051620002fa90620006e6565b6001600160a01b03928316815291166020820152604001604051809103906000f0801580156200032e573d6000803e3d6000fd5b50601c80546001600160a01b0319166001600160a01b03929092169190911790556200035a836200053c565b6200037a60196010556064601181905560c8601255601355610708601555565b6207a120601d55601e805460ff19166001179055600454620003a090614e2090620009a6565b601f553360008181526023602090815260408083208054600160ff199182168117909255600780546001600160a01b0390811687526024865284872080548416851790553080885285882080548516861790557fc85df64b997460f9ebf6929eca33c1ed2309802ac6ba41eea1e539280d5c25008054851686179055888852602287528588208054909416909417909255600880546001600160a01b031990811689179091556009805490911688179055600454928652602185528386206006548316875285528386208390555416845281842081905584845282805281842081905590519081527fddf252ad1be2c89b69c2b068fc378daa952ba7f163c4a11628f55a4df523b3ef910160405180910390a3604051309033907f56358b41df5fa59f5639228f0930994cbdde383c8a8fd74e06c04e1deebe356290620004ed90600790600190620008f6565b60405180910390a36040516001600160a01b0383169082156108fc029083906000818181858888f193505050501580156200052c573d6000803e3d6000fd5b5050505050505050505062000a1a565b8051602082015160408301516060840151608085015162000561949392919062000564565b50565b600a859055600b849055600c839055600d829055620005ab82620005978581898962000642602090811b620015ef17901c565b6200064260201b620015ef1790919060201c565b600e55600f819055620005c0600482620009a6565b600e54106200063b5760405162461bcd60e51b815260206004820152603b60248201527f546f74616c206665652073686f756c64206e6f7420626520677265617465722060448201527f7468616e20312f34206f66206665652064656e6f6d696e61746f720000000000606482015260840160405180910390fd5b5050505050565b600062000650828462000981565b9392505050565b8280546200066590620009c7565b90600052602060002090601f016020900481019282620006895760008555620006d4565b82601f10620006a457805160ff1916838001178555620006d4565b82800160010185558215620006d4579182015b82811115620006d4578251825591602001919060010190620006b7565b50620006e2929150620006f4565b5090565b611236806200318f83390190565b5b80821115620006e25760008155600101620006f5565b80516001600160a01b03811681146200072357600080fd5b919050565b600082601f83011262000739578081fd5b81516001600160401b0381111562000755576200075562000a04565b60206200076b601f8301601f191682016200094e565b82815285828487010111156200077f578384fd5b835b838110156200079e57858101830151828201840152820162000781565b83811115620007af57848385840101525b5095945050505050565b600060208284031215620007cb578081fd5b62000650826200070b565b60008060008060008060008060006101a08a8c031215620007f5578485fd5b89516001600160401b03808211156200080c578687fd5b6200081a8d838e0162000728565b9a5060209150818c01518181111562000831578788fd5b6200083f8e828f0162000728565b9a50505060408b015197506200085860608c016200070b565b96506200086860808c016200070b565b95506200087860a08c016200070b565b94508b60df8c011262000889578384fd5b6200089362000923565b8060c08d016101608e018f811115620008aa578788fd5b875b6005811015620008cb57825185529385019391850191600101620008ac565b50829750620008da816200070b565b965050505050506101808a015190509295985092959850929598565b60408101600884106200091957634e487b7160e01b600052602160045260246000fd5b9281526020015290565b60405160a081016001600160401b038111828210171562000948576200094862000a04565b60405290565b604051601f8201601f191681016001600160401b038111828210171562000979576200097962000a04565b604052919050565b60008219821115620009a157634e487b7160e01b81526011600452602481fd5b500190565b600082620009c257634e487b7160e01b81526012600452602481fd5b500490565b600181811c90821680620009dc57607f821691505b60208210811415620009fe57634e487b7160e01b600052602260045260246000fd5b50919050565b634e487b7160e01b600052604160045260246000fd5b6127658062000a2a6000396000f3fe6080604052600436106103e85760003560e01c80636ddd171311610208578063ca33e64c11610118578063f0b37c04116100ab578063f708a64f1161007a578063f708a64f14610b69578063f7c618c114610b89578063f887ea4014610ba9578063fe9fbb8014610bc9578063ffa1ad7414610be957600080fd5b8063f0b37c0414610ae9578063f1f3bca314610b09578063f2fde38b14610b29578063f5cfec0a14610b4957600080fd5b8063df20fd49116100e7578063df20fd4914610a63578063e96fada214610a83578063ecbf666f14610aa3578063eff0dc2214610ab957600080fd5b8063ca33e64c146109c8578063d51ed1c8146109e8578063d806d12f14610a08578063dd62ed3e14610a1d57600080fd5b806398118cb41161019b578063a9059cbb1161016a578063a9059cbb1461093d578063b210b06d1461095d578063b6a5d7de14610972578063b91854f414610992578063bfe10928146109a857600080fd5b806398118cb4146108c75780639d1944f5146108dd578063a4b45c00146108fd578063a8aa1b311461091d57600080fd5b80638ab6ffc7116101d75780638ab6ffc714610870578063921250d11461088657806392258ec81461089c57806395d89b41146108b257600080fd5b80636ddd1713146107f55780636e78eb491461080f57806370a082311461082557806383ad79941461085a57600080fd5b8063241ec3be11610303578063407133d211610296578063591cf08d11610265578063591cf08d1461077d5780635a53c1fb1461079357806360e71962146107a9578063658d4b7f146107bf5780636b67c4df146107df57600080fd5b8063407133d2146106df5780634355855a146107175780634896a63214610747578063571ac8b01461075d57600080fd5b8063313ce567116102d2578063313ce567146106635780633b2d081c1461067f5780633bb8a8d4146106955780633f4218e0146106af57600080fd5b8063241ec3be146105de5780632b112e49146105ff5780632d48e896146106145780632f54bf6e1461063457600080fd5b8063180b0d7e1161037b5780631f46b1c61161034a5780631f46b1c61461055e578063201e79911461057e5780632375ce401461059e57806323b872dd146105be57600080fd5b8063180b0d7e1461050757806318160ddd1461051d57806319be947b146105325780631df4ccfc1461054857600080fd5b8063095ea7b3116103b7578063095ea7b3146104815780631023d5d4146104b15780631161ae39146104c757806317d43583146104e757600080fd5b80630445b667146103f4578063048c7baf1461041d57806304a66b481461043f57806306fdde031461045f57600080fd5b366103ef57005b600080fd5b34801561040057600080fd5b5061040a601f5481565b6040519081526020015b60405180910390f35b34801561042957600080fd5b5061043d6104383660046123e7565b610bfe565b005b34801561044b57600080fd5b5061043d61045a3660046124d2565b610c55565b34801561046b57600080fd5b50610474610c8e565b6040516104149190612584565b34801561048d57600080fd5b506104a161049c366004612387565b610d20565b6040519015158152602001610414565b3480156104bd57600080fd5b5061040a60155481565b3480156104d357600080fd5b506104a16104e2366004612459565b610d8c565b3480156104f357600080fd5b5061043d610502366004612353565b610da0565b34801561051357600080fd5b5061040a600f5481565b34801561052957600080fd5b5060045461040a565b34801561053e57600080fd5b5061040a60145481565b34801561055457600080fd5b5061040a600e5481565b34801561056a57600080fd5b5061043d6105793660046123b2565b610df0565b34801561058a57600080fd5b5061043d610599366004612459565b610e33565b3480156105aa57600080fd5b5061043d6105b936600461247a565b610e63565b3480156105ca57600080fd5b506104a16105d9366004612313565b610eb8565b3480156105ea57600080fd5b506025546104a190600160a01b900460ff1681565b34801561060b57600080fd5b5061040a610f7c565b34801561062057600080fd5b5061043d61062f366004612459565b610fec565b34801561064057600080fd5b506104a161064f3660046122a3565b6000546001600160a01b0391821691161490565b34801561066f57600080fd5b5060405160098152602001610414565b34801561068b57600080fd5b5061040a600b5481565b3480156106a157600080fd5b506016546104a19060ff1681565b3480156106bb57600080fd5b506104a16106ca3660046122a3565b60236020526000908152604090205460ff1681565b3480156106eb57600080fd5b506025546106ff906001600160a01b031681565b6040516001600160a01b039091168152602001610414565b34801561072357600080fd5b506104a16107323660046122a3565b60246020526000908152604090205460ff1681565b34801561075357600080fd5b5061040a60195481565b34801561076957600080fd5b506104a16107783660046122a3565b61107b565b34801561078957600080fd5b5061040a60175481565b34801561079f57600080fd5b5061040a601a5481565b3480156107b557600080fd5b5061040a601d5481565b3480156107cb57600080fd5b5061043d6107da366004612353565b61108f565b3480156107eb57600080fd5b5061040a600d5481565b34801561080157600080fd5b50601e546104a19060ff1681565b34801561081b57600080fd5b5061040a60185481565b34801561083157600080fd5b5061040a6108403660046122a3565b6001600160a01b0316600090815260208052604090205490565b34801561086657600080fd5b5061040a600c5481565b34801561087c57600080fd5b5061040a60115481565b34801561089257600080fd5b5061040a60125481565b3480156108a857600080fd5b5061040a60105481565b3480156108be57600080fd5b506104746110df565b3480156108d357600080fd5b5061040a600a5481565b3480156108e957600080fd5b5061043d6108f836600461241f565b6110ee565b34801561090957600080fd5b5061043d6109183660046122db565b61116a565b34801561092957600080fd5b506007546106ff906001600160a01b031681565b34801561094957600080fd5b506104a1610958366004612387565b6111bd565b34801561096957600080fd5b5061043d6111ca565b34801561097e57600080fd5b5061043d61098d3660046122a3565b6111f6565b34801561099e57600080fd5b5061040a601b5481565b3480156109b457600080fd5b50601c546106ff906001600160a01b031681565b3480156109d457600080fd5b506008546106ff906001600160a01b031681565b3480156109f457600080fd5b5061040a610a0336600461241f565b611247565b348015610a1457600080fd5b5061040a61128a565b348015610a2957600080fd5b5061040a610a383660046122db565b6001600160a01b03918216600090815260216020908152604080832093909416825291909152205490565b348015610a6f57600080fd5b5061043d610a7e3660046123cc565b611323565b348015610a8f57600080fd5b506009546106ff906001600160a01b031681565b348015610aaf57600080fd5b5061040a60135481565b348015610ac557600080fd5b506104a1610ad43660046122a3565b60226020526000908152604090205460ff1681565b348015610af557600080fd5b5061043d610b043660046122a3565b61135f565b348015610b1557600080fd5b5061040a610b243660046123b2565b6113aa565b348015610b3557600080fd5b5061043d610b443660046122a3565b6113c2565b348015610b5557600080fd5b5061043d610b64366004612437565b611458565b348015610b7557600080fd5b5061043d610b84366004612353565b6114ce565b348015610b9557600080fd5b506005546106ff906001600160a01b031681565b348015610bb557600080fd5b506006546106ff906001600160a01b031681565b348015610bd557600080fd5b506104a1610be43660046122a3565b6115d1565b348015610bf557600080fd5b5061040a600181565b610c07336115d1565b610c2c5760405162461bcd60e51b8152600401610c23906125f7565b60405180910390fd5b6016805460ff1916941515949094179093556017919091556000601855601955601a5543601b55565b610c5e336115d1565b610c7a5760405162461bcd60e51b8152600401610c23906125f7565b610c8785858585856115fb565b5050505050565b606060028054610c9d906126c6565b80601f0160208091040260200160405190810160405280929190818152602001828054610cc9906126c6565b8015610d165780601f10610ceb57610100808354040283529160200191610d16565b820191906000526020600020905b815481529060010190602001808311610cf957829003601f168201915b5050505050905090565b3360008181526021602090815260408083206001600160a01b038716808552925280832085905551919290917f8c5be1e5ebec7d5bd14f71427d1e84f3dd0314c0f7b2291e5b200ac8c7c3b92590610d7b9086815260200190565b60405180910390a350600192915050565b600082610d9883611247565b119392505050565b610da9336115d1565b610dc55760405162461bcd60e51b8152600401610c23906125f7565b6001600160a01b03919091166000908152602260205260409020805460ff1916911515919091179055565b610df9336115d1565b610e155760405162461bcd60e51b8152600401610c23906125f7565b60258054911515600160a01b0260ff60a01b19909216919091179055565b610e3c336115d1565b610e585760405162461bcd60e51b8152600401610c23906125f7565b601091909155601155565b610e6c336115d1565b610e885760405162461bcd60e51b8152600401610c23906125f7565b6002610e948385612670565b11158015610ea157508183115b610eaa57600080fd5b601292909255601355601555565b6004546001600160a01b0384166000908152602160209081526040808320338452909152812054909114610f67576040805180820182526016815275496e73756666696369656e7420416c6c6f77616e636560501b6020808301919091526001600160a01b0387166000908152602182528381203382529091529190912054610f429184906116ae565b6001600160a01b03851660009081526021602090815260408083203384529091529020555b610f728484846116da565b90505b9392505050565b602080527f29ab76e7ca72530a8284597fb76b039d796325740b21528d71ade454c6f2dbe95461dead60009081527fcbaad361c71be11fa6bdbe0e740c6259be964b32182da2da47b54472477c6a17546004549192610fe7929091610fe19190611a4c565b90611a4c565b905090565b610ff5336115d1565b6110115760405162461bcd60e51b8152600401610c23906125f7565b601c546040516316a4744b60e11b815260048101849052602481018390526001600160a01b0390911690632d48e896906044015b600060405180830381600087803b15801561105f57600080fd5b505af1158015611073573d6000803e3d6000fd5b505050505050565b600061108982600454610d20565b92915050565b611098336115d1565b6110b45760405162461bcd60e51b8152600401610c23906125f7565b6001600160a01b03919091166000908152602360205260409020805460ff1916911515919091179055565b606060038054610c9d906126c6565b6110f7336115d1565b6111135760405162461bcd60e51b8152600401610c23906125f7565b620b71b081106111655760405162461bcd60e51b815260206004820152601d60248201527f476173206d757374206265206c6f776572207468616e203735303030300000006044820152606401610c23565b601d55565b611173336115d1565b61118f5760405162461bcd60e51b8152600401610c23906125f7565b600880546001600160a01b039384166001600160a01b03199182161790915560098054929093169116179055565b6000610f753384846116da565b6111d3336115d1565b6111ef5760405162461bcd60e51b8152600401610c23906125f7565b6000601455565b6000546001600160a01b031633146112205760405162461bcd60e51b8152600401610c23906125d7565b6001600160a01b03166000908152600160208190526040909120805460ff19169091179055565b6000611089611254610f7c565b6007546001600160a01b031660009081526020805260409020546112849061127d906002611a58565b8590611a58565b90611a64565b6000426112a46015546014546115ef90919063ffffffff16565b111561131c5760006112c742610fe16015546014546115ef90919063ffffffff16565b905060006112ee600e54610fe1601354611284601254600e54611a5890919063ffffffff16565b905061131561130c6015546112848585611a5890919063ffffffff16565b600e54906115ef565b9250505090565b50600e5490565b61132c336115d1565b6113485760405162461bcd60e51b8152600401610c23906125f7565b601e805460ff191692151592909217909155601f55565b6000546001600160a01b031633146113895760405162461bcd60e51b8152600401610c23906125d7565b6001600160a01b03166000908152600160205260409020805460ff19169055565b600081156113ba5761108961128a565b5050600e5490565b6000546001600160a01b031633146113ec5760405162461bcd60e51b8152600401610c23906125d7565b600080546001600160a01b0319166001600160a01b038316908117825580825260016020818152604093849020805460ff191690921790915591519081527f04dba622d284ed0014ee4b9a6a68386be1a4c08a4913ae272de89199cc686163910160405180910390a150565b611461336115d1565b61147d5760405162461bcd60e51b8152600401610c23906125f7565b6114898261dead611a70565b80156114ca57426014556015546040519081527f39d2389ec5c1fa77b2c0d374bc61b6d7bd97ccba280fcdeb4e9c7644898d7c3a9060200160405180910390a15b5050565b6114d7336115d1565b6114f35760405162461bcd60e51b8152600401610c23906125f7565b6001600160a01b038216301480159061151a57506007546001600160a01b03838116911614155b61152357600080fd5b6001600160a01b0382166000908152602460205260409020805460ff1916821580159190911790915561158957601c54604051630a5b654b60e11b81526001600160a01b03848116600483015260006024830152909116906314b6ca9690604401611045565b601c546001600160a01b03838116600081815260208052604090819020549051630a5b654b60e11b8152600481019290925260248201529116906314b6ca9690604401611045565b6001600160a01b031660009081526001602052604090205460ff1690565b6000610f758284612658565b600a859055600b849055600c839055600d8290556116258261161f858189896115ef565b906115ef565b600e55600f819055611638600482612670565b600e5410610c875760405162461bcd60e51b815260206004820152603b60248201527f546f74616c206665652073686f756c64206e6f7420626520677265617465722060448201527f7468616e20312f34206f66206665652064656e6f6d696e61746f7200000000006064820152608401610c23565b600081848411156116d25760405162461bcd60e51b8152600401610c239190612584565b505050900390565b602554600090600160a01b900460ff161561175e5760255460405163090ec10b60e31b81526001600160a01b03868116600483015285811660248301526044820185905290911690634876085890606401600060405180830381600087803b15801561174557600080fd5b505af1158015611759573d6000803e3d6000fd5b505050505b602554600160a81b900460ff16156117825761177b848484611c0d565b9050610f75565b61178a611ce8565b1561179757611797611d3d565b61179f61213e565b156117ac576117ac6121a0565b6040805180820182526014815273496e73756666696369656e742042616c616e636560601b6020808301919091526001600160a01b038716600090815290805291909120546117fc9184906116ae565b6001600160a01b03851660009081526020808052604080832093909355602390529081205460ff161561182f578261183a565b61183a8585856121dc565b6001600160a01b038516600090815260208052604090205490915061185f90826115ef565b6001600160a01b038086166000908152602080805260408083209490945591881681526024909152205460ff1661190057601c546001600160a01b03868116600081815260208052604090819020549051630a5b654b60e11b8152600481019290925260248201529116906314b6ca9690604401600060405180830381600087803b1580156118ed57600080fd5b505af19250505080156118fe575060015b505b6001600160a01b03841660009081526024602052604090205460ff1661199057601c546001600160a01b03858116600081815260208052604090819020549051630a5b654b60e11b8152600481019290925260248201529116906314b6ca9690604401600060405180830381600087803b15801561197d57600080fd5b505af192505050801561198e575060015b505b601c54601d546040516001624d3b8760e01b031981526001600160a01b039092169163ffb2c479916119c89160040190815260200190565b600060405180830381600087803b1580156119e257600080fd5b505af19250505080156119f3575060015b50836001600160a01b0316856001600160a01b03167fddf252ad1be2c89b69c2b068fc378daa952ba7f163c4a11628f55a4df523b3ef83604051611a3991815260200190565b60405180910390a3506001949350505050565b6000610f7582846126af565b6000610f758284612690565b6000610f758284612670565b6025805460ff60a81b1916600160a81b1790556040805160028082526060820183526000926020830190803683375050600654604080516315ab88c960e31b815290519394506001600160a01b039091169263ad5c464892506004808301926020929190829003018186803b158015611ae857600080fd5b505afa158015611afc573d6000803e3d6000fd5b505050506040513d601f19601f82011682018060405250810190611b2091906122bf565b81600081518110611b4157634e487b7160e01b600052603260045260246000fd5b60200260200101906001600160a01b031690816001600160a01b0316815250503081600181518110611b8357634e487b7160e01b600052603260045260246000fd5b6001600160a01b03928316602091820292909201015260065460405163b6f9de9560e01b815291169063b6f9de95908590611bc99060009086908890429060040161254f565b6000604051808303818588803b158015611be257600080fd5b505af1158015611bf6573d6000803e3d6000fd5b50506025805460ff60a81b19169055505050505050565b6040805180820182526014815273496e73756666696369656e742042616c616e636560601b6020808301919091526001600160a01b038616600090815290805291822054611c5c9184906116ae565b6001600160a01b0380861660009081526020805260408082209390935590851681522054611c8a90836115ef565b6001600160a01b038481166000818152602080805260409182902094909455518581529092918716917fddf252ad1be2c89b69c2b068fc378daa952ba7f163c4a11628f55a4df523b3ef910160405180910390a35060019392505050565b6007546000906001600160a01b03163314801590611d105750602554600160a81b900460ff16155b8015611d1e5750601e5460ff165b8015610fe7575050601f54306000908152602080526040902054101590565b6025805460ff60a81b1916600160a81b179055601054601154600091611d6291610d8c565b611d6e57600a54611d71565b60005b90506000611d956002611284600e5461128486601f54611a5890919063ffffffff16565b90506000611dae82601f54611a4c90919063ffffffff16565b60408051600280825260608201835292935060009290916020830190803683370190505090503081600081518110611df657634e487b7160e01b600052603260045260246000fd5b6001600160a01b03928316602091820292909201810191909152600654604080516315ab88c960e31b81529051919093169263ad5c4648926004808301939192829003018186803b158015611e4a57600080fd5b505afa158015611e5e573d6000803e3d6000fd5b505050506040513d601f19601f82011682018060405250810190611e8291906122bf565b81600181518110611ea357634e487b7160e01b600052603260045260246000fd5b6001600160a01b03928316602091820292909201015260065460405163791ac94760e01b81524792919091169063791ac94790611eed90869060009087903090429060040161261c565b600060405180830381600087803b158015611f0757600080fd5b505af1158015611f1b573d6000803e3d6000fd5b505050506000611f348247611a4c90919063ffffffff16565b90506000611f4f611f46886002611a64565b600e5490611a4c565b90506000611f6460026112848481878d611a58565b90506000611f8183611284600c5487611a5890919063ffffffff16565b90506000611f9e84611284600d5488611a5890919063ffffffff16565b9050601c60009054906101000a90046001600160a01b03166001600160a01b031663d0e30db0836040518263ffffffff1660e01b81526004016000604051808303818588803b158015611ff057600080fd5b505af193505050508015612002575060015b506009546040516001600160a01b039091169082156108fc029083906000818181858888f1935050505015801561203d573d6000803e3d6000fd5b5088156121255760065460085460405163f305d71960e01b8152306004820152602481018c905260006044820181905260648201526001600160a01b0391821660848201524260a482015291169063f305d71990859060c4016060604051808303818588803b1580156120af57600080fd5b505af11580156120c3573d6000803e3d6000fd5b50505050506040513d601f19601f820116820180604052508101906120e891906124a5565b505060408051858152602081018c90527f424db2872186fa7e7afa7a5e902ed3b49a2ef19c2f5431e672462495dd6b450692500160405180910390a15b50506025805460ff60a81b191690555050505050505050565b6007546000906001600160a01b031633148015906121665750602554600160a81b900460ff16155b8015612174575060165460ff165b801561218f575043601a54601b5461218c9190612658565b11155b8015610fe757505060195447101590565b6121ae60195461dead611a70565b43601b556019546018546121c1916115ef565b601881905560175410156121da576016805460ff191690555b565b600f54600754600091829161220e919061128490612207906001600160a01b038981169116146113aa565b8690611a58565b30600090815260208052604090205490915061222a90826115ef565b3060008181526020808052604091829020939093555183815290916001600160a01b038816917fddf252ad1be2c89b69c2b068fc378daa952ba7f163c4a11628f55a4df523b3ef910160405180910390a36122858382611a4c565b95945050505050565b8035801515811461229e57600080fd5b919050565b6000602082840312156122b4578081fd5b8135610f7581612717565b6000602082840312156122d0578081fd5b8151610f7581612717565b600080604083850312156122ed578081fd5b82356122f881612717565b9150602083013561230881612717565b809150509250929050565b600080600060608486031215612327578081fd5b833561233281612717565b9250602084013561234281612717565b929592945050506040919091013590565b60008060408385031215612365578182fd5b823561237081612717565b915061237e6020840161228e565b90509250929050565b60008060408385031215612399578182fd5b82356123a481612717565b946020939093013593505050565b6000602082840312156123c3578081fd5b610f758261228e565b600080604083850312156123de578182fd5b6123a48361228e565b600080600080608085870312156123fc578081fd5b6124058561228e565b966020860135965060408601359560600135945092505050565b600060208284031215612430578081fd5b5035919050565b60008060408385031215612449578182fd5b8235915061237e6020840161228e565b6000806040838503121561246b578182fd5b50508035926020909101359150565b60008060006060848603121561248e578283fd5b505081359360208301359350604090920135919050565b6000806000606084860312156124b9578283fd5b8351925060208401519150604084015190509250925092565b600080600080600060a086880312156124e9578283fd5b505083359560208501359550604085013594606081013594506080013592509050565b6000815180845260208085019450808401835b838110156125445781516001600160a01b03168752958201959082019060010161251f565b509495945050505050565b848152608060208201526000612568608083018661250c565b6001600160a01b03949094166040830152506060015292915050565b6000602080835283518082850152825b818110156125b057858101830151858201604001528201612594565b818111156125c15783604083870101525b50601f01601f1916929092016040019392505050565b60208082526006908201526510a7aba722a960d11b604082015260600190565b6020808252600b908201526a085055551213d49256915160aa1b604082015260600190565b85815284602082015260a06040820152600061263b60a083018661250c565b6001600160a01b0394909416606083015250608001529392505050565b6000821982111561266b5761266b612701565b500190565b60008261268b57634e487b7160e01b81526012600452602481fd5b500490565b60008160001904831182151516156126aa576126aa612701565b500290565b6000828210156126c1576126c1612701565b500390565b600181811c908216806126da57607f821691505b602082108114156126fb57634e487b7160e01b600052602260045260246000fd5b50919050565b634e487b7160e01b600052601160045260246000fd5b6001600160a01b038116811461272c57600080fd5b5056fea26469706673582212201dda159f5a1b2f0564064730872dc805f6848246d64daf2cc22616f66bd14f6164736f6c6343000804003360806040523480156200001157600080fd5b50604051620012363803806200123683398101604081905262000034916200013f565b60008054336001600160a01b0319918216179091556001805482166001600160a01b0385811691821790925560028054909316918416919091179091556ec097ce7bc90715b34b9f1000000000600b55610e10600c556040805163313ce56760e01b8152905163313ce56791600480820192602092909190829003018186803b158015620000c157600080fd5b505afa158015620000d6573d6000803e3d6000fd5b505050506040513d601f19601f82011682018060405250810190620000fc919062000176565b6200010990600a620001e9565b62000116906001620002aa565b600d5550620002e29050565b80516001600160a01b03811681146200013a57600080fd5b919050565b6000806040838503121562000152578182fd5b6200015d8362000122565b91506200016d6020840162000122565b90509250929050565b60006020828403121562000188578081fd5b815160ff8116811462000199578182fd5b9392505050565b600181815b80851115620001e1578160001904821115620001c557620001c5620002cc565b80851615620001d357918102915b93841c9390800290620001a5565b509250929050565b60006200019960ff8416836000826200020557506001620002a4565b816200021457506000620002a4565b81600181146200022d5760028114620002385762000258565b6001915050620002a4565b60ff8411156200024c576200024c620002cc565b50506001821b620002a4565b5060208310610133831016604e8410600b84101617156200027d575081810a620002a4565b620002898383620001a0565b8060001904821115620002a057620002a0620002cc565b0290505b92915050565b6000816000190483118215151615620002c757620002c7620002cc565b500290565b634e487b7160e01b600052601160045260246000fd5b610f4480620002f26000396000f3fe60806040526004361061011f5760003560e01c8063d0e30db0116100a0578063f0fc6bca11610064578063f0fc6bca1461032e578063f7c618c114610343578063f887ea4014610363578063ffb2c47914610383578063ffd49c84146103a357600080fd5b8063d0e30db0146102ad578063d4fda1f2146102b5578063e2d2e219146102e2578063ecd0c0c3146102f8578063efca2eed1461031857600080fd5b80634fab0ae8116100e75780634fab0ae8146101c557806366817df5146101db578063997664d714610208578063ab377daa1461021e578063ce7c2ac21461025657600080fd5b806311ce023d1461012457806314b6ca961461014d57806328fd31981461016f5780632d48e8961461018f5780633a98ef39146101af575b600080fd5b34801561013057600080fd5b5061013a600b5481565b6040519081526020015b60405180910390f35b34801561015957600080fd5b5061016d610168366004610d55565b6103b9565b005b34801561017b57600080fd5b5061013a61018a366004610d1d565b610531565b34801561019b57600080fd5b5061016d6101aa366004610dd0565b6105ba565b3480156101bb57600080fd5b5061013a60075481565b3480156101d157600080fd5b5061013a600d5481565b3480156101e757600080fd5b5061013a6101f6366004610d1d565b60056020526000908152604090205481565b34801561021457600080fd5b5061013a60085481565b34801561022a57600080fd5b5061023e610239366004610da0565b6105dc565b6040516001600160a01b039091168152602001610144565b34801561026257600080fd5b50610292610271366004610d1d565b60066020526000908152604090208054600182015460029092015490919083565b60408051938452602084019290925290820152606001610144565b61016d610606565b3480156102c157600080fd5b5061013a6102d0366004610d1d565b60046020526000908152604090205481565b3480156102ee57600080fd5b5061013a600a5481565b34801561030457600080fd5b5060005461023e906001600160a01b031681565b34801561032457600080fd5b5061013a60095481565b34801561033a57600080fd5b5061016d6108de565b34801561034f57600080fd5b5060015461023e906001600160a01b031681565b34801561036f57600080fd5b5060025461023e906001600160a01b031681565b34801561038f57600080fd5b5061016d61039e366004610da0565b6108e9565b3480156103af57600080fd5b5061013a600c5481565b6000546001600160a01b031633146103d057600080fd5b6001600160a01b038216600090815260066020526040902054156103f7576103f782610a06565b60008111801561041d57506001600160a01b038216600090815260066020526040902054155b1561048357600380546001600160a01b0384166000818152600460205260408120839055600183018455929092527fc2575a0e9e593c00f959f8c92f12db2869c3395a3b0502d05e2516446f71f85b0180546001600160a01b03191690911790556104b6565b801580156104a857506001600160a01b03821660009081526006602052604090205415155b156104b6576104b682610b31565b6001600160a01b0382166000908152600660205260409020546007546104e79183916104e191610c7e565b90610c91565b6007556001600160a01b038216600090815260066020526040902081905561050e81610c9d565b6001600160a01b0390921660009081526006602052604090206001019190915550565b6001600160a01b03811660009081526006602052604081205461055657506000919050565b6001600160a01b03821660009081526006602052604081205461057890610c9d565b6001600160a01b0384166000908152600660205260409020600101549091508082116105a8575060009392505050565b6105b28282610c7e565b949350505050565b6000546001600160a01b031633146105d157600080fd5b600c91909155600d55565b600381815481106105ec57600080fd5b6000918252602090912001546001600160a01b0316905081565b6000546001600160a01b0316331461061d57600080fd5b6001546040516370a0823160e01b81523060048201526000916001600160a01b0316906370a082319060240160206040518083038186803b15801561066157600080fd5b505afa158015610675573d6000803e3d6000fd5b505050506040513d601f19601f820116820180604052508101906106999190610db8565b60408051600280825260608201835292935060009290916020830190803683375050600254604080516315ab88c960e31b815290519394506001600160a01b039091169263ad5c464892506004808301926020929190829003018186803b15801561070357600080fd5b505afa158015610717573d6000803e3d6000fd5b505050506040513d601f19601f8201168201806040525081019061073b9190610d39565b8160008151811061075c57634e487b7160e01b600052603260045260246000fd5b6001600160a01b039283166020918202929092010152600180548351921691839190811061079a57634e487b7160e01b600052603260045260246000fd5b6001600160a01b03928316602091820292909201015260025460405163b6f9de9560e01b815291169063b6f9de959034906107e090600090869030904290600401610df1565b6000604051808303818588803b1580156107f957600080fd5b505af115801561080d573d6000803e3d6000fd5b50506001546040516370a0823160e01b81523060048201526000945061089c93508692506001600160a01b03909116906370a082319060240160206040518083038186803b15801561085e57600080fd5b505afa158015610872573d6000803e3d6000fd5b505050506040513d601f19601f820116820180604052508101906108969190610db8565b90610c7e565b6008549091506108ac9082610c91565b600855600754600b546108d6916108cd916108c79085610cc0565b90610ccc565b600a5490610c91565b600a55505050565b6108e733610a06565b565b6000546001600160a01b0316331461090057600080fd5b6003548061090c575050565b6000805a905060005b848310801561092357508381105b156109fe5783600e5410610937576000600e555b6109776003600e548154811061095d57634e487b7160e01b600052603260045260246000fd5b6000918252602090912001546001600160a01b0316610cd8565b156109bc576109bc6003600e54815481106109a257634e487b7160e01b600052603260045260246000fd5b6000918252602090912001546001600160a01b0316610a06565b6109d16109ca5a8490610c7e565b8490610c91565b92505a600e805491935060006109e683610ec8565b919050555080806109f690610ec8565b915050610915565b505050505b50565b6001600160a01b038116600090815260066020526040902054610a265750565b6000610a3182610531565b90508015610b2d57600954610a469082610c91565b60095560015460405163a9059cbb60e01b81526001600160a01b038481166004830152602482018490529091169063a9059cbb90604401602060405180830381600087803b158015610a9757600080fd5b505af1158015610aab573d6000803e3d6000fd5b505050506040513d601f19601f82011682018060405250810190610acf9190610d80565b506001600160a01b03821660009081526005602090815260408083204290556006909152902060020154610b039082610c91565b6001600160a01b038316600090815260066020526040902060028101919091555461050e90610c9d565b5050565b60038054610b4190600190610eb1565b81548110610b5f57634e487b7160e01b600052603260045260246000fd5b60009182526020808320909101546001600160a01b0384811684526004909252604090922054600380549290931692918110610bab57634e487b7160e01b600052603260045260246000fd5b600091825260208083209190910180546001600160a01b0319166001600160a01b03948516179055918316815260049182905260408120546003805491939291610bf790600190610eb1565b81548110610c1557634e487b7160e01b600052603260045260246000fd5b60009182526020808320909101546001600160a01b031683528201929092526040019020556003805480610c5957634e487b7160e01b600052603160045260246000fd5b600082815260209020810160001990810180546001600160a01b031916905501905550565b6000610c8a8284610eb1565b9392505050565b6000610c8a8284610e5a565b6000610cba600b546108c7600a5485610cc090919063ffffffff16565b92915050565b6000610c8a8284610e92565b6000610c8a8284610e72565b600c546001600160a01b03821660009081526005602052604081205490914291610d029190610e5a565b108015610cba5750600d54610d1683610531565b1192915050565b600060208284031215610d2e578081fd5b8135610c8a81610ef9565b600060208284031215610d4a578081fd5b8151610c8a81610ef9565b60008060408385031215610d67578081fd5b8235610d7281610ef9565b946020939093013593505050565b600060208284031215610d91578081fd5b81518015158114610c8a578182fd5b600060208284031215610db1578081fd5b5035919050565b600060208284031215610dc9578081fd5b5051919050565b60008060408385031215610de2578182fd5b50508035926020909101359150565b600060808201868352602060808185015281875180845260a0860191508289019350845b81811015610e3a5784516001600160a01b031683529383019391830191600101610e15565b50506001600160a01b039690961660408501525050506060015292915050565b60008219821115610e6d57610e6d610ee3565b500190565b600082610e8d57634e487b7160e01b81526012600452602481fd5b500490565b6000816000190483118215151615610eac57610eac610ee3565b500290565b600082821015610ec357610ec3610ee3565b500390565b6000600019821415610edc57610edc610ee3565b5060010190565b634e487b7160e01b600052601160045260246000fd5b6001600160a01b0381168114610a0357600080fdfea264697066735822122079e87501499c04c9812ba0144f60683b30e2e3816f601895478e3c7eb97732d964736f6c63430008040033",
  "linkReferences": {},
  "deployedLinkReferences": {}
}