{
  "_format": "hh-sol-artifact-1",
  "contractName": "AntiBotStandardToken",
  "sourceName": "contracts/tokens/AntiBotStandardToken.sol",
  "abi": [
    {
      "inputs": [
        {
          "internalType": "string",
          "name": "name_",
          "type": "string"
        },
        {
          "internalType": "string",
          "name": "symbol_",
          "type": "string"
        },
        {
          "internalType": "uint8",
          "name": "decimals_",
          "type": "uint8"
        },
        {
          "internalType": "uint256",
          "name": "totalSupply_",
          "type": "uint256"
        },
        {
          "internalType": "address",
          "name": "pinkAntiBot_",
          "type": "address"
        },
        {
          "internalType": "address",
          "name": "serviceFeeReceiver_",
          "type": "address"
        },
        {
          "internalType": "uint256",
          "name": "serviceFee_",
          "type": "uint256"
        }
      ],
      "stateMutability": "payable",
      "type": "constructor"
    },
    {
      "anonymous": false,
      "inputs": [
        {
          "indexed": true,
          "internalType": "address",
          "name": "owner",
          "type": "address"
        },
        {
          "indexed": true,
          "internalType": "address",
          "name": "spender",
          "type": "address"
        },
        {
          "indexed": false,
          "internalType": "uint256",
          "name": "value",
          "type": "uint256"
        }
      ],
      "name": "Approval",
      "type": "event"
    },
    {
      "anonymous": false,
      "inputs": [
        {
          "indexed": true,
          "internalType": "address",
          "name": "previousOwner",
          "type": "address"
        },
        {
          "indexed": true,
          "internalType": "address",
          "name": "newOwner",
          "type": "address"
        }
      ],
      "name": "OwnershipTransferred",
      "type": "event"
    },
    {
      "anonymous": false,
      "inputs": [
        {
          "indexed": true,
          "internalType": "address",
          "name": "owner",
          "type": "address"
        },
        {
          "indexed": true,
          "internalType": "address",
          "name": "token",
          "type": "address"
        },
        {
          "indexed": false,
          "internalType": "enum TokenType",
          "name": "tokenType",
          "type": "uint8"
        },
        {
          "indexed": false,
          "internalType": "uint256",
          "name": "version",
          "type": "uint256"
        }
      ],
      "name": "TokenCreated",
      "type": "event"
    },
    {
      "anonymous": false,
      "inputs": [
        {
          "indexed": true,
          "internalType": "address",
          "name": "from",
          "type": "address"
        },
        {
          "indexed": true,
          "internalType": "address",
          "name": "to",
          "type": "address"
        },
        {
          "indexed": false,
          "internalType": "uint256",
          "name": "value",
          "type": "uint256"
        }
      ],
      "name": "Transfer",
      "type": "event"
    },
    {
      "inputs": [],
      "name": "VERSION",
      "outputs": [
        {
          "internalType": "uint256",
          "name": "",
          "type": "uint256"
        }
      ],
      "stateMutability": "view",
      "type": "function"
    },
    {
      "inputs": [
        {
          "internalType": "address",
          "name": "owner",
          "type": "address"
        },
        {
          "internalType": "address",
          "name": "spender",
          "type": "address"
        }
      ],
      "name": "allowance",
      "outputs": [
        {
          "internalType": "uint256",
          "name": "",
          "type": "uint256"
        }
      ],
      "stateMutability": "view",
      "type": "function"
    },
    {
      "inputs": [
        {
          "internalType": "address",
          "name": "spender",
          "type": "address"
        },
        {
          "internalType": "uint256",
          "name": "amount",
          "type": "uint256"
        }
      ],
      "name": "approve",
      "outputs": [
        {
          "internalType": "bool",
          "name": "",
          "type": "bool"
        }
      ],
      "stateMutability": "nonpayable",
      "type": "function"
    },
    {
      "inputs": [
        {
          "internalType": "address",
          "name": "account",
          "type": "address"
        }
      ],
      "name": "balanceOf",
      "outputs": [
        {
          "internalType": "uint256",
          "name": "",
          "type": "uint256"
        }
      ],
      "stateMutability": "view",
      "type": "function"
    },
    {
      "inputs": [],
      "name": "decimals",
      "outputs": [
        {
          "internalType": "uint8",
          "name": "",
          "type": "uint8"
        }
      ],
      "stateMutability": "view",
      "type": "function"
    },
    {
      "inputs": [
        {
          "internalType": "address",
          "name": "spender",
          "type": "address"
        },
        {
          "internalType": "uint256",
          "name": "subtractedValue",
          "type": "uint256"
        }
      ],
      "name": "decreaseAllowance",
      "outputs": [
        {
          "internalType": "bool",
          "name": "",
          "type": "bool"
        }
      ],
      "stateMutability": "nonpayable",
      "type": "function"
    },
    {
      "inputs": [],
      "name": "enableAntiBot",
      "outputs": [
        {
          "internalType": "bool",
          "name": "",
          "type": "bool"
        }
      ],
      "stateMutability": "view",
      "type": "function"
    },
    {
      "inputs": [
        {
          "internalType": "address",
          "name": "spender",
          "type": "address"
        },
        {
          "internalType": "uint256",
          "name": "addedValue",
          "type": "uint256"
        }
      ],
      "name": "increaseAllowance",
      "outputs": [
        {
          "internalType": "bool",
          "name": "",
          "type": "bool"
        }
      ],
      "stateMutability": "nonpayable",
      "type": "function"
    },
    {
      "inputs": [],
      "name": "name",
      "outputs": [
        {
          "internalType": "string",
          "name": "",
          "type": "string"
        }
      ],
      "stateMutability": "view",
      "type": "function"
    },
    {
      "inputs": [],
      "name": "owner",
      "outputs": [
        {
          "internalType": "address",
          "name": "",
          "type": "address"
        }
      ],
      "stateMutability": "view",
      "type": "function"
    },
    {
      "inputs": [],
      "name": "pinkAntiBot",
      "outputs": [
        {
          "internalType": "contract IPinkAntiBot",
          "name": "",
          "type": "address"
        }
      ],
      "stateMutability": "view",
      "type": "function"
    },
    {
      "inputs": [],
      "name": "renounceOwnership",
      "outputs": [],
      "stateMutability": "nonpayable",
      "type": "function"
    },
    {
      "inputs": [
        {
          "internalType": "bool",
          "name": "_enable",
          "type": "bool"
        }
      ],
      "name": "setEnableAntiBot",
      "outputs": [],
      "stateMutability": "nonpayable",
      "type": "function"
    },
    {
      "inputs": [],
      "name": "symbol",
      "outputs": [
        {
          "internalType": "string",
          "name": "",
          "type": "string"
        }
      ],
      "stateMutability": "view",
      "type": "function"
    },
    {
      "inputs": [],
      "name": "totalSupply",
      "outputs": [
        {
          "internalType": "uint256",
          "name": "",
          "type": "uint256"
        }
      ],
      "stateMutability": "view",
      "type": "function"
    },
    {
      "inputs": [
        {
          "internalType": "address",
          "name": "recipient",
          "type": "address"
        },
        {
          "internalType": "uint256",
          "name": "amount",
          "type": "uint256"
        }
      ],
      "name": "transfer",
      "outputs": [
        {
          "internalType": "bool",
          "name": "",
          "type": "bool"
        }
      ],
      "stateMutability": "nonpayable",
      "type": "function"
    },
    {
      "inputs": [
        {
          "internalType": "address",
          "name": "sender",
          "type": "address"
        },
        {
          "internalType": "address",
          "name": "recipient",
          "type": "address"
        },
        {
          "internalType": "uint256",
          "name": "amount",
          "type": "uint256"
        }
      ],
      "name": "transferFrom",
      "outputs": [
        {
          "internalType": "bool",
          "name": "",
          "type": "bool"
        }
      ],
      "stateMutability": "nonpayable",
      "type": "function"
    },
    {
      "inputs": [
        {
          "internalType": "address",
          "name": "newOwner",
          "type": "address"
        }
      ],
      "name": "transferOwnership",
      "outputs": [],
      "stateMutability": "nonpayable",
      "type": "function"
    }
  ],
  "bytecode": "0x6080604052604051620011ec380380620011ec8339810160408190526200002691620004b2565b6200003133620001cd565b8651620000469060039060208a01906200033c565b5085516200005c9060049060208901906200033c565b506005805460ff191660ff87161790556200008a620000836000546001600160a01b031690565b856200021d565b600780546001600160a01b0319166001600160a01b0385169081179091556318e02bd9620000c06000546001600160a01b031690565b6040516001600160e01b031960e084901b1681526001600160a01b039091166004820152602401600060405180830381600087803b1580156200010257600080fd5b505af115801562000117573d6000803e3d6000fd5b50506007805460ff60a01b1916600160a01b17905550309050620001436000546001600160a01b031690565b6001600160a01b03167f56358b41df5fa59f5639228f0930994cbdde383c8a8fd74e06c04e1deebe3562600180604051620001809291906200056b565b60405180910390a36040516001600160a01b0383169082156108fc029083906000818181858888f19350505050158015620001bf573d6000803e3d6000fd5b505050505050505062000610565b600080546001600160a01b038381166001600160a01b0319831681178455604051919092169283917f8be0079c531659141344cd1fd0a4f28419497f9722a3daafe3b4186f6b6457e09190a35050565b6001600160a01b038216620002785760405162461bcd60e51b815260206004820152601f60248201527f45524332303a206d696e7420746f20746865207a65726f206164647265737300604482015260640160405180910390fd5b62000294816006546200032760201b620005951790919060201c565b6006556001600160a01b038216600090815260016020908152604090912054620002c99183906200059562000327821b17901c565b6001600160a01b0383166000818152600160205260408082209390935591519091907fddf252ad1be2c89b69c2b068fc378daa952ba7f163c4a11628f55a4df523b3ef906200031b9085815260200190565b60405180910390a35050565b600062000335828462000598565b9392505050565b8280546200034a90620005bd565b90600052602060002090601f0160209004810192826200036e5760008555620003b9565b82601f106200038957805160ff1916838001178555620003b9565b82800160010185558215620003b9579182015b82811115620003b95782518255916020019190600101906200039c565b50620003c7929150620003cb565b5090565b5b80821115620003c75760008155600101620003cc565b80516001600160a01b0381168114620003fa57600080fd5b919050565b600082601f83011262000410578081fd5b81516001600160401b03808211156200042d576200042d620005fa565b604051601f8301601f19908116603f01168101908282118183101715620004585762000458620005fa565b8160405283815260209250868385880101111562000474578485fd5b8491505b8382101562000497578582018301518183018401529082019062000478565b83821115620004a857848385830101525b9695505050505050565b600080600080600080600060e0888a031215620004cd578283fd5b87516001600160401b0380821115620004e4578485fd5b620004f28b838c01620003ff565b985060208a015191508082111562000508578485fd5b50620005178a828b01620003ff565b965050604088015160ff811681146200052e578384fd5b606089015190955093506200054660808901620003e2565b92506200055660a08901620003e2565b915060c0880151905092959891949750929550565b60408101600884106200058e57634e487b7160e01b600052602160045260246000fd5b9281526020015290565b60008219821115620005b857634e487b7160e01b81526011600452602481fd5b500190565b600181811c90821680620005d257607f821691505b60208210811415620005f457634e487b7160e01b600052602260045260246000fd5b50919050565b634e487b7160e01b600052604160045260246000fd5b610bcc80620006206000396000f3fe608060405234801561001057600080fd5b50600436106101165760003560e01c806370a08231116100a2578063a457c2d711610071578063a457c2d714610247578063a9059cbb1461025a578063dd62ed3e1461026d578063f2fde38b146102a6578063ffa1ad74146102b957600080fd5b806370a08231146101fd578063715018a6146102265780638da5cb5b1461022e57806395d89b411461023f57600080fd5b806323b872dd116100e957806323b872dd14610183578063241ec3be14610196578063313ce567146101aa57806339509351146101bf578063407133d2146101d257600080fd5b806306fdde031461011b578063095ea7b31461013957806318160ddd1461015c5780631f46b1c61461016e575b600080fd5b6101236102c1565b6040516101309190610a3c565b60405180910390f35b61014c6101473660046109f3565b610353565b6040519015158152602001610130565b6006545b604051908152602001610130565b61018161017c366004610a1c565b610369565b005b61014c6101913660046109b8565b6103ba565b60075461014c90600160a01b900460ff1681565b60055460405160ff9091168152602001610130565b61014c6101cd3660046109f3565b610423565b6007546101e5906001600160a01b031681565b6040516001600160a01b039091168152602001610130565b61016061020b36600461096c565b6001600160a01b031660009081526001602052604090205490565b610181610459565b6000546001600160a01b03166101e5565b61012361048f565b61014c6102553660046109f3565b61049e565b61014c6102683660046109f3565b6104ed565b61016061027b366004610986565b6001600160a01b03918216600090815260026020908152604080832093909416825291909152205490565b6101816102b436600461096c565b6104fa565b610160600181565b6060600380546102d090610ae8565b80601f01602080910402602001604051908101604052809291908181526020018280546102fc90610ae8565b80156103495780601f1061031e57610100808354040283529160200191610349565b820191906000526020600020905b81548152906001019060200180831161032c57829003601f168201915b5050505050905090565b60006103603384846105a8565b50600192915050565b6000546001600160a01b0316331461039c5760405162461bcd60e51b815260040161039390610a8f565b60405180910390fd5b60078054911515600160a01b0260ff60a01b19909216919091179055565b60006103c78484846106cd565b610419843361041485604051806060016040528060288152602001610b4a602891396001600160a01b038a16600090815260026020908152604080832033845290915290205491906108d4565b6105a8565b5060019392505050565b3360008181526002602090815260408083206001600160a01b038716845290915281205490916103609185906104149086610595565b6000546001600160a01b031633146104835760405162461bcd60e51b815260040161039390610a8f565b61048d6000610900565b565b6060600480546102d090610ae8565b6000610360338461041485604051806060016040528060258152602001610b72602591393360009081526002602090815260408083206001600160a01b038d16845290915290205491906108d4565b60006103603384846106cd565b6000546001600160a01b031633146105245760405162461bcd60e51b815260040161039390610a8f565b6001600160a01b0381166105895760405162461bcd60e51b815260206004820152602660248201527f4f776e61626c653a206e6577206f776e657220697320746865207a65726f206160448201526564647265737360d01b6064820152608401610393565b61059281610900565b50565b60006105a18284610ac4565b9392505050565b6001600160a01b03831661060a5760405162461bcd60e51b8152602060048201526024808201527f45524332303a20617070726f76652066726f6d20746865207a65726f206164646044820152637265737360e01b6064820152608401610393565b6001600160a01b03821661066b5760405162461bcd60e51b815260206004820152602260248201527f45524332303a20617070726f766520746f20746865207a65726f206164647265604482015261737360f01b6064820152608401610393565b6001600160a01b0383811660008181526002602090815260408083209487168084529482529182902085905590518481527f8c5be1e5ebec7d5bd14f71427d1e84f3dd0314c0f7b2291e5b200ac8c7c3b92591015b60405180910390a3505050565b6001600160a01b0383166107315760405162461bcd60e51b815260206004820152602560248201527f45524332303a207472616e736665722066726f6d20746865207a65726f206164604482015264647265737360d81b6064820152608401610393565b6001600160a01b0382166107935760405162461bcd60e51b815260206004820152602360248201527f45524332303a207472616e7366657220746f20746865207a65726f206164647260448201526265737360e81b6064820152608401610393565b600754600160a01b900460ff16156108145760075460405163090ec10b60e31b81526001600160a01b03858116600483015284811660248301526044820184905290911690634876085890606401600060405180830381600087803b1580156107fb57600080fd5b505af115801561080f573d6000803e3d6000fd5b505050505b61085181604051806060016040528060268152602001610b24602691396001600160a01b03861660009081526001602052604090205491906108d4565b6001600160a01b0380851660009081526001602052604080822093909355908416815220546108809082610595565b6001600160a01b0380841660008181526001602052604090819020939093559151908516907fddf252ad1be2c89b69c2b068fc378daa952ba7f163c4a11628f55a4df523b3ef906106c09085815260200190565b600081848411156108f85760405162461bcd60e51b81526004016103939190610a3c565b505050900390565b600080546001600160a01b038381166001600160a01b0319831681178455604051919092169283917f8be0079c531659141344cd1fd0a4f28419497f9722a3daafe3b4186f6b6457e09190a35050565b80356001600160a01b038116811461096757600080fd5b919050565b60006020828403121561097d578081fd5b6105a182610950565b60008060408385031215610998578081fd5b6109a183610950565b91506109af60208401610950565b90509250929050565b6000806000606084860312156109cc578081fd5b6109d584610950565b92506109e360208501610950565b9150604084013590509250925092565b60008060408385031215610a05578182fd5b610a0e83610950565b946020939093013593505050565b600060208284031215610a2d578081fd5b813580151581146105a1578182fd5b6000602080835283518082850152825b81811015610a6857858101830151858201604001528201610a4c565b81811115610a795783604083870101525b50601f01601f1916929092016040019392505050565b6020808252818101527f4f776e61626c653a2063616c6c6572206973206e6f7420746865206f776e6572604082015260600190565b60008219821115610ae357634e487b7160e01b81526011600452602481fd5b500190565b600181811c90821680610afc57607f821691505b60208210811415610b1d57634e487b7160e01b600052602260045260246000fd5b5091905056fe45524332303a207472616e7366657220616d6f756e7420657863656564732062616c616e636545524332303a207472616e7366657220616d6f756e74206578636565647320616c6c6f77616e636545524332303a2064656372656173656420616c6c6f77616e63652062656c6f77207a65726fa2646970667358221220e1fd4d155adf866ceccf55aeba8bf38f29c8bc538d9d63502e3deffce3316c5464736f6c63430008040033",
  "linkReferences": {},
  "deployedLinkReferences": {}
}