{
  "_format": "hh-sol-artifact-1",
  "contractName": "BabyTokenFactory",
  "sourceName": "contracts/factories/token/BabyTokenFactory.sol",
  "abi": [
    {
      "inputs": [],
      "stateMutability": "nonpayable",
      "type": "constructor"
    },
    {
      "anonymous": false,
      "inputs": [
        {
          "indexed": true,
          "internalType": "address",
          "name": "previousOwner",
          "type": "address"
        },
        {
          "indexed": true,
          "internalType": "address",
          "name": "newOwner",
          "type": "address"
        }
      ],
      "name": "OwnershipTransferred",
      "type": "event"
    },
    {
      "inputs": [
        {
          "internalType": "string",
          "name": "name_",
          "type": "string"
        },
        {
          "internalType": "string",
          "name": "symbol_",
          "type": "string"
        },
        {
          "internalType": "uint256",
          "name": "totalSupply_",
          "type": "uint256"
        },
        {
          "internalType": "address[4]",
          "name": "addrs",
          "type": "address[4]"
        },
        {
          "internalType": "uint256[3]",
          "name": "feeSettings",
          "type": "uint256[3]"
        },
        {
          "internalType": "uint256",
          "name": "minimumTokenBalanceForDividends_",
          "type": "uint256"
        }
      ],
      "name": "create",
      "outputs": [
        {
          "internalType": "address",
          "name": "",
          "type": "address"
        }
      ],
      "stateMutability": "payable",
      "type": "function"
    },
    {
      "inputs": [],
      "name": "feeTo",
      "outputs": [
        {
          "internalType": "address",
          "name": "",
          "type": "address"
        }
      ],
      "stateMutability": "view",
      "type": "function"
    },
    {
      "inputs": [],
      "name": "flatFee",
      "outputs": [
        {
          "internalType": "uint256",
          "name": "",
          "type": "uint256"
        }
      ],
      "stateMutability": "view",
      "type": "function"
    },
    {
      "inputs": [],
      "name": "getFeeTo",
      "outputs": [
        {
          "internalType": "address",
          "name": "",
          "type": "address"
        }
      ],
      "stateMutability": "view",
      "type": "function"
    },
    {
      "inputs": [],
      "name": "getFlatFee",
      "outputs": [
        {
          "internalType": "uint256",
          "name": "",
          "type": "uint256"
        }
      ],
      "stateMutability": "view",
      "type": "function"
    },
    {
      "inputs": [],
      "name": "owner",
      "outputs": [
        {
          "internalType": "address",
          "name": "",
          "type": "address"
        }
      ],
      "stateMutability": "view",
      "type": "function"
    },
    {
      "inputs": [],
      "name": "renounceOwnership",
      "outputs": [],
      "stateMutability": "nonpayable",
      "type": "function"
    },
    {
      "inputs": [
        {
          "internalType": "address",
          "name": "feeReceivingAddress",
          "type": "address"
        }
      ],
      "name": "setFeeTo",
      "outputs": [],
      "stateMutability": "nonpayable",
      "type": "function"
    },
    {
      "inputs": [
        {
          "internalType": "uint256",
          "name": "fee",
          "type": "uint256"
        }
      ],
      "name": "setFlatFee",
      "outputs": [],
      "stateMutability": "nonpayable",
      "type": "function"
    },
    {
      "inputs": [
        {
          "internalType": "address",
          "name": "newOwner",
          "type": "address"
        }
      ],
      "name": "transferOwnership",
      "outputs": [],
      "stateMutability": "nonpayable",
      "type": "function"
    }
  ],
  "bytecode": "0x608060405234801561001057600080fd5b5061001a3361003c565b600180546001600160a01b03191633179055662386f26fc1000060025561008c565b600080546001600160a01b038381166001600160a01b0319831681178455604051919092169283917f8be0079c531659141344cd1fd0a4f28419497f9722a3daafe3b4186f6b6457e09190a35050565b6150838061009b6000396000f3fe6080604052600436106200009d5760003560e01c80638da5cb5b11620000605780638da5cb5b1462000161578063d3623c9c1462000181578063d9eb59471462000198578063f2fde38b14620001b0578063f46901ed14620001d557600080fd5b8063017e7e5814620000a257806323fa495a14620000e15780636611f5281462000108578063715018a614620001285780638a601fc81462000140575b600080fd5b348015620000af57600080fd5b50600154620000c4906001600160a01b031681565b6040516001600160a01b0390911681526020015b60405180910390f35b348015620000ee57600080fd5b50620001066200010036600462000617565b620001fa565b005b3480156200011557600080fd5b506001546001600160a01b0316620000c4565b3480156200013557600080fd5b506200010662000235565b3480156200014d57600080fd5b506002545b604051908152602001620000d8565b3480156200016e57600080fd5b506000546001600160a01b0316620000c4565b620000c4620001923660046200079a565b62000270565b348015620001a557600080fd5b506200015260025481565b348015620001bd57600080fd5b5062000106620001cf36600462000889565b62000361565b348015620001e257600080fd5b5062000106620001f436600462000889565b62000403565b6000546001600160a01b03163314620002305760405162461bcd60e51b81526004016200022790620008a7565b60405180910390fd5b600255565b6000546001600160a01b03163314620002625760405162461bcd60e51b81526004016200022790620008a7565b6200026e600062000452565b565b6000600254341015620002b15760405162461bcd60e51b8152602060048201526008602482015267466c61742066656560c01b604482015260640162000227565b620002bb620004a2565b60008787620002d388670de0b6b3a7640000620008f2565b87878733604051620002e59062000609565b620002f7979695949392919062000964565b604051809103906000f08015801562000314573d6000803e3d6000fd5b506001546002546040519293506001600160a01b039091169181156108fc0291906000818181858888f1935050505015801562000355573d6000803e3d6000fd5b50979650505050505050565b6000546001600160a01b031633146200038e5760405162461bcd60e51b81526004016200022790620008a7565b6001600160a01b038116620003f55760405162461bcd60e51b815260206004820152602660248201527f4f776e61626c653a206e6577206f776e657220697320746865207a65726f206160448201526564647265737360d01b606482015260840162000227565b620004008162000452565b50565b6000546001600160a01b03163314620004305760405162461bcd60e51b81526004016200022790620008a7565b600180546001600160a01b0319166001600160a01b0392909216919091179055565b600080546001600160a01b038381166001600160a01b0319831681178455604051919092169283917f8be0079c531659141344cd1fd0a4f28419497f9722a3daafe3b4186f6b6457e09190a35050565b6000620004bb60025434620004d090919063ffffffff16565b905080156200040057620004003382620004e5565b6000620004de828462000a24565b9392505050565b80471015620005375760405162461bcd60e51b815260206004820152601d60248201527f416464726573733a20696e73756666696369656e742062616c616e6365000000604482015260640162000227565b6000826001600160a01b03168260405160006040518083038185875af1925050503d806000811462000586576040519150601f19603f3d011682016040523d82523d6000602084013e6200058b565b606091505b5050905080620006045760405162461bcd60e51b815260206004820152603a60248201527f416464726573733a20756e61626c6520746f2073656e642076616c75652c207260448201527f6563697069656e74206d61792068617665207265766572746564000000000000606482015260840162000227565b505050565b61460f8062000a3f83390190565b6000602082840312156200062a57600080fd5b5035919050565b634e487b7160e01b600052604160045260246000fd5b6040516080810167ffffffffffffffff811182821017156200066d576200066d62000631565b60405290565b600082601f8301126200068557600080fd5b813567ffffffffffffffff80821115620006a357620006a362000631565b604051601f8301601f19908116603f01168101908282118183101715620006ce57620006ce62000631565b81604052838152866020858801011115620006e857600080fd5b836020870160208301376000602085830101528094505050505092915050565b80356001600160a01b03811681146200072057600080fd5b919050565b600082601f8301126200073757600080fd5b6040516060810181811067ffffffffffffffff821117156200075d576200075d62000631565b6040528060608401858111156200077357600080fd5b845b818110156200078f57803583526020928301920162000775565b509195945050505050565b6000806000806000806101608789031215620007b557600080fd5b863567ffffffffffffffff80821115620007ce57600080fd5b620007dc8a838b0162000673565b9750602091508189013581811115620007f457600080fd5b620008028b828c0162000673565b975050506040880135945088607f8901126200081d57600080fd5b6200082762000647565b8060e08a018b8111156200083a57600080fd5b60608b015b818110156200086157620008538162000708565b84529284019284016200083f565b50819650620008718c8262000725565b95505050505061014087013590509295509295509295565b6000602082840312156200089c57600080fd5b620004de8262000708565b6020808252818101527f4f776e61626c653a2063616c6c6572206973206e6f7420746865206f776e6572604082015260600190565b634e487b7160e01b600052601160045260246000fd5b60008160001904831182151516156200090f576200090f620008dc565b500290565b6000815180845260005b818110156200093c576020818501810151868301820152016200091e565b818111156200094f576000602083870101525b50601f01601f19169290920160200192915050565b60006101808083526200097a8184018b62000914565b905060208382038185015262000991828b62000914565b92508860408501526060840191508760005b6004811015620009cb5781516001600160a01b031684529282019290820190600101620009a3565b505060e0840191508660005b6003811015620009f657815184529282019290820190600101620009d7565b505050508361014083015262000a186101608301846001600160a01b03169052565b98975050505050505050565b60008282101562000a395762000a39620008dc565b50039056fe60806040526040516200460f3803806200460f833981016040819052620000269162000eb1565b8651879087906200003f90600390602085019062000c76565b5080516200005590600490602084019062000c76565b505050620000726200006c620006eb60201b60201c565b620006ef565b8351600980546001600160a01b039283166001600160a01b0319918216179091556040860151600f80549184169190921681179091559082161415620001155760405162461bcd60e51b815260206004820152602d60248201527f4f776e657220616e64206d61726b6574696e672077616c6c65742063616e6e6f60448201526c74206265207468652073616d6560981b60648201526084015b60405180910390fd5b8251600b819055602080850151600c8190556040860151600d819055620001619390926200014d929062001f4e62000741821b17901c565b6200074160201b62001f4e1790919060201c565b600e81905560191015620001b85760405162461bcd60e51b815260206004820152601560248201527f546f74616c20666565206973206f76657220323525000000000000000000000060448201526064016200010c565b620001ef620f4240620001db6002886200075660201b62001f611790919060201c565b6200076460201b62001f6d1790919060201c565b600a55620493e06010556200021684600360200201516200077260201b62001f791760201c565b600880546001600160a01b0319166001600160a01b0392831690811790915560095460405163cd6dc68760e01b815292166004830152602482018490529063cd6dc68790604401600060405180830381600087803b1580156200027857600080fd5b505af11580156200028d573d6000803e3d6000fd5b50505050600084600160048110620002a957620002a962000fb4565b602002015190506000816001600160a01b031663c45a01556040518163ffffffff1660e01b8152600401602060405180830381865afa158015620002f1573d6000803e3d6000fd5b505050506040513d601f19601f8201168201806040525081019062000317919062000fca565b6001600160a01b031663c9c6539630846001600160a01b031663ad5c46486040518163ffffffff1660e01b8152600401602060405180830381865afa15801562000365573d6000803e3d6000fd5b505050506040513d601f19601f820116820180604052508101906200038b919062000fca565b6040516001600160e01b031960e085901b1681526001600160a01b039283166004820152911660248201526044016020604051808303816000875af1158015620003d9573d6000803e3d6000fd5b505050506040513d601f19601f82011682018060405250810190620003ff919062000fca565b600680546001600160a01b038086166001600160a01b031992831617909255600780549284169290911691909117905590506200043e81600162000821565b60085460405163031e79db60e41b81526001600160a01b0390911660048201819052906331e79db090602401600060405180830381600087803b1580156200048557600080fd5b505af11580156200049a573d6000803e3d6000fd5b505060085460405163031e79db60e41b81523060048201526001600160a01b0390911692506331e79db09150602401600060405180830381600087803b158015620004e457600080fd5b505af1158015620004f9573d6000803e3d6000fd5b505060085460405163031e79db60e41b81526001600160a01b03878116600483015290911692506331e79db09150602401600060405180830381600087803b1580156200054557600080fd5b505af11580156200055a573d6000803e3d6000fd5b505060085460405163031e79db60e41b815261dead60048201526001600160a01b0390911692506331e79db09150602401600060405180830381600087803b158015620005a657600080fd5b505af1158015620005bb573d6000803e3d6000fd5b505060085460405163031e79db60e41b81526001600160a01b03868116600483015290911692506331e79db09150602401600060405180830381600087803b1580156200060757600080fd5b505af11580156200061c573d6000803e3d6000fd5b50505050620006338360016200099060201b60201c565b600f546200064c906001600160a01b0316600162000990565b6200065930600162000990565b620006648362000ad1565b620006826200067b6005546001600160a01b031690565b8862000b91565b30620006966005546001600160a01b031690565b6001600160a01b03167f56358b41df5fa59f5639228f0930994cbdde383c8a8fd74e06c04e1deebe356260046001604051620006d492919062000fe8565b60405180910390a3505050505050505050620010c8565b3390565b600580546001600160a01b038381166001600160a01b0319831681179093556040519116919082907f8be0079c531659141344cd1fd0a4f28419497f9722a3daafe3b4186f6b6457e090600090a35050565b60006200074f82846200102b565b9392505050565b60006200074f828462001046565b60006200074f828462001068565b60006040517f3d602d80600a3d3981f3363d3d373d3d3d363d7300000000000000000000000081528260601b60148201526e5af43d82803e903d91602b57fd5bf360881b60288201526037816000f09150506001600160a01b0381166200081c5760405162461bcd60e51b815260206004820152601660248201527f455243313136373a20637265617465206661696c65640000000000000000000060448201526064016200010c565b919050565b6001600160a01b03821660009081526012602052604090205460ff1615158115151415620008c45760405162461bcd60e51b815260206004820152604360248201527f42414259544f4b454e3a204175746f6d61746564206d61726b6574206d616b6560448201527f72207061697220697320616c72656164792073657420746f20746861742076616064820152626c756560e81b608482015260a4016200010c565b6001600160a01b0382166000908152601260205260409020805460ff19168215801591909117909155620009545760085460405163031e79db60e41b81526001600160a01b038481166004830152909116906331e79db090602401600060405180830381600087803b1580156200093a57600080fd5b505af11580156200094f573d6000803e3d6000fd5b505050505b604051811515906001600160a01b038416907fffa9187bf1f18bf477bd0ea1bcbb64e93b6a98132473929edfce215cd9b16fab90600090a35050565b6005546001600160a01b03163314620009db5760405162461bcd60e51b81526020600482018190526024820152600080516020620045ef83398151915260448201526064016200010c565b6001600160a01b03821660009081526011602052604090205460ff161515811515141562000a725760405162461bcd60e51b815260206004820152603560248201527f42414259544f4b454e3a204163636f756e7420697320616c726561647920746860448201527f652076616c7565206f6620276578636c7564656427000000000000000000000060648201526084016200010c565b6001600160a01b038216600081815260116020908152604091829020805460ff191685151590811790915591519182527f9d8f7706ea1113d1a167b526eca956215946dd36cc7df39eb16180222d8b5df7910160405180910390a25050565b6005546001600160a01b0316331462000b1c5760405162461bcd60e51b81526020600482018190526024820152600080516020620045ef83398151915260448201526064016200010c565b6001600160a01b03811662000b835760405162461bcd60e51b815260206004820152602660248201527f4f776e61626c653a206e6577206f776e657220697320746865207a65726f206160448201526564647265737360d01b60648201526084016200010c565b62000b8e81620006ef565b50565b6001600160a01b03821662000be95760405162461bcd60e51b815260206004820152601f60248201527f45524332303a206d696e7420746f20746865207a65726f20616464726573730060448201526064016200010c565b806002600082825462000bfd91906200102b565b90915550506001600160a01b0382166000908152602081905260408120805483929062000c2c9084906200102b565b90915550506040518181526001600160a01b038316906000907fddf252ad1be2c89b69c2b068fc378daa952ba7f163c4a11628f55a4df523b3ef9060200160405180910390a35050565b82805462000c84906200108b565b90600052602060002090601f01602090048101928262000ca8576000855562000cf3565b82601f1062000cc357805160ff191683800117855562000cf3565b8280016001018555821562000cf3579182015b8281111562000cf357825182559160200191906001019062000cd6565b5062000d0192915062000d05565b5090565b5b8082111562000d01576000815560010162000d06565b634e487b7160e01b600052604160045260246000fd5b604051608081016001600160401b038111828210171562000d575762000d5762000d1c565b60405290565b604051601f8201601f191681016001600160401b038111828210171562000d885762000d8862000d1c565b604052919050565b600082601f83011262000da257600080fd5b81516001600160401b0381111562000dbe5762000dbe62000d1c565b602062000dd4601f8301601f1916820162000d5d565b828152858284870101111562000de957600080fd5b60005b8381101562000e0957858101830151828201840152820162000dec565b8381111562000e1b5760008385840101525b5095945050505050565b80516001600160a01b03811681146200081c57600080fd5b600082601f83011262000e4f57600080fd5b604051606081016001600160401b038111828210171562000e745762000e7462000d1c565b60405280606084018581111562000e8a57600080fd5b845b8181101562000ea657805183526020928301920162000e8c565b509195945050505050565b6000806000806000806000610180888a03121562000ece57600080fd5b87516001600160401b038082111562000ee657600080fd5b62000ef48b838c0162000d90565b985060209150818a01518181111562000f0c57600080fd5b62000f1a8c828d0162000d90565b985050506040890151955089607f8a011262000f3557600080fd5b62000f3f62000d32565b8060e08b018c81111562000f5257600080fd5b60608c015b8181101562000f795762000f6b8162000e25565b845292840192840162000f57565b5081975062000f898d8262000e3d565b965050505050610140880151915062000fa6610160890162000e25565b905092959891949750929550565b634e487b7160e01b600052603260045260246000fd5b60006020828403121562000fdd57600080fd5b6200074f8262000e25565b60408101600884106200100b57634e487b7160e01b600052602160045260246000fd5b9281526020015290565b634e487b7160e01b600052601160045260246000fd5b6000821982111562001041576200104162001015565b500190565b600081600019048311821515161562001063576200106362001015565b500290565b6000826200108657634e487b7160e01b600052601260045260246000fd5b500490565b600181811c90821680620010a057607f821691505b60208210811415620010c257634e487b7160e01b600052602260045260246000fd5b50919050565b61351780620010d86000396000f3fe6080604052600436106103395760003560e01c806388bdd9be116101ab578063b62496f5116100f7578063e708a0f911610095578063f27fd2541161006f578063f27fd254146109cd578063f2fde38b146109ed578063f7c618c114610a0d578063ffa1ad7414610a2d57600080fd5b8063e708a0f914610982578063e7841ec014610998578063e98030c7146109ad57600080fd5b8063c492f046116100d1578063c492f046146108e6578063c705c56914610906578063dd62ed3e14610926578063e2f456051461096c57600080fd5b8063b62496f514610881578063bdd4f29f146108b1578063c0246668146108c657600080fd5b8063a26579ad11610164578063a9059cbb1161013e578063a9059cbb146107bc578063ad56c13c146107dc578063adefd90c14610841578063afa4f3b21461086157600080fd5b8063a26579ad14610767578063a457c2d71461077c578063a8b9d2401461079c57600080fd5b806388bdd9be146106c85780638da5cb5b146106e857806395d89b411461070657806398118cb41461071b5780639a7a23d6146107315780639c1b8af51461075157600080fd5b806349bd5a5e1161028557806365b8dbc011610223578063700bb191116101fd578063700bb1911461063d57806370a082311461065d578063715018a614610693578063871c128d146106a857600080fd5b806365b8dbc0146105e75780636843cd84146106075780636b67c4df1461062757600080fd5b80634fbee1931161025f5780634fbee193146105595780635d098b3814610592578063625e764c146105b257806364b0f653146105d257600080fd5b806349bd5a5e146105045780634e71d92d146105245780634ed080c71461053957600080fd5b806323b872dd116102f2578063313ce567116102cc578063313ce5671461048857806331e79db0146104a457806339509351146104c45780634144d9e4146104e457600080fd5b806323b872dd146104335780632c1f52161461045357806330bb4cff1461047357600080fd5b806306fdde0314610345578063095ea7b3146103705780630dcb2e89146103a057806313114a9d146103c25780631694505e146103e657806318160ddd1461041e57600080fd5b3661034057005b600080fd5b34801561035157600080fd5b5061035a610a42565b6040516103679190612f75565b60405180910390f35b34801561037c57600080fd5b5061039061038b366004612fdf565b610ad4565b6040519015158152602001610367565b3480156103ac57600080fd5b506103c06103bb36600461300b565b610aea565b005b3480156103ce57600080fd5b506103d8600e5481565b604051908152602001610367565b3480156103f257600080fd5b50600654610406906001600160a01b031681565b6040516001600160a01b039091168152602001610367565b34801561042a57600080fd5b506002546103d8565b34801561043f57600080fd5b5061039061044e366004613024565b610b7f565b34801561045f57600080fd5b50600854610406906001600160a01b031681565b34801561047f57600080fd5b506103d8610c29565b34801561049457600080fd5b5060405160128152602001610367565b3480156104b057600080fd5b506103c06104bf366004613065565b610c9c565b3480156104d057600080fd5b506103906104df366004612fdf565b610cf8565b3480156104f057600080fd5b50600f54610406906001600160a01b031681565b34801561051057600080fd5b50600754610406906001600160a01b031681565b34801561053057600080fd5b506103c0610d34565b34801561054557600080fd5b506103c061055436600461300b565b610dac565b34801561056557600080fd5b50610390610574366004613065565b6001600160a01b031660009081526011602052604090205460ff1690565b34801561059e57600080fd5b506103c06105ad366004613065565b610e44565b3480156105be57600080fd5b506103c06105cd36600461300b565b610e90565b3480156105de57600080fd5b506103d8610ed4565b3480156105f357600080fd5b506103c0610602366004613065565b610f1e565b34801561061357600080fd5b506103d8610622366004613065565b611193565b34801561063357600080fd5b506103d8600d5481565b34801561064957600080fd5b506103c061065836600461300b565b611209565b34801561066957600080fd5b506103d8610678366004613065565b6001600160a01b031660009081526020819052604090205490565b34801561069f57600080fd5b506103c06112dc565b3480156106b457600080fd5b506103c06106c336600461300b565b611312565b3480156106d457600080fd5b506103c06106e3366004613065565b61146f565b3480156106f457600080fd5b506005546001600160a01b0316610406565b34801561071257600080fd5b5061035a61180f565b34801561072757600080fd5b506103d8600c5481565b34801561073d57600080fd5b506103c061074c366004613090565b61181e565b34801561075d57600080fd5b506103d860105481565b34801561077357600080fd5b506103d86118f3565b34801561078857600080fd5b50610390610797366004612fdf565b61193d565b3480156107a857600080fd5b506103d86107b7366004613065565b6119d6565b3480156107c857600080fd5b506103906107d7366004612fdf565b611a09565b3480156107e857600080fd5b506107fc6107f7366004613065565b611a16565b604080516001600160a01b0390991689526020890197909752958701949094526060860192909252608085015260a084015260c083015260e082015261010001610367565b34801561084d57600080fd5b506103c061085c36600461300b565b611ab1565b34801561086d57600080fd5b506103c061087c36600461300b565b611af5565b34801561088d57600080fd5b5061039061089c366004613065565b60126020526000908152604090205460ff1681565b3480156108bd57600080fd5b506103d8611b24565b3480156108d257600080fd5b506103c06108e1366004613090565b611b6e565b3480156108f257600080fd5b506103c06109013660046130c9565b611c84565b34801561091257600080fd5b50610390610921366004613065565b611d60565b34801561093257600080fd5b506103d861094136600461314f565b6001600160a01b03918216600090815260016020908152604080832093909416825291909152205490565b34801561097857600080fd5b506103d8600a5481565b34801561098e57600080fd5b506103d8600b5481565b3480156109a457600080fd5b506103d8611dcf565b3480156109b957600080fd5b506103c06109c836600461300b565b611e19565b3480156109d957600080fd5b506107fc6109e836600461300b565b611e74565b3480156109f957600080fd5b506103c0610a08366004613065565b611eb6565b348015610a1957600080fd5b50600954610406906001600160a01b031681565b348015610a3957600080fd5b506103d8600181565b606060038054610a519061317d565b80601f0160208091040260200160405190810160405280929190818152602001828054610a7d9061317d565b8015610aca5780601f10610a9f57610100808354040283529160200191610aca565b820191906000526020600020905b815481529060010190602001808311610aad57829003601f168201915b5050505050905090565b6000610ae1338484612016565b50600192915050565b6005546001600160a01b03163314610b1d5760405162461bcd60e51b8152600401610b14906131b8565b60405180910390fd5b600854604051630dcb2e8960e01b8152600481018390526001600160a01b0390911690630dcb2e89906024015b600060405180830381600087803b158015610b6457600080fd5b505af1158015610b78573d6000803e3d6000fd5b5050505050565b6000610b8c84848461213a565b6001600160a01b038416600090815260016020908152604080832033845290915290205482811015610c115760405162461bcd60e51b815260206004820152602860248201527f45524332303a207472616e7366657220616d6f756e74206578636565647320616044820152676c6c6f77616e636560c01b6064820152608401610b14565b610c1e8533858403612016565b506001949350505050565b600854604080516342d359d760e11b815290516000926001600160a01b0316916385a6b3ae9160048083019260209291908290030181865afa158015610c73573d6000803e3d6000fd5b505050506040513d601f19601f82011682018060405250810190610c9791906131ed565b905090565b6005546001600160a01b03163314610cc65760405162461bcd60e51b8152600401610b14906131b8565b60085460405163031e79db60e41b81526001600160a01b038381166004830152909116906331e79db090602401610b4a565b3360008181526001602090815260408083206001600160a01b03871684529091528120549091610ae1918590610d2f90869061321c565b612016565b60085460405163bc4c4b3760e01b8152336004820152600060248201526001600160a01b039091169063bc4c4b37906044016020604051808303816000875af1158015610d85573d6000803e3d6000fd5b505050506040513d601f19601f82011682018060405250810190610da99190613234565b50565b6005546001600160a01b03163314610dd65760405162461bcd60e51b8152600401610b14906131b8565b600b819055600d54600c54610df79190610df1908490611f4e565b90611f4e565b600e81905560191015610da95760405162461bcd60e51b8152602060048201526015602482015274546f74616c20666565206973206f7665722032352560581b6044820152606401610b14565b6005546001600160a01b03163314610e6e5760405162461bcd60e51b8152600401610b14906131b8565b600f80546001600160a01b0319166001600160a01b0392909216919091179055565b6005546001600160a01b03163314610eba5760405162461bcd60e51b8152600401610b14906131b8565b600d819055600c54600b54610df7918391610df191611f4e565b600854604080516304ddf6ef60e11b815290516000926001600160a01b0316916309bbedde9160048083019260209291908290030181865afa158015610c73573d6000803e3d6000fd5b6005546001600160a01b03163314610f485760405162461bcd60e51b8152600401610b14906131b8565b6006546001600160a01b0382811691161415610fbd5760405162461bcd60e51b815260206004820152602e60248201527f42414259544f4b454e3a2054686520726f7574657220616c726561647920686160448201526d732074686174206164647265737360901b6064820152608401610b14565b6006546040516001600160a01b03918216918316907f8fc842bbd331dfa973645f4ed48b11683d501ebf1352708d77a5da2ab49a576e90600090a3600680546001600160a01b0319166001600160a01b0383169081179091556040805163c45a015560e01b815290516000929163c45a01559160048083019260209291908290030181865afa158015611054573d6000803e3d6000fd5b505050506040513d601f19601f820116820180604052508101906110789190613251565b6001600160a01b031663c9c6539630600660009054906101000a90046001600160a01b03166001600160a01b031663ad5c46486040518163ffffffff1660e01b8152600401602060405180830381865afa1580156110da573d6000803e3d6000fd5b505050506040513d601f19601f820116820180604052508101906110fe9190613251565b6040516001600160e01b031960e085901b1681526001600160a01b039283166004820152911660248201526044016020604051808303816000875af115801561114b573d6000803e3d6000fd5b505050506040513d601f19601f8201168201806040525081019061116f9190613251565b600780546001600160a01b0319166001600160a01b03929092169190911790555050565b6008546040516370a0823160e01b81526001600160a01b03838116600483015260009216906370a08231906024015b602060405180830381865afa1580156111df573d6000803e3d6000fd5b505050506040513d601f19601f8201168201806040525081019061120391906131ed565b92915050565b6008546040516001624d3b8760e01b0319815260048101839052600091829182916001600160a01b03169063ffb2c479906024016060604051808303816000875af115801561125c573d6000803e3d6000fd5b505050506040513d601f19601f82011682018060405250810190611280919061326e565b604080518481526020810184905290810182905260608101889052929550909350915032906000907fc864333d6121033635ab41b29ae52f10a22cf4438c3e4f1c4c68518feb2f8a98906080015b60405180910390a350505050565b6005546001600160a01b031633146113065760405162461bcd60e51b8152600401610b14906131b8565b6113106000612588565b565b6005546001600160a01b0316331461133c5760405162461bcd60e51b8152600401610b14906131b8565b62030d40811015801561135257506207a1208111155b6113c45760405162461bcd60e51b815260206004820152603f60248201527f42414259544f4b454e3a20676173466f7250726f63657373696e67206d75737460448201527f206265206265747765656e203230302c30303020616e64203530302c303030006064820152608401610b14565b60105481141561143c5760405162461bcd60e51b815260206004820152603760248201527f42414259544f4b454e3a2043616e6e6f742075706461746520676173466f725060448201527f726f63657373696e6720746f2073616d652076616c75650000000000000000006064820152608401610b14565b60105460405182907f40d7e40e79af4e8e5a9b3c57030d8ea93f13d669c06d448c4d631d4ae7d23db790600090a3601055565b6005546001600160a01b031633146114995760405162461bcd60e51b8152600401610b14906131b8565b6008546001600160a01b038281169116141561151d5760405162461bcd60e51b815260206004820152603860248201527f42414259544f4b454e3a20546865206469766964656e6420747261636b65722060448201527f616c7265616479206861732074686174206164647265737300000000000000006064820152608401610b14565b6000819050306001600160a01b0316816001600160a01b0316638da5cb5b6040518163ffffffff1660e01b8152600401602060405180830381865afa15801561156a573d6000803e3d6000fd5b505050506040513d601f19601f8201168201806040525081019061158e9190613251565b6001600160a01b0316146116245760405162461bcd60e51b815260206004820152605160248201527f42414259544f4b454e3a20546865206e6577206469766964656e64207472616360448201527f6b6572206d757374206265206f776e6564206279207468652042414259544f4b6064820152701153881d1bdad95b8818dbdb9d1c9858dd607a1b608482015260a401610b14565b60405163031e79db60e41b81526001600160a01b03821660048201819052906331e79db090602401600060405180830381600087803b15801561166657600080fd5b505af115801561167a573d6000803e3d6000fd5b505060405163031e79db60e41b81523060048201526001600160a01b03841692506331e79db09150602401600060405180830381600087803b1580156116bf57600080fd5b505af11580156116d3573d6000803e3d6000fd5b50505050806001600160a01b03166331e79db06116f86005546001600160a01b031690565b6040516001600160e01b031960e084901b1681526001600160a01b039091166004820152602401600060405180830381600087803b15801561173957600080fd5b505af115801561174d573d6000803e3d6000fd5b505060065460405163031e79db60e41b81526001600160a01b03918216600482015290841692506331e79db09150602401600060405180830381600087803b15801561179857600080fd5b505af11580156117ac573d6000803e3d6000fd5b50506008546040516001600160a01b03918216935090851691507f90c7d74461c613da5efa97d90740869367d74ab3aa5837aa4ae9a975f954b7a890600090a3600880546001600160a01b0319166001600160a01b039290921691909117905550565b606060048054610a519061317d565b6005546001600160a01b031633146118485760405162461bcd60e51b8152600401610b14906131b8565b6007546001600160a01b03838116911614156118e55760405162461bcd60e51b815260206004820152605060248201527f42414259544f4b454e3a205468652050616e63616b655377617020706169722060448201527f63616e6e6f742062652072656d6f7665642066726f6d206175746f6d6174656460648201526f4d61726b65744d616b6572506169727360801b608482015260a401610b14565b6118ef82826125da565b5050565b60085460408051631bc9e27b60e21b815290516000926001600160a01b031691636f2789ec9160048083019260209291908290030181865afa158015610c73573d6000803e3d6000fd5b3360009081526001602090815260408083206001600160a01b0386168452909152812054828110156119bf5760405162461bcd60e51b815260206004820152602560248201527f45524332303a2064656372656173656420616c6c6f77616e63652062656c6f77604482015264207a65726f60d81b6064820152608401610b14565b6119cc3385858403612016565b5060019392505050565b6008546040516302a2e74960e61b81526001600160a01b038381166004830152600092169063a8b9d240906024016111c2565b6000610ae133848461213a565b60085460405163fbcbc0f160e01b81526001600160a01b038381166004830152600092839283928392839283928392839291169063fbcbc0f1906024015b61010060405180830381865afa158015611a72573d6000803e3d6000fd5b505050506040513d601f19601f82011682018060405250810190611a96919061329c565b97509750975097509750975097509750919395975091939597565b6005546001600160a01b03163314611adb5760405162461bcd60e51b8152600401610b14906131b8565b600c819055600d54600b54610df79190610df19084611f4e565b6005546001600160a01b03163314611b1f5760405162461bcd60e51b8152600401610b14906131b8565b600a55565b60085460408051632f842d8560e21b815290516000926001600160a01b03169163be10b6149160048083019260209291908290030181865afa158015610c73573d6000803e3d6000fd5b6005546001600160a01b03163314611b985760405162461bcd60e51b8152600401610b14906131b8565b6001600160a01b03821660009081526011602052604090205460ff1615158115151415611c255760405162461bcd60e51b815260206004820152603560248201527f42414259544f4b454e3a204163636f756e7420697320616c7265616479207468604482015274652076616c7565206f6620276578636c756465642760581b6064820152608401610b14565b6001600160a01b038216600081815260116020908152604091829020805460ff191685151590811790915591519182527f9d8f7706ea1113d1a167b526eca956215946dd36cc7df39eb16180222d8b5df7910160405180910390a25050565b6005546001600160a01b03163314611cae5760405162461bcd60e51b8152600401610b14906131b8565b60005b82811015611d1f578160116000868685818110611cd057611cd0613306565b9050602002016020810190611ce59190613065565b6001600160a01b031681526020810191909152604001600020805460ff191691151591909117905580611d178161331c565b915050611cb1565b507f7fdaf542373fa84f4ee8d662c642f44e4c2276a217d7d29e548b6eb29a233b35838383604051611d5393929190613337565b60405180910390a1505050565b60085460405163c705c56960e01b81526001600160a01b038381166004830152600092169063c705c56990602401602060405180830381865afa158015611dab573d6000803e3d6000fd5b505050506040513d601f19601f820116820180604052508101906112039190613234565b6008546040805163039e107b60e61b815290516000926001600160a01b03169163e7841ec09160048083019260209291908290030181865afa158015610c73573d6000803e3d6000fd5b6005546001600160a01b03163314611e435760405162461bcd60e51b8152600401610b14906131b8565b60085460405163e98030c760e01b8152600481018390526001600160a01b039091169063e98030c790602401610b4a565b600854604051635183d6fd60e01b81526004810183905260009182918291829182918291829182916001600160a01b0390911690635183d6fd90602401611a54565b6005546001600160a01b03163314611ee05760405162461bcd60e51b8152600401610b14906131b8565b6001600160a01b038116611f455760405162461bcd60e51b815260206004820152602660248201527f4f776e61626c653a206e6577206f776e657220697320746865207a65726f206160448201526564647265737360d01b6064820152608401610b14565b610da981612588565b6000611f5a828461321c565b9392505050565b6000611f5a8284613390565b6000611f5a82846133af565b6000604051733d602d80600a3d3981f3363d3d373d3d3d363d7360601b81528260601b60148201526e5af43d82803e903d91602b57fd5bf360881b60288201526037816000f09150506001600160a01b0381166120115760405162461bcd60e51b8152602060048201526016602482015275115490cc4c4d8dce8818dc99585d194819985a5b195960521b6044820152606401610b14565b919050565b6001600160a01b0383166120785760405162461bcd60e51b8152602060048201526024808201527f45524332303a20617070726f76652066726f6d20746865207a65726f206164646044820152637265737360e01b6064820152608401610b14565b6001600160a01b0382166120d95760405162461bcd60e51b815260206004820152602260248201527f45524332303a20617070726f766520746f20746865207a65726f206164647265604482015261737360f01b6064820152608401610b14565b6001600160a01b0383811660008181526001602090815260408083209487168084529482529182902085905590518481527f8c5be1e5ebec7d5bd14f71427d1e84f3dd0314c0f7b2291e5b200ac8c7c3b925910160405180910390a3505050565b6001600160a01b0383166121605760405162461bcd60e51b8152600401610b14906133d1565b6001600160a01b0382166121865760405162461bcd60e51b8152600401610b1490613416565b8061219c5761219783836000612744565b505050565b30600090815260208190526040902054600a54811080159081906121ca5750600754600160a01b900460ff16155b80156121ef57506001600160a01b03851660009081526012602052604090205460ff16155b801561220957506005546001600160a01b03868116911614155b801561222357506005546001600160a01b03858116911614155b156122b6576007805460ff60a01b1916600160a01b179055600e54600d5460009161225991612253908690611f61565b90611f6d565b905061226481612891565b6000612281600e54612253600c5487611f6190919063ffffffff16565b905061228c816129fd565b306000908152602081905260409020546122a581612a84565b50506007805460ff60a01b19169055505b6007546001600160a01b03861660009081526011602052604090205460ff600160a01b90920482161591168061230457506001600160a01b03851660009081526011602052604090205460ff165b1561230d575060005b801561238957600061232f6064612253600e5488611f6190919063ffffffff16565b6001600160a01b03871660009081526012602052604090205490915060ff1615612370576123636064612253876001611f61565b61236d908261321c565b90505b61237a8582612c16565b9450612387873083612744565b505b612394868686612744565b6008546001600160a01b031663e30443bc876123c5816001600160a01b031660009081526020819052604090205490565b6040516001600160e01b031960e085901b1681526001600160a01b0390921660048301526024820152604401600060405180830381600087803b15801561240b57600080fd5b505af192505050801561241c575060015b506008546001600160a01b031663e30443bc8661244e816001600160a01b031660009081526020819052604090205490565b6040516001600160e01b031960e085901b1681526001600160a01b0390921660048301526024820152604401600060405180830381600087803b15801561249457600080fd5b505af19250505080156124a5575060015b50600754600160a01b900460ff16612580576010546008546040516001624d3b8760e01b03198152600481018390526001600160a01b039091169063ffb2c479906024016060604051808303816000875af1925050508015612524575060408051601f3d908101601f191682019092526125219181019061326e565b60015b61252d5761257e565b60408051848152602081018490529081018290526060810185905232906001907fc864333d6121033635ab41b29ae52f10a22cf4438c3e4f1c4c68518feb2f8a989060800160405180910390a35050505b505b505050505050565b600580546001600160a01b038381166001600160a01b0319831681179093556040519116919082907f8be0079c531659141344cd1fd0a4f28419497f9722a3daafe3b4186f6b6457e090600090a35050565b6001600160a01b03821660009081526012602052604090205460ff161515811515141561267b5760405162461bcd60e51b815260206004820152604360248201527f42414259544f4b454e3a204175746f6d61746564206d61726b6574206d616b6560448201527f72207061697220697320616c72656164792073657420746f20746861742076616064820152626c756560e81b608482015260a401610b14565b6001600160a01b0382166000908152601260205260409020805460ff191682158015919091179091556127085760085460405163031e79db60e41b81526001600160a01b038481166004830152909116906331e79db090602401600060405180830381600087803b1580156126ef57600080fd5b505af1158015612703573d6000803e3d6000fd5b505050505b604051811515906001600160a01b038416907fffa9187bf1f18bf477bd0ea1bcbb64e93b6a98132473929edfce215cd9b16fab90600090a35050565b6001600160a01b03831661276a5760405162461bcd60e51b8152600401610b14906133d1565b6001600160a01b0382166127905760405162461bcd60e51b8152600401610b1490613416565b6001600160a01b038316600090815260208190526040902054818110156128085760405162461bcd60e51b815260206004820152602660248201527f45524332303a207472616e7366657220616d6f756e7420657863656564732062604482015265616c616e636560d01b6064820152608401610b14565b6001600160a01b0380851660009081526020819052604080822085850390559185168152908120805484929061283f90849061321c565b92505081905550826001600160a01b0316846001600160a01b03167fddf252ad1be2c89b69c2b068fc378daa952ba7f163c4a11628f55a4df523b3ef846040516112ce91815260200190565b50505050565b6009546040516370a0823160e01b81523060048201526000916001600160a01b0316906370a0823190602401602060405180830381865afa1580156128da573d6000803e3d6000fd5b505050506040513d601f19601f820116820180604052508101906128fe91906131ed565b905061290982612c22565b6009546040516370a0823160e01b81523060048201526000916129829184916001600160a01b0316906370a0823190602401602060405180830381865afa158015612958573d6000803e3d6000fd5b505050506040513d601f19601f8201168201806040525081019061297c91906131ed565b90612c16565b600954600f5460405163a9059cbb60e01b81526001600160a01b03918216600482015260248101849052929350169063a9059cbb906044016020604051808303816000875af11580156129d9573d6000803e3d6000fd5b505050506040513d601f19601f8201168201806040525081019061288b9190613234565b6000612a0a826002611f6d565b90506000612a188383612c16565b905047612a2483612da7565b6000612a304783612c16565b9050612a3c8382612ecb565b60408051858152602081018390529081018490527f17bbfb9a6069321b6ded73bd96327c9e6b7212a5cd51ff219cd61370acafb5619060600160405180910390a15050505050565b612a8d81612c22565b6009546040516370a0823160e01b81523060048201526000916001600160a01b0316906370a0823190602401602060405180830381865afa158015612ad6573d6000803e3d6000fd5b505050506040513d601f19601f82011682018060405250810190612afa91906131ed565b60095460085460405163a9059cbb60e01b81526001600160a01b0391821660048201526024810184905292935060009291169063a9059cbb906044016020604051808303816000875af1158015612b55573d6000803e3d6000fd5b505050506040513d601f19601f82011682018060405250810190612b799190613234565b905080156121975760085460405163ba72a95560e01b8152600481018490526001600160a01b039091169063ba72a95590602401600060405180830381600087803b158015612bc757600080fd5b505af1158015612bdb573d6000803e3d6000fd5b505060408051868152602081018690527f80195cc573b02cc48460cbca6e6e4cc85ddb91959d946e1c3025ea3d87942dc39350019050611d53565b6000611f5a8284613459565b60408051600380825260808201909252600091602082016060803683370190505090503081600081518110612c5957612c59613306565b6001600160a01b03928316602091820292909201810191909152600654604080516315ab88c960e31b81529051919093169263ad5c46489260048083019391928290030181865afa158015612cb2573d6000803e3d6000fd5b505050506040513d601f19601f82011682018060405250810190612cd69190613251565b81600181518110612ce957612ce9613306565b6001600160a01b039283166020918202929092010152600954825191169082906002908110612d1a57612d1a613306565b6001600160a01b039283166020918202929092010152600654612d409130911684612016565b600654604051635c11d79560e01b81526001600160a01b0390911690635c11d79590612d79908590600090869030904290600401613470565b600060405180830381600087803b158015612d9357600080fd5b505af1158015612580573d6000803e3d6000fd5b6040805160028082526060820183526000926020830190803683370190505090503081600081518110612ddc57612ddc613306565b6001600160a01b03928316602091820292909201810191909152600654604080516315ab88c960e31b81529051919093169263ad5c46489260048083019391928290030181865afa158015612e35573d6000803e3d6000fd5b505050506040513d601f19601f82011682018060405250810190612e599190613251565b81600181518110612e6c57612e6c613306565b6001600160a01b039283166020918202929092010152600654612e929130911684612016565b60065460405163791ac94760e01b81526001600160a01b039091169063791ac94790612d79908590600090869030904290600401613470565b600654612ee39030906001600160a01b031684612016565b60065460405163f305d71960e01b8152306004820152602481018490526000604482018190526064820181905260848201524260a48201526001600160a01b039091169063f305d71990839060c40160606040518083038185885af1158015612f50573d6000803e3d6000fd5b50505050506040513d601f19601f82011682018060405250810190610b78919061326e565b600060208083528351808285015260005b81811015612fa257858101830151858201604001528201612f86565b81811115612fb4576000604083870101525b50601f01601f1916929092016040019392505050565b6001600160a01b0381168114610da957600080fd5b60008060408385031215612ff257600080fd5b8235612ffd81612fca565b946020939093013593505050565b60006020828403121561301d57600080fd5b5035919050565b60008060006060848603121561303957600080fd5b833561304481612fca565b9250602084013561305481612fca565b929592945050506040919091013590565b60006020828403121561307757600080fd5b8135611f5a81612fca565b8015158114610da957600080fd5b600080604083850312156130a357600080fd5b82356130ae81612fca565b915060208301356130be81613082565b809150509250929050565b6000806000604084860312156130de57600080fd5b833567ffffffffffffffff808211156130f657600080fd5b818601915086601f83011261310a57600080fd5b81358181111561311957600080fd5b8760208260051b850101111561312e57600080fd5b6020928301955093505084013561314481613082565b809150509250925092565b6000806040838503121561316257600080fd5b823561316d81612fca565b915060208301356130be81612fca565b600181811c9082168061319157607f821691505b602082108114156131b257634e487b7160e01b600052602260045260246000fd5b50919050565b6020808252818101527f4f776e61626c653a2063616c6c6572206973206e6f7420746865206f776e6572604082015260600190565b6000602082840312156131ff57600080fd5b5051919050565b634e487b7160e01b600052601160045260246000fd5b6000821982111561322f5761322f613206565b500190565b60006020828403121561324657600080fd5b8151611f5a81613082565b60006020828403121561326357600080fd5b8151611f5a81612fca565b60008060006060848603121561328357600080fd5b8351925060208401519150604084015190509250925092565b600080600080600080600080610100898b0312156132b957600080fd5b88516132c481612fca565b809850506020890151965060408901519550606089015194506080890151935060a0890151925060c0890151915060e089015190509295985092959890939650565b634e487b7160e01b600052603260045260246000fd5b600060001982141561333057613330613206565b5060010190565b6040808252810183905260008460608301825b8681101561337a57823561335d81612fca565b6001600160a01b031682526020928301929091019060010161334a565b5080925050508215156020830152949350505050565b60008160001904831182151516156133aa576133aa613206565b500290565b6000826133cc57634e487b7160e01b600052601260045260246000fd5b500490565b60208082526025908201527f45524332303a207472616e736665722066726f6d20746865207a65726f206164604082015264647265737360d81b606082015260800190565b60208082526023908201527f45524332303a207472616e7366657220746f20746865207a65726f206164647260408201526265737360e81b606082015260800190565b60008282101561346b5761346b613206565b500390565b600060a082018783526020878185015260a0604085015281875180845260c086019150828901935060005b818110156134c05784516001600160a01b03168352938301939183019160010161349b565b50506001600160a01b0396909616606085015250505060800152939250505056fea2646970667358221220765767720f949866b28947e6974e0ba6caf23309461c255e1b538c0596ada25164736f6c634300080c00334f776e61626c653a2063616c6c6572206973206e6f7420746865206f776e6572a2646970667358221220d5e9383ed532aa425dc67642f55d4a4c0be84a54ad6d9571898f5a51eee9009764736f6c634300080c0033",
  "linkReferences": {},
  "deployedLinkReferences": {}
}