{
  "_format": "hh-sol-artifact-1",
  "contractName": "DividendPayingToken",
  "sourceName": "contracts/tokens/baby/DividendTracker.sol",
  "abi": [
    {
      "anonymous": false,
      "inputs": [
        {
          "indexed": true,
          "internalType": "address",
          "name": "owner",
          "type": "address"
        },
        {
          "indexed": true,
          "internalType": "address",
          "name": "spender",
          "type": "address"
        },
        {
          "indexed": false,
          "internalType": "uint256",
          "name": "value",
          "type": "uint256"
        }
      ],
      "name": "Approval",
      "type": "event"
    },
    {
      "anonymous": false,
      "inputs": [
        {
          "indexed": true,
          "internalType": "address",
          "name": "to",
          "type": "address"
        },
        {
          "indexed": false,
          "internalType": "uint256",
          "name": "weiAmount",
          "type": "uint256"
        }
      ],
      "name": "DividendWithdrawn",
      "type": "event"
    },
    {
      "anonymous": false,
      "inputs": [
        {
          "indexed": true,
          "internalType": "address",
          "name": "from",
          "type": "address"
        },
        {
          "indexed": false,
          "internalType": "uint256",
          "name": "weiAmount",
          "type": "uint256"
        }
      ],
      "name": "DividendsDistributed",
      "type": "event"
    },
    {
      "anonymous": false,
      "inputs": [
        {
          "indexed": true,
          "internalType": "address",
          "name": "previousOwner",
          "type": "address"
        },
        {
          "indexed": true,
          "internalType": "address",
          "name": "newOwner",
          "type": "address"
        }
      ],
      "name": "OwnershipTransferred",
      "type": "event"
    },
    {
      "anonymous": false,
      "inputs": [
        {
          "indexed": true,
          "internalType": "address",
          "name": "from",
          "type": "address"
        },
        {
          "indexed": true,
          "internalType": "address",
          "name": "to",
          "type": "address"
        },
        {
          "indexed": false,
          "internalType": "uint256",
          "name": "value",
          "type": "uint256"
        }
      ],
      "name": "Transfer",
      "type": "event"
    },
    {
      "inputs": [
        {
          "internalType": "address",
          "name": "_owner",
          "type": "address"
        }
      ],
      "name": "accumulativeDividendOf",
      "outputs": [
        {
          "internalType": "uint256",
          "name": "",
          "type": "uint256"
        }
      ],
      "stateMutability": "view",
      "type": "function"
    },
    {
      "inputs": [
        {
          "internalType": "address",
          "name": "owner",
          "type": "address"
        },
        {
          "internalType": "address",
          "name": "spender",
          "type": "address"
        }
      ],
      "name": "allowance",
      "outputs": [
        {
          "internalType": "uint256",
          "name": "",
          "type": "uint256"
        }
      ],
      "stateMutability": "view",
      "type": "function"
    },
    {
      "inputs": [
        {
          "internalType": "address",
          "name": "spender",
          "type": "address"
        },
        {
          "internalType": "uint256",
          "name": "amount",
          "type": "uint256"
        }
      ],
      "name": "approve",
      "outputs": [
        {
          "internalType": "bool",
          "name": "",
          "type": "bool"
        }
      ],
      "stateMutability": "nonpayable",
      "type": "function"
    },
    {
      "inputs": [
        {
          "internalType": "address",
          "name": "account",
          "type": "address"
        }
      ],
      "name": "balanceOf",
      "outputs": [
        {
          "internalType": "uint256",
          "name": "",
          "type": "uint256"
        }
      ],
      "stateMutability": "view",
      "type": "function"
    },
    {
      "inputs": [],
      "name": "decimals",
      "outputs": [
        {
          "internalType": "uint8",
          "name": "",
          "type": "uint8"
        }
      ],
      "stateMutability": "view",
      "type": "function"
    },
    {
      "inputs": [
        {
          "internalType": "address",
          "name": "spender",
          "type": "address"
        },
        {
          "internalType": "uint256",
          "name": "subtractedValue",
          "type": "uint256"
        }
      ],
      "name": "decreaseAllowance",
      "outputs": [
        {
          "internalType": "bool",
          "name": "",
          "type": "bool"
        }
      ],
      "stateMutability": "nonpayable",
      "type": "function"
    },
    {
      "inputs": [
        {
          "internalType": "uint256",
          "name": "amount",
          "type": "uint256"
        }
      ],
      "name": "distributeCAKEDividends",
      "outputs": [],
      "stateMutability": "nonpayable",
      "type": "function"
    },
    {
      "inputs": [
        {
          "internalType": "address",
          "name": "_owner",
          "type": "address"
        }
      ],
      "name": "dividendOf",
      "outputs": [
        {
          "internalType": "uint256",
          "name": "",
          "type": "uint256"
        }
      ],
      "stateMutability": "view",
      "type": "function"
    },
    {
      "inputs": [
        {
          "internalType": "address",
          "name": "spender",
          "type": "address"
        },
        {
          "internalType": "uint256",
          "name": "addedValue",
          "type": "uint256"
        }
      ],
      "name": "increaseAllowance",
      "outputs": [
        {
          "internalType": "bool",
          "name": "",
          "type": "bool"
        }
      ],
      "stateMutability": "nonpayable",
      "type": "function"
    },
    {
      "inputs": [],
      "name": "name",
      "outputs": [
        {
          "internalType": "string",
          "name": "",
          "type": "string"
        }
      ],
      "stateMutability": "view",
      "type": "function"
    },
    {
      "inputs": [],
      "name": "owner",
      "outputs": [
        {
          "internalType": "address",
          "name": "",
          "type": "address"
        }
      ],
      "stateMutability": "view",
      "type": "function"
    },
    {
      "inputs": [],
      "name": "renounceOwnership",
      "outputs": [],
      "stateMutability": "nonpayable",
      "type": "function"
    },
    {
      "inputs": [],
      "name": "rewardToken",
      "outputs": [
        {
          "internalType": "address",
          "name": "",
          "type": "address"
        }
      ],
      "stateMutability": "view",
      "type": "function"
    },
    {
      "inputs": [],
      "name": "symbol",
      "outputs": [
        {
          "internalType": "string",
          "name": "",
          "type": "string"
        }
      ],
      "stateMutability": "view",
      "type": "function"
    },
    {
      "inputs": [],
      "name": "totalDividendsDistributed",
      "outputs": [
        {
          "internalType": "uint256",
          "name": "",
          "type": "uint256"
        }
      ],
      "stateMutability": "view",
      "type": "function"
    },
    {
      "inputs": [],
      "name": "totalSupply",
      "outputs": [
        {
          "internalType": "uint256",
          "name": "",
          "type": "uint256"
        }
      ],
      "stateMutability": "view",
      "type": "function"
    },
    {
      "inputs": [
        {
          "internalType": "address",
          "name": "recipient",
          "type": "address"
        },
        {
          "internalType": "uint256",
          "name": "amount",
          "type": "uint256"
        }
      ],
      "name": "transfer",
      "outputs": [
        {
          "internalType": "bool",
          "name": "",
          "type": "bool"
        }
      ],
      "stateMutability": "nonpayable",
      "type": "function"
    },
    {
      "inputs": [
        {
          "internalType": "address",
          "name": "sender",
          "type": "address"
        },
        {
          "internalType": "address",
          "name": "recipient",
          "type": "address"
        },
        {
          "internalType": "uint256",
          "name": "amount",
          "type": "uint256"
        }
      ],
      "name": "transferFrom",
      "outputs": [
        {
          "internalType": "bool",
          "name": "",
          "type": "bool"
        }
      ],
      "stateMutability": "nonpayable",
      "type": "function"
    },
    {
      "inputs": [
        {
          "internalType": "address",
          "name": "newOwner",
          "type": "address"
        }
      ],
      "name": "transferOwnership",
      "outputs": [],
      "stateMutability": "nonpayable",
      "type": "function"
    },
    {
      "inputs": [],
      "name": "withdrawDividend",
      "outputs": [],
      "stateMutability": "nonpayable",
      "type": "function"
    },
    {
      "inputs": [
        {
          "internalType": "address",
          "name": "_owner",
          "type": "address"
        }
      ],
      "name": "withdrawableDividendOf",
      "outputs": [
        {
          "internalType": "uint256",
          "name": "",
          "type": "uint256"
        }
      ],
      "stateMutability": "view",
      "type": "function"
    },
    {
      "inputs": [
        {
          "internalType": "address",
          "name": "_owner",
          "type": "address"
        }
      ],
      "name": "withdrawnDividendOf",
      "outputs": [
        {
          "internalType": "uint256",
          "name": "",
          "type": "uint256"
        }
      ],
      "stateMutability": "view",
      "type": "function"
    }
  ],
  "bytecode": "0x608060405234801561001057600080fd5b50610de7806100206000396000f3fe608060405234801561001057600080fd5b50600436106101425760003560e01c80638da5cb5b116100b8578063a9059cbb1161007c578063a9059cbb1461028c578063aafd847a1461029f578063ba72a955146102c8578063dd62ed3e146102db578063f2fde38b14610314578063f7c618c11461032757600080fd5b80638da5cb5b1461022657806391b89fba1461024b57806395d89b411461025e578063a457c2d714610266578063a8b9d2401461027957600080fd5b8063313ce5671161010a578063313ce567146101c057806339509351146101cf5780636a474002146101e257806370a08231146101ec578063715018a61461021557806385a6b3ae1461021d57600080fd5b806306fdde0314610147578063095ea7b31461016557806318160ddd1461018857806323b872dd1461019a57806327ce0147146101ad575b600080fd5b61014f61033a565b60405161015c9190610b1a565b60405180910390f35b610178610173366004610b8b565b6103cc565b604051901515815260200161015c565b6035545b60405190815260200161015c565b6101786101a8366004610bb5565b6103e2565b61018c6101bb366004610bf1565b610491565b6040516012815260200161015c565b6101786101dd366004610b8b565b6104f4565b6101ea610530565b005b61018c6101fa366004610bf1565b6001600160a01b031660009081526033602052604090205490565b6101ea61053c565b61018c609b5481565b6065546001600160a01b03165b6040516001600160a01b03909116815260200161015c565b61018c610259366004610bf1565b610572565b61014f61057d565b610178610274366004610b8b565b61058c565b61018c610287366004610bf1565b610625565b61017861029a366004610b8b565b610651565b61018c6102ad366004610bf1565b6001600160a01b03166000908152609a602052604090205490565b6101ea6102d6366004610c0c565b61065e565b61018c6102e9366004610c25565b6001600160a01b03918216600090815260346020908152604080832093909416825291909152205490565b6101ea610322366004610bf1565b61071b565b609754610233906001600160a01b031681565b60606036805461034990610c58565b80601f016020809104026020016040519081016040528092919081815260200182805461037590610c58565b80156103c25780601f10610397576101008083540402835291602001916103c2565b820191906000526020600020905b8154815290600101906020018083116103a557829003601f168201915b5050505050905090565b60006103d93384846107b3565b50600192915050565b60006103ef848484600080fd5b6001600160a01b0384166000908152603460209081526040808320338452909152902054828110156104795760405162461bcd60e51b815260206004820152602860248201527f45524332303a207472616e7366657220616d6f756e74206578636565647320616044820152676c6c6f77616e636560c01b60648201526084015b60405180910390fd5b61048685338584036107b3565b506001949350505050565b6001600160a01b0381166000908152609960209081526040808320546033909252822054609854600160801b926104e4926104df926104d9916104d491906108d7565b6108ea565b906108fa565b610938565b6104ee9190610ca9565b92915050565b3360008181526034602090815260408083206001600160a01b038716845290915281205490916103d991859061052b908690610ccb565b6107b3565b6105393361094b565b50565b6065546001600160a01b031633146105665760405162461bcd60e51b815260040161047090610ce3565b6105706000610ab0565b565b60006104ee82610625565b60606037805461034990610c58565b3360009081526034602090815260408083206001600160a01b03861684529091528120548281101561060e5760405162461bcd60e51b815260206004820152602560248201527f45524332303a2064656372656173656420616c6c6f77616e63652062656c6f77604482015264207a65726f60d81b6064820152608401610470565b61061b33858584036107b3565b5060019392505050565b6001600160a01b0381166000908152609a60205260408120546104ee9061064b84610491565b90610b02565b60006103d9338484600080fd5b6065546001600160a01b031633146106885760405162461bcd60e51b815260040161047090610ce3565b600061069360355490565b1161069d57600080fd5b8015610539576106d06106af60355490565b6106bd83600160801b6108d7565b6106c79190610ca9565b60985490610b0e565b60985560405181815233907fa493a9229478c3fcd73f66d2cdeb7f94fd0f341da924d1054236d784541165119060200160405180910390a2609b546107159082610b0e565b609b5550565b6065546001600160a01b031633146107455760405162461bcd60e51b815260040161047090610ce3565b6001600160a01b0381166107aa5760405162461bcd60e51b815260206004820152602660248201527f4f776e61626c653a206e6577206f776e657220697320746865207a65726f206160448201526564647265737360d01b6064820152608401610470565b61053981610ab0565b6001600160a01b0383166108155760405162461bcd60e51b8152602060048201526024808201527f45524332303a20617070726f76652066726f6d20746865207a65726f206164646044820152637265737360e01b6064820152608401610470565b6001600160a01b0382166108765760405162461bcd60e51b815260206004820152602260248201527f45524332303a20617070726f766520746f20746865207a65726f206164647265604482015261737360f01b6064820152608401610470565b6001600160a01b0383811660008181526034602090815260408083209487168084529482529182902085905590518481527f8c5be1e5ebec7d5bd14f71427d1e84f3dd0314c0f7b2291e5b200ac8c7c3b925910160405180910390a3505050565b60006108e38284610d18565b9392505050565b600081818112156104ee57600080fd5b6000806109078385610d37565b90506000831215801561091a5750838112155b8061092f575060008312801561092f57508381125b6108e357600080fd5b60008082121561094757600080fd5b5090565b60008061095783610625565b90508015610aa7576001600160a01b0383166000908152609a60205260409020546109829082610b0e565b6001600160a01b0384166000818152609a6020526040908190209290925590517fee503bee2bb6a87e57bc57db795f98137327401a0e7b7ce42e37926cc1a9ca4d906109d19084815260200190565b60405180910390a260975460405163a9059cbb60e01b81526001600160a01b03858116600483015260248201849052600092169063a9059cbb906044016020604051808303816000875af1158015610a2d573d6000803e3d6000fd5b505050506040513d601f19601f82011682018060405250810190610a519190610d78565b905080610aa0576001600160a01b0384166000908152609a6020526040902054610a7b9083610b02565b6001600160a01b039094166000908152609a6020526040812094909455509192915050565b5092915050565b50600092915050565b606580546001600160a01b038381166001600160a01b0319831681179093556040519116919082907f8be0079c531659141344cd1fd0a4f28419497f9722a3daafe3b4186f6b6457e090600090a35050565b60006108e38284610d9a565b60006108e38284610ccb565b600060208083528351808285015260005b81811015610b4757858101830151858201604001528201610b2b565b81811115610b59576000604083870101525b50601f01601f1916929092016040019392505050565b80356001600160a01b0381168114610b8657600080fd5b919050565b60008060408385031215610b9e57600080fd5b610ba783610b6f565b946020939093013593505050565b600080600060608486031215610bca57600080fd5b610bd384610b6f565b9250610be160208501610b6f565b9150604084013590509250925092565b600060208284031215610c0357600080fd5b6108e382610b6f565b600060208284031215610c1e57600080fd5b5035919050565b60008060408385031215610c3857600080fd5b610c4183610b6f565b9150610c4f60208401610b6f565b90509250929050565b600181811c90821680610c6c57607f821691505b60208210811415610c8d57634e487b7160e01b600052602260045260246000fd5b50919050565b634e487b7160e01b600052601160045260246000fd5b600082610cc657634e487b7160e01b600052601260045260246000fd5b500490565b60008219821115610cde57610cde610c93565b500190565b6020808252818101527f4f776e61626c653a2063616c6c6572206973206e6f7420746865206f776e6572604082015260600190565b6000816000190483118215151615610d3257610d32610c93565b500290565b600080821280156001600160ff1b0384900385131615610d5957610d59610c93565b600160ff1b8390038412811615610d7257610d72610c93565b50500190565b600060208284031215610d8a57600080fd5b815180151581146108e357600080fd5b600082821015610dac57610dac610c93565b50039056fea264697066735822122011af14c69456dca51970544bffddb61c6a774aaec02344bf3e9be5156751b49964736f6c634300080c0033",
  "linkReferences": {},
  "deployedLinkReferences": {}
}