{
  "_format": "hh-sol-artifact-1",
  "contractName": "ExampleFactory",
  "sourceName": "contracts/factories/ExampleFactory.sol",
  "abi": [
    {
      "inputs": [],
      "stateMutability": "nonpayable",
      "type": "constructor"
    },
    {
      "anonymous": false,
      "inputs": [
        {
          "indexed": true,
          "internalType": "address",
          "name": "previousOwner",
          "type": "address"
        },
        {
          "indexed": true,
          "internalType": "address",
          "name": "newOwner",
          "type": "address"
        }
      ],
      "name": "OwnershipTransferred",
      "type": "event"
    },
    {
      "inputs": [
        {
          "internalType": "string",
          "name": "name",
          "type": "string"
        },
        {
          "internalType": "string",
          "name": "symbol",
          "type": "string"
        },
        {
          "internalType": "uint8",
          "name": "decimals",
          "type": "uint8"
        },
        {
          "internalType": "uint256",
          "name": "totalSupply",
          "type": "uint256"
        }
      ],
      "name": "create",
      "outputs": [
        {
          "internalType": "address",
          "name": "",
          "type": "address"
        }
      ],
      "stateMutability": "payable",
      "type": "function"
    },
    {
      "inputs": [],
      "name": "feeTo",
      "outputs": [
        {
          "internalType": "address",
          "name": "",
          "type": "address"
        }
      ],
      "stateMutability": "view",
      "type": "function"
    },
    {
      "inputs": [],
      "name": "flatFee",
      "outputs": [
        {
          "internalType": "uint256",
          "name": "",
          "type": "uint256"
        }
      ],
      "stateMutability": "view",
      "type": "function"
    },
    {
      "inputs": [],
      "name": "getFeeTo",
      "outputs": [
        {
          "internalType": "address",
          "name": "",
          "type": "address"
        }
      ],
      "stateMutability": "view",
      "type": "function"
    },
    {
      "inputs": [],
      "name": "getFlatFee",
      "outputs": [
        {
          "internalType": "uint256",
          "name": "",
          "type": "uint256"
        }
      ],
      "stateMutability": "view",
      "type": "function"
    },
    {
      "inputs": [],
      "name": "owner",
      "outputs": [
        {
          "internalType": "address",
          "name": "",
          "type": "address"
        }
      ],
      "stateMutability": "view",
      "type": "function"
    },
    {
      "inputs": [],
      "name": "renounceOwnership",
      "outputs": [],
      "stateMutability": "nonpayable",
      "type": "function"
    },
    {
      "inputs": [
        {
          "internalType": "address",
          "name": "feeReceivingAddress",
          "type": "address"
        }
      ],
      "name": "setFeeTo",
      "outputs": [],
      "stateMutability": "nonpayable",
      "type": "function"
    },
    {
      "inputs": [
        {
          "internalType": "uint256",
          "name": "fee",
          "type": "uint256"
        }
      ],
      "name": "setFlatFee",
      "outputs": [],
      "stateMutability": "nonpayable",
      "type": "function"
    },
    {
      "inputs": [
        {
          "internalType": "address",
          "name": "newOwner",
          "type": "address"
        }
      ],
      "name": "transferOwnership",
      "outputs": [],
      "stateMutability": "nonpayable",
      "type": "function"
    }
  ],
  "bytecode": "0x608060405234801561001057600080fd5b5061001a3361003c565b600180546001600160a01b03191633179055662386f26fc1000060025561008c565b600080546001600160a01b038381166001600160a01b0319831681178455604051919092169283917f8be0079c531659141344cd1fd0a4f28419497f9722a3daafe3b4186f6b6457e09190a35050565b611a978061009b6000396000f3fe6080604052600436106200009d5760003560e01c80638a601fc811620000605780638a601fc814620001575780638da5cb5b1462000178578063d9eb59471462000198578063f2fde38b14620001b0578063f46901ed14620001d557600080fd5b8063017e7e5814620000a257806323fa495a14620000e15780636611f5281462000108578063715018a61462000128578063831e80f21462000140575b600080fd5b348015620000af57600080fd5b50600154620000c4906001600160a01b031681565b6040516001600160a01b0390911681526020015b60405180910390f35b348015620000ee57600080fd5b5062000106620001003660046200073e565b620001fa565b005b3480156200011557600080fd5b506001546001600160a01b0316620000c4565b3480156200013557600080fd5b506200010662000235565b620000c462000151366004620006b6565b62000270565b3480156200016457600080fd5b506002545b604051908152602001620000d8565b3480156200018557600080fd5b506000546001600160a01b0316620000c4565b348015620001a557600080fd5b506200016960025481565b348015620001bd57600080fd5b5062000106620001cf3660046200068d565b62000348565b348015620001e257600080fd5b5062000106620001f43660046200068d565b620003ea565b6000546001600160a01b03163314620002305760405162461bcd60e51b81526004016200022790620007f8565b60405180910390fd5b600255565b6000546001600160a01b03163314620002625760405162461bcd60e51b81526004016200022790620007f8565b6200026e600062000439565b565b6000600254341015620002b15760405162461bcd60e51b8152602060048201526008602482015267466c61742066656560c01b604482015260640162000227565b620002bb62000489565b60008585858533604051620002d090620005f0565b620002e0959493929190620007a5565b604051809103906000f080158015620002fd573d6000803e3d6000fd5b506001546002546040519293506001600160a01b039091169181156108fc0291906000818181858888f193505050501580156200033e573d6000803e3d6000fd5b5095945050505050565b6000546001600160a01b03163314620003755760405162461bcd60e51b81526004016200022790620007f8565b6001600160a01b038116620003dc5760405162461bcd60e51b815260206004820152602660248201527f4f776e61626c653a206e6577206f776e657220697320746865207a65726f206160448201526564647265737360d01b606482015260840162000227565b620003e78162000439565b50565b6000546001600160a01b03163314620004175760405162461bcd60e51b81526004016200022790620007f8565b600180546001600160a01b0319166001600160a01b0392909216919091179055565b600080546001600160a01b038381166001600160a01b0319831681178455604051919092169283917f8be0079c531659141344cd1fd0a4f28419497f9722a3daafe3b4186f6b6457e09190a35050565b6000620004a260025434620004b790919063ffffffff16565b90508015620003e757620003e73382620004cc565b6000620004c582846200082d565b9392505050565b804710156200051e5760405162461bcd60e51b815260206004820152601d60248201527f416464726573733a20696e73756666696369656e742062616c616e6365000000604482015260640162000227565b6000826001600160a01b03168260405160006040518083038185875af1925050503d80600081146200056d576040519150601f19603f3d011682016040523d82523d6000602084013e62000572565b606091505b5050905080620005eb5760405162461bcd60e51b815260206004820152603a60248201527f416464726573733a20756e61626c6520746f2073656e642076616c75652c207260448201527f6563697069656e74206d61792068617665207265766572746564000000000000606482015260840162000227565b505050565b6111fa806200086883390190565b600082601f8301126200060f578081fd5b813567ffffffffffffffff808211156200062d576200062d62000851565b604051601f8301601f19908116603f0116810190828211818310171562000658576200065862000851565b8160405283815286602085880101111562000671578485fd5b8360208701602083013792830160200193909352509392505050565b6000602082840312156200069f578081fd5b81356001600160a01b0381168114620004c5578182fd5b60008060008060808587031215620006cc578283fd5b843567ffffffffffffffff80821115620006e4578485fd5b620006f288838901620005fe565b9550602087013591508082111562000708578485fd5b506200071787828801620005fe565b935050604085013560ff811681146200072e578283fd5b9396929550929360600135925050565b60006020828403121562000750578081fd5b5035919050565b60008151808452815b818110156200077e5760208185018101518683018201520162000760565b81811115620007905782602083870101525b50601f01601f19169290920160200192915050565b60a081526000620007ba60a083018862000757565b8281036020840152620007ce818862000757565b60ff969096166040840152505060608101929092526001600160a01b031660809091015292915050565b6020808252818101527f4f776e61626c653a2063616c6c6572206973206e6f7420746865206f776e6572604082015260600190565b6000828210156200084c57634e487b7160e01b81526011600452602481fd5b500390565b634e487b7160e01b600052604160045260246000fdfe60806040523480156200001157600080fd5b50604051620011fa380380620011fa8339810160408190526200003491620004af565b6200003f3362000113565b84516200005490600390602088019062000356565b5083516200006a90600490602087019062000356565b506005805460ff191660ff8516908117909155620000a39082906200009190600a620005eb565b6200009d9085620006aa565b62000163565b620000ae816200026e565b30620000c26000546001600160a01b031690565b6001600160a01b03167f56358b41df5fa59f5639228f0930994cbdde383c8a8fd74e06c04e1deebe356260006001604051620001009291906200055a565b60405180910390a3505050505062000735565b600080546001600160a01b038381166001600160a01b0319831681178455604051919092169283917f8be0079c531659141344cd1fd0a4f28419497f9722a3daafe3b4186f6b6457e09190a35050565b6001600160a01b038216620001bf5760405162461bcd60e51b815260206004820152601f60248201527f45524332303a206d696e7420746f20746865207a65726f20616464726573730060448201526064015b60405180910390fd5b620001db816006546200033f60201b620005541790919060201c565b6006556001600160a01b03821660009081526001602090815260409091205462000210918390620005546200033f821b17901c565b6001600160a01b0383166000818152600160205260408082209390935591519091907fddf252ad1be2c89b69c2b068fc378daa952ba7f163c4a11628f55a4df523b3ef90620002629085815260200190565b60405180910390a35050565b6000546001600160a01b03163314620002ca5760405162461bcd60e51b815260206004820181905260248201527f4f776e61626c653a2063616c6c6572206973206e6f7420746865206f776e65726044820152606401620001b6565b6001600160a01b038116620003315760405162461bcd60e51b815260206004820152602660248201527f4f776e61626c653a206e6577206f776e657220697320746865207a65726f206160448201526564647265737360d01b6064820152608401620001b6565b6200033c8162000113565b50565b60006200034d828462000587565b90505b92915050565b8280546200036490620006cc565b90600052602060002090601f016020900481019282620003885760008555620003d3565b82601f10620003a357805160ff1916838001178555620003d3565b82800160010185558215620003d3579182015b82811115620003d3578251825591602001919060010190620003b6565b50620003e1929150620003e5565b5090565b5b80821115620003e15760008155600101620003e6565b600082601f8301126200040d578081fd5b81516001600160401b03808211156200042a576200042a6200071f565b604051601f8301601f19908116603f011681019082821181831017156200045557620004556200071f565b8160405283815260209250868385880101111562000471578485fd5b8491505b8382101562000494578582018301518183018401529082019062000475565b83821115620004a557848385830101525b9695505050505050565b600080600080600060a08688031215620004c7578081fd5b85516001600160401b0380821115620004de578283fd5b620004ec89838a01620003fc565b9650602088015191508082111562000502578283fd5b506200051188828901620003fc565b945050604086015160ff8116811462000528578182fd5b6060870151608088015191945092506001600160a01b03811681146200054c578182fd5b809150509295509295909350565b60408101600884106200057d57634e487b7160e01b600052602160045260246000fd5b9281526020015290565b600082198211156200059d576200059d62000709565b500190565b600181815b80851115620005e3578160001904821115620005c757620005c762000709565b80851615620005d557918102915b93841c9390800290620005a7565b509250929050565b60006200034d60ff841683600082620006075750600162000350565b81620006165750600062000350565b81600181146200062f57600281146200063a576200065a565b600191505062000350565b60ff8411156200064e576200064e62000709565b50506001821b62000350565b5060208310610133831016604e8410600b84101617156200067f575081810a62000350565b6200068b8383620005a2565b8060001904821115620006a257620006a262000709565b029392505050565b6000816000190483118215151615620006c757620006c762000709565b500290565b600181811c90821680620006e157607f821691505b602082108114156200070357634e487b7160e01b600052602260045260246000fd5b50919050565b634e487b7160e01b600052601160045260246000fd5b634e487b7160e01b600052604160045260246000fd5b610ab580620007456000396000f3fe608060405234801561001057600080fd5b50600436106101005760003560e01c8063715018a611610097578063a9059cbb11610066578063a9059cbb14610205578063dd62ed3e14610218578063f2fde38b14610251578063ffa1ad741461026457600080fd5b8063715018a6146101c55780638da5cb5b146101cf57806395d89b41146101ea578063a457c2d7146101f257600080fd5b8063313ce567116100d3578063313ce5671461016b57806339509351146101805780633eaaf86b1461019357806370a082311461019c57600080fd5b806306fdde0314610105578063095ea7b31461012357806318160ddd1461014657806323b872dd14610158575b600080fd5b61010d61026c565b60405161011a919061095a565b60405180910390f35b610136610131366004610931565b6102fe565b604051901515815260200161011a565b6006545b60405190815260200161011a565b6101366101663660046108f6565b610314565b60055460405160ff909116815260200161011a565b61013661018e366004610931565b61037d565b61014a60065481565b61014a6101aa3660046108aa565b6001600160a01b031660009081526001602052604090205490565b6101cd6103b3565b005b6000546040516001600160a01b03909116815260200161011a565b61010d61041e565b610136610200366004610931565b61042d565b610136610213366004610931565b61047c565b61014a6102263660046108c4565b6001600160a01b03918216600090815260026020908152604080832093909416825291909152205490565b6101cd61025f3660046108aa565b610489565b61014a600181565b60606003805461027b906109d1565b80601f01602080910402602001604051908101604052809291908181526020018280546102a7906109d1565b80156102f45780601f106102c9576101008083540402835291602001916102f4565b820191906000526020600020905b8154815290600101906020018083116102d757829003601f168201915b5050505050905090565b600061030b338484610567565b50600192915050565b600061032184848461068c565b610373843361036e85604051806060016040528060288152602001610a33602891396001600160a01b038a1660009081526002602090815260408083203384529091529020549190610812565b610567565b5060019392505050565b3360008181526002602090815260408083206001600160a01b0387168452909152812054909161030b91859061036e9086610554565b6000546001600160a01b031633146104125760405162461bcd60e51b815260206004820181905260248201527f4f776e61626c653a2063616c6c6572206973206e6f7420746865206f776e657260448201526064015b60405180910390fd5b61041c600061083e565b565b60606004805461027b906109d1565b600061030b338461036e85604051806060016040528060258152602001610a5b602591393360009081526002602090815260408083206001600160a01b038d1684529091529020549190610812565b600061030b33848461068c565b6000546001600160a01b031633146104e35760405162461bcd60e51b815260206004820181905260248201527f4f776e61626c653a2063616c6c6572206973206e6f7420746865206f776e65726044820152606401610409565b6001600160a01b0381166105485760405162461bcd60e51b815260206004820152602660248201527f4f776e61626c653a206e6577206f776e657220697320746865207a65726f206160448201526564647265737360d01b6064820152608401610409565b6105518161083e565b50565b600061056082846109ad565b9392505050565b6001600160a01b0383166105c95760405162461bcd60e51b8152602060048201526024808201527f45524332303a20617070726f76652066726f6d20746865207a65726f206164646044820152637265737360e01b6064820152608401610409565b6001600160a01b03821661062a5760405162461bcd60e51b815260206004820152602260248201527f45524332303a20617070726f766520746f20746865207a65726f206164647265604482015261737360f01b6064820152608401610409565b6001600160a01b0383811660008181526002602090815260408083209487168084529482529182902085905590518481527f8c5be1e5ebec7d5bd14f71427d1e84f3dd0314c0f7b2291e5b200ac8c7c3b92591015b60405180910390a3505050565b6001600160a01b0383166106f05760405162461bcd60e51b815260206004820152602560248201527f45524332303a207472616e736665722066726f6d20746865207a65726f206164604482015264647265737360d81b6064820152608401610409565b6001600160a01b0382166107525760405162461bcd60e51b815260206004820152602360248201527f45524332303a207472616e7366657220746f20746865207a65726f206164647260448201526265737360e81b6064820152608401610409565b61078f81604051806060016040528060268152602001610a0d602691396001600160a01b0386166000908152600160205260409020549190610812565b6001600160a01b0380851660009081526001602052604080822093909355908416815220546107be9082610554565b6001600160a01b0380841660008181526001602052604090819020939093559151908516907fddf252ad1be2c89b69c2b068fc378daa952ba7f163c4a11628f55a4df523b3ef9061067f9085815260200190565b600081848411156108365760405162461bcd60e51b8152600401610409919061095a565b505050900390565b600080546001600160a01b038381166001600160a01b0319831681178455604051919092169283917f8be0079c531659141344cd1fd0a4f28419497f9722a3daafe3b4186f6b6457e09190a35050565b80356001600160a01b03811681146108a557600080fd5b919050565b6000602082840312156108bb578081fd5b6105608261088e565b600080604083850312156108d6578081fd5b6108df8361088e565b91506108ed6020840161088e565b90509250929050565b60008060006060848603121561090a578081fd5b6109138461088e565b92506109216020850161088e565b9150604084013590509250925092565b60008060408385031215610943578182fd5b61094c8361088e565b946020939093013593505050565b6000602080835283518082850152825b818110156109865785810183015185820160400152820161096a565b818111156109975783604083870101525b50601f01601f1916929092016040019392505050565b600082198211156109cc57634e487b7160e01b81526011600452602481fd5b500190565b600181811c908216806109e557607f821691505b60208210811415610a0657634e487b7160e01b600052602260045260246000fd5b5091905056fe45524332303a207472616e7366657220616d6f756e7420657863656564732062616c616e636545524332303a207472616e7366657220616d6f756e74206578636565647320616c6c6f77616e636545524332303a2064656372656173656420616c6c6f77616e63652062656c6f77207a65726fa2646970667358221220abc16e7493d0d6e97262b6765cb8d9790b7cd37fc324f71ec6d74d2cabe98d7264736f6c63430008040033a264697066735822122092583d41a59c8e47cf1d9ef30afb7dae353e55dda52e748a37d71c5dc2f0c81964736f6c63430008040033",
  "linkReferences": {},
  "deployedLinkReferences": {}
}