{
  "_format": "hh-sol-artifact-1",
  "contractName": "Fairlaunch",
  "sourceName": "contracts/presale/Fairlaunch.sol",
  "abi": [
    {
      "inputs": [
        {
          "internalType": "address",
          "name": "owner_",
          "type": "address"
        },
        {
          "internalType": "address",
          "name": "_sale_token",
          "type": "address"
        },
        {
          "internalType": "address",
          "name": "_base_token",
          "type": "address"
        },
        {
          "internalType": "bool",
          "name": "presale_in_native",
          "type": "bool"
        },
        {
          "internalType": "uint256",
          "name": "_buyback",
          "type": "uint256"
        },
        {
          "internalType": "bool",
          "name": "_whitelist",
          "type": "bool"
        },
        {
          "internalType": "uint256",
          "name": "_selling_amount",
          "type": "uint256"
        },
        {
          "internalType": "uint256",
          "name": "_softcap",
          "type": "uint256"
        },
        {
          "internalType": "uint256",
          "name": "_liquidityPercent",
          "type": "uint256"
        },
        {
          "internalType": "uint256",
          "name": "_presale_start",
          "type": "uint256"
        },
        {
          "internalType": "uint256",
          "name": "_presale_end",
          "type": "uint256"
        }
      ],
      "stateMutability": "nonpayable",
      "type": "constructor"
    },
    {
      "anonymous": false,
      "inputs": [
        {
          "indexed": false,
          "internalType": "address",
          "name": "",
          "type": "address"
        },
        {
          "indexed": false,
          "internalType": "address",
          "name": "",
          "type": "address"
        }
      ],
      "name": "PresaleCreated",
      "type": "event"
    },
    {
      "anonymous": false,
      "inputs": [
        {
          "indexed": false,
          "internalType": "address",
          "name": "",
          "type": "address"
        },
        {
          "indexed": false,
          "internalType": "uint256",
          "name": "",
          "type": "uint256"
        }
      ],
      "name": "UserDepsitedSuccess",
      "type": "event"
    },
    {
      "anonymous": false,
      "inputs": [
        {
          "indexed": false,
          "internalType": "uint256",
          "name": "",
          "type": "uint256"
        }
      ],
      "name": "UserWithdrawSuccess",
      "type": "event"
    },
    {
      "anonymous": false,
      "inputs": [
        {
          "indexed": false,
          "internalType": "uint256",
          "name": "",
          "type": "uint256"
        }
      ],
      "name": "UserWithdrawTokensSuccess",
      "type": "event"
    },
    {
      "inputs": [],
      "name": "approveTokens",
      "outputs": [],
      "stateMutability": "nonpayable",
      "type": "function"
    },
    {
      "inputs": [
        {
          "internalType": "address",
          "name": "",
          "type": "address"
        }
      ],
      "name": "buyers",
      "outputs": [
        {
          "internalType": "uint256",
          "name": "",
          "type": "uint256"
        }
      ],
      "stateMutability": "view",
      "type": "function"
    },
    {
      "inputs": [],
      "name": "calcLiquidity",
      "outputs": [
        {
          "internalType": "uint256",
          "name": "tokens",
          "type": "uint256"
        }
      ],
      "stateMutability": "view",
      "type": "function"
    },
    {
      "inputs": [],
      "name": "calcRate",
      "outputs": [
        {
          "internalType": "uint256",
          "name": "tokenRate",
          "type": "uint256"
        }
      ],
      "stateMutability": "view",
      "type": "function"
    },
    {
      "inputs": [
        {
          "internalType": "address",
          "name": "user",
          "type": "address"
        }
      ],
      "name": "calcSendTokens",
      "outputs": [
        {
          "internalType": "uint256",
          "name": "token_",
          "type": "uint256"
        }
      ],
      "stateMutability": "view",
      "type": "function"
    },
    {
      "inputs": [
        {
          "internalType": "address[]",
          "name": "user",
          "type": "address[]"
        }
      ],
      "name": "deleteWhitelistInfo",
      "outputs": [],
      "stateMutability": "nonpayable",
      "type": "function"
    },
    {
      "inputs": [
        {
          "internalType": "address",
          "name": "",
          "type": "address"
        }
      ],
      "name": "flokiBurnerInfo",
      "outputs": [
        {
          "internalType": "bool",
          "name": "",
          "type": "bool"
        }
      ],
      "stateMutability": "view",
      "type": "function"
    },
    {
      "inputs": [],
      "name": "getProgress",
      "outputs": [
        {
          "internalType": "uint256",
          "name": "",
          "type": "uint256"
        }
      ],
      "stateMutability": "view",
      "type": "function"
    },
    {
      "inputs": [],
      "name": "getRaised",
      "outputs": [
        {
          "internalType": "uint256",
          "name": "",
          "type": "uint256"
        }
      ],
      "stateMutability": "view",
      "type": "function"
    },
    {
      "inputs": [],
      "name": "getTimestamp",
      "outputs": [
        {
          "internalType": "uint256",
          "name": "",
          "type": "uint256"
        }
      ],
      "stateMutability": "view",
      "type": "function"
    },
    {
      "inputs": [],
      "name": "getUserStatus",
      "outputs": [
        {
          "internalType": "uint256",
          "name": "",
          "type": "uint256"
        }
      ],
      "stateMutability": "view",
      "type": "function"
    },
    {
      "inputs": [
        {
          "internalType": "address",
          "name": "_sale_token",
          "type": "address"
        },
        {
          "internalType": "address",
          "name": "_base_token",
          "type": "address"
        },
        {
          "internalType": "bool",
          "name": "presale_in_native",
          "type": "bool"
        },
        {
          "internalType": "uint256",
          "name": "_buyback",
          "type": "uint256"
        },
        {
          "internalType": "bool",
          "name": "_whitelist",
          "type": "bool"
        },
        {
          "internalType": "uint256",
          "name": "_selling_amount",
          "type": "uint256"
        },
        {
          "internalType": "uint256",
          "name": "_softcap",
          "type": "uint256"
        },
        {
          "internalType": "uint256",
          "name": "_liquidityPercent",
          "type": "uint256"
        },
        {
          "internalType": "uint256",
          "name": "_presale_start",
          "type": "uint256"
        },
        {
          "internalType": "uint256",
          "name": "_presale_end",
          "type": "uint256"
        }
      ],
      "name": "init_private",
      "outputs": [],
      "stateMutability": "nonpayable",
      "type": "function"
    },
    {
      "inputs": [],
      "name": "lock_delay",
      "outputs": [
        {
          "internalType": "uint256",
          "name": "",
          "type": "uint256"
        }
      ],
      "stateMutability": "view",
      "type": "function"
    },
    {
      "inputs": [],
      "name": "meta_info",
      "outputs": [
        {
          "internalType": "bool",
          "name": "presale_in_native",
          "type": "bool"
        },
        {
          "internalType": "uint256",
          "name": "base_token_fee",
          "type": "uint256"
        },
        {
          "internalType": "uint256",
          "name": "sale_token_fee",
          "type": "uint256"
        },
        {
          "internalType": "bool",
          "name": "canceled",
          "type": "bool"
        },
        {
          "internalType": "uint256",
          "name": "referral_fee",
          "type": "uint256"
        },
        {
          "internalType": "address",
          "name": "referral_address",
          "type": "address"
        }
      ],
      "stateMutability": "view",
      "type": "function"
    },
    {
      "inputs": [],
      "name": "ownerView",
      "outputs": [
        {
          "internalType": "address",
          "name": "",
          "type": "address"
        }
      ],
      "stateMutability": "view",
      "type": "function"
    },
    {
      "inputs": [],
      "name": "presaleStatus",
      "outputs": [
        {
          "internalType": "uint256",
          "name": "",
          "type": "uint256"
        }
      ],
      "stateMutability": "view",
      "type": "function"
    },
    {
      "inputs": [],
      "name": "presale_info",
      "outputs": [
        {
          "internalType": "address",
          "name": "sale_token",
          "type": "address"
        },
        {
          "internalType": "address",
          "name": "base_token",
          "type": "address"
        },
        {
          "internalType": "uint256",
          "name": "buyback",
          "type": "uint256"
        },
        {
          "internalType": "bool",
          "name": "whitelist",
          "type": "bool"
        },
        {
          "internalType": "uint256",
          "name": "selling_amount",
          "type": "uint256"
        },
        {
          "internalType": "uint256",
          "name": "raise_min",
          "type": "uint256"
        },
        {
          "internalType": "uint256",
          "name": "softcap",
          "type": "uint256"
        },
        {
          "internalType": "uint256",
          "name": "liquidityPercent",
          "type": "uint256"
        },
        {
          "internalType": "uint256",
          "name": "presale_start",
          "type": "uint256"
        },
        {
          "internalType": "uint256",
          "name": "presale_end",
          "type": "uint256"
        },
        {
          "internalType": "enum Fairlaunch.PresaleType",
          "name": "presale_type",
          "type": "uint8"
        }
      ],
      "stateMutability": "view",
      "type": "function"
    },
    {
      "inputs": [],
      "name": "profit",
      "outputs": [
        {
          "internalType": "contract IMyContract",
          "name": "",
          "type": "address"
        }
      ],
      "stateMutability": "view",
      "type": "function"
    },
    {
      "inputs": [
        {
          "internalType": "address",
          "name": "to",
          "type": "address"
        }
      ],
      "name": "purchaseICOCoin",
      "outputs": [],
      "stateMutability": "nonpayable",
      "type": "function"
    },
    {
      "inputs": [],
      "name": "referral_address",
      "outputs": [
        {
          "internalType": "address",
          "name": "",
          "type": "address"
        }
      ],
      "stateMutability": "view",
      "type": "function"
    },
    {
      "inputs": [],
      "name": "referral_fee",
      "outputs": [
        {
          "internalType": "uint256",
          "name": "",
          "type": "uint256"
        }
      ],
      "stateMutability": "view",
      "type": "function"
    },
    {
      "inputs": [],
      "name": "router",
      "outputs": [
        {
          "internalType": "contract IPancakeSwapRouter",
          "name": "",
          "type": "address"
        }
      ],
      "stateMutability": "view",
      "type": "function"
    },
    {
      "inputs": [],
      "name": "setCancel",
      "outputs": [],
      "stateMutability": "nonpayable",
      "type": "function"
    },
    {
      "inputs": [
        {
          "internalType": "uint256",
          "name": "_base_token_fee",
          "type": "uint256"
        },
        {
          "internalType": "uint256",
          "name": "_sale_token_fee",
          "type": "uint256"
        }
      ],
      "name": "setFees",
      "outputs": [],
      "stateMutability": "nonpayable",
      "type": "function"
    },
    {
      "inputs": [
        {
          "internalType": "uint256",
          "name": "delay",
          "type": "uint256"
        }
      ],
      "name": "setLockDelay",
      "outputs": [],
      "stateMutability": "nonpayable",
      "type": "function"
    },
    {
      "inputs": [
        {
          "internalType": "address",
          "name": "_newOwner",
          "type": "address"
        }
      ],
      "name": "setOwner",
      "outputs": [],
      "stateMutability": "nonpayable",
      "type": "function"
    },
    {
      "inputs": [
        {
          "internalType": "address",
          "name": "to",
          "type": "address"
        }
      ],
      "name": "setProfitAddress",
      "outputs": [],
      "stateMutability": "nonpayable",
      "type": "function"
    },
    {
      "inputs": [
        {
          "internalType": "address",
          "name": "referralAddress",
          "type": "address"
        },
        {
          "internalType": "uint256",
          "name": "referralFee",
          "type": "uint256"
        }
      ],
      "name": "setReferral",
      "outputs": [],
      "stateMutability": "nonpayable",
      "type": "function"
    },
    {
      "inputs": [
        {
          "internalType": "address",
          "name": "_referralAddr",
          "type": "address"
        },
        {
          "internalType": "uint256",
          "name": "_referralFee",
          "type": "uint256"
        }
      ],
      "name": "setRefferal",
      "outputs": [],
      "stateMutability": "nonpayable",
      "type": "function"
    },
    {
      "inputs": [
        {
          "internalType": "bool",
          "name": "_whiteList",
          "type": "bool"
        }
      ],
      "name": "setWhiteListable",
      "outputs": [],
      "stateMutability": "nonpayable",
      "type": "function"
    },
    {
      "inputs": [],
      "name": "setWhitelist",
      "outputs": [],
      "stateMutability": "nonpayable",
      "type": "function"
    },
    {
      "inputs": [
        {
          "internalType": "address[]",
          "name": "user",
          "type": "address[]"
        },
        {
          "internalType": "bool",
          "name": "isBurner",
          "type": "bool"
        }
      ],
      "name": "setWhitelistInfo",
      "outputs": [],
      "stateMutability": "nonpayable",
      "type": "function"
    },
    {
      "inputs": [],
      "name": "tokeninfo",
      "outputs": [
        {
          "internalType": "string",
          "name": "name",
          "type": "string"
        },
        {
          "internalType": "string",
          "name": "symbol",
          "type": "string"
        },
        {
          "internalType": "uint256",
          "name": "totalsupply",
          "type": "uint256"
        },
        {
          "internalType": "uint256",
          "name": "decimal",
          "type": "uint256"
        }
      ],
      "stateMutability": "view",
      "type": "function"
    },
    {
      "inputs": [
        {
          "internalType": "uint256",
          "name": "_amount",
          "type": "uint256"
        }
      ],
      "name": "userDeposit",
      "outputs": [],
      "stateMutability": "payable",
      "type": "function"
    },
    {
      "inputs": [],
      "name": "userWithdrawBaseTokens",
      "outputs": [],
      "stateMutability": "nonpayable",
      "type": "function"
    },
    {
      "inputs": [],
      "name": "userWithdrawTokens",
      "outputs": [],
      "stateMutability": "nonpayable",
      "type": "function"
    },
    {
      "inputs": [],
      "name": "whiteList",
      "outputs": [
        {
          "internalType": "bool",
          "name": "",
          "type": "bool"
        }
      ],
      "stateMutability": "view",
      "type": "function"
    },
    {
      "inputs": [
        {
          "internalType": "address",
          "name": "",
          "type": "address"
        }
      ],
      "name": "whitelistInfo",
      "outputs": [
        {
          "internalType": "bool",
          "name": "",
          "type": "bool"
        }
      ],
      "stateMutability": "view",
      "type": "function"
    }
  ],
  "bytecode": "0x6080604052601d80546001600160a01b031990811673800e6aac8f0dcbd8e809add117898c59b90cc445179091556021805490911661dead1790553480156200004757600080fd5b506040516200364c3803806200364c8339810160408190526200006a91620005ba565b6001600055600580546001600160a01b03191633179055620000958a8a8a8a8a8a8a8a8a8a620000fc565b600580546001600160a01b0319166001600160a01b038d16908117909155604080519182523060208301527fcfea6066a7ff70439f7cfe020aea9709cf4b7cb462225660895dfcc5c38716ae910160405180910390a15050505050505050505050620007dc565b6005546001600160a01b03163314620001515760405162461bcd60e51b81526020600482015260126024820152712737ba10383932b9b0b6329037bbb732b91760711b60448201526064015b60405180910390fd5b600554600160a01b900460ff16156200019e5760405162461bcd60e51b815260206004820152600e60248201526d105b1c9958591e481cd95d1d195960921b604482015260640162000148565b6001600160a01b038a16620001e55760405162461bcd60e51b815260206004820152600c60248201526b5a65726f204164647265737360a01b604482015260640162000148565b600680546001600160a01b03808d166001600160a01b03199283161790925560078054928c169290911691909117905560088790556009805487151560ff19918216811790925560158054600a899055600c889055600d879055600f859055600e8690558b15158316908316179055600180549091168155141562000277576010805460ff1916600117905562000282565b6010805460ff191690555b600654604080516306fdde0360e01b815290516001600160a01b03909216916306fdde03916004808201926000929091908290030181865afa158015620002cd573d6000803e3d6000fd5b505050506040513d6000823e601f3d908101601f19168201604052620002f791908101906200067d565b80516200030d91601191602090910190620004e6565b50600654604080516395d89b4160e01b815290516001600160a01b03909216916395d89b41916004808201926000929091908290030181865afa15801562000359573d6000803e3d6000fd5b505050506040513d6000823e601f3d908101601f191682016040526200038391908101906200067d565b80516200039991601291602090910190620004e6565b506006546040805163313ce56760e01b815290516001600160a01b039092169163313ce567916004808201926020929091908290030181865afa158015620003e5573d6000803e3d6000fd5b505050506040513d601f19601f820116820180604052508101906200040b919062000759565b60ff16601455600654604080516318160ddd60e01b815290516001600160a01b03909216916318160ddd916004808201926020929091908290030181865afa1580156200045c573d6000803e3d6000fd5b505050506040513d601f19601f8201168201806040525081019062000482919062000785565b6013555050601b80546001600160a01b031990811673cd7d16fb918511bf7269ec4f48d61d79fb26f91817909155601d54601c80549092166001600160a01b039190911617905550506005805460ff60a01b1916600160a01b179055505050505050565b828054620004f4906200079f565b90600052602060002090601f01602090048101928262000518576000855562000563565b82601f106200053357805160ff191683800117855562000563565b8280016001018555821562000563579182015b828111156200056357825182559160200191906001019062000546565b506200057192915062000575565b5090565b5b8082111562000571576000815560010162000576565b80516001600160a01b0381168114620005a457600080fd5b919050565b80518015158114620005a457600080fd5b60008060008060008060008060008060006101608c8e031215620005dd57600080fd5b620005e88c6200058c565b9a50620005f860208d016200058c565b99506200060860408d016200058c565b98506200061860608d01620005a9565b975060808c015196506200062f60a08d01620005a9565b955060c08c0151945060e08c015193506101008c015192506101208c015191506101408c015190509295989b509295989b9093969950565b634e487b7160e01b600052604160045260246000fd5b600060208083850312156200069157600080fd5b82516001600160401b0380821115620006a957600080fd5b818501915085601f830112620006be57600080fd5b815181811115620006d357620006d362000667565b604051601f8201601f19908116603f01168101908382118183101715620006fe57620006fe62000667565b8160405282815288868487010111156200071757600080fd5b600093505b828410156200073b57848401860151818501870152928501926200071c565b828411156200074d5760008684830101525b98975050505050505050565b6000602082840312156200076c57600080fd5b815160ff811681146200077e57600080fd5b9392505050565b6000602082840312156200079857600080fd5b5051919050565b600181811c90821680620007b457607f821691505b60208210811415620007d657634e487b7160e01b600052602260045260246000fd5b50919050565b612e6080620007ec6000396000f3fe6080604052600436106102255760003560e01c8063b692c89d11610123578063d5f76327116100ab578063f868e7661161006f578063f868e766146106dc578063f887ea40146106ef578063f8ecf32d1461070f578063fd68f2231461072f578063fe8121de1461074457600080fd5b8063d5f7632714610650578063e360141814610670578063e4144f8c14610685578063e650f536146106a5578063f37c4dc8146106c757600080fd5b8063c39e7dbb116100f2578063c39e7dbb1461057c578063c63df23c14610591578063c9fbdc3614610605578063ca1a961d1461061b578063d2618baf1461063b57600080fd5b8063b692c89d14610502578063b923b20514610517578063b96816481461052c578063c06c7d491461054c57600080fd5b8063686b3861116101b1578063939c445611610175578063939c44561461046657806397a993aa1461047b5780639d1213a7146104a8578063acfb2355146104cd578063ae5e6406146104e257600080fd5b8063686b3861146103c85780636d4edb94146103e65780637ecc659114610406578063826cc57a1461042657806382cf114c1461044657600080fd5b80633544a864116101f85780633544a864146102a85780634567ce8e146102d95780634d18b5e2146103085780635f87602f1461037057806366d16cc31461039057600080fd5b80630b78f9c01461022a578063112f5dad1461024c57806313af403514610275578063188ec35614610295575b600080fd5b34801561023657600080fd5b5061024a610245366004612697565b610759565b005b34801561025857600080fd5b5061026260225481565b6040519081526020015b60405180910390f35b34801561028157600080fd5b5061024a6102903660046126ce565b610797565b3480156102a157600080fd5b5042610262565b3480156102b457600080fd5b506004546102c990600160a01b900460ff1681565b604051901515815260200161026c565b3480156102e557600080fd5b506102c96102f43660046126ce565b602080526000908152604090205460ff1681565b34801561031457600080fd5b50600654600754600854600954600a54600b54600c54600d54600e54600f546010546103599a6001600160a01b039081169a16989760ff90811697969594939291168b565b60405161026c9b9a99989796959493929190612701565b34801561037c57600080fd5b5061024a61038b36600461285a565b6107e3565b34801561039c57600080fd5b50601c546103b0906001600160a01b031681565b6040516001600160a01b03909116815260200161026c565b3480156103d457600080fd5b506005546001600160a01b03166103b0565b3480156103f257600080fd5b5061024a6104013660046128a5565b6108ab565b34801561041257600080fd5b5061024a6104213660046128c2565b6108f3565b34801561043257600080fd5b506004546103b0906001600160a01b031681565b34801561045257600080fd5b5061024a6104613660046126ce565b610943565b34801561047257600080fd5b5061026261098f565b34801561048757600080fd5b506102626104963660046126ce565b601e6020526000908152604090205481565b3480156104b457600080fd5b506104bd6109bc565b60405161026c9493929190612946565b3480156104d957600080fd5b50610262610ae8565b3480156104ee57600080fd5b5061024a6104fd3660046128c2565b610b78565b34801561050e57600080fd5b50600254610262565b34801561052357600080fd5b5061024a610bc8565b34801561053857600080fd5b5061024a61054736600461297f565b610c01565b34801561055857600080fd5b506102c96105673660046126ce565b601f6020526000908152604090205460ff1681565b34801561058857600080fd5b5061024a610faa565b34801561059d57600080fd5b50601554601654601754601854601954601a546105cb9560ff9081169594931691906001600160a01b031686565b6040805196151587526020870195909552938501929092521515606084015260808301526001600160a01b031660a082015260c00161026c565b34801561061157600080fd5b5061026260035481565b34801561062757600080fd5b5061024a610636366004612a13565b6110c3565b34801561064757600080fd5b5061024a6110f2565b34801561065c57600080fd5b5061026261066b3660046126ce565b61112b565b34801561067c57600080fd5b50610262611186565b34801561069157600080fd5b5061024a6106a0366004612a2c565b6111e9565b3480156106b157600080fd5b50336000908152601e6020526040902054610262565b3480156106d357600080fd5b506102626112b3565b61024a6106ea366004612a13565b61135d565b3480156106fb57600080fd5b50601b546103b0906001600160a01b031681565b34801561071b57600080fd5b5061024a61072a3660046126ce565b611591565b34801561073b57600080fd5b5061024a611d4e565b34801561075057600080fd5b5061024a611e8b565b6005546001600160a01b0316331461078c5760405162461bcd60e51b815260040161078390612a7e565b60405180910390fd5b601691909155601755565b6005546001600160a01b031633146107c15760405162461bcd60e51b815260040161078390612a7e565b600580546001600160a01b0319166001600160a01b0392909216919091179055565b6005546001600160a01b0316331461080d5760405162461bcd60e51b815260040161078390612a7e565b600160105460ff166001811115610826576108266126eb565b146108675760405162461bcd60e51b81526020600482015260116024820152701dda1a5d195b1a5cdd081b9bdd081cd95d607a1b6044820152606401610783565b60005b81518110156108a75761089582828151811061088857610888612aaa565b6020026020010151611fc2565b8061089f81612ad6565b91505061086a565b5050565b6005546001600160a01b031633146108d55760405162461bcd60e51b815260040161078390612a7e565b60048054911515600160a01b0260ff60a01b19909216919091179055565b6005546001600160a01b0316331461091d5760405162461bcd60e51b815260040161078390612a7e565b601a80546001600160a01b0319166001600160a01b039390931692909217909155601955565b6005546001600160a01b0316331461096d5760405162461bcd60e51b815260040161078390612a7e565b601d80546001600160a01b0319166001600160a01b0392909216919091179055565b6000806109b660068001546109b0606460025461202f90919063ffffffff16565b906120ae565b92915050565b6011805481906109cb90612af1565b80601f01602080910402602001604051908101604052809291908181526020018280546109f790612af1565b8015610a445780601f10610a1957610100808354040283529160200191610a44565b820191906000526020600020905b815481529060010190602001808311610a2757829003601f168201915b505050505090806001018054610a5990612af1565b80601f0160208091040260200160405190810160405280929190818152602001828054610a8590612af1565b8015610ad25780601f10610aa757610100808354040283529160200191610ad2565b820191906000526020600020905b815481529060010190602001808311610ab557829003601f168201915b5050505050908060020154908060030154905084565b6001805460009160ff90911615151415610b025750600590565b60155460ff16151560011415610b185750600490565b600f5442118015610b2a5750600c5447105b15610b355750600390565b600f5442118015610b485750600c544710155b15610b535750600290565b600e544210801590610b675750600f544211155b15610b725750600190565b50600090565b6005546001600160a01b03163314610ba25760405162461bcd60e51b815260040161078390612a7e565b600480546001600160a01b0319166001600160a01b039390931692909217909155600355565b6005546001600160a01b03163314610bf25760405162461bcd60e51b815260040161078390612a7e565b6010805460ff19166001179055565b6005546001600160a01b03163314610c2b5760405162461bcd60e51b815260040161078390612a7e565b600554600160a01b900460ff1615610c765760405162461bcd60e51b815260206004820152600e60248201526d105b1c9958591e481cd95d1d195960921b6044820152606401610783565b6001600160a01b038a16610cbb5760405162461bcd60e51b815260206004820152600c60248201526b5a65726f204164647265737360a01b6044820152606401610783565b600680546001600160a01b03808d166001600160a01b03199283161790925560078054928c169290911691909117905560088790556009805487151560ff19918216811790925560158054600a899055600c889055600d879055600f859055600e8690558b151583169083161790556001805490911681551415610d4b576010805460ff19166001179055610d56565b6010805460ff191690555b600654604080516306fdde0360e01b815290516001600160a01b03909216916306fdde03916004808201926000929091908290030181865afa158015610da0573d6000803e3d6000fd5b505050506040513d6000823e601f3d908101601f19168201604052610dc89190810190612b2c565b8051610ddc916011916020909101906125fe565b50600654604080516395d89b4160e01b815290516001600160a01b03909216916395d89b41916004808201926000929091908290030181865afa158015610e27573d6000803e3d6000fd5b505050506040513d6000823e601f3d908101601f19168201604052610e4f9190810190612b2c565b8051610e63916012916020909101906125fe565b506006546040805163313ce56760e01b815290516001600160a01b039092169163313ce567916004808201926020929091908290030181865afa158015610eae573d6000803e3d6000fd5b505050506040513d601f19601f82011682018060405250810190610ed29190612bc0565b60ff16601455600654604080516318160ddd60e01b815290516001600160a01b03909216916318160ddd916004808201926020929091908290030181865afa158015610f22573d6000803e3d6000fd5b505050506040513d601f19601f82011682018060405250810190610f469190612be3565b6013555050601b80546001600160a01b031990811673cd7d16fb918511bf7269ec4f48d61d79fb26f91817909155601d54601c80549092166001600160a01b039190911617905550506005805460ff60a01b1916600160a01b179055505050505050565b60026000541415610fcd5760405162461bcd60e51b815260040161078390612bfc565b6002600055610fda610ae8565b60031480610fef5750610feb610ae8565b6004145b61103b5760405162461bcd60e51b815260206004820152601760248201527f4e6f74206661696c6564206f722063616e63656c65642e0000000000000000006044820152606401610783565b336000818152601e602052604090205460075460155491929161106e916001600160a01b0316908390859060ff166120f0565b336000908152601e602052604080822091909155517fba8f86526b8f4836c344cbbb8d752a5deb45d8d86c8fdcc0318124656ed1f169906110b29084815260200190565b60405180910390a150506001600055565b6005546001600160a01b031633146110ed5760405162461bcd60e51b815260040161078390612a7e565b602255565b6005546001600160a01b0316331461111c5760405162461bcd60e51b815260040161078390612a7e565b6015805460ff19166001179055565b6000806111366112b3565b601454909150611147906012612c33565b61115290600a612d2e565b6001600160a01b0384166000908152601e60205260409020546111759083612d3a565b61117f9190612d59565b9392505050565b6000806111916112b3565b905060006064600660070154476111a89190612d3a565b6111b29190612d59565b6014549091506111c3906012612c33565b6111ce90600a612d2e565b6111d88383612d3a565b6111e29190612d59565b9250505090565b6005546001600160a01b031633146112135760405162461bcd60e51b815260040161078390612a7e565b600160105460ff16600181111561122c5761122c6126eb565b1461126d5760405162461bcd60e51b81526020600482015260116024820152701dda1a5d195b1a5cdd081b9bdd081cd95d607a1b6044820152606401610783565b60005b82518110156112ae5761129c83828151811061128e5761128e612aaa565b60200260200101518361224e565b806112a681612ad6565b915050611270565b505050565b601554600090819060ff16611333576007546040516370a0823160e01b81523060048201526001600160a01b03909116906370a0823190602401602060405180830381865afa15801561130a573d6000803e3d6000fd5b505050506040513d601f19601f8201168201806040525081019061132e9190612be3565b611335565b475b600a5490915061134d82670de0b6b3a7640000612d59565b6113579190612d3a565b91505090565b600260005414156113805760405162461bcd60e51b815260040161078390612bfc565b6002600055600160105460ff16600181111561139e5761139e6126eb565b141561140857336000908152601f602052604090205460ff1615156001146114085760405162461bcd60e51b815260206004820152601860248201527f596f7520617265206e6f742077686974656c69737465642e00000000000000006044820152606401610783565b611410610ae8565b60011461144c5760405162461bcd60e51b815260206004820152600a6024820152694e6f742041637469766560b01b6044820152606401610783565b60155460ff16156114a2576000341161149d5760405162461bcd60e51b81526020600482015260136024820152722130b630b731b29034b99034b73b30b634b21760691b6044820152606401610783565b6114e8565b600081116114e85760405162461bcd60e51b81526020600482015260136024820152722130b630b731b29034b99034b73b30b634b21760691b6044820152606401610783565b60155460009060ff166114fb57816114fd565b345b336000908152601e602052604090205490915061151a90826122b9565b336000908152601e602052604090205560025461153790826122b9565b60025560155460ff1661155c5760075461155c906001600160a01b0316333084612318565b604080513381523460208201527f6800c78b31b30f29de1de17ff27c5e7c5a990802a69fd1216dd496bafd9c6e0191016110b2565b600260005414156115b45760405162461bcd60e51b815260040161078390612bfc565b60026000556005546001600160a01b031633146115e35760405162461bcd60e51b815260040161078390612a7e565b6115eb610ae8565b60021461162a5760405162461bcd60e51b815260206004820152600d60248201526c139bdd081cdd58d8d959591959609a1b6044820152606401610783565b601c54604080516319e77fed60e21b8152905183926000926001600160a01b039091169163679dffb4916004808201926020929091908290030181865afa158015611679573d6000803e3d6000fd5b505050506040513d601f19601f8201168201806040525081019061169d9190612d7b565b60025460165491925090156117f15760006116cb60646109b06015600101548561202f90919063ffffffff16565b90506116d78282612440565b50601a546001600160a01b03161561178857600061170860646109b06015600401548561202f90919063ffffffff16565b60155490915060ff161561175657601a546040516001600160a01b039091169082156108fc029083906000818181858888f19350505050158015611750573d6000803e3d6000fd5b5061177b565b600754601a5460155461177b926001600160a01b03908116921690849060ff166120f0565b6117858282612440565b50505b60155460ff16156117cf576040516001600160a01b0384169082156108fc029083906000818181858888f193505050501580156117c9573d6000803e3d6000fd5b506117ef565b6007546015546117ef916001600160a01b0316903090849060ff166120f0565b505b601754156118cf5760145460009061180a906012612c33565b61181590600a612d2e565b6002546118206112b3565b61182a9190612d3a565b6118349190612d59565b9050600061185560646109b06015600201548561202f90919063ffffffff16565b601a549091506001600160a01b0316156118af57600061188860646109b06015600401548561202f90919063ffffffff16565b6006549091506118a2906001600160a01b03163384612482565b6118ac8282612440565b50505b600654601a546118cc916001600160a01b03908116911683612482565b50505b60155460009060ff1661194d576007546040516370a0823160e01b81523060048201526001600160a01b03909116906370a0823190602401602060405180830381865afa158015611924573d6000803e3d6000fd5b505050506040513d601f19601f820116820180604052508101906119489190612be3565b61194f565b475b905060006064600660070154836119669190612d3a565b6119709190612d59565b9050600061197c6112b3565b601454909150600090611990906012612c33565b61199b90600a612d2e565b6119a58385612d3a565b6119af9190612d59565b6006546040516370a0823160e01b815230600482015291925082916001600160a01b03909116906370a0823190602401602060405180830381865afa1580156119fc573d6000803e3d6000fd5b505050506040513d601f19601f82011682018060405250810190611a209190612be3565b1015611a645760405162461bcd60e51b8152602060048201526013602482015272696e73756666696369656e7420746f6b656e7360681b6044820152606401610783565b600654601b5460405163095ea7b360e01b81526001600160a01b0391821660048201526024810184905291169063095ea7b3906044016020604051808303816000875af1158015611ab9573d6000803e3d6000fd5b505050506040513d601f19601f82011682018060405250810190611add9190612d98565b5060155460ff1615611b8857601b5460065460405163f305d71960e01b81526001600160a01b03918216600482015260248101849052600060448201819052606482015289821660848201524260a482015291169063f305d71990859060c40160606040518083038185885af1158015611b5b573d6000803e3d6000fd5b50505050506040513d601f19601f82011682018060405250810190611b809190612db5565b505050611d06565b600754601b5460405163095ea7b360e01b81526001600160a01b03918216600482015260248101869052600092919091169063095ea7b3906044016020604051808303816000875af1158015611be2573d6000803e3d6000fd5b505050506040513d601f19601f82011682018060405250810190611c069190612d98565b9050600181151514611c5a5760405162461bcd60e51b815260206004820152601960248201527f4261736520546f6b656e20417070726f7665206661696c6564000000000000006044820152606401610783565b601b5460075460065460405162e8e33760e81b81526001600160a01b0392831660048201529082166024820152604481018790526064810185905260006084820181905260a48201528a821660c48201524260e482015291169063e8e3370090610104016060604051808303816000875af1158015611cdd573d6000803e3d6000fd5b505050506040513d601f19601f82011682018060405250810190611d019190612db5565b505050505b611d108484612440565b600754601554919550611d35916001600160a01b03909116908990879060ff166120f0565b50506001805460ff191681178155600055505050505050565b601c5460408051632a6dd8c960e01b815290516000926001600160a01b031691632a6dd8c99160048083019260209291908290030181865afa158015611d98573d6000803e3d6000fd5b505050506040513d601f19601f82011682018060405250810190611dbc9190612be3565b90506000601c60009054906101000a90046001600160a01b03166001600160a01b031663679dffb46040518163ffffffff1660e01b8152600401602060405180830381865afa158015611e13573d6000803e3d6000fd5b505050506040513d601f19601f82011682018060405250810190611e379190612d7b565b9050476000611e4b60646109b0848761202f565b6040519091506001600160a01b0384169082156108fc029083906000818181858888f19350505050158015611e84573d6000803e3d6000fd5b5050505050565b60026000541415611eae5760405162461bcd60e51b815260040161078390612bfc565b6002600055611ebb610ae8565b600214611efa5760405162461bcd60e51b815260206004820152600d60248201526c139bdd081cdd58d8d959591959609a1b6044820152606401610783565b602254600f54611f0a9190612de3565b421015611f495760405162461bcd60e51b815260206004820152600d60248201526c2a37b5b2b7102637b1b5b2b21760991b6044820152606401610783565b6000611f543361112b565b600654909150611f6e906001600160a01b03163383612482565b336000908152601e602052604080822091909155517f6eb77a5c4ed3153e65b1a8804e82c2ffa0d2b39fd8dba4ae39b6476c7bf65f7e90611fb29083815260200190565b60405180910390a1506001600055565b6005546001600160a01b03163314611fec5760405162461bcd60e51b815260040161078390612a7e565b6001600160a01b038116600090815260208052604090205460ff1661202c576001600160a01b0381166000908152601f60205260409020805460ff191690555b50565b60008261203e575060006109b6565b600061204a8385612d3a565b9050826120578583612d59565b1461117f5760405162461bcd60e51b815260206004820152602160248201527f536166654d6174683a206d756c7469706c69636174696f6e206f766572666c6f6044820152607760f81b6064820152608401610783565b600061117f83836040518060400160405280601b81526020017f536166654d6174683a206469766973696f6e206279207a65726f2e0000000000815250612596565b80612131576040516001600160a01b0384169083156108fc029084906000818181858888f1935050505015801561212b573d6000803e3d6000fd5b50612248565b604080516001600160a01b038581166024830152604480830186905283518084039091018152606490920183526020820180516001600160e01b031663a9059cbb60e01b179052915160009283929088169161218d9190612dfb565b6000604051808303816000865af19150503d80600081146121ca576040519150601f19603f3d011682016040523d82523d6000602084013e6121cf565b606091505b50915091508180156121f95750805115806121f95750808060200190518101906121f99190612d98565b6122455760405162461bcd60e51b815260206004820152601f60248201527f5472616e7366657248656c7065723a205452414e534645525f4641494c4544006044820152606401610783565b50505b50505050565b6005546001600160a01b031633146122785760405162461bcd60e51b815260040161078390612a7e565b6001600160a01b039091166000908152601f60209081526040808320805460ff19908116600117909155918052909120805492151592909116919091179055565b6000806122c68385612de3565b90508381101561117f5760405162461bcd60e51b815260206004820152601b60248201527f536166654d6174683a206164646974696f6e206f766572666c6f7700000000006044820152606401610783565b604080516001600160a01b0385811660248301528481166044830152606480830185905283518084039091018152608490920183526020820180516001600160e01b03166323b872dd60e01b179052915160009283929088169161237c9190612dfb565b6000604051808303816000865af19150503d80600081146123b9576040519150601f19603f3d011682016040523d82523d6000602084013e6123be565b606091505b50915091508180156123e85750805115806123e85750808060200190518101906123e89190612d98565b6122455760405162461bcd60e51b8152602060048201526024808201527f5472616e7366657248656c7065723a205452414e534645525f46524f4d5f46416044820152631253115160e21b6064820152608401610783565b600061117f83836040518060400160405280601e81526020017f536166654d6174683a207375627472616374696f6e206f766572666c6f7700008152506125cd565b604080516001600160a01b038481166024830152604480830185905283518084039091018152606490920183526020820180516001600160e01b031663a9059cbb60e01b17905291516000928392908716916124de9190612dfb565b6000604051808303816000865af19150503d806000811461251b576040519150601f19603f3d011682016040523d82523d6000602084013e612520565b606091505b509150915081801561254a57508051158061254a57508080602001905181019061254a9190612d98565b611e845760405162461bcd60e51b815260206004820152601f60248201527f5472616e7366657248656c7065723a205452414e534645525f4641494c4544006044820152606401610783565b600081836125b75760405162461bcd60e51b81526004016107839190612e17565b5060006125c48486612d59565b95945050505050565b600081848411156125f15760405162461bcd60e51b81526004016107839190612e17565b5060006125c48486612c33565b82805461260a90612af1565b90600052602060002090601f01602090048101928261262c5760008555612672565b82601f1061264557805160ff1916838001178555612672565b82800160010185558215612672579182015b82811115612672578251825591602001919060010190612657565b5061267e929150612682565b5090565b5b8082111561267e5760008155600101612683565b600080604083850312156126aa57600080fd5b50508035926020909101359150565b6001600160a01b038116811461202c57600080fd5b6000602082840312156126e057600080fd5b813561117f816126b9565b634e487b7160e01b600052602160045260246000fd5b6001600160a01b038c811682528b166020820152604081018a905288151560608201526080810188905260a0810187905260c0810186905260e081018590526101008101849052610120810183905261016081016002831061277357634e487b7160e01b600052602160045260246000fd5b826101408301529c9b505050505050505050505050565b634e487b7160e01b600052604160045260246000fd5b604051601f8201601f1916810167ffffffffffffffff811182821017156127c9576127c961278a565b604052919050565b600082601f8301126127e257600080fd5b8135602067ffffffffffffffff8211156127fe576127fe61278a565b8160051b61280d8282016127a0565b928352848101820192828101908785111561282757600080fd5b83870192505b8483101561284f578235612840816126b9565b8252918301919083019061282d565b979650505050505050565b60006020828403121561286c57600080fd5b813567ffffffffffffffff81111561288357600080fd5b61288f848285016127d1565b949350505050565b801515811461202c57600080fd5b6000602082840312156128b757600080fd5b813561117f81612897565b600080604083850312156128d557600080fd5b82356128e0816126b9565b946020939093013593505050565b60005b838110156129095781810151838201526020016128f1565b838111156122485750506000910152565b600081518084526129328160208601602086016128ee565b601f01601f19169290920160200192915050565b608081526000612959608083018761291a565b828103602084015261296b818761291a565b604084019590955250506060015292915050565b6000806000806000806000806000806101408b8d03121561299f57600080fd5b8a356129aa816126b9565b995060208b01356129ba816126b9565b985060408b01356129ca81612897565b975060608b0135965060808b01356129e181612897565b999c989b50969995989760a0870135975060c08701359660e08101359650610100810135955061012001359350915050565b600060208284031215612a2557600080fd5b5035919050565b60008060408385031215612a3f57600080fd5b823567ffffffffffffffff811115612a5657600080fd5b612a62858286016127d1565b9250506020830135612a7381612897565b809150509250929050565b6020808252601290820152712737ba10383932b9b0b6329037bbb732b91760711b604082015260600190565b634e487b7160e01b600052603260045260246000fd5b634e487b7160e01b600052601160045260246000fd5b6000600019821415612aea57612aea612ac0565b5060010190565b600181811c90821680612b0557607f821691505b60208210811415612b2657634e487b7160e01b600052602260045260246000fd5b50919050565b600060208284031215612b3e57600080fd5b815167ffffffffffffffff80821115612b5657600080fd5b818401915084601f830112612b6a57600080fd5b815181811115612b7c57612b7c61278a565b612b8f601f8201601f19166020016127a0565b9150808252856020828501011115612ba657600080fd5b612bb78160208401602086016128ee565b50949350505050565b600060208284031215612bd257600080fd5b815160ff8116811461117f57600080fd5b600060208284031215612bf557600080fd5b5051919050565b6020808252601f908201527f5265656e7472616e637947756172643a207265656e7472616e742063616c6c00604082015260600190565b600082821015612c4557612c45612ac0565b500390565b600181815b80851115612c85578160001904821115612c6b57612c6b612ac0565b80851615612c7857918102915b93841c9390800290612c4f565b509250929050565b600082612c9c575060016109b6565b81612ca9575060006109b6565b8160018114612cbf5760028114612cc957612ce5565b60019150506109b6565b60ff841115612cda57612cda612ac0565b50506001821b6109b6565b5060208310610133831016604e8410600b8410161715612d08575081810a6109b6565b612d128383612c4a565b8060001904821115612d2657612d26612ac0565b029392505050565b600061117f8383612c8d565b6000816000190483118215151615612d5457612d54612ac0565b500290565b600082612d7657634e487b7160e01b600052601260045260246000fd5b500490565b600060208284031215612d8d57600080fd5b815161117f816126b9565b600060208284031215612daa57600080fd5b815161117f81612897565b600080600060608486031215612dca57600080fd5b8351925060208401519150604084015190509250925092565b60008219821115612df657612df6612ac0565b500190565b60008251612e0d8184602087016128ee565b9190910192915050565b60208152600061117f602083018461291a56fea2646970667358221220d75985f18e11a805426f46597c6bdcce37aaa41b4fc58ac749b570b075123b5164736f6c634300080c0033",
  "linkReferences": {},
  "deployedLinkReferences": {}
}