{
  "_format": "hh-sol-artifact-1",
  "contractName": "MyContract",
  "sourceName": "contracts/presale/ThirdPart.sol",
  "abi": [
    {
      "inputs": [
        {
          "internalType": "address",
          "name": "_addr",
          "type": "address"
        },
        {
          "internalType": "uint256",
          "name": "_percent",
          "type": "uint256"
        }
      ],
      "stateMutability": "nonpayable",
      "type": "constructor"
    },
    {
      "inputs": [],
      "name": "getPercent",
      "outputs": [
        {
          "internalType": "uint256",
          "name": "",
          "type": "uint256"
        }
      ],
      "stateMutability": "view",
      "type": "function"
    },
    {
      "inputs": [],
      "name": "getProfit",
      "outputs": [
        {
          "internalType": "address",
          "name": "",
          "type": "address"
        }
      ],
      "stateMutability": "view",
      "type": "function"
    },
    {
      "inputs": [
        {
          "internalType": "uint256",
          "name": "_percent",
          "type": "uint256"
        }
      ],
      "name": "setPercent",
      "outputs": [],
      "stateMutability": "nonpayable",
      "type": "function"
    },
    {
      "inputs": [
        {
          "internalType": "address",
          "name": "_addr",
          "type": "address"
        }
      ],
      "name": "setProfit",
      "outputs": [],
      "stateMutability": "nonpayable",
      "type": "function"
    },
    {
      "inputs": [
        {
          "internalType": "address",
          "name": "to",
          "type": "address"
        }
      ],
      "name": "transferOwner",
      "outputs": [],
      "stateMutability": "nonpayable",
      "type": "function"
    }
  ],
  "bytecode": "0x608060405234801561001057600080fd5b506040516102e33803806102e383398101604081905261002f91610060565b600080546001600160a01b039093166001600160a01b0319938416179055600255600180549091163317905561009a565b6000806040838503121561007357600080fd5b82516001600160a01b038116811461008a57600080fd5b6020939093015192949293505050565b61023a806100a96000396000f3fe608060405234801561001057600080fd5b50600436106100575760003560e01c8063192d60111461005c5780632a6dd8c9146100715780634fb2e45d14610087578063679dffb41461009a5780637154b8b5146100b5575b600080fd5b61006f61006a366004610198565b6100c8565b005b6002546040519081526020015b60405180910390f35b61006f610095366004610198565b61011d565b6000546040516001600160a01b03909116815260200161007e565b61006f6100c33660046101c8565b610169565b6001546001600160a01b031633146100fb5760405162461bcd60e51b81526004016100f2906101e1565b60405180910390fd5b600080546001600160a01b0319166001600160a01b0392909216919091179055565b6001546001600160a01b031633146101475760405162461bcd60e51b81526004016100f2906101e1565b600180546001600160a01b0319166001600160a01b0392909216919091179055565b6001546001600160a01b031633146101935760405162461bcd60e51b81526004016100f2906101e1565b600255565b6000602082840312156101aa57600080fd5b81356001600160a01b03811681146101c157600080fd5b9392505050565b6000602082840312156101da57600080fd5b5035919050565b6020808252600990820152682737ba1037bbb732b960b91b60408201526060019056fea2646970667358221220b7f0098089767d2b0aa5e21038ee35e3a1e68e546c46884e8bfb350ec5bd697964736f6c634300080c0033",
  "linkReferences": {},
  "deployedLinkReferences": {}
}