{
  "_format": "hh-sol-artifact-1",
  "contractName": "Presale",
  "sourceName": "contracts/presale/Presale.sol",
  "abi": [
    {
      "inputs": [
        {
          "internalType": "uint256",
          "name": "softCap_",
          "type": "uint256"
        },
        {
          "internalType": "uint256",
          "name": "hardCap_",
          "type": "uint256"
        },
        {
          "internalType": "uint256",
          "name": "startTime_",
          "type": "uint256"
        },
        {
          "internalType": "uint256",
          "name": "tokenRate_",
          "type": "uint256"
        },
        {
          "internalType": "address",
          "name": "tokenAddr_",
          "type": "address"
        }
      ],
      "stateMutability": "nonpayable",
      "type": "constructor"
    },
    {
      "anonymous": false,
      "inputs": [
        {
          "indexed": false,
          "internalType": "uint8",
          "name": "version",
          "type": "uint8"
        }
      ],
      "name": "Initialized",
      "type": "event"
    },
    {
      "anonymous": false,
      "inputs": [
        {
          "indexed": true,
          "internalType": "address",
          "name": "previousOwner",
          "type": "address"
        },
        {
          "indexed": true,
          "internalType": "address",
          "name": "newOwner",
          "type": "address"
        }
      ],
      "name": "OwnershipTransferred",
      "type": "event"
    },
    {
      "inputs": [],
      "name": "Bid",
      "outputs": [],
      "stateMutability": "payable",
      "type": "function"
    },
    {
      "inputs": [],
      "name": "Cancel",
      "outputs": [],
      "stateMutability": "nonpayable",
      "type": "function"
    },
    {
      "inputs": [],
      "name": "Finalize",
      "outputs": [],
      "stateMutability": "nonpayable",
      "type": "function"
    },
    {
      "inputs": [
        {
          "internalType": "address",
          "name": "user",
          "type": "address"
        }
      ],
      "name": "addWhitelistAddr",
      "outputs": [],
      "stateMutability": "nonpayable",
      "type": "function"
    },
    {
      "inputs": [
        {
          "internalType": "address[]",
          "name": "user",
          "type": "address[]"
        }
      ],
      "name": "addWhitelistAddrArray",
      "outputs": [],
      "stateMutability": "nonpayable",
      "type": "function"
    },
    {
      "inputs": [],
      "name": "checkPresale",
      "outputs": [
        {
          "internalType": "uint8",
          "name": "",
          "type": "uint8"
        }
      ],
      "stateMutability": "view",
      "type": "function"
    },
    {
      "inputs": [],
      "name": "disableWhitelist",
      "outputs": [],
      "stateMutability": "nonpayable",
      "type": "function"
    },
    {
      "inputs": [],
      "name": "getEndTime",
      "outputs": [
        {
          "internalType": "uint256",
          "name": "",
          "type": "uint256"
        }
      ],
      "stateMutability": "view",
      "type": "function"
    },
    {
      "inputs": [],
      "name": "getIsWhitelist",
      "outputs": [
        {
          "internalType": "bool",
          "name": "",
          "type": "bool"
        }
      ],
      "stateMutability": "view",
      "type": "function"
    },
    {
      "inputs": [],
      "name": "getStartTime",
      "outputs": [
        {
          "internalType": "uint256",
          "name": "",
          "type": "uint256"
        }
      ],
      "stateMutability": "view",
      "type": "function"
    },
    {
      "inputs": [],
      "name": "getTokenTotalSupply",
      "outputs": [
        {
          "internalType": "uint256",
          "name": "",
          "type": "uint256"
        }
      ],
      "stateMutability": "view",
      "type": "function"
    },
    {
      "inputs": [],
      "name": "getTotalSupply",
      "outputs": [
        {
          "internalType": "uint256",
          "name": "",
          "type": "uint256"
        }
      ],
      "stateMutability": "view",
      "type": "function"
    },
    {
      "inputs": [
        {
          "internalType": "address",
          "name": "userAddr_",
          "type": "address"
        }
      ],
      "name": "getUserState",
      "outputs": [
        {
          "internalType": "bool",
          "name": "",
          "type": "bool"
        }
      ],
      "stateMutability": "view",
      "type": "function"
    },
    {
      "inputs": [
        {
          "internalType": "address",
          "name": "owner_",
          "type": "address"
        },
        {
          "internalType": "uint256",
          "name": "softCap_",
          "type": "uint256"
        },
        {
          "internalType": "uint256",
          "name": "hardCap_",
          "type": "uint256"
        },
        {
          "internalType": "uint256",
          "name": "max_",
          "type": "uint256"
        },
        {
          "internalType": "uint256",
          "name": "min_",
          "type": "uint256"
        },
        {
          "internalType": "uint256",
          "name": "startTime_",
          "type": "uint256"
        },
        {
          "internalType": "uint256",
          "name": "endTime_",
          "type": "uint256"
        },
        {
          "internalType": "uint256",
          "name": "tokenRate_",
          "type": "uint256"
        },
        {
          "internalType": "address",
          "name": "tokenAddr_",
          "type": "address"
        },
        {
          "internalType": "bool",
          "name": "isWhitelist",
          "type": "bool"
        }
      ],
      "name": "initialize",
      "outputs": [],
      "stateMutability": "nonpayable",
      "type": "function"
    },
    {
      "inputs": [],
      "name": "owner",
      "outputs": [
        {
          "internalType": "address",
          "name": "",
          "type": "address"
        }
      ],
      "stateMutability": "view",
      "type": "function"
    },
    {
      "inputs": [
        {
          "internalType": "address",
          "name": "user",
          "type": "address"
        }
      ],
      "name": "removeWhitelistAddr",
      "outputs": [],
      "stateMutability": "nonpayable",
      "type": "function"
    },
    {
      "inputs": [
        {
          "internalType": "address[]",
          "name": "user",
          "type": "address[]"
        }
      ],
      "name": "removeWhitelistAddrArray",
      "outputs": [],
      "stateMutability": "nonpayable",
      "type": "function"
    },
    {
      "inputs": [],
      "name": "renounceOwnership",
      "outputs": [],
      "stateMutability": "nonpayable",
      "type": "function"
    },
    {
      "inputs": [],
      "name": "setDisablePublic",
      "outputs": [],
      "stateMutability": "nonpayable",
      "type": "function"
    },
    {
      "inputs": [
        {
          "internalType": "uint256",
          "name": "date_",
          "type": "uint256"
        }
      ],
      "name": "setPublic",
      "outputs": [],
      "stateMutability": "nonpayable",
      "type": "function"
    },
    {
      "inputs": [
        {
          "internalType": "uint256",
          "name": "min_",
          "type": "uint256"
        },
        {
          "internalType": "uint256",
          "name": "max_",
          "type": "uint256"
        }
      ],
      "name": "setRange",
      "outputs": [],
      "stateMutability": "nonpayable",
      "type": "function"
    },
    {
      "inputs": [],
      "name": "setWhitelist",
      "outputs": [],
      "stateMutability": "nonpayable",
      "type": "function"
    },
    {
      "inputs": [
        {
          "internalType": "address",
          "name": "newOwner",
          "type": "address"
        }
      ],
      "name": "transferOwnership",
      "outputs": [],
      "stateMutability": "nonpayable",
      "type": "function"
    },
    {
      "inputs": [],
      "name": "withdraw",
      "outputs": [],
      "stateMutability": "nonpayable",
      "type": "function"
    }
  ],
  "bytecode": "0x608060405234801561001057600080fd5b5060405161153738038061153783398101604081905261002f9161007b565b620f42a994909455620f42aa92909255620f42ab55620f42b055620f42a880546001600160a01b0319166001600160a01b03909216919091179055620f42b1805460ff191690556100d6565b600080600080600060a0868803121561009357600080fd5b855160208701516040880151606089015160808a0151939850919650945092506001600160a01b03811681146100c857600080fd5b809150509295509295909350565b611452806100e56000396000f3fe60806040526004361061014b5760003560e01c8063715018a6116100b6578063c4e41b221161006f578063c4e41b2214610359578063c5454d111461036c578063c828371e14610381578063d6b0f48414610398578063df65d6e1146103ad578063f2fde38b146103cd57600080fd5b8063715018a6146102a757806383ad4542146102bc5780638da5cb5b146102dc578063a045c93e14610304578063b923b20514610324578063bbf586341461033957600080fd5b806341937b411161010857806341937b4114610214578063439f5ac2146102345780634aa8e77314610255578063538529741461026a57806357df844b1461028a5780636e6452cb1461029f57600080fd5b80630268966314610150578063056dd36b1461017c5780631ed6bcdd146101a857806331845f7d146101bf5780633ccfd60b146101df578063416ae768146101f4575b600080fd5b34801561015c57600080fd5b506101656103ed565b60405160ff90911681526020015b60405180910390f35b34801561018857600080fd5b50620f42b15462010000900460ff165b6040519015158152602001610173565b3480156101b457600080fd5b506101bd610428565b005b3480156101cb57600080fd5b506101bd6101da3660046110b1565b61049a565b3480156101eb57600080fd5b506101bd61050f565b34801561020057600080fd5b5061019861020f3660046110e6565b61066e565b34801561022057600080fd5b506101bd61022f3660046110e6565b61069c565b34801561024057600080fd5b50620f42ac545b604051908152602001610173565b34801561026157600080fd5b506101bd6106f7565b34801561027657600080fd5b506101bd6102853660046110e6565b6107e1565b34801561029657600080fd5b50610247610868565b6101bd6108dd565b3480156102b357600080fd5b506101bd610a85565b3480156102c857600080fd5b506101bd6102d7366004611108565b610a99565b3480156102e857600080fd5b506033546040516001600160a01b039091168152602001610173565b34801561031057600080fd5b506101bd61031f366004611140565b610ab0565b34801561033057600080fd5b506101bd610b27565b34801561034557600080fd5b506101bd610354366004611213565b610b45565b34801561036557600080fd5b5047610247565b34801561037857600080fd5b506101bd610cd7565b34801561038d57600080fd5b50620f42ab54610247565b3480156103a457600080fd5b506101bd610e77565b3480156103b957600080fd5b506101bd6103c8366004611140565b610ebe565b3480156103d957600080fd5b506101bd6103e83660046110e6565b610f35565b60006103f7610fab565b620f42a954479081101561040d57600091505090565b620f42aa54811061042057600291505090565b600191505090565b620f42b1546301000000900460ff1615156001146104815760405162461bcd60e51b8152602060048201526011602482015270141d589b1a58c8191a591b89dd081cd95d607a1b60448201526064015b60405180910390fd5b610489610fab565b620f42b1805463ff00000019169055565b620f42b1546301000000900460ff16156104eb5760405162461bcd60e51b8152602060048201526012602482015271141d589b1a58c8185b1c9958591e481cd95d60721b6044820152606401610478565b6104f3610fab565b620f42b1805463ffff000019166301000000179055620f42b255565b620f42b15460ff1615156001146105685760405162461bcd60e51b815260206004820152601760248201527f50726573616c65206973206e6f742066696e69736865640000000000000000006044820152606401610478565b610570610fab565b620f42a854620f42a7546040516370a0823160e01b815230600482018190526001600160a01b039384169384936323b872dd9391169084906370a0823190602401602060405180830381865afa1580156105ce573d6000803e3d6000fd5b505050506040513d601f19601f820116820180604052508101906105f291906112a0565b6040516001600160e01b031960e086901b1681526001600160a01b03938416600482015292909116602483015260448201526064016020604051808303816000875af1158015610646573d6000803e3d6000fd5b505050506040513d601f19601f8201168201806040525081019061066a91906112b9565b5050565b6001600160a01b0381166000908152606560205260408120541561069457506000919050565b506001919050565b620f42b15462010000900460ff1615156001146106cb5760405162461bcd60e51b8152600401610478906112d6565b6106d3610fab565b6001600160a01b03166000908152606660205260409020805460ff19166001179055565b620f42b15460ff161561071c5760405162461bcd60e51b815260040161047890611304565b610724610fab565b60005b620f42ad548110156107c857606781620f4240811061074857610748611331565b01546001600160a01b03166108fc60656000606785620f4240811061076f5761076f611331565b01546001600160a01b0316815260208101919091526040908101600090812054915182159093029290818181858888f193505050501580156107b5573d6000803e3d6000fd5b50806107c08161135d565b915050610727565b506000620f42ad55620f42b1805460ff19166001179055565b6107e9610fab565b6001600160a01b03811660009081526066602052604090205460ff1615156001146108475760405162461bcd60e51b815260206004820152600e60248201526d155cd95c881b9bdd08199bdd5b9960921b6044820152606401610478565b6001600160a01b03166000908152606660205260409020805460ff19169055565b620f42a854604080516318160ddd60e01b815290516000926001600160a01b0316916318160ddd9160048083019260209291908290030181865afa1580156108b4573d6000803e3d6000fd5b505050506040513d601f19601f820116820180604052508101906108d891906112a0565b905090565b620f42b154339062010000900460ff16151560011415610964576001600160a01b03811660009081526066602052604090205460ff1615156001146109645760405162461bcd60e51b815260206004820152601860248201527f596f7520617265206e6f7420696e2057686974656c69737400000000000000006044820152606401610478565b620f42b15460ff16156109895760405162461bcd60e51b815260040161047890611304565b34620f42af5481101580156109a25750620f42ae548111155b6109df5760405162461bcd60e51b815260206004820152600e60248201526d24b73b30b634b210273ab6b132b960911b6044820152606401610478565b3360009081526065602052604090205415610a1e573360009081526065602052604081208054349290610a13908490611378565b9091555061066a9050565b336067620f42ad54620f42408110610a3857610a38611331565b0180546001600160a01b0319166001600160a01b0392909216919091179055336000908152606560205260408120349055620f42ad805491610a798361135d565b91905055505050565b50565b610a8d610fab565b610a976000611005565b565b610aa1610fab565b620f42af91909155620f42ae55565b620f42b15462010000900460ff161515600114610adf5760405162461bcd60e51b8152600401610478906112d6565b610ae7610fab565b60005b815181101561066a57610b15828281518110610b0857610b08611331565b602002602001015161069c565b80610b1f8161135d565b915050610aea565b610b2f610fab565b620f42b1805463ffff0000191662010000179055565b600054610100900460ff1615808015610b655750600054600160ff909116105b80610b7f5750303b158015610b7f575060005460ff166001145b610be25760405162461bcd60e51b815260206004820152602e60248201527f496e697469616c697a61626c653a20636f6e747261637420697320616c72656160448201526d191e481a5b9a5d1a585b1a5e995960921b6064820152608401610478565b6000805460ff191660011790558015610c05576000805461ff0019166101001790555b620f42a98a9055620f42aa899055620f42ab869055620f42ac859055620f42b0849055620f42a880546001600160a01b0319166001600160a01b038516179055620f42b18054620f42ae8a9055620f42af899055630100000063ffff00ff19909116620100008515150217179055610c7b611057565b610c848b610f35565b8015610cca576000805461ff0019169055604051600181527f7f26b83ff96e1f2b6a682f133852f6798a09c465da95921460cefb38474024989060200160405180910390a15b5050505050505050505050565b620f42b15460ff1615610cfc5760405162461bcd60e51b815260040161047890611304565b610d04610fab565b60405133904780156108fc02916000818181858888f19350505050158015610d30573d6000803e3d6000fd5b50620f42a8546001600160a01b031660005b620f42ad54811015610e6457816001600160a01b03166323b872dd30606784620f42408110610d7357610d73611331565b0154620f42b0546001600160a01b0390911690670de0b6b3a76400009060656000606789620f42408110610da957610da9611331565b01546001600160a01b03168152602081019190915260400160002054610dcf9190611390565b610dd991906113af565b6040516001600160e01b031960e086901b1681526001600160a01b03938416600482015292909116602483015260448201526064016020604051808303816000875af1158015610e2d573d6000803e3d6000fd5b505050506040513d601f19601f82011682018060405250810190610e5191906112b9565b5080610e5c8161135d565b915050610d42565b5050620f42b1805460ff19166001179055565b620f42b15462010000900460ff161515600114610ea65760405162461bcd60e51b8152600401610478906112d6565b610eae610fab565b620f42b1805462ff000019169055565b620f42b15462010000900460ff161515600114610eed5760405162461bcd60e51b8152600401610478906112d6565b610ef5610fab565b60005b815181101561066a57610f23828281518110610f1657610f16611331565b60200260200101516107e1565b80610f2d8161135d565b915050610ef8565b610f3d610fab565b6001600160a01b038116610fa25760405162461bcd60e51b815260206004820152602660248201527f4f776e61626c653a206e6577206f776e657220697320746865207a65726f206160448201526564647265737360d01b6064820152608401610478565b610a8281611005565b6033546001600160a01b03163314610a975760405162461bcd60e51b815260206004820181905260248201527f4f776e61626c653a2063616c6c6572206973206e6f7420746865206f776e65726044820152606401610478565b603380546001600160a01b038381166001600160a01b0319831681179093556040519116919082907f8be0079c531659141344cd1fd0a4f28419497f9722a3daafe3b4186f6b6457e090600090a35050565b600054610100900460ff1661107e5760405162461bcd60e51b8152600401610478906113d1565b610a97600054610100900460ff166110a85760405162461bcd60e51b8152600401610478906113d1565b610a9733611005565b6000602082840312156110c357600080fd5b5035919050565b80356001600160a01b03811681146110e157600080fd5b919050565b6000602082840312156110f857600080fd5b611101826110ca565b9392505050565b6000806040838503121561111b57600080fd5b50508035926020909101359150565b634e487b7160e01b600052604160045260246000fd5b6000602080838503121561115357600080fd5b823567ffffffffffffffff8082111561116b57600080fd5b818501915085601f83011261117f57600080fd5b8135818111156111915761119161112a565b8060051b604051601f19603f830116810181811085821117156111b6576111b661112a565b6040529182528482019250838101850191888311156111d457600080fd5b938501935b828510156111f9576111ea856110ca565b845293850193928501926111d9565b98975050505050505050565b8015158114610a8257600080fd5b6000806000806000806000806000806101408b8d03121561123357600080fd5b61123c8b6110ca565b995060208b0135985060408b0135975060608b0135965060808b0135955060a08b0135945060c08b0135935060e08b0135925061127c6101008c016110ca565b91506101208b013561128d81611205565b809150509295989b9194979a5092959850565b6000602082840312156112b257600080fd5b5051919050565b6000602082840312156112cb57600080fd5b815161110181611205565b60208082526014908201527315da1a5d195b1a5cdd08191a591b89dd081cd95d60621b604082015260600190565b602080825260139082015272141c995cd85b19481a5cc8199a5b9a5cda1959606a1b604082015260600190565b634e487b7160e01b600052603260045260246000fd5b634e487b7160e01b600052601160045260246000fd5b600060001982141561137157611371611347565b5060010190565b6000821982111561138b5761138b611347565b500190565b60008160001904831182151516156113aa576113aa611347565b500290565b6000826113cc57634e487b7160e01b600052601260045260246000fd5b500490565b6020808252602b908201527f496e697469616c697a61626c653a20636f6e7472616374206973206e6f74206960408201526a6e697469616c697a696e6760a81b60608201526080019056fea264697066735822122038f95f1cb5c0b9f7b413367b220c5fca52510981940966378b4dd1b06abef25864736f6c634300080c0033",
  "linkReferences": {},
  "deployedLinkReferences": {}
}