{
  "_format": "hh-sol-artifact-1",
  "contractName": "PresaleFactoryNew",
  "sourceName": "contracts/presale/PresaleFactoryNew.sol",
  "abi": [
    {
      "inputs": [],
      "stateMutability": "nonpayable",
      "type": "constructor"
    },
    {
      "inputs": [],
      "name": "base_token_fee",
      "outputs": [
        {
          "internalType": "uint256",
          "name": "",
          "type": "uint256"
        }
      ],
      "stateMutability": "view",
      "type": "function"
    },
    {
      "inputs": [
        {
          "internalType": "address",
          "name": "_sale_token",
          "type": "address"
        },
        {
          "internalType": "address",
          "name": "_base_token",
          "type": "address"
        },
        {
          "internalType": "uint256[2]",
          "name": "_rates",
          "type": "uint256[2]"
        },
        {
          "internalType": "uint256[2]",
          "name": "_raises",
          "type": "uint256[2]"
        },
        {
          "internalType": "uint256",
          "name": "_softcap",
          "type": "uint256"
        },
        {
          "internalType": "uint256",
          "name": "_hardcap",
          "type": "uint256"
        },
        {
          "internalType": "uint256",
          "name": "_liquidityPercent",
          "type": "uint256"
        },
        {
          "internalType": "uint256",
          "name": "_presale_start",
          "type": "uint256"
        },
        {
          "internalType": "uint256",
          "name": "_presale_end",
          "type": "uint256"
        }
      ],
      "name": "create",
      "outputs": [
        {
          "internalType": "address",
          "name": "",
          "type": "address"
        }
      ],
      "stateMutability": "payable",
      "type": "function"
    },
    {
      "inputs": [],
      "name": "feeTo",
      "outputs": [
        {
          "internalType": "address",
          "name": "",
          "type": "address"
        }
      ],
      "stateMutability": "view",
      "type": "function"
    },
    {
      "inputs": [],
      "name": "flatFee",
      "outputs": [
        {
          "internalType": "uint256",
          "name": "",
          "type": "uint256"
        }
      ],
      "stateMutability": "view",
      "type": "function"
    },
    {
      "inputs": [],
      "name": "getFeeTo",
      "outputs": [
        {
          "internalType": "address",
          "name": "",
          "type": "address"
        }
      ],
      "stateMutability": "view",
      "type": "function"
    },
    {
      "inputs": [],
      "name": "getFlatFee",
      "outputs": [
        {
          "internalType": "uint256",
          "name": "",
          "type": "uint256"
        }
      ],
      "stateMutability": "view",
      "type": "function"
    },
    {
      "inputs": [],
      "name": "presale_in_native",
      "outputs": [
        {
          "internalType": "bool",
          "name": "",
          "type": "bool"
        }
      ],
      "stateMutability": "view",
      "type": "function"
    },
    {
      "inputs": [],
      "name": "referralAddress",
      "outputs": [
        {
          "internalType": "address",
          "name": "",
          "type": "address"
        }
      ],
      "stateMutability": "view",
      "type": "function"
    },
    {
      "inputs": [],
      "name": "referralFee",
      "outputs": [
        {
          "internalType": "uint256",
          "name": "",
          "type": "uint256"
        }
      ],
      "stateMutability": "view",
      "type": "function"
    },
    {
      "inputs": [],
      "name": "sale_token_fee",
      "outputs": [
        {
          "internalType": "uint256",
          "name": "",
          "type": "uint256"
        }
      ],
      "stateMutability": "view",
      "type": "function"
    },
    {
      "inputs": [
        {
          "internalType": "address",
          "name": "feeReceivingAddress",
          "type": "address"
        }
      ],
      "name": "setFeeTo",
      "outputs": [],
      "stateMutability": "nonpayable",
      "type": "function"
    },
    {
      "inputs": [
        {
          "internalType": "uint256",
          "name": "fee",
          "type": "uint256"
        }
      ],
      "name": "setFlatFee",
      "outputs": [],
      "stateMutability": "nonpayable",
      "type": "function"
    },
    {
      "inputs": [
        {
          "internalType": "address",
          "name": "to",
          "type": "address"
        }
      ],
      "name": "transferOwner",
      "outputs": [],
      "stateMutability": "nonpayable",
      "type": "function"
    }
  ],
  "bytecode": "0x608060405234801561001057600080fd5b5060008054336001600160a01b031991821681178355662386f26fc10000600255600180549092161790556149fc90819061004b90396000f3fe608060405260043610620000d25760003560e01c80638a601fc81162000089578063d9eb59471162000060578063d9eb5947146200022c578063ea0b0c041462000244578063f46901ed146200025c578063ff711df2146200028157600080fd5b80638a601fc814620001d0578063bc18a36a14620001e7578063be7bd4e6146200021457600080fd5b8063017e7e5814620000d757806315a88d22146200011657806323fa495a146200013d5780634fb2e45d14620001645780636611f528146200018957806384ae2bc614620001a9575b600080fd5b348015620000e457600080fd5b50600054620000f9906001600160a01b031681565b6040516001600160a01b0390911681526020015b60405180910390f35b3480156200012357600080fd5b50600554620000f99061010090046001600160a01b031681565b3480156200014a57600080fd5b50620001626200015c36600462000986565b62000298565b005b3480156200017157600080fd5b506200016262000183366004620009bd565b620002d3565b3480156200019657600080fd5b506000546001600160a01b0316620000f9565b348015620001b657600080fd5b50620001c160065481565b6040519081526020016200010d565b348015620001dd57600080fd5b50600254620001c1565b348015620001f457600080fd5b50600554620002039060ff1681565b60405190151581526020016200010d565b3480156200022157600080fd5b50620001c160045481565b3480156200023957600080fd5b50620001c160025481565b3480156200025157600080fd5b50620001c160035481565b3480156200026957600080fd5b50620001626200027b366004620009bd565b62000322565b620000f96200029236600462000a5e565b62000371565b6001546001600160a01b03163314620002ce5760405162461bcd60e51b8152600401620002c59062000aed565b60405180910390fd5b600255565b6001546001600160a01b03163314620003005760405162461bcd60e51b8152600401620002c59062000aed565b600180546001600160a01b0319166001600160a01b0392909216919091179055565b6001546001600160a01b031633146200034f5760405162461bcd60e51b8152600401620002c59062000aed565b600080546001600160a01b0319166001600160a01b0392909216919091179055565b6000600254341015620003b25760405162461bcd60e51b8152602060048201526008602482015267466c61742066656560c01b6044820152606401620002c5565b620003bc620004db565b6000338b8b8b8460200201518c600160200201518c600060200201518d600160200201518d8d8d8d8d604051620003f39062000978565b6001600160a01b039c8d1681529a8c1660208c01529a90981660408a01526060890196909652608088019490945260a087019290925260c086015260e085015261010084015261012083015261014082015261016081019190915261018001604051809103906000f0801580156200046f573d6000803e3d6000fd5b509050620004908b82888c60016020020151898e600060200201516200050c565b600080546002546040516001600160a01b039092169281156108fc029290818181858888f19350505050158015620004cc573d6000803e3d6000fd5b509a9950505050505050505050565b6000620004f4600254346200066790919063ffffffff16565b905080156200050957620005093382620006b4565b50565b60006200053360646200052c85620005258989620007d8565b90620007d8565b906200085f565b905060006200054f82620005488886620007d8565b90620008a3565b9050620005dc886001600160a01b031663313ce5676040518163ffffffff1660e01b8152600401602060405180830381865afa15801562000594573d6000803e3d6000fd5b505050506040513d601f19601f82011682018060405250810190620005ba919062000b18565b620005c790601262000b53565b620005d490600a62000c76565b82906200085f565b6040516323b872dd60e01b81523360048201526001600160a01b03898116602483015260448201839052919250908916906323b872dd906064016020604051808303816000875af115801562000636573d6000803e3d6000fd5b505050506040513d601f19601f820116820180604052508101906200065c919062000c87565b505050505050505050565b6000620006ab83836040518060400160405280601e81526020017f536166654d6174683a207375627472616374696f6e206f766572666c6f77000081525062000906565b90505b92915050565b80471015620007065760405162461bcd60e51b815260206004820152601d60248201527f416464726573733a20696e73756666696369656e742062616c616e63650000006044820152606401620002c5565b6000826001600160a01b03168260405160006040518083038185875af1925050503d806000811462000755576040519150601f19603f3d011682016040523d82523d6000602084013e6200075a565b606091505b5050905080620007d35760405162461bcd60e51b815260206004820152603a60248201527f416464726573733a20756e61626c6520746f2073656e642076616c75652c207260448201527f6563697069656e74206d617920686176652072657665727465640000000000006064820152608401620002c5565b505050565b600082620007e957506000620006ae565b6000620007f7838562000cab565b90508262000806858362000ccd565b14620006ab5760405162461bcd60e51b815260206004820152602160248201527f536166654d6174683a206d756c7469706c69636174696f6e206f766572666c6f6044820152607760f81b6064820152608401620002c5565b6000620006ab83836040518060400160405280601b81526020017f536166654d6174683a206469766973696f6e206279207a65726f2e000000000081525062000945565b600080620008b2838562000cf0565b905083811015620006ab5760405162461bcd60e51b815260206004820152601b60248201527f536166654d6174683a206164646974696f6e206f766572666c6f7700000000006044820152606401620002c5565b600081848411156200092d5760405162461bcd60e51b8152600401620002c5919062000d0b565b5060006200093c848662000d63565b95945050505050565b60008183620009695760405162461bcd60e51b8152600401620002c5919062000d0b565b5060006200093c848662000ccd565b613c498062000d7e83390190565b6000602082840312156200099957600080fd5b5035919050565b80356001600160a01b0381168114620009b857600080fd5b919050565b600060208284031215620009d057600080fd5b620006ab82620009a0565b600082601f830112620009ed57600080fd5b6040516040810181811067ffffffffffffffff8211171562000a1f57634e487b7160e01b600052604160045260246000fd5b806040525080604084018581111562000a3757600080fd5b845b8181101562000a5357803583526020928301920162000a39565b509195945050505050565b60008060008060008060008060006101608a8c03121562000a7e57600080fd5b62000a898a620009a0565b985062000a9960208b01620009a0565b975062000aaa8b60408c01620009db565b965062000abb8b60808c01620009db565b989b979a50959860c08101359760e0820135975061010082013596506101208201359550610140909101359350915050565b6020808252601190820152702cb7ba9030b932903737ba1037bbb732b960791b604082015260600190565b60006020828403121562000b2b57600080fd5b815160ff81168114620006ab57600080fd5b634e487b7160e01b600052601160045260246000fd5b600060ff821660ff84168082101562000b705762000b7062000b3d565b90039392505050565b600181815b8085111562000bba57816000190482111562000b9e5762000b9e62000b3d565b8085161562000bac57918102915b93841c939080029062000b7e565b509250929050565b60008262000bd357506001620006ae565b8162000be257506000620006ae565b816001811462000bfb576002811462000c065762000c26565b6001915050620006ae565b60ff84111562000c1a5762000c1a62000b3d565b50506001821b620006ae565b5060208310610133831016604e8410600b841016171562000c4b575081810a620006ae565b62000c57838362000b79565b806000190482111562000c6e5762000c6e62000b3d565b029392505050565b6000620006ab60ff84168362000bc2565b60006020828403121562000c9a57600080fd5b81518015158114620006ab57600080fd5b600081600019048311821515161562000cc85762000cc862000b3d565b500290565b60008262000ceb57634e487b7160e01b600052601260045260246000fd5b500490565b6000821982111562000d065762000d0662000b3d565b500190565b600060208083528351808285015260005b8181101562000d3a5785810183015185820160400152820162000d1c565b8181111562000d4d576000604083870101525b50601f01601f1916929092016040019392505050565b60008282101562000d785762000d7862000b3d565b50039056fe6080604052602780546001600160a01b031990811661dead179091556029805490911673800e6aac8f0dcbd8e809add117898c59b90cc4451790553480156200004757600080fd5b5060405162003c4938038062003c498339810160408190526200006a91620005b2565b600160008190558054610100600160a81b03191633610100021790556200009b8b8b8b8b8b8b8b8b8b8b8b62000112565b60018054610100600160a81b0319166101006001600160a01b038f811682029290921792839055604080519190930490911681523060208201527fcfea6066a7ff70439f7cfe020aea9709cf4b7cb462225660895dfcc5c38716ae910160405180910390a1505050505050505050505050620007cb565b60015461010090046001600160a01b031633146200016c5760405162461bcd60e51b81526020600482015260126024820152712737ba10383932b9b0b6329037bbb732b91760711b60448201526064015b60405180910390fd5b60215415620001af5760405162461bcd60e51b815260206004820152600e60248201526d105b1c9958591e481cd95d1d195960921b604482015260640162000163565b6001600160a01b038b16620001f65760405162461bcd60e51b815260206004820152600c60248201526b5a65726f204164647265737360a01b604482015260640162000163565b600280546001600160a01b03808e166001600160a01b03199283161790925560038054928d1692909116919091179055600489905560058890556006879055600786905560088590556009849055600a839055600c819055600b82905560205460ff161515600114156200027757600d805460ff1916600117905562000282565b600d805460ff191690555b601d805460ff19908116909155600180549091169055600254604080516306fdde0360e01b815290516001600160a01b03909216916306fdde03916004808201926000929091908290030181865afa158015620002e3573d6000803e3d6000fd5b505050506040513d6000823e601f3d908101601f191682016040526200030d91908101906200066c565b80516200032391601691602090910190620004ef565b50600254604080516395d89b4160e01b815290516001600160a01b03909216916395d89b41916004808201926000929091908290030181865afa1580156200036f573d6000803e3d6000fd5b505050506040513d6000823e601f3d908101601f191682016040526200039991908101906200066c565b8051620003af91601791602090910190620004ef565b506002546040805163313ce56760e01b815290516001600160a01b039092169163313ce567916004808201926020929091908290030181865afa158015620003fb573d6000803e3d6000fd5b505050506040513d601f19601f8201168201806040525081019062000421919062000748565b60ff16601955600254604080516318160ddd60e01b815290516001600160a01b03909216916318160ddd916004808201926020929091908290030181865afa15801562000472573d6000803e3d6000fd5b505050506040513d601f19601f8201168201806040525081019062000498919062000774565b6018555050602280546001600160a01b031990811673cd7d16fb918511bf7269ec4f48d61d79fb26f91817909155602954602380549092166001600160a01b03919091161790555050600160215550505050505050565b828054620004fd906200078e565b90600052602060002090601f0160209004810192826200052157600085556200056c565b82601f106200053c57805160ff19168380011785556200056c565b828001600101855582156200056c579182015b828111156200056c5782518255916020019190600101906200054f565b506200057a9291506200057e565b5090565b5b808211156200057a57600081556001016200057f565b80516001600160a01b0381168114620005ad57600080fd5b919050565b6000806000806000806000806000806000806101808d8f031215620005d657600080fd5b620005e18d62000595565b9b50620005f160208e0162000595565b9a506200060160408e0162000595565b995060608d0151985060808d0151975060a08d0151965060c08d0151955060e08d015194506101008d015193506101208d015192506101408d015191506101608d015190509295989b509295989b509295989b565b634e487b7160e01b600052604160045260246000fd5b600060208083850312156200068057600080fd5b82516001600160401b03808211156200069857600080fd5b818501915085601f830112620006ad57600080fd5b815181811115620006c257620006c262000656565b604051601f8201601f19908116603f01168101908382118183101715620006ed57620006ed62000656565b8160405282815288868487010111156200070657600080fd5b600093505b828410156200072a57848401860151818501870152928501926200070b565b828411156200073c5760008684830101525b98975050505050505050565b6000602082840312156200075b57600080fd5b815160ff811681146200076d57600080fd5b9392505050565b6000602082840312156200078757600080fd5b5051919050565b600181811c90821680620007a357607f821691505b60208210811415620007c557634e487b7160e01b600052602260045260246000fd5b50919050565b61346e80620007db6000396000f3fe60806040526004361061020f5760003560e01c806397a993aa11610118578063d2618baf116100a0578063f2fde38b1161006f578063f2fde38b146106fb578063f868e7661461071b578063f887ea401461072e578063f8ecf32d1461074e578063fe8121de1461076e57600080fd5b8063d2618baf1461068f578063d8454353146106a4578063e4144f8c146106b9578063e650f536146106d957600080fd5b8063c06c7d49116100e7578063c06c7d49146105a1578063c39e7dbb146105d1578063c63df23c146105e6578063ca1a961d1461065a578063d1e812a31461067a57600080fd5b806397a993aa146105095780639d1213a714610552578063acfb235514610577578063b923b2051461058c57600080fd5b80634567ce8e1161019b578063715018a61161016a578063715018a61461047c5780637ecc65911461049157806382cf114c146104b1578063893d20e8146104d1578063939c4456146104f457600080fd5b80634567ce8e146103855780634d18b5e2146103b55780635f87602f1461042457806366d16cc31461044457600080fd5b8063200d2ed2116101e2578063200d2ed21461029257806331845f7d146102fb5780633544a8641461031b578063356f6cd2146103455780633cd82c3f1461036557600080fd5b80630b78f9c014610214578063112f5dad1461023657806313af40351461025f578063188ec3561461027f575b600080fd5b34801561022057600080fd5b5061023461022f366004612c7d565b610783565b005b34801561024257600080fd5b5061024c60285481565b6040519081526020015b60405180910390f35b34801561026b57600080fd5b5061023461027a366004612cb4565b6107c6565b34801561028b57600080fd5b504261024c565b34801561029e57600080fd5b50600f546010546011546012546013546014546015546102c49660ff1695949392919087565b6040805197151588526020880196909652948601939093526060850191909152608084015260a083015260c082015260e001610256565b34801561030757600080fd5b50610234610316366004612cd1565b61081d565b34801561032757600080fd5b506020546103359060ff1681565b6040519015158152602001610256565b34801561035157600080fd5b50610234610360366004612cea565b61085b565b34801561037157600080fd5b50610234610380366004612d80565b610bf7565b34801561039157600080fd5b506103356103a0366004612cb4565b60266020526000908152604090205460ff1681565b3480156103c157600080fd5b50600254600354600454600554600654600754600854600954600a54600b54600c54600d54600e5461040b9c6001600160a01b039081169c169a99989796959493929160ff16908d565b6040516102569d9c9b9a99989796959493929190612db3565b34801561043057600080fd5b5061023461043f366004612f19565b610c39565b34801561045057600080fd5b50602354610464906001600160a01b031681565b6040516001600160a01b039091168152602001610256565b34801561048857600080fd5b50610234610d06565b34801561049d57600080fd5b506102346104ac366004612f56565b610d41565b3480156104bd57600080fd5b506102346104cc366004612cb4565b610d96565b3480156104dd57600080fd5b5060015461010090046001600160a01b0316610464565b34801561050057600080fd5b5061024c610de7565b34801561051557600080fd5b5061053d610524366004612cb4565b6024602052600090815260409020805460019091015482565b60408051928352602083019190915201610256565b34801561055e57600080fd5b50610567610e0e565b6040516102569493929190612fda565b34801561058357600080fd5b5061024c610f3a565b34801561059857600080fd5b50610234610fe7565b3480156105ad57600080fd5b506103356105bc366004612cb4565b60256020526000908152604090205460ff1681565b3480156105dd57600080fd5b50610234611025565b3480156105f257600080fd5b50601a54601b54601c54601d54601e54601f546106209560ff9081169594931691906001600160a01b031686565b6040805196151587526020870195909552938501929092521515606084015260808301526001600160a01b031660a082015260c001610256565b34801561066657600080fd5b50610234610675366004612cd1565b61124b565b34801561068657600080fd5b5061033561127f565b34801561069b57600080fd5b506102346112a5565b3480156106b057600080fd5b506102346112e3565b3480156106c557600080fd5b506102346106d4366004613013565b6113cf565b3480156106e557600080fd5b503360009081526024602052604090205461024c565b34801561070757600080fd5b50610234610716366004612cb4565b61149e565b610234610729366004612cd1565b61153b565b34801561073a57600080fd5b50602254610464906001600160a01b031681565b34801561075a57600080fd5b50610234610769366004612cb4565b611acc565b34801561077a57600080fd5b506102346122aa565b60015461010090046001600160a01b031633146107bb5760405162461bcd60e51b81526004016107b290613065565b60405180910390fd5b601b91909155601c55565b60015461010090046001600160a01b031633146107f55760405162461bcd60e51b81526004016107b290613065565b600180546001600160a01b0390921661010002610100600160a81b0319909216919091179055565b60015461010090046001600160a01b0316331461084c5760405162461bcd60e51b81526004016107b290613065565b600d805460ff19169055600e55565b60015461010090046001600160a01b0316331461088a5760405162461bcd60e51b81526004016107b290613065565b602154156108cb5760405162461bcd60e51b815260206004820152600e60248201526d105b1c9958591e481cd95d1d195960921b60448201526064016107b2565b6001600160a01b038b166109105760405162461bcd60e51b815260206004820152600c60248201526b5a65726f204164647265737360a01b60448201526064016107b2565b600280546001600160a01b03808e166001600160a01b03199283161790925560038054928d1692909116919091179055600489905560058890556006879055600786905560088590556009849055600a839055600c819055600b82905560205460ff1615156001141561098f57600d805460ff1916600117905561099a565b600d805460ff191690555b601d805460ff19908116909155600180549091169055600254604080516306fdde0360e01b815290516001600160a01b03909216916306fdde03916004808201926000929091908290030181865afa1580156109fa573d6000803e3d6000fd5b505050506040513d6000823e601f3d908101601f19168201604052610a229190810190613091565b8051610a3691601691602090910190612be4565b50600254604080516395d89b4160e01b815290516001600160a01b03909216916395d89b41916004808201926000929091908290030181865afa158015610a81573d6000803e3d6000fd5b505050506040513d6000823e601f3d908101601f19168201604052610aa99190810190613091565b8051610abd91601791602090910190612be4565b506002546040805163313ce56760e01b815290516001600160a01b039092169163313ce567916004808201926020929091908290030181865afa158015610b08573d6000803e3d6000fd5b505050506040513d601f19601f82011682018060405250810190610b2c9190613125565b60ff16601955600254604080516318160ddd60e01b815290516001600160a01b03909216916318160ddd916004808201926020929091908290030181865afa158015610b7c573d6000803e3d6000fd5b505050506040513d601f19601f82011682018060405250810190610ba09190613148565b6018555050602280546001600160a01b031990811673cd7d16fb918511bf7269ec4f48d61d79fb26f91817909155602954602380549092166001600160a01b03919091161790555050600160215550505050505050565b60015461010090046001600160a01b03163314610c265760405162461bcd60e51b81526004016107b290613065565b601a805460ff1916911515919091179055565b60015461010090046001600160a01b03163314610c685760405162461bcd60e51b81526004016107b290613065565b6001600d5460ff166001811115610c8157610c81612d9d565b14610cc25760405162461bcd60e51b81526020600482015260116024820152701dda1a5d195b1a5cdd081b9bdd081cd95d607a1b60448201526064016107b2565b60005b8151811015610d0257610cf0828281518110610ce357610ce3613161565b6020026020010151612441565b80610cfa8161318d565b915050610cc5565b5050565b60015461010090046001600160a01b03163314610d355760405162461bcd60e51b81526004016107b290613065565b610d3f60006107f5565b565b60015461010090046001600160a01b03163314610d705760405162461bcd60e51b81526004016107b290613065565b601f80546001600160a01b0319166001600160a01b039390931692909217909155601e55565b60015461010090046001600160a01b03163314610dc55760405162461bcd60e51b81526004016107b290613065565b602980546001600160a01b0319166001600160a01b0392909216919091179055565b6009546010546000918291610e089190610e029060646124b1565b90612537565b92915050565b601680548190610e1d906131a8565b80601f0160208091040260200160405190810160405280929190818152602001828054610e49906131a8565b8015610e965780601f10610e6b57610100808354040283529160200191610e96565b820191906000526020600020905b815481529060010190602001808311610e7957829003601f168201915b505050505090806001018054610eab906131a8565b80601f0160208091040260200160405190810160405280929190818152602001828054610ed7906131a8565b8015610f245780601f10610ef957610100808354040283529160200191610f24565b820191906000526020600020905b815481529060010190602001808311610f0757829003601f168201915b5050505050908060020154908060030154905084565b6001805460009160ff90911615151415610f545750600590565b601d5460ff16151560011415610f6a5750600490565b600c5442118015610f7e5750600854601054105b15610f895750600390565b60095460105410610f9e575042601555600290565b600c5442118015610fb3575060085460105410155b15610fc2575042601555600290565b600b544210801590610fd65750600c544211155b15610fe15750600190565b50600090565b60015461010090046001600160a01b031633146110165760405162461bcd60e51b81526004016107b290613065565b600d805460ff19166001179055565b600260005414156110485760405162461bcd60e51b81526004016107b2906131e3565b6002600055611055610f3a565b6003148061106a5750611066610f3a565b6004145b6110b65760405162461bcd60e51b815260206004820152601760248201527f4e6f74206661696c6564206f722063616e63656c65642e00000000000000000060448201526064016107b2565b336000908152602460205260408120601a5490919060ff16611143576003546040516370a0823160e01b81523060048201526001600160a01b03909116906370a0823190602401602060405180830381865afa15801561111a573d6000803e3d6000fd5b505050506040513d601f19601f8201168201806040525081019061113e9190613148565b611145565b475b82549091508110156111905760405162461bcd60e51b81526020600482015260146024820152732737ba3434b733903a37903bb4ba34323930bb9760611b60448201526064016107b2565b815460135461119e91612579565b6013556003548254601a5433926111c6926001600160a01b039091169184919060ff166125d8565b60015461010090046001600160a01b03163314156111e6576111e6612736565b6000808455600180850182905533825260246020526040808320838155909101829055517fba8f86526b8f4836c344cbbb8d752a5deb45d8d86c8fdcc0318124656ed1f169916112399190815260200190565b60405180910390a15050600160005550565b60015461010090046001600160a01b0316331461127a5760405162461bcd60e51b81526004016107b290613065565b602855565b600080600d5460ff16600181111561129957611299612d9d565b1415610fe15750600190565b60015461010090046001600160a01b031633146112d45760405162461bcd60e51b81526004016107b290613065565b601d805460ff19166001179055565b60015461010090046001600160a01b031633146113125760405162461bcd60e51b81526004016107b290613065565b61131a610f3a565b6002146113395760405162461bcd60e51b81526004016107b29061321a565b60115460045460095461134c9190613241565b101561138c5760405162461bcd60e51b815260206004820152600f60248201526e2737ba3434b733903a3790313ab93760891b60448201526064016107b2565b601154600454600954600092916113a291613241565b6113ac9190613260565b6002546027549192506113cc916001600160a01b03918216911683612885565b50565b60015461010090046001600160a01b031633146113fe5760405162461bcd60e51b81526004016107b290613065565b6001600d5460ff16600181111561141757611417612d9d565b146114585760405162461bcd60e51b81526020600482015260116024820152701dda1a5d195b1a5cdd081b9bdd081cd95d607a1b60448201526064016107b2565b60005b82518110156114995761148783828151811061147957611479613161565b6020026020010151836129a0565b806114918161318d565b91505061145b565b505050565b60015461010090046001600160a01b031633146114cd5760405162461bcd60e51b81526004016107b290613065565b6001600160a01b0381166115325760405162461bcd60e51b815260206004820152602660248201527f4f776e61626c653a206e6577206f776e657220697320746865207a65726f206160448201526564647265737360d01b60648201526084016107b2565b6113cc816107f5565b6002600054141561155e5760405162461bcd60e51b81526004016107b2906131e3565b60026000556001600d5460ff16600181111561157c5761157c612d9d565b14156115e6573360009081526025602052604090205460ff1615156001146115e15760405162461bcd60e51b81526020600482015260186024820152772cb7ba9030b932903737ba103bb434ba32b634b9ba32b21760411b60448201526064016107b2565b611657565b600e541561165757600e54421015611657573360009081526025602052604090205460ff1615156001146116575760405162461bcd60e51b81526020600482015260186024820152772cb7ba9030b932903737ba103bb434ba32b634b9ba32b21760411b60448201526064016107b2565b61165f610f3a565b60011461169b5760405162461bcd60e51b815260206004820152600a6024820152694e6f742041637469766560b01b60448201526064016107b2565b601a5460ff161561173e576006543410156116f15760405162461bcd60e51b815260206004820152601660248201527510985b185b98d9481a5cc81a5b9cdd59999a58d95b9d60521b60448201526064016107b2565b6007543411156117395760405162461bcd60e51b8152602060048201526013602482015272084c2d8c2dcc6ca40d2e640e8dede40daeac6d606b1b60448201526064016107b2565b6117d1565b6006548110156117895760405162461bcd60e51b815260206004820152601660248201527510985b185b98d9481a5cc81a5b9cdd59999a58d95b9d60521b60448201526064016107b2565b6007548111156117d15760405162461bcd60e51b8152602060048201526013602482015272084c2d8c2dcc6ca40d2e640e8dede40daeac6d606b1b60448201526064016107b2565b336000908152602460205260408120601a5490919060ff166117f357826117f5565b345b825460075491925060009161180991612a12565b60105460095491925060009161181f9190613260565b905080821161182e5781611830565b805b91508183111561183e578192505b60195460009061186c90611853906012613260565b61185e90600a61335b565b600454610e029087906124b1565b9050600081116118ac5760405162461bcd60e51b815260206004820152600b60248201526a5a45524f20544f4b454e5360a81b60448201526064016107b2565b60195461193b906118be906012613260565b6118c990600a61335b565b6002546040516370a0823160e01b81523060048201526001600160a01b03909116906370a0823190602401602060405180830381865afa158015611911573d6000803e3d6000fd5b505050506040513d601f19601f820116820180604052508101906119359190613148565b906124b1565b60045460105461194b9190613241565b111561198e5760405162461bcd60e51b81526020600482015260126024820152712a37b5b2b7103932b6b0b4b71032b93937b960711b60448201526064016107b2565b84546119aa57601480549060006119a48361318d565b91905055505b336000908152602460205260409020546119c49085612579565b336000908152602460205260409020908155600101546119e49082612579565b33600090815260246020526040902060010155601054611a049085612579565b601055601154611a149082612579565b601155601a5460ff168015611a2857503484105b15611a6557336108fc611a3b3487612a12565b6040518115909202916000818181858888f19350505050158015611a63573d6000803e3d6000fd5b505b601a5460ff16611a8757600354611a87906001600160a01b0316333087612a54565b604080513381523460208201527f6800c78b31b30f29de1de17ff27c5e7c5a990802a69fd1216dd496bafd9c6e01910160405180910390a15050600160005550505050565b60026000541415611aef5760405162461bcd60e51b81526004016107b2906131e3565b600260005560015461010090046001600160a01b03163314611b235760405162461bcd60e51b81526004016107b290613065565b611b2b610f3a565b600214611b4a5760405162461bcd60e51b81526004016107b29061321a565b602354604080516319e77fed60e21b8152905183926000926001600160a01b039091169163679dffb4916004808201926020929091908290030181865afa158015611b99573d6000803e3d6000fd5b505050506040513d601f19601f82011682018060405250810190611bbd9190613367565b601b5490915015611d0c57601b54601054600091611be291606491610e0291906124b1565b601054909150611bf29082612a12565b50601f546001600160a01b031615611ca3576000611c236064610e02601a60040154856124b190919063ffffffff16565b601a5490915060ff1615611c7157601f546040516001600160a01b039091169082156108fc029083906000818181858888f19350505050158015611c6b573d6000803e3d6000fd5b50611c96565b600354601f54601a54611c96926001600160a01b03908116921690849060ff166125d8565b611ca08282612a12565b50505b601a5460ff1615611cea576040516001600160a01b0383169082156108fc029083906000818181858888f19350505050158015611ce4573d6000803e3d6000fd5b50611d0a565b600354601a54611d0a916001600160a01b0316903090849060ff166125d8565b505b601c5415611da757601c54601154600091611d2e91606491610e0291906124b1565b601f549091506001600160a01b031615611d88576000611d616064610e02601a60040154856124b190919063ffffffff16565b600254909150611d7b906001600160a01b03163384612885565b611d858282612a12565b50505b600254601f54611da5916001600160a01b03908116911683612885565b505b601a5460009060ff16611e25576003546040516370a0823160e01b81523060048201526001600160a01b03909116906370a0823190602401602060405180830381865afa158015611dfc573d6000803e3d6000fd5b505050506040513d601f19601f82011682018060405250810190611e209190613148565b611e27565b475b90506000606460026008015483611e3e9190613241565b611e489190613384565b601954909150600090611e5c906012613260565b611e6790600a61335b565b600554611e749084613241565b611e7e9190613384565b6002546040516370a0823160e01b815230600482015291925082916001600160a01b03909116906370a0823190602401602060405180830381865afa158015611ecb573d6000803e3d6000fd5b505050506040513d601f19601f82011682018060405250810190611eef9190613148565b1015611f335760405162461bcd60e51b8152602060048201526013602482015272696e73756666696369656e7420746f6b656e7360681b60448201526064016107b2565b60025460225460405163095ea7b360e01b81526001600160a01b03918216600482015260248101849052600092919091169063095ea7b3906044016020604051808303816000875af1158015611f8d573d6000803e3d6000fd5b505050506040513d601f19601f82011682018060405250810190611fb191906133a6565b9050600181151514611ff65760405162461bcd60e51b815260206004820152600e60248201526d105c1c1c9bdd994819985a5b195960921b60448201526064016107b2565b601a5460ff16156120a05760225460025460405163f305d71960e01b81526001600160a01b03918216600482015260248101859052600060448201819052606482015288821660848201524260a482015291169063f305d71990859060c40160606040518083038185885af1158015612073573d6000803e3d6000fd5b50505050506040513d601f19601f8201168201806040525081019061209891906133c3565b50505061221e565b60035460225460405163095ea7b360e01b81526001600160a01b03918216600482015260248101869052600092919091169063095ea7b3906044016020604051808303816000875af11580156120fa573d6000803e3d6000fd5b505050506040513d601f19601f8201168201806040525081019061211e91906133a6565b90506001811515146121725760405162461bcd60e51b815260206004820152601960248201527f4261736520546f6b656e20417070726f7665206661696c65640000000000000060448201526064016107b2565b60225460035460025460405162e8e33760e81b81526001600160a01b0392831660048201529082166024820152604481018790526064810186905260006084820181905260a482015289821660c48201524260e482015291169063e8e3370090610104016060604051808303816000875af11580156121f5573d6000803e3d6000fd5b505050506040513d601f19601f8201168201806040525081019061221991906133c3565b505050505b828410156122635760405162461bcd60e51b8152602060048201526012602482015271696e73756666696369656e742076616c756560701b60448201526064016107b2565b61226d8484612a12565b600354601a54919550612292916001600160a01b03909116908890879060ff166125d8565b50506001805460ff1916811781556000555050505050565b600260005414156122cd5760405162461bcd60e51b81526004016107b2906131e3565b60026000556122da610f3a565b6002146122f95760405162461bcd60e51b81526004016107b29061321a565b60285460155461230991906133f1565b4210156123485760405162461bcd60e51b815260206004820152600d60248201526c2a37b5b2b7102637b1b5b2b21760991b60448201526064016107b2565b33600090815260246020526040812060125460115491929161236991612a12565b905081600101548110156123b65760405162461bcd60e51b81526020600482015260146024820152732737ba3434b733903a37903bb4ba34323930bb9760611b60448201526064016107b2565b60025460018301546123d3916001600160a01b0316903390612885565b60018201546012546123e491612579565b60125533600090815260246020908152604080832060018082018590559390559184015491519182527f6eb77a5c4ed3153e65b1a8804e82c2ffa0d2b39fd8dba4ae39b6476c7bf65f7e910160405180910390a150506001600055565b60015461010090046001600160a01b031633146124705760405162461bcd60e51b81526004016107b290613065565b6001600160a01b03811660009081526026602052604090205460ff166113cc576001600160a01b03166000908152602560205260409020805460ff19169055565b6000826124c057506000610e08565b60006124cc8385613241565b9050826124d98583613384565b146125305760405162461bcd60e51b815260206004820152602160248201527f536166654d6174683a206d756c7469706c69636174696f6e206f766572666c6f6044820152607760f81b60648201526084016107b2565b9392505050565b600061253083836040518060400160405280601b81526020017f536166654d6174683a206469766973696f6e206279207a65726f2e0000000000815250612b7c565b60008061258683856133f1565b9050838110156125305760405162461bcd60e51b815260206004820152601b60248201527f536166654d6174683a206164646974696f6e206f766572666c6f77000000000060448201526064016107b2565b80612619576040516001600160a01b0384169083156108fc029084906000818181858888f19350505050158015612613573d6000803e3d6000fd5b50612730565b604080516001600160a01b038581166024830152604480830186905283518084039091018152606490920183526020820180516001600160e01b031663a9059cbb60e01b17905291516000928392908816916126759190613409565b6000604051808303816000865af19150503d80600081146126b2576040519150601f19603f3d011682016040523d82523d6000602084013e6126b7565b606091505b50915091508180156126e15750805115806126e15750808060200190518101906126e191906133a6565b61272d5760405162461bcd60e51b815260206004820152601f60248201527f5472616e7366657248656c7065723a205452414e534645525f4641494c45440060448201526064016107b2565b50505b50505050565b60015461010090046001600160a01b031633146127655760405162461bcd60e51b81526004016107b290613065565b6002546001546040516370a0823160e01b81523060048201526127e6926001600160a01b03908116926101009004169082906370a0823190602401602060405180830381865afa1580156127bd573d6000803e3d6000fd5b505050506040513d601f19601f820116820180604052508101906127e19190613148565b612885565b6002546040516370a0823160e01b81523060048201527fba8f86526b8f4836c344cbbb8d752a5deb45d8d86c8fdcc0318124656ed1f169916001600160a01b0316906370a0823190602401602060405180830381865afa15801561284e573d6000803e3d6000fd5b505050506040513d601f19601f820116820180604052508101906128729190613148565b60405190815260200160405180910390a1565b604080516001600160a01b038481166024830152604480830185905283518084039091018152606490920183526020820180516001600160e01b031663a9059cbb60e01b17905291516000928392908716916128e19190613409565b6000604051808303816000865af19150503d806000811461291e576040519150601f19603f3d011682016040523d82523d6000602084013e612923565b606091505b509150915081801561294d57508051158061294d57508080602001905181019061294d91906133a6565b6129995760405162461bcd60e51b815260206004820152601f60248201527f5472616e7366657248656c7065723a205452414e534645525f4641494c45440060448201526064016107b2565b5050505050565b60015461010090046001600160a01b031633146129cf5760405162461bcd60e51b81526004016107b290613065565b6001600160a01b039091166000908152602560209081526040808320805460ff199081166001179091556026909252909120805492151592909116919091179055565b600061253083836040518060400160405280601e81526020017f536166654d6174683a207375627472616374696f6e206f766572666c6f770000815250612bb3565b604080516001600160a01b0385811660248301528481166044830152606480830185905283518084039091018152608490920183526020820180516001600160e01b03166323b872dd60e01b1790529151600092839290881691612ab89190613409565b6000604051808303816000865af19150503d8060008114612af5576040519150601f19603f3d011682016040523d82523d6000602084013e612afa565b606091505b5091509150818015612b24575080511580612b24575080806020019051810190612b2491906133a6565b61272d5760405162461bcd60e51b8152602060048201526024808201527f5472616e7366657248656c7065723a205452414e534645525f46524f4d5f46416044820152631253115160e21b60648201526084016107b2565b60008183612b9d5760405162461bcd60e51b81526004016107b29190613425565b506000612baa8486613384565b95945050505050565b60008184841115612bd75760405162461bcd60e51b81526004016107b29190613425565b506000612baa8486613260565b828054612bf0906131a8565b90600052602060002090601f016020900481019282612c125760008555612c58565b82601f10612c2b57805160ff1916838001178555612c58565b82800160010185558215612c58579182015b82811115612c58578251825591602001919060010190612c3d565b50612c64929150612c68565b5090565b5b80821115612c645760008155600101612c69565b60008060408385031215612c9057600080fd5b50508035926020909101359150565b6001600160a01b03811681146113cc57600080fd5b600060208284031215612cc657600080fd5b813561253081612c9f565b600060208284031215612ce357600080fd5b5035919050565b60008060008060008060008060008060006101608c8e031215612d0c57600080fd5b8b35612d1781612c9f565b9a5060208c0135612d2781612c9f565b9a9d9a9c505050506040890135986060810135986080820135985060a0820135975060c0820135965060e0820135955061010082013594506101208201359350610140909101359150565b80151581146113cc57600080fd5b600060208284031215612d9257600080fd5b813561253081612d72565b634e487b7160e01b600052602160045260246000fd5b6001600160a01b038e811682528d166020820152604081018c9052606081018b9052608081018a905260a0810189905260c0810188905260e081018790526101008101869052610120810185905261014081018490526101a0810160028410612e2c57634e487b7160e01b600052602160045260246000fd5b61016082019390935261018001529b9a5050505050505050505050565b634e487b7160e01b600052604160045260246000fd5b604051601f8201601f1916810167ffffffffffffffff81118282101715612e8857612e88612e49565b604052919050565b600082601f830112612ea157600080fd5b8135602067ffffffffffffffff821115612ebd57612ebd612e49565b8160051b612ecc828201612e5f565b9283528481018201928281019087851115612ee657600080fd5b83870192505b84831015612f0e578235612eff81612c9f565b82529183019190830190612eec565b979650505050505050565b600060208284031215612f2b57600080fd5b813567ffffffffffffffff811115612f4257600080fd5b612f4e84828501612e90565b949350505050565b60008060408385031215612f6957600080fd5b8235612f7481612c9f565b946020939093013593505050565b60005b83811015612f9d578181015183820152602001612f85565b838111156127305750506000910152565b60008151808452612fc6816020860160208601612f82565b601f01601f19169290920160200192915050565b608081526000612fed6080830187612fae565b8281036020840152612fff8187612fae565b604084019590955250506060015292915050565b6000806040838503121561302657600080fd5b823567ffffffffffffffff81111561303d57600080fd5b61304985828601612e90565b925050602083013561305a81612d72565b809150509250929050565b6020808252601290820152712737ba10383932b9b0b6329037bbb732b91760711b604082015260600190565b6000602082840312156130a357600080fd5b815167ffffffffffffffff808211156130bb57600080fd5b818401915084601f8301126130cf57600080fd5b8151818111156130e1576130e1612e49565b6130f4601f8201601f1916602001612e5f565b915080825285602082850101111561310b57600080fd5b61311c816020840160208601612f82565b50949350505050565b60006020828403121561313757600080fd5b815160ff8116811461253057600080fd5b60006020828403121561315a57600080fd5b5051919050565b634e487b7160e01b600052603260045260246000fd5b634e487b7160e01b600052601160045260246000fd5b60006000198214156131a1576131a1613177565b5060010190565b600181811c908216806131bc57607f821691505b602082108114156131dd57634e487b7160e01b600052602260045260246000fd5b50919050565b6020808252601f908201527f5265656e7472616e637947756172643a207265656e7472616e742063616c6c00604082015260600190565b6020808252600d908201526c139bdd081cdd58d8d959591959609a1b604082015260600190565b600081600019048311821515161561325b5761325b613177565b500290565b60008282101561327257613272613177565b500390565b600181815b808511156132b257816000190482111561329857613298613177565b808516156132a557918102915b93841c939080029061327c565b509250929050565b6000826132c957506001610e08565b816132d657506000610e08565b81600181146132ec57600281146132f657613312565b6001915050610e08565b60ff84111561330757613307613177565b50506001821b610e08565b5060208310610133831016604e8410600b8410161715613335575081810a610e08565b61333f8383613277565b806000190482111561335357613353613177565b029392505050565b600061253083836132ba565b60006020828403121561337957600080fd5b815161253081612c9f565b6000826133a157634e487b7160e01b600052601260045260246000fd5b500490565b6000602082840312156133b857600080fd5b815161253081612d72565b6000806000606084860312156133d857600080fd5b8351925060208401519150604084015190509250925092565b6000821982111561340457613404613177565b500190565b6000825161341b818460208701612f82565b9190910192915050565b6020815260006125306020830184612fae56fea2646970667358221220f67511035715982336b0da8bbc07fce48da44f58de2f97aa8d73fab37371821c64736f6c634300080c0033a2646970667358221220513d806e8f6212092311c85c18f03f9575d756f781756ed1ab6b63390dfb2ba264736f6c634300080c0033",
  "linkReferences": {},
  "deployedLinkReferences": {}
}