{
  "_format": "hh-sol-artifact-1",
  "contractName": "PresaleFactory",
  "sourceName": "contracts/presale/PresaleFactory.sol",
  "abi": [
    {
      "inputs": [
        {
          "internalType": "address",
          "name": "implementation_",
          "type": "address"
        }
      ],
      "stateMutability": "nonpayable",
      "type": "constructor"
    },
    {
      "anonymous": false,
      "inputs": [
        {
          "indexed": true,
          "internalType": "address",
          "name": "previousOwner",
          "type": "address"
        },
        {
          "indexed": true,
          "internalType": "address",
          "name": "newOwner",
          "type": "address"
        }
      ],
      "name": "OwnershipTransferred",
      "type": "event"
    },
    {
      "anonymous": false,
      "inputs": [
        {
          "indexed": true,
          "internalType": "address",
          "name": "owner",
          "type": "address"
        },
        {
          "indexed": true,
          "internalType": "address",
          "name": "token",
          "type": "address"
        },
        {
          "indexed": false,
          "internalType": "uint8",
          "name": "tokenType",
          "type": "uint8"
        }
      ],
      "name": "PresaleCreated",
      "type": "event"
    },
    {
      "inputs": [
        {
          "internalType": "uint256",
          "name": "softCap_",
          "type": "uint256"
        },
        {
          "internalType": "uint256",
          "name": "hardCap_",
          "type": "uint256"
        },
        {
          "internalType": "uint256",
          "name": "max_",
          "type": "uint256"
        },
        {
          "internalType": "uint256",
          "name": "min_",
          "type": "uint256"
        },
        {
          "internalType": "uint256",
          "name": "startTime_",
          "type": "uint256"
        },
        {
          "internalType": "uint256",
          "name": "endTime_",
          "type": "uint256"
        },
        {
          "internalType": "uint256",
          "name": "tokenRate_",
          "type": "uint256"
        },
        {
          "internalType": "address",
          "name": "tokenAddr_",
          "type": "address"
        },
        {
          "internalType": "bool",
          "name": "whitelist_",
          "type": "bool"
        }
      ],
      "name": "create",
      "outputs": [
        {
          "internalType": "address",
          "name": "token",
          "type": "address"
        }
      ],
      "stateMutability": "payable",
      "type": "function"
    },
    {
      "inputs": [],
      "name": "factoryManager",
      "outputs": [
        {
          "internalType": "address",
          "name": "",
          "type": "address"
        }
      ],
      "stateMutability": "view",
      "type": "function"
    },
    {
      "inputs": [],
      "name": "feeTo",
      "outputs": [
        {
          "internalType": "address",
          "name": "",
          "type": "address"
        }
      ],
      "stateMutability": "view",
      "type": "function"
    },
    {
      "inputs": [],
      "name": "flatFee",
      "outputs": [
        {
          "internalType": "uint256",
          "name": "",
          "type": "uint256"
        }
      ],
      "stateMutability": "view",
      "type": "function"
    },
    {
      "inputs": [],
      "name": "implementation",
      "outputs": [
        {
          "internalType": "address",
          "name": "",
          "type": "address"
        }
      ],
      "stateMutability": "view",
      "type": "function"
    },
    {
      "inputs": [],
      "name": "owner",
      "outputs": [
        {
          "internalType": "address",
          "name": "",
          "type": "address"
        }
      ],
      "stateMutability": "view",
      "type": "function"
    },
    {
      "inputs": [],
      "name": "renounceOwnership",
      "outputs": [],
      "stateMutability": "nonpayable",
      "type": "function"
    },
    {
      "inputs": [
        {
          "internalType": "address",
          "name": "feeReceivingAddress",
          "type": "address"
        }
      ],
      "name": "setFeeTo",
      "outputs": [],
      "stateMutability": "nonpayable",
      "type": "function"
    },
    {
      "inputs": [
        {
          "internalType": "uint256",
          "name": "fee",
          "type": "uint256"
        }
      ],
      "name": "setFlatFee",
      "outputs": [],
      "stateMutability": "nonpayable",
      "type": "function"
    },
    {
      "inputs": [
        {
          "internalType": "address",
          "name": "implementation_",
          "type": "address"
        }
      ],
      "name": "setImplementation",
      "outputs": [],
      "stateMutability": "nonpayable",
      "type": "function"
    },
    {
      "inputs": [
        {
          "internalType": "address",
          "name": "newOwner",
          "type": "address"
        }
      ],
      "name": "transferOwnership",
      "outputs": [],
      "stateMutability": "nonpayable",
      "type": "function"
    }
  ],
  "bytecode": "0x608060405234801561001057600080fd5b5060405161099438038061099483398101604081905261002f916100c7565b8061003933610077565b60018055600380546001600160a01b039092166001600160a01b0319928316179055600480549091163317905550662386f26fc100006005556100f7565b600080546001600160a01b038381166001600160a01b0319831681178455604051919092169283917f8be0079c531659141344cd1fd0a4f28419497f9722a3daafe3b4186f6b6457e09190a35050565b6000602082840312156100d957600080fd5b81516001600160a01b03811681146100f057600080fd5b9392505050565b61088e806101066000396000f3fe60806040526004361061009c5760003560e01c80637a4a1c12116100645780637a4a1c12146101555780638da5cb5b14610168578063d784d42614610186578063d9eb5947146101a6578063f2fde38b146101ca578063f46901ed146101ea57600080fd5b8063017e7e58146100a1578063032b5a73146100de57806323fa495a146100fe5780635c60da1b14610120578063715018a614610140575b600080fd5b3480156100ad57600080fd5b506004546100c1906001600160a01b031681565b6040516001600160a01b0390911681526020015b60405180910390f35b3480156100ea57600080fd5b506002546100c1906001600160a01b031681565b34801561010a57600080fd5b5061011e610119366004610768565b61020a565b005b34801561012c57600080fd5b506003546100c1906001600160a01b031681565b34801561014c57600080fd5b5061011e610217565b6100c1610163366004610798565b61022b565b34801561017457600080fd5b506000546001600160a01b03166100c1565b34801561019257600080fd5b5061011e6101a1366004610818565b6103a7565b3480156101b257600080fd5b506101bc60055481565b6040519081526020016100d5565b3480156101d657600080fd5b5061011e6101e5366004610818565b6103d1565b3480156101f657600080fd5b5061011e610205366004610818565b61044a565b610212610474565b600555565b61021f610474565b61022960006104ce565b565b600060055434101561026f5760405162461bcd60e51b8152602060048201526008602482015267466c61742066656560c01b60448201526064015b60405180910390fd5b61027761051e565b61027f610578565b60055460045461029a916001600160a01b039091169061059d565b6003546102af906001600160a01b03166106bb565b604051632efd618d60e21b8152336004820152602481018c9052604481018b9052606481018a90526084810189905260a4810188905260c4810187905260e481018690526001600160a01b038581166101048301528415156101248301529192509082169063bbf586349061014401600060405180830381600087803b15801561033857600080fd5b505af115801561034c573d6000803e3d6000fd5b5050604051600081526001600160a01b03841692503391507f2e290409137b680fd1933df990e5567f1ac698ad0a165fd645ca7001d40f354b9060200160405180910390a361039a60018055565b9998505050505050505050565b6103af610474565b600380546001600160a01b0319166001600160a01b0392909216919091179055565b6103d9610474565b6001600160a01b03811661043e5760405162461bcd60e51b815260206004820152602660248201527f4f776e61626c653a206e6577206f776e657220697320746865207a65726f206160448201526564647265737360d01b6064820152608401610266565b610447816104ce565b50565b610452610474565b600480546001600160a01b0319166001600160a01b0392909216919091179055565b6000546001600160a01b031633146102295760405162461bcd60e51b815260206004820181905260248201527f4f776e61626c653a2063616c6c6572206973206e6f7420746865206f776e65726044820152606401610266565b600080546001600160a01b038381166001600160a01b0319831681178455604051919092169283917f8be0079c531659141344cd1fd0a4f28419497f9722a3daafe3b4186f6b6457e09190a35050565b600260015414156105715760405162461bcd60e51b815260206004820152601f60248201527f5265656e7472616e637947756172643a207265656e7472616e742063616c6c006044820152606401610266565b6002600155565b600061058f6005543461075590919063ffffffff16565b905080156104475761044733825b804710156105ed5760405162461bcd60e51b815260206004820152601d60248201527f416464726573733a20696e73756666696369656e742062616c616e63650000006044820152606401610266565b6000826001600160a01b03168260405160006040518083038185875af1925050503d806000811461063a576040519150601f19603f3d011682016040523d82523d6000602084013e61063f565b606091505b50509050806106b65760405162461bcd60e51b815260206004820152603a60248201527f416464726573733a20756e61626c6520746f2073656e642076616c75652c207260448201527f6563697069656e74206d617920686176652072657665727465640000000000006064820152608401610266565b505050565b6000763d602d80600a3d3981f3363d3d373d3d3d363d730000008260601b60e81c176000526e5af43d82803e903d91602b57fd5bf38260781b17602052603760096000f090506001600160a01b0381166107505760405162461bcd60e51b8152602060048201526016602482015275115490cc4c4d8dce8818dc99585d194819985a5b195960521b6044820152606401610266565b919050565b60006107618284610833565b9392505050565b60006020828403121561077a57600080fd5b5035919050565b80356001600160a01b038116811461075057600080fd5b60008060008060008060008060006101208a8c0312156107b757600080fd5b8935985060208a0135975060408a0135965060608a0135955060808a0135945060a08a0135935060c08a013592506107f160e08b01610781565b91506101008a0135801515811461080757600080fd5b809150509295985092959850929598565b60006020828403121561082a57600080fd5b61076182610781565b60008282101561085357634e487b7160e01b600052601160045260246000fd5b50039056fea2646970667358221220e7ebc02e8b2845dfbb187d2e1a3e9bfdb76540c98393611c12abc2c43c3be16d64736f6c634300080c0033",
  "linkReferences": {},
  "deployedLinkReferences": {}
}