{
  "_format": "hh-sol-artifact-1",
  "contractName": "StandardERC20",
  "sourceName": "contracts/tokens/StandardERC20.sol",
  "abi": [
    {
      "anonymous": false,
      "inputs": [
        {
          "indexed": true,
          "internalType": "address",
          "name": "owner",
          "type": "address"
        },
        {
          "indexed": true,
          "internalType": "address",
          "name": "spender",
          "type": "address"
        },
        {
          "indexed": false,
          "internalType": "uint256",
          "name": "value",
          "type": "uint256"
        }
      ],
      "name": "Approval",
      "type": "event"
    },
    {
      "anonymous": false,
      "inputs": [
        {
          "indexed": false,
          "internalType": "uint8",
          "name": "version",
          "type": "uint8"
        }
      ],
      "name": "Initialized",
      "type": "event"
    },
    {
      "anonymous": false,
      "inputs": [
        {
          "indexed": true,
          "internalType": "address",
          "name": "previousOwner",
          "type": "address"
        },
        {
          "indexed": true,
          "internalType": "address",
          "name": "newOwner",
          "type": "address"
        }
      ],
      "name": "OwnershipTransferred",
      "type": "event"
    },
    {
      "anonymous": false,
      "inputs": [
        {
          "indexed": true,
          "internalType": "address",
          "name": "from",
          "type": "address"
        },
        {
          "indexed": true,
          "internalType": "address",
          "name": "to",
          "type": "address"
        },
        {
          "indexed": false,
          "internalType": "uint256",
          "name": "value",
          "type": "uint256"
        }
      ],
      "name": "Transfer",
      "type": "event"
    },
    {
      "inputs": [
        {
          "internalType": "address",
          "name": "owner",
          "type": "address"
        },
        {
          "internalType": "address",
          "name": "spender",
          "type": "address"
        }
      ],
      "name": "allowance",
      "outputs": [
        {
          "internalType": "uint256",
          "name": "",
          "type": "uint256"
        }
      ],
      "stateMutability": "view",
      "type": "function"
    },
    {
      "inputs": [
        {
          "internalType": "address",
          "name": "spender",
          "type": "address"
        },
        {
          "internalType": "uint256",
          "name": "amount",
          "type": "uint256"
        }
      ],
      "name": "approve",
      "outputs": [
        {
          "internalType": "bool",
          "name": "",
          "type": "bool"
        }
      ],
      "stateMutability": "nonpayable",
      "type": "function"
    },
    {
      "inputs": [
        {
          "internalType": "address",
          "name": "account",
          "type": "address"
        }
      ],
      "name": "balanceOf",
      "outputs": [
        {
          "internalType": "uint256",
          "name": "",
          "type": "uint256"
        }
      ],
      "stateMutability": "view",
      "type": "function"
    },
    {
      "inputs": [],
      "name": "decimals",
      "outputs": [
        {
          "internalType": "uint8",
          "name": "",
          "type": "uint8"
        }
      ],
      "stateMutability": "view",
      "type": "function"
    },
    {
      "inputs": [
        {
          "internalType": "address",
          "name": "spender",
          "type": "address"
        },
        {
          "internalType": "uint256",
          "name": "subtractedValue",
          "type": "uint256"
        }
      ],
      "name": "decreaseAllowance",
      "outputs": [
        {
          "internalType": "bool",
          "name": "",
          "type": "bool"
        }
      ],
      "stateMutability": "nonpayable",
      "type": "function"
    },
    {
      "inputs": [],
      "name": "generated",
      "outputs": [
        {
          "internalType": "bool",
          "name": "",
          "type": "bool"
        }
      ],
      "stateMutability": "view",
      "type": "function"
    },
    {
      "inputs": [
        {
          "internalType": "address",
          "name": "spender",
          "type": "address"
        },
        {
          "internalType": "uint256",
          "name": "addedValue",
          "type": "uint256"
        }
      ],
      "name": "increaseAllowance",
      "outputs": [
        {
          "internalType": "bool",
          "name": "",
          "type": "bool"
        }
      ],
      "stateMutability": "nonpayable",
      "type": "function"
    },
    {
      "inputs": [
        {
          "internalType": "address",
          "name": "owner_",
          "type": "address"
        },
        {
          "internalType": "string",
          "name": "name_",
          "type": "string"
        },
        {
          "internalType": "string",
          "name": "symbol_",
          "type": "string"
        },
        {
          "internalType": "uint8",
          "name": "decimals_",
          "type": "uint8"
        },
        {
          "internalType": "uint256",
          "name": "totalSupply_",
          "type": "uint256"
        }
      ],
      "name": "initialize",
      "outputs": [],
      "stateMutability": "nonpayable",
      "type": "function"
    },
    {
      "inputs": [],
      "name": "name",
      "outputs": [
        {
          "internalType": "string",
          "name": "",
          "type": "string"
        }
      ],
      "stateMutability": "view",
      "type": "function"
    },
    {
      "inputs": [],
      "name": "owner",
      "outputs": [
        {
          "internalType": "address",
          "name": "",
          "type": "address"
        }
      ],
      "stateMutability": "view",
      "type": "function"
    },
    {
      "inputs": [],
      "name": "renounceOwnership",
      "outputs": [],
      "stateMutability": "nonpayable",
      "type": "function"
    },
    {
      "inputs": [],
      "name": "symbol",
      "outputs": [
        {
          "internalType": "string",
          "name": "",
          "type": "string"
        }
      ],
      "stateMutability": "view",
      "type": "function"
    },
    {
      "inputs": [],
      "name": "totalSupply",
      "outputs": [
        {
          "internalType": "uint256",
          "name": "",
          "type": "uint256"
        }
      ],
      "stateMutability": "view",
      "type": "function"
    },
    {
      "inputs": [
        {
          "internalType": "address",
          "name": "recipient",
          "type": "address"
        },
        {
          "internalType": "uint256",
          "name": "amount",
          "type": "uint256"
        }
      ],
      "name": "transfer",
      "outputs": [
        {
          "internalType": "bool",
          "name": "",
          "type": "bool"
        }
      ],
      "stateMutability": "nonpayable",
      "type": "function"
    },
    {
      "inputs": [
        {
          "internalType": "address",
          "name": "sender",
          "type": "address"
        },
        {
          "internalType": "address",
          "name": "recipient",
          "type": "address"
        },
        {
          "internalType": "uint256",
          "name": "amount",
          "type": "uint256"
        }
      ],
      "name": "transferFrom",
      "outputs": [
        {
          "internalType": "bool",
          "name": "",
          "type": "bool"
        }
      ],
      "stateMutability": "nonpayable",
      "type": "function"
    },
    {
      "inputs": [
        {
          "internalType": "address",
          "name": "newOwner",
          "type": "address"
        }
      ],
      "name": "transferOwnership",
      "outputs": [],
      "stateMutability": "nonpayable",
      "type": "function"
    }
  ],
  "bytecode": "0x6080604052606a805461ff00191661010017905534801561001f57600080fd5b50610f5b8061002f6000396000f3fe608060405234801561001057600080fd5b50600436106101005760003560e01c8063715018a611610097578063a9059cbb11610066578063a9059cbb1461020e578063d72bdc5314610221578063dd62ed3e14610234578063f2fde38b1461026d57600080fd5b8063715018a6146101ce5780638da5cb5b146101d857806395d89b41146101f3578063a457c2d7146101fb57600080fd5b8063313ce567116100d3578063313ce5671461016b57806339509351146101805780635cd8ef6a1461019357806370a08231146101a557600080fd5b806306fdde0314610105578063095ea7b31461012357806318160ddd1461014657806323b872dd14610158575b600080fd5b61010d610280565b60405161011a9190610ba9565b60405180910390f35b610136610131366004610c1a565b610312565b604051901515815260200161011a565b6067545b60405190815260200161011a565b610136610166366004610c44565b610328565b606a5460405160ff909116815260200161011a565b61013661018e366004610c1a565b610391565b606a5461013690610100900460ff1681565b61014a6101b3366004610c80565b6001600160a01b031660009081526065602052604090205490565b6101d66103c7565b005b6033546040516001600160a01b03909116815260200161011a565b61010d6103db565b610136610209366004610c1a565b6103ea565b61013661021c366004610c1a565b610439565b6101d661022f366004610d3e565b610446565b61014a610242366004610dd3565b6001600160a01b03918216600090815260666020908152604080832093909416825291909152205490565b6101d661027b366004610c80565b6105bc565b60606068805461028f90610e06565b80601f01602080910402602001604051908101604052809291908181526020018280546102bb90610e06565b80156103085780601f106102dd57610100808354040283529160200191610308565b820191906000526020600020905b8154815290600101906020018083116102eb57829003601f168201915b5050505050905090565b600061031f338484610635565b50600192915050565b600061033584848461075a565b610387843361038285604051806060016040528060288152602001610ed9602891396001600160a01b038a16600090815260666020908152604080832033845290915290205491906108e0565b610635565b5060019392505050565b3360008181526066602090815260408083206001600160a01b0387168452909152812054909161031f918590610382908661090c565b6103cf61091f565b6103d96000610979565b565b60606069805461028f90610e06565b600061031f338461038285604051806060016040528060258152602001610f01602591393360009081526066602090815260408083206001600160a01b038d16845290915290205491906108e0565b600061031f33848461075a565b600054610100900460ff16158080156104665750600054600160ff909116105b806104805750303b158015610480575060005460ff166001145b6104e85760405162461bcd60e51b815260206004820152602e60248201527f496e697469616c697a61626c653a20636f6e747261637420697320616c72656160448201526d191e481a5b9a5d1a585b1a5e995960921b60648201526084015b60405180910390fd5b6000805460ff19166001179055801561050b576000805461ff0019166101001790555b845161051e906068906020880190610b10565b508351610532906069906020870190610b10565b50606a805460ff191660ff851617905561054a6109cb565b610553866105bc565b61056e6105686033546001600160a01b031690565b836109fa565b80156105b4576000805461ff0019169055604051600181527f7f26b83ff96e1f2b6a682f133852f6798a09c465da95921460cefb38474024989060200160405180910390a15b505050505050565b6105c461091f565b6001600160a01b0381166106295760405162461bcd60e51b815260206004820152602660248201527f4f776e61626c653a206e6577206f776e657220697320746865207a65726f206160448201526564647265737360d01b60648201526084016104df565b61063281610979565b50565b6001600160a01b0383166106975760405162461bcd60e51b8152602060048201526024808201527f45524332303a20617070726f76652066726f6d20746865207a65726f206164646044820152637265737360e01b60648201526084016104df565b6001600160a01b0382166106f85760405162461bcd60e51b815260206004820152602260248201527f45524332303a20617070726f766520746f20746865207a65726f206164647265604482015261737360f01b60648201526084016104df565b6001600160a01b0383811660008181526066602090815260408083209487168084529482529182902085905590518481527f8c5be1e5ebec7d5bd14f71427d1e84f3dd0314c0f7b2291e5b200ac8c7c3b92591015b60405180910390a3505050565b6001600160a01b0383166107be5760405162461bcd60e51b815260206004820152602560248201527f45524332303a207472616e736665722066726f6d20746865207a65726f206164604482015264647265737360d81b60648201526084016104df565b6001600160a01b0382166108205760405162461bcd60e51b815260206004820152602360248201527f45524332303a207472616e7366657220746f20746865207a65726f206164647260448201526265737360e81b60648201526084016104df565b61085d81604051806060016040528060268152602001610eb3602691396001600160a01b03861660009081526065602052604090205491906108e0565b6001600160a01b03808516600090815260656020526040808220939093559084168152205461088c908261090c565b6001600160a01b0380841660008181526065602052604090819020939093559151908516907fddf252ad1be2c89b69c2b068fc378daa952ba7f163c4a11628f55a4df523b3ef9061074d9085815260200190565b600081848411156109045760405162461bcd60e51b81526004016104df9190610ba9565b505050900390565b60006109188284610e41565b9392505050565b6033546001600160a01b031633146103d95760405162461bcd60e51b815260206004820181905260248201527f4f776e61626c653a2063616c6c6572206973206e6f7420746865206f776e657260448201526064016104df565b603380546001600160a01b038381166001600160a01b0319831681179093556040519116919082907f8be0079c531659141344cd1fd0a4f28419497f9722a3daafe3b4186f6b6457e090600090a35050565b600054610100900460ff166109f25760405162461bcd60e51b81526004016104df90610e67565b6103d9610ae0565b6001600160a01b038216610a505760405162461bcd60e51b815260206004820152601f60248201527f45524332303a206d696e7420746f20746865207a65726f20616464726573730060448201526064016104df565b606754610a5d908261090c565b6067556001600160a01b038216600090815260656020526040902054610a83908261090c565b6001600160a01b0383166000818152606560205260408082209390935591519091907fddf252ad1be2c89b69c2b068fc378daa952ba7f163c4a11628f55a4df523b3ef90610ad49085815260200190565b60405180910390a35050565b600054610100900460ff16610b075760405162461bcd60e51b81526004016104df90610e67565b6103d933610979565b828054610b1c90610e06565b90600052602060002090601f016020900481019282610b3e5760008555610b84565b82601f10610b5757805160ff1916838001178555610b84565b82800160010185558215610b84579182015b82811115610b84578251825591602001919060010190610b69565b50610b90929150610b94565b5090565b5b80821115610b905760008155600101610b95565b600060208083528351808285015260005b81811015610bd657858101830151858201604001528201610bba565b81811115610be8576000604083870101525b50601f01601f1916929092016040019392505050565b80356001600160a01b0381168114610c1557600080fd5b919050565b60008060408385031215610c2d57600080fd5b610c3683610bfe565b946020939093013593505050565b600080600060608486031215610c5957600080fd5b610c6284610bfe565b9250610c7060208501610bfe565b9150604084013590509250925092565b600060208284031215610c9257600080fd5b61091882610bfe565b634e487b7160e01b600052604160045260246000fd5b600082601f830112610cc257600080fd5b813567ffffffffffffffff80821115610cdd57610cdd610c9b565b604051601f8301601f19908116603f01168101908282118183101715610d0557610d05610c9b565b81604052838152866020858801011115610d1e57600080fd5b836020870160208301376000602085830101528094505050505092915050565b600080600080600060a08688031215610d5657600080fd5b610d5f86610bfe565b9450602086013567ffffffffffffffff80821115610d7c57600080fd5b610d8889838a01610cb1565b95506040880135915080821115610d9e57600080fd5b50610dab88828901610cb1565b935050606086013560ff81168114610dc257600080fd5b949793965091946080013592915050565b60008060408385031215610de657600080fd5b610def83610bfe565b9150610dfd60208401610bfe565b90509250929050565b600181811c90821680610e1a57607f821691505b60208210811415610e3b57634e487b7160e01b600052602260045260246000fd5b50919050565b60008219821115610e6257634e487b7160e01b600052601160045260246000fd5b500190565b6020808252602b908201527f496e697469616c697a61626c653a20636f6e7472616374206973206e6f74206960408201526a6e697469616c697a696e6760a81b60608201526080019056fe45524332303a207472616e7366657220616d6f756e7420657863656564732062616c616e636545524332303a207472616e7366657220616d6f756e74206578636565647320616c6c6f77616e636545524332303a2064656372656173656420616c6c6f77616e63652062656c6f77207a65726fa2646970667358221220782aed06680f02fb6cbed1ac85244251a4ce28d7230e4edf8c008879d1320db064736f6c634300080c0033",
  "linkReferences": {},
  "deployedLinkReferences": {}
}