{
  "_format": "hh-sol-artifact-1",
  "contractName": "StandardTokenFactory",
  "sourceName": "contracts/factories/token/StandardTokenFactory.sol",
  "abi": [
    {
      "inputs": [
        {
          "internalType": "address",
          "name": "factoryManager_",
          "type": "address"
        },
        {
          "internalType": "address",
          "name": "implementation_",
          "type": "address"
        }
      ],
      "stateMutability": "nonpayable",
      "type": "constructor"
    },
    {
      "anonymous": false,
      "inputs": [
        {
          "indexed": true,
          "internalType": "address",
          "name": "previousOwner",
          "type": "address"
        },
        {
          "indexed": true,
          "internalType": "address",
          "name": "newOwner",
          "type": "address"
        }
      ],
      "name": "OwnershipTransferred",
      "type": "event"
    },
    {
      "inputs": [
        {
          "internalType": "string",
          "name": "name",
          "type": "string"
        },
        {
          "internalType": "string",
          "name": "symbol",
          "type": "string"
        },
        {
          "internalType": "uint8",
          "name": "decimals",
          "type": "uint8"
        },
        {
          "internalType": "uint256",
          "name": "totalSupply",
          "type": "uint256"
        }
      ],
      "name": "create",
      "outputs": [
        {
          "internalType": "address",
          "name": "token",
          "type": "address"
        }
      ],
      "stateMutability": "payable",
      "type": "function"
    },
    {
      "inputs": [],
      "name": "factoryManager",
      "outputs": [
        {
          "internalType": "address",
          "name": "",
          "type": "address"
        }
      ],
      "stateMutability": "view",
      "type": "function"
    },
    {
      "inputs": [],
      "name": "feeTo",
      "outputs": [
        {
          "internalType": "address",
          "name": "",
          "type": "address"
        }
      ],
      "stateMutability": "view",
      "type": "function"
    },
    {
      "inputs": [],
      "name": "flatFee",
      "outputs": [
        {
          "internalType": "uint256",
          "name": "",
          "type": "uint256"
        }
      ],
      "stateMutability": "view",
      "type": "function"
    },
    {
      "inputs": [],
      "name": "implementation",
      "outputs": [
        {
          "internalType": "address",
          "name": "",
          "type": "address"
        }
      ],
      "stateMutability": "view",
      "type": "function"
    },
    {
      "inputs": [],
      "name": "owner",
      "outputs": [
        {
          "internalType": "address",
          "name": "",
          "type": "address"
        }
      ],
      "stateMutability": "view",
      "type": "function"
    },
    {
      "inputs": [],
      "name": "renounceOwnership",
      "outputs": [],
      "stateMutability": "nonpayable",
      "type": "function"
    },
    {
      "inputs": [
        {
          "internalType": "address",
          "name": "feeReceivingAddress",
          "type": "address"
        }
      ],
      "name": "setFeeTo",
      "outputs": [],
      "stateMutability": "nonpayable",
      "type": "function"
    },
    {
      "inputs": [
        {
          "internalType": "uint256",
          "name": "fee",
          "type": "uint256"
        }
      ],
      "name": "setFlatFee",
      "outputs": [],
      "stateMutability": "nonpayable",
      "type": "function"
    },
    {
      "inputs": [
        {
          "internalType": "address",
          "name": "implementation_",
          "type": "address"
        }
      ],
      "name": "setImplementation",
      "outputs": [],
      "stateMutability": "nonpayable",
      "type": "function"
    },
    {
      "inputs": [
        {
          "internalType": "address",
          "name": "newOwner",
          "type": "address"
        }
      ],
      "name": "transferOwnership",
      "outputs": [],
      "stateMutability": "nonpayable",
      "type": "function"
    }
  ],
  "bytecode": "0x608060405234801561001057600080fd5b50604051610b04380380610b0483398101604081905261002f916100f8565b818161003a3361008c565b60018055600280546001600160a01b039384166001600160a01b03199182161790915560038054929093169181169190911790915560048054909116331790555050662386f26fc1000060055561012b565b600080546001600160a01b038381166001600160a01b0319831681178455604051919092169283917f8be0079c531659141344cd1fd0a4f28419497f9722a3daafe3b4186f6b6457e09190a35050565b80516001600160a01b03811681146100f357600080fd5b919050565b6000806040838503121561010b57600080fd5b610114836100dc565b9150610122602084016100dc565b90509250929050565b6109ca8061013a6000396000f3fe60806040526004361061009c5760003560e01c8063831e80f211610064578063831e80f2146101555780638da5cb5b14610168578063d784d42614610186578063d9eb5947146101a6578063f2fde38b146101ca578063f46901ed146101ea57600080fd5b8063017e7e58146100a1578063032b5a73146100de57806323fa495a146100fe5780635c60da1b14610120578063715018a614610140575b600080fd5b3480156100ad57600080fd5b506004546100c1906001600160a01b031681565b6040516001600160a01b0390911681526020015b60405180910390f35b3480156100ea57600080fd5b506002546100c1906001600160a01b031681565b34801561010a57600080fd5b5061011e61011936600461076b565b61020a565b005b34801561012c57600080fd5b506003546100c1906001600160a01b031681565b34801561014c57600080fd5b5061011e610217565b6100c1610163366004610827565b61022b565b34801561017457600080fd5b506000546001600160a01b03166100c1565b34801561019257600080fd5b5061011e6101a13660046108ab565b610335565b3480156101b257600080fd5b506101bc60055481565b6040519081526020016100d5565b3480156101d657600080fd5b5061011e6101e53660046108ab565b61035f565b3480156101f657600080fd5b5061011e6102053660046108ab565b6103d8565b610212610402565b600555565b61021f610402565b610229600061045c565b565b600060055434101561026f5760405162461bcd60e51b8152602060048201526008602482015267466c61742066656560c01b60448201526064015b60405180910390fd5b6102776104ac565b61027f610506565b60055460045461029a916001600160a01b039091169061052b565b6003546102af906001600160a01b0316610649565b60405163d72bdc5360e01b81529091506001600160a01b0382169063d72bdc53906102e69033908990899089908990600401610921565b600060405180830381600087803b15801561030057600080fd5b505af1158015610314573d6000803e3d6000fd5b50505050610324338260006106e3565b61032d60018055565b949350505050565b61033d610402565b600380546001600160a01b0319166001600160a01b0392909216919091179055565b610367610402565b6001600160a01b0381166103cc5760405162461bcd60e51b815260206004820152602660248201527f4f776e61626c653a206e6577206f776e657220697320746865207a65726f206160448201526564647265737360d01b6064820152608401610266565b6103d58161045c565b50565b6103e0610402565b600480546001600160a01b0319166001600160a01b0392909216919091179055565b6000546001600160a01b031633146102295760405162461bcd60e51b815260206004820181905260248201527f4f776e61626c653a2063616c6c6572206973206e6f7420746865206f776e65726044820152606401610266565b600080546001600160a01b038381166001600160a01b0319831681178455604051919092169283917f8be0079c531659141344cd1fd0a4f28419497f9722a3daafe3b4186f6b6457e09190a35050565b600260015414156104ff5760405162461bcd60e51b815260206004820152601f60248201527f5265656e7472616e637947756172643a207265656e7472616e742063616c6c006044820152606401610266565b6002600155565b600061051d6005543461075890919063ffffffff16565b905080156103d5576103d533825b8047101561057b5760405162461bcd60e51b815260206004820152601d60248201527f416464726573733a20696e73756666696369656e742062616c616e63650000006044820152606401610266565b6000826001600160a01b03168260405160006040518083038185875af1925050503d80600081146105c8576040519150601f19603f3d011682016040523d82523d6000602084013e6105cd565b606091505b50509050806106445760405162461bcd60e51b815260206004820152603a60248201527f416464726573733a20756e61626c6520746f2073656e642076616c75652c207260448201527f6563697069656e74206d617920686176652072657665727465640000000000006064820152608401610266565b505050565b6000763d602d80600a3d3981f3363d3d373d3d3d363d730000008260601b60e81c176000526e5af43d82803e903d91602b57fd5bf38260781b17602052603760096000f090506001600160a01b0381166106de5760405162461bcd60e51b8152602060048201526016602482015275115490cc4c4d8dce8818dc99585d194819985a5b195960521b6044820152606401610266565b919050565b60025460405163141106f560e11b81526001600160a01b038581166004830152848116602483015260ff84166044830152909116906328220dea90606401600060405180830381600087803b15801561073b57600080fd5b505af115801561074f573d6000803e3d6000fd5b50505050505050565b6000610764828461096f565b9392505050565b60006020828403121561077d57600080fd5b5035919050565b634e487b7160e01b600052604160045260246000fd5b600082601f8301126107ab57600080fd5b813567ffffffffffffffff808211156107c6576107c6610784565b604051601f8301601f19908116603f011681019082821181831017156107ee576107ee610784565b8160405283815286602085880101111561080757600080fd5b836020870160208301376000602085830101528094505050505092915050565b6000806000806080858703121561083d57600080fd5b843567ffffffffffffffff8082111561085557600080fd5b6108618883890161079a565b9550602087013591508082111561087757600080fd5b506108848782880161079a565b935050604085013560ff8116811461089b57600080fd5b9396929550929360600135925050565b6000602082840312156108bd57600080fd5b81356001600160a01b038116811461076457600080fd5b6000815180845260005b818110156108fa576020818501810151868301820152016108de565b8181111561090c576000602083870101525b50601f01601f19169290920160200192915050565b6001600160a01b038616815260a060208201819052600090610945908301876108d4565b828103604084015261095781876108d4565b60ff9590951660608401525050608001529392505050565b60008282101561098f57634e487b7160e01b600052601160045260246000fd5b50039056fea264697066735822122018be1e0a1f157d9e88e86b2655dffd781e0c7731f960f8d938a255755ba3135764736f6c634300080c0033",
  "linkReferences": {},
  "deployedLinkReferences": {}
}