{
  "_format": "hh-sol-artifact-1",
  "contractName": "HypERC20Collateral",
  "sourceName": "contracts/token/HypERC20Collateral.sol",
  "abi": [
    {
      "inputs": [
        {
          "internalType": "address",
          "name": "erc20",
          "type": "address"
        },
        {
          "internalType": "address",
          "name": "_mailbox",
          "type": "address"
        }
      ],
      "stateMutability": "nonpayable",
      "type": "constructor"
    },
    {
      "anonymous": false,
      "inputs": [
        {
          "indexed": false,
          "internalType": "uint8",
          "name": "version",
          "type": "uint8"
        }
      ],
      "name": "Initialized",
      "type": "event"
    },
    {
      "anonymous": false,
      "inputs": [
        {
          "indexed": true,
          "internalType": "address",
          "name": "previousOwner",
          "type": "address"
        },
        {
          "indexed": true,
          "internalType": "address",
          "name": "newOwner",
          "type": "address"
        }
      ],
      "name": "OwnershipTransferred",
      "type": "event"
    },
    {
      "anonymous": false,
      "inputs": [
        {
          "indexed": true,
          "internalType": "uint32",
          "name": "origin",
          "type": "uint32"
        },
        {
          "indexed": true,
          "internalType": "bytes32",
          "name": "recipient",
          "type": "bytes32"
        },
        {
          "indexed": false,
          "internalType": "uint256",
          "name": "amount",
          "type": "uint256"
        }
      ],
      "name": "ReceivedTransferRemote",
      "type": "event"
    },
    {
      "anonymous": false,
      "inputs": [
        {
          "indexed": true,
          "internalType": "uint32",
          "name": "destination",
          "type": "uint32"
        },
        {
          "indexed": true,
          "internalType": "bytes32",
          "name": "recipient",
          "type": "bytes32"
        },
        {
          "indexed": false,
          "internalType": "uint256",
          "name": "amount",
          "type": "uint256"
        }
      ],
      "name": "SentTransferRemote",
      "type": "event"
    },
    {
      "inputs": [
        {
          "internalType": "address",
          "name": "_account",
          "type": "address"
        }
      ],
      "name": "balanceOf",
      "outputs": [
        {
          "internalType": "uint256",
          "name": "",
          "type": "uint256"
        }
      ],
      "stateMutability": "view",
      "type": "function"
    },
    {
      "inputs": [
        {
          "internalType": "uint32",
          "name": "",
          "type": "uint32"
        }
      ],
      "name": "destinationGas",
      "outputs": [
        {
          "internalType": "uint256",
          "name": "",
          "type": "uint256"
        }
      ],
      "stateMutability": "view",
      "type": "function"
    },
    {
      "inputs": [],
      "name": "domains",
      "outputs": [
        {
          "internalType": "uint32[]",
          "name": "",
          "type": "uint32[]"
        }
      ],
      "stateMutability": "view",
      "type": "function"
    },
    {
      "inputs": [
        {
          "internalType": "uint32",
          "name": "_domain",
          "type": "uint32"
        },
        {
          "internalType": "bytes32",
          "name": "_router",
          "type": "bytes32"
        }
      ],
      "name": "enrollRemoteRouter",
      "outputs": [],
      "stateMutability": "nonpayable",
      "type": "function"
    },
    {
      "inputs": [
        {
          "internalType": "uint32[]",
          "name": "_domains",
          "type": "uint32[]"
        },
        {
          "internalType": "bytes32[]",
          "name": "_addresses",
          "type": "bytes32[]"
        }
      ],
      "name": "enrollRemoteRouters",
      "outputs": [],
      "stateMutability": "nonpayable",
      "type": "function"
    },
    {
      "inputs": [
        {
          "internalType": "uint32",
          "name": "_origin",
          "type": "uint32"
        },
        {
          "internalType": "bytes32",
          "name": "_sender",
          "type": "bytes32"
        },
        {
          "internalType": "bytes",
          "name": "_message",
          "type": "bytes"
        }
      ],
      "name": "handle",
      "outputs": [],
      "stateMutability": "payable",
      "type": "function"
    },
    {
      "inputs": [],
      "name": "hook",
      "outputs": [
        {
          "internalType": "contract IPostDispatchHook",
          "name": "",
          "type": "address"
        }
      ],
      "stateMutability": "view",
      "type": "function"
    },
    {
      "inputs": [
        {
          "internalType": "address",
          "name": "_hook",
          "type": "address"
        },
        {
          "internalType": "address",
          "name": "_interchainSecurityModule",
          "type": "address"
        },
        {
          "internalType": "address",
          "name": "_owner",
          "type": "address"
        }
      ],
      "name": "initialize",
      "outputs": [],
      "stateMutability": "nonpayable",
      "type": "function"
    },
    {
      "inputs": [],
      "name": "interchainSecurityModule",
      "outputs": [
        {
          "internalType": "contract IInterchainSecurityModule",
          "name": "",
          "type": "address"
        }
      ],
      "stateMutability": "view",
      "type": "function"
    },
    {
      "inputs": [],
      "name": "localDomain",
      "outputs": [
        {
          "internalType": "uint32",
          "name": "",
          "type": "uint32"
        }
      ],
      "stateMutability": "view",
      "type": "function"
    },
    {
      "inputs": [],
      "name": "mailbox",
      "outputs": [
        {
          "internalType": "contract IMailbox",
          "name": "",
          "type": "address"
        }
      ],
      "stateMutability": "view",
      "type": "function"
    },
    {
      "inputs": [],
      "name": "owner",
      "outputs": [
        {
          "internalType": "address",
          "name": "",
          "type": "address"
        }
      ],
      "stateMutability": "view",
      "type": "function"
    },
    {
      "inputs": [
        {
          "internalType": "uint32",
          "name": "_destinationDomain",
          "type": "uint32"
        }
      ],
      "name": "quoteGasPayment",
      "outputs": [
        {
          "internalType": "uint256",
          "name": "",
          "type": "uint256"
        }
      ],
      "stateMutability": "view",
      "type": "function"
    },
    {
      "inputs": [],
      "name": "renounceOwnership",
      "outputs": [],
      "stateMutability": "nonpayable",
      "type": "function"
    },
    {
      "inputs": [
        {
          "internalType": "uint32",
          "name": "_domain",
          "type": "uint32"
        }
      ],
      "name": "routers",
      "outputs": [
        {
          "internalType": "bytes32",
          "name": "",
          "type": "bytes32"
        }
      ],
      "stateMutability": "view",
      "type": "function"
    },
    {
      "inputs": [
        {
          "internalType": "uint32",
          "name": "domain",
          "type": "uint32"
        },
        {
          "internalType": "uint256",
          "name": "gas",
          "type": "uint256"
        }
      ],
      "name": "setDestinationGas",
      "outputs": [],
      "stateMutability": "nonpayable",
      "type": "function"
    },
    {
      "inputs": [
        {
          "components": [
            {
              "internalType": "uint32",
              "name": "domain",
              "type": "uint32"
            },
            {
              "internalType": "uint256",
              "name": "gas",
              "type": "uint256"
            }
          ],
          "internalType": "struct GasRouter.GasRouterConfig[]",
          "name": "gasConfigs",
          "type": "tuple[]"
        }
      ],
      "name": "setDestinationGas",
      "outputs": [],
      "stateMutability": "nonpayable",
      "type": "function"
    },
    {
      "inputs": [
        {
          "internalType": "address",
          "name": "_hook",
          "type": "address"
        }
      ],
      "name": "setHook",
      "outputs": [],
      "stateMutability": "nonpayable",
      "type": "function"
    },
    {
      "inputs": [
        {
          "internalType": "address",
          "name": "_module",
          "type": "address"
        }
      ],
      "name": "setInterchainSecurityModule",
      "outputs": [],
      "stateMutability": "nonpayable",
      "type": "function"
    },
    {
      "inputs": [
        {
          "internalType": "address",
          "name": "newOwner",
          "type": "address"
        }
      ],
      "name": "transferOwnership",
      "outputs": [],
      "stateMutability": "nonpayable",
      "type": "function"
    },
    {
      "inputs": [
        {
          "internalType": "uint32",
          "name": "_destination",
          "type": "uint32"
        },
        {
          "internalType": "bytes32",
          "name": "_recipient",
          "type": "bytes32"
        },
        {
          "internalType": "uint256",
          "name": "_amountOrId",
          "type": "uint256"
        },
        {
          "internalType": "bytes",
          "name": "_hookMetadata",
          "type": "bytes"
        },
        {
          "internalType": "address",
          "name": "_hook",
          "type": "address"
        }
      ],
      "name": "transferRemote",
      "outputs": [
        {
          "internalType": "bytes32",
          "name": "messageId",
          "type": "bytes32"
        }
      ],
      "stateMutability": "payable",
      "type": "function"
    },
    {
      "inputs": [
        {
          "internalType": "uint32",
          "name": "_destination",
          "type": "uint32"
        },
        {
          "internalType": "bytes32",
          "name": "_recipient",
          "type": "bytes32"
        },
        {
          "internalType": "uint256",
          "name": "_amountOrId",
          "type": "uint256"
        }
      ],
      "name": "transferRemote",
      "outputs": [
        {
          "internalType": "bytes32",
          "name": "messageId",
          "type": "bytes32"
        }
      ],
      "stateMutability": "payable",
      "type": "function"
    },
    {
      "inputs": [
        {
          "internalType": "uint32",
          "name": "_domain",
          "type": "uint32"
        }
      ],
      "name": "unenrollRemoteRouter",
      "outputs": [],
      "stateMutability": "nonpayable",
      "type": "function"
    },
    {
      "inputs": [
        {
          "internalType": "uint32[]",
          "name": "_domains",
          "type": "uint32[]"
        }
      ],
      "name": "unenrollRemoteRouters",
      "outputs": [],
      "stateMutability": "nonpayable",
      "type": "function"
    },
    {
      "inputs": [],
      "name": "wrappedToken",
      "outputs": [
        {
          "internalType": "contract IERC20",
          "name": "",
          "type": "address"
        }
      ],
      "stateMutability": "view",
      "type": "function"
    }
  ],
  "bytecode": "0x60e06040523480156200001157600080fd5b5060405162002adc38038062002adc8339810160408190526200003491620001a4565b80808080806001600160a01b0381163b620000955760405162461bcd60e51b815260206004820152601e60248201527f4d61696c626f78436c69656e743a20696e76616c6964206d61696c626f780000604482015260640160405180910390fd5b6001600160a01b03821660808190526040805163234d8e3d60e21b81529051638d3638f4916004808201926020929091908290030181865afa158015620000e0573d6000803e3d6000fd5b505050506040513d601f19601f82011682018060405250810190620001069190620001dc565b63ffffffff1660a0526200011a3362000135565b5050506001600160a01b0390931660c052506200020b915050565b603380546001600160a01b038381166001600160a01b0319831681179093556040519116919082907f8be0079c531659141344cd1fd0a4f28419497f9722a3daafe3b4186f6b6457e090600090a35050565b80516001600160a01b03811681146200019f57600080fd5b919050565b60008060408385031215620001b857600080fd5b620001c38362000187565b9150620001d36020840162000187565b90509250929050565b600060208284031215620001ef57600080fd5b815163ffffffff811681146200020457600080fd5b9392505050565b60805160a05160c05161287762000265600039600081816103e5015281816109dd0152818161147701526116250152600061037101526000818161047901528181610839015281816114f2015261177001526128776000f3fe6080604052600436106101965760003560e01c806381b4e8b4116100e1578063c0c53b8b1161008a578063e9198bf911610064578063e9198bf9146104c8578063efae508a146104e8578063f2ed8c5314610508578063f2fde38b1461052857600080fd5b8063c0c53b8b14610447578063d5438eae14610467578063de523cf31461049b57600080fd5b8063996c6cc3116100bb578063996c6cc3146103d3578063b1bd643614610407578063b49c53a71461042757600080fd5b806381b4e8b41461034c5780638d3638f41461035f5780638da5cb5b146103a857600080fd5b806356d5d4751161014357806371a15b381161011d57806371a15b38146102ad578063775313a1146102cd5780637f5a7c7b146102fa57600080fd5b806356d5d4751461026557806370a0823114610278578063715018a61461029857600080fd5b8063440df4f411610174578063440df4f41461021057806349d462ef1461023257806351debffc1461025257600080fd5b80630e72cc061461019b5780632ead72f6146101bd5780633dfd3873146101f0575b600080fd5b3480156101a757600080fd5b506101bb6101b63660046120ef565b610548565b005b3480156101c957600080fd5b506101dd6101d836600461211e565b610663565b6040519081526020015b60405180910390f35b3480156101fc57600080fd5b506101bb61020b3660046120ef565b610682565b34801561021c57600080fd5b50610225610798565b6040516101e79190612139565b34801561023e57600080fd5b506101bb61024d366004612183565b6107a9565b6101dd6102603660046121ef565b6107cf565b6101bb610273366004612266565b610821565b34801561028457600080fd5b506101dd6102933660046120ef565b610995565b3480156102a457600080fd5b506101bb610a50565b3480156102b957600080fd5b506101bb6102c8366004612305565b610a64565b3480156102d957600080fd5b506101dd6102e836600461211e565b60ca6020526000908152604090205481565b34801561030657600080fd5b506065546103279073ffffffffffffffffffffffffffffffffffffffff1681565b60405173ffffffffffffffffffffffffffffffffffffffff90911681526020016101e7565b6101dd61035a366004612347565b610abf565b34801561036b57600080fd5b506103937f000000000000000000000000000000000000000000000000000000000000000081565b60405163ffffffff90911681526020016101e7565b3480156103b457600080fd5b5060335473ffffffffffffffffffffffffffffffffffffffff16610327565b3480156103df57600080fd5b506103277f000000000000000000000000000000000000000000000000000000000000000081565b34801561041357600080fd5b506101bb61042236600461237a565b610acd565b34801561043357600080fd5b506101bb610442366004612183565b610b57565b34801561045357600080fd5b506101bb6104623660046123ef565b610b69565b34801561047357600080fd5b506103277f000000000000000000000000000000000000000000000000000000000000000081565b3480156104a757600080fd5b506066546103279073ffffffffffffffffffffffffffffffffffffffff1681565b3480156104d457600080fd5b506101bb6104e3366004612432565b610d00565b3480156104f457600080fd5b506101bb61050336600461211e565b610ddf565b34801561051457600080fd5b506101dd61052336600461211e565b610df3565b34801561053457600080fd5b506101bb6105433660046120ef565b610e2a565b8073ffffffffffffffffffffffffffffffffffffffff81163b151580610582575073ffffffffffffffffffffffffffffffffffffffff8116155b610613576040517f08c379a000000000000000000000000000000000000000000000000000000000815260206004820152602760248201527f4d61696c626f78436c69656e743a20696e76616c696420636f6e74726163742060448201527f73657474696e670000000000000000000000000000000000000000000000000060648201526084015b60405180910390fd5b61061b610ede565b50606680547fffffffffffffffffffffffff00000000000000000000000000000000000000001673ffffffffffffffffffffffffffffffffffffffff92909216919091179055565b60008061067a609763ffffffff80861690610f5f16565b949350505050565b8073ffffffffffffffffffffffffffffffffffffffff81163b1515806106bc575073ffffffffffffffffffffffffffffffffffffffff8116155b610748576040517f08c379a000000000000000000000000000000000000000000000000000000000815260206004820152602760248201527f4d61696c626f78436c69656e743a20696e76616c696420636f6e74726163742060448201527f73657474696e6700000000000000000000000000000000000000000000000000606482015260840161060a565b610750610ede565b50606580547fffffffffffffffffffffffff00000000000000000000000000000000000000001673ffffffffffffffffffffffffffffffffffffffff92909216919091179055565b60606107a46097610f78565b905090565b6107b1610ede565b63ffffffff91909116600090815260ca6020526040902055565b5050565b60006108168787873488888080601f0160208091040260200160405190810160405280939291908181526020018383808284376000920191909152508a9250611033915050565b979650505050505050565b3373ffffffffffffffffffffffffffffffffffffffff7f000000000000000000000000000000000000000000000000000000000000000016146108e6576040517f08c379a000000000000000000000000000000000000000000000000000000000815260206004820152602160248201527f4d61696c626f78436c69656e743a2073656e646572206e6f74206d61696c626f60448201527f7800000000000000000000000000000000000000000000000000000000000000606482015260840161060a565b60006108f1856110ac565b9050838114610982576040517f08c379a000000000000000000000000000000000000000000000000000000000815260206004820152602560248201527f456e726f6c6c656420726f7574657220646f6573206e6f74206d61746368207360448201527f656e646572000000000000000000000000000000000000000000000000000000606482015260840161060a565b61098e85858585611111565b5050505050565b6040517f70a0823100000000000000000000000000000000000000000000000000000000815273ffffffffffffffffffffffffffffffffffffffff82811660048301526000917f0000000000000000000000000000000000000000000000000000000000000000909116906370a0823190602401602060405180830381865afa158015610a26573d6000803e3d6000fd5b505050506040513d601f19601f82011682018060405250810190610a4a9190612492565b92915050565b610a58610ede565b610a62600061119b565b565b610a6c610ede565b8060005b81811015610ab957610aa7848483818110610a8d57610a8d6124ab565b9050602002016020810190610aa2919061211e565b611212565b610ab2600182612509565b9050610a70565b50505050565b600061067a84848434611267565b610ad5610ede565b60005b81811015610b5257610b40838383818110610af557610af56124ab565b610b0b926020604090920201908101915061211e565b848484818110610b1d57610b1d6124ab565b9050604002016020013563ffffffff909116600090815260ca6020526040902055565b610b4b600182612509565b9050610ad8565b505050565b610b5f610ede565b6107cb82826112a0565b600054610100900460ff1615808015610b895750600054600160ff909116105b80610ba35750303b158015610ba3575060005460ff166001145b610c2f576040517f08c379a000000000000000000000000000000000000000000000000000000000815260206004820152602e60248201527f496e697469616c697a61626c653a20636f6e747261637420697320616c72656160448201527f647920696e697469616c697a6564000000000000000000000000000000000000606482015260840161060a565b600080547fffffffffffffffffffffffffffffffffffffffffffffffffffffffffffffff001660011790558015610c8d57600080547fffffffffffffffffffffffffffffffffffffffffffffffffffffffffffff00ff166101001790555b610c988484846112b6565b8015610ab957600080547fffffffffffffffffffffffffffffffffffffffffffffffffffffffffffff00ff169055604051600181527f7f26b83ff96e1f2b6a682f133852f6798a09c465da95921460cefb38474024989060200160405180910390a150505050565b610d08610ede565b828114610d71576040517f08c379a000000000000000000000000000000000000000000000000000000000815260206004820152600760248201527f216c656e67746800000000000000000000000000000000000000000000000000604482015260640161060a565b8260005b81811015610dd757610dc5868683818110610d9257610d926124ab565b9050602002016020810190610da7919061211e565b858584818110610db957610db96124ab565b905060200201356112a0565b610dd0600182612509565b9050610d75565b505050505050565b610de7610ede565b610df081611212565b50565b604080516020810190915260008082526065549091610a4a9184919073ffffffffffffffffffffffffffffffffffffffff16611370565b610e32610ede565b73ffffffffffffffffffffffffffffffffffffffff8116610ed5576040517f08c379a000000000000000000000000000000000000000000000000000000000815260206004820152602660248201527f4f776e61626c653a206e6577206f776e657220697320746865207a65726f206160448201527f6464726573730000000000000000000000000000000000000000000000000000606482015260840161060a565b610df08161119b565b60335473ffffffffffffffffffffffffffffffffffffffff163314610a62576040517f08c379a000000000000000000000000000000000000000000000000000000000815260206004820181905260248201527f4f776e61626c653a2063616c6c6572206973206e6f7420746865206f776e6572604482015260640161060a565b600080610f6c8484611386565b915091505b9250929050565b60606000610f85836113c0565b9050805167ffffffffffffffff811115610fa157610fa161251c565b604051908082528060200260200182016040528015610fca578160200160208202803683370190505b50915060005b815181101561102c57818181518110610feb57610feb6124ab565b6020026020010151838281518110611005576110056124ab565b63ffffffff90921660209283029190910190910152806110248161254b565b915050610fd0565b5050919050565b60008061103f8661145b565b9050600061104e8888846114b3565b905061105d89878388886114e2565b9250878963ffffffff167fd229aacb94204188fe8042965fa6b269c62dc5818b21238779ab64bdd17efeec8960405161109891815260200190565b60405180910390a350509695505050505050565b600080806110c4609763ffffffff80871690610f5f16565b9150915081156110d5579392505050565b6110de84611595565b6040517f08c379a000000000000000000000000000000000000000000000000000000000815260040161060a91906125f1565b600061111d83836115cc565b9050600061112b84846115eb565b905036600061113a86866115fb565b915091506111506111488590565b84848461160b565b838863ffffffff167fba20947a325f450d232530e5f5fce293e7963499d5309a07cee84a269f2f15a68560405161118991815260200190565b60405180910390a35050505050505050565b6033805473ffffffffffffffffffffffffffffffffffffffff8381167fffffffffffffffffffffffff0000000000000000000000000000000000000000831681179093556040519116919082907f8be0079c531659141344cd1fd0a4f28419497f9722a3daafe3b4186f6b6457e090600090a35050565b611226609763ffffffff8084169061164c16565b61122f82611595565b906107cb576040517f08c379a000000000000000000000000000000000000000000000000000000000815260040161060a91906125f1565b6000611297858585856112798a611658565b60655473ffffffffffffffffffffffffffffffffffffffff16611033565b95945050505050565b6107cb609763ffffffff80851690849061167a16565b600054610100900460ff1661134d576040517f08c379a000000000000000000000000000000000000000000000000000000000815260206004820152602b60248201527f496e697469616c697a61626c653a20636f6e7472616374206973206e6f74206960448201527f6e697469616c697a696e67000000000000000000000000000000000000000000606482015260840161060a565b611355611685565b61135e83610682565b61136782610548565b610b528161119b565b600061067a848461138087611658565b85611724565b60008181526002830160205260408120548190806113b5576113a885856117f8565b925060009150610f719050565b600192509050610f71565b606060006113cd83611804565b90508067ffffffffffffffff8111156113e8576113e861251c565b604051908082528060200260200182016040528015611411578160200160208202803683370190505b50915060005b8181101561102c57611429848261180f565b60001c83828151811061143e5761143e6124ab565b6020908102919091010152806114538161254b565b915050611417565b606061149f73ffffffffffffffffffffffffffffffffffffffff7f00000000000000000000000000000000000000000000000000000000000000001633308561181b565b505060408051602081019091526000815290565b60608383836040516020016114ca93929190612604565b60405160208183030381529060405290509392505050565b6000806114ee876110ac565b90507f000000000000000000000000000000000000000000000000000000000000000073ffffffffffffffffffffffffffffffffffffffff166310b83dc08789848989896040518763ffffffff1660e01b8152600401611552959493929190612631565b60206040518083038185885af1158015611570573d6000803e3d6000fd5b50505050506040513d601f19601f820116820180604052508101906108169190612492565b60606115a68263ffffffff166118f7565b6040516020016115b69190612691565b6040516020818303038152906040529050919050565b60006115db60208284866126d6565b6115e491612700565b9392505050565b60006115db6040602084866126d6565b366000610f6c83604081876126d6565b610ab973ffffffffffffffffffffffffffffffffffffffff7f00000000000000000000000000000000000000000000000000000000000000001685856119b5565b60006115e48383611a0b565b63ffffffff8116600090815260ca6020526040902054606090610a4a90611a28565b610ab9838383611a46565b600054610100900460ff1661171c576040517f08c379a000000000000000000000000000000000000000000000000000000000815260206004820152602b60248201527f496e697469616c697a61626c653a20636f6e7472616374206973206e6f74206960448201527f6e697469616c697a696e67000000000000000000000000000000000000000000606482015260840161060a565b610a62611a63565b600080611730866110ac565b6040517f81d2ea9500000000000000000000000000000000000000000000000000000000815290915073ffffffffffffffffffffffffffffffffffffffff7f000000000000000000000000000000000000000000000000000000000000000016906381d2ea95906117ad90899085908a908a908a90600401612631565b602060405180830381865afa1580156117ca573d6000803e3d6000fd5b505050506040513d601f19601f820116820180604052508101906117ee9190612492565b9695505050505050565b60006115e48383611b03565b6000610a4a82611b1b565b60006115e48383611b25565b60405173ffffffffffffffffffffffffffffffffffffffff80851660248301528316604482015260648101829052610ab99085907f23b872dd00000000000000000000000000000000000000000000000000000000906084015b604080517fffffffffffffffffffffffffffffffffffffffffffffffffffffffffffffffe08184030181529190526020810180517bffffffffffffffffffffffffffffffffffffffffffffffffffffffff167fffffffff0000000000000000000000000000000000000000000000000000000090931692909217909152611b4f565b6060600061190483611c5e565b600101905060008167ffffffffffffffff8111156119245761192461251c565b6040519080825280601f01601f19166020018201604052801561194e576020820181803683370190505b5090508181016020015b7fffffffffffffffffffffffffffffffffffffffffffffffffffffffffffffffff017f3031323334353637383961626364656600000000000000000000000000000000600a86061a8153600a850494508461195857509392505050565b60405173ffffffffffffffffffffffffffffffffffffffff8316602482015260448101829052610b529084907fa9059cbb0000000000000000000000000000000000000000000000000000000090606401611875565b600081815260028301602052604081208190556115e48383611d40565b6060610a4a6000833360405180602001604052806000815250611d4c565b6000828152600284016020526040812082905561067a8484611d81565b600054610100900460ff16611afa576040517f08c379a000000000000000000000000000000000000000000000000000000000815260206004820152602b60248201527f496e697469616c697a61626c653a20636f6e7472616374206973206e6f74206960448201527f6e697469616c697a696e67000000000000000000000000000000000000000000606482015260840161060a565b610a623361119b565b600081815260018301602052604081205415156115e4565b6000610a4a825490565b6000826000018281548110611b3c57611b3c6124ab565b9060005260206000200154905092915050565b6000611bb1826040518060400160405280602081526020017f5361666545524332303a206c6f772d6c6576656c2063616c6c206661696c65648152508573ffffffffffffffffffffffffffffffffffffffff16611d8d9092919063ffffffff16565b9050805160001480611bd2575080806020019051810190611bd2919061273c565b610b52576040517f08c379a000000000000000000000000000000000000000000000000000000000815260206004820152602a60248201527f5361666545524332303a204552433230206f7065726174696f6e20646964206e60448201527f6f74207375636365656400000000000000000000000000000000000000000000606482015260840161060a565b6000807a184f03e93ff9f4daa797ed6e38ed64bf6a1f0100000000000000008310611ca7577a184f03e93ff9f4daa797ed6e38ed64bf6a1f010000000000000000830492506040015b6d04ee2d6d415b85acef81000000008310611cd3576d04ee2d6d415b85acef8100000000830492506020015b662386f26fc100008310611cf157662386f26fc10000830492506010015b6305f5e1008310611d09576305f5e100830492506008015b6127108310611d1d57612710830492506004015b60648310611d2f576064830492506002015b600a8310610a4a5760010192915050565b60006115e48383611d9c565b6060600185858585604051602001611d6895949392919061275e565b6040516020818303038152906040529050949350505050565b60006115e48383611e8f565b606061067a8484600085611ede565b60008181526001830160205260408120548015611e85576000611dc06001836127e3565b8554909150600090611dd4906001906127e3565b9050818114611e39576000866000018281548110611df457611df46124ab565b9060005260206000200154905080876000018481548110611e1757611e176124ab565b6000918252602080832090910192909255918252600188019052604090208390555b8554869080611e4a57611e4a6127f6565b600190038181906000526020600020016000905590558560010160008681526020019081526020016000206000905560019350505050610a4a565b6000915050610a4a565b6000818152600183016020526040812054611ed657508154600181810184556000848152602080822090930184905584548482528286019093526040902091909155610a4a565b506000610a4a565b606082471015611f70576040517f08c379a000000000000000000000000000000000000000000000000000000000815260206004820152602660248201527f416464726573733a20696e73756666696369656e742062616c616e636520666f60448201527f722063616c6c0000000000000000000000000000000000000000000000000000606482015260840161060a565b6000808673ffffffffffffffffffffffffffffffffffffffff168587604051611f999190612825565b60006040518083038185875af1925050503d8060008114611fd6576040519150601f19603f3d011682016040523d82523d6000602084013e611fdb565b606091505b5091509150610816878383876060831561207d5782516000036120765773ffffffffffffffffffffffffffffffffffffffff85163b612076576040517f08c379a000000000000000000000000000000000000000000000000000000000815260206004820152601d60248201527f416464726573733a2063616c6c20746f206e6f6e2d636f6e7472616374000000604482015260640161060a565b508161067a565b61067a83838151156120925781518083602001fd5b806040517f08c379a000000000000000000000000000000000000000000000000000000000815260040161060a91906125f1565b803573ffffffffffffffffffffffffffffffffffffffff811681146120ea57600080fd5b919050565b60006020828403121561210157600080fd5b6115e4826120c6565b803563ffffffff811681146120ea57600080fd5b60006020828403121561213057600080fd5b6115e48261210a565b6020808252825182820181905260009190848201906040850190845b8181101561217757835163ffffffff1683529284019291840191600101612155565b50909695505050505050565b6000806040838503121561219657600080fd5b61219f8361210a565b946020939093013593505050565b60008083601f8401126121bf57600080fd5b50813567ffffffffffffffff8111156121d757600080fd5b602083019150836020828501011115610f7157600080fd5b60008060008060008060a0878903121561220857600080fd5b6122118761210a565b95506020870135945060408701359350606087013567ffffffffffffffff81111561223b57600080fd5b61224789828a016121ad565b909450925061225a9050608088016120c6565b90509295509295509295565b6000806000806060858703121561227c57600080fd5b6122858561210a565b935060208501359250604085013567ffffffffffffffff8111156122a857600080fd5b6122b4878288016121ad565b95989497509550505050565b60008083601f8401126122d257600080fd5b50813567ffffffffffffffff8111156122ea57600080fd5b6020830191508360208260051b8501011115610f7157600080fd5b6000806020838503121561231857600080fd5b823567ffffffffffffffff81111561232f57600080fd5b61233b858286016122c0565b90969095509350505050565b60008060006060848603121561235c57600080fd5b6123658461210a565b95602085013595506040909401359392505050565b6000806020838503121561238d57600080fd5b823567ffffffffffffffff808211156123a557600080fd5b818501915085601f8301126123b957600080fd5b8135818111156123c857600080fd5b8660208260061b85010111156123dd57600080fd5b60209290920196919550909350505050565b60008060006060848603121561240457600080fd5b61240d846120c6565b925061241b602085016120c6565b9150612429604085016120c6565b90509250925092565b6000806000806040858703121561244857600080fd5b843567ffffffffffffffff8082111561246057600080fd5b61246c888389016122c0565b9096509450602087013591508082111561248557600080fd5b506122b4878288016122c0565b6000602082840312156124a457600080fd5b5051919050565b7f4e487b7100000000000000000000000000000000000000000000000000000000600052603260045260246000fd5b7f4e487b7100000000000000000000000000000000000000000000000000000000600052601160045260246000fd5b80820180821115610a4a57610a4a6124da565b7f4e487b7100000000000000000000000000000000000000000000000000000000600052604160045260246000fd5b60007fffffffffffffffffffffffffffffffffffffffffffffffffffffffffffffffff820361257c5761257c6124da565b5060010190565b60005b8381101561259e578181015183820152602001612586565b50506000910152565b600081518084526125bf816020860160208601612583565b601f017fffffffffffffffffffffffffffffffffffffffffffffffffffffffffffffffe0169290920160200192915050565b6020815260006115e460208301846125a7565b83815282602082015260008251612622816040850160208701612583565b91909101604001949350505050565b63ffffffff8616815284602082015260a06040820152600061265660a08301866125a7565b828103606084015261266881866125a7565b91505073ffffffffffffffffffffffffffffffffffffffff831660808301529695505050505050565b7f4e6f20726f7574657220656e726f6c6c656420666f7220646f6d61696e3a20008152600082516126c981601f850160208701612583565b91909101601f0192915050565b600080858511156126e657600080fd5b838611156126f357600080fd5b5050820193919092039150565b80356020831015610a4a577fffffffffffffffffffffffffffffffffffffffffffffffffffffffffffffffff602084900360031b1b1692915050565b60006020828403121561274e57600080fd5b815180151581146115e457600080fd5b7fffff0000000000000000000000000000000000000000000000000000000000008660f01b1681528460028201528360228201527fffffffffffffffffffffffffffffffffffffffff0000000000000000000000008360601b166042820152600082516127d2816056850160208701612583565b919091016056019695505050505050565b81810381811115610a4a57610a4a6124da565b7f4e487b7100000000000000000000000000000000000000000000000000000000600052603160045260246000fd5b60008251612837818460208701612583565b919091019291505056fea264697066735822122017cea011a115b83c966be1010c8ef1ea48daeaec74ec217a3c8e1eb9b310ed6364736f6c63430008130033",
  "linkReferences": {},
  "deployedLinkReferences": {}
}