{
  "_format": "hh-sol-artifact-1",
  "contractName": "HypERC20",
  "sourceName": "contracts/token/HypERC20.sol",
  "abi": [
    {
      "inputs": [
        {
          "internalType": "uint8",
          "name": "__decimals",
          "type": "uint8"
        },
        {
          "internalType": "address",
          "name": "_mailbox",
          "type": "address"
        }
      ],
      "stateMutability": "nonpayable",
      "type": "constructor"
    },
    {
      "anonymous": false,
      "inputs": [
        {
          "indexed": true,
          "internalType": "address",
          "name": "owner",
          "type": "address"
        },
        {
          "indexed": true,
          "internalType": "address",
          "name": "spender",
          "type": "address"
        },
        {
          "indexed": false,
          "internalType": "uint256",
          "name": "value",
          "type": "uint256"
        }
      ],
      "name": "Approval",
      "type": "event"
    },
    {
      "anonymous": false,
      "inputs": [
        {
          "indexed": false,
          "internalType": "uint8",
          "name": "version",
          "type": "uint8"
        }
      ],
      "name": "Initialized",
      "type": "event"
    },
    {
      "anonymous": false,
      "inputs": [
        {
          "indexed": true,
          "internalType": "address",
          "name": "previousOwner",
          "type": "address"
        },
        {
          "indexed": true,
          "internalType": "address",
          "name": "newOwner",
          "type": "address"
        }
      ],
      "name": "OwnershipTransferred",
      "type": "event"
    },
    {
      "anonymous": false,
      "inputs": [
        {
          "indexed": true,
          "internalType": "uint32",
          "name": "origin",
          "type": "uint32"
        },
        {
          "indexed": true,
          "internalType": "bytes32",
          "name": "recipient",
          "type": "bytes32"
        },
        {
          "indexed": false,
          "internalType": "uint256",
          "name": "amount",
          "type": "uint256"
        }
      ],
      "name": "ReceivedTransferRemote",
      "type": "event"
    },
    {
      "anonymous": false,
      "inputs": [
        {
          "indexed": true,
          "internalType": "uint32",
          "name": "destination",
          "type": "uint32"
        },
        {
          "indexed": true,
          "internalType": "bytes32",
          "name": "recipient",
          "type": "bytes32"
        },
        {
          "indexed": false,
          "internalType": "uint256",
          "name": "amount",
          "type": "uint256"
        }
      ],
      "name": "SentTransferRemote",
      "type": "event"
    },
    {
      "anonymous": false,
      "inputs": [
        {
          "indexed": true,
          "internalType": "address",
          "name": "from",
          "type": "address"
        },
        {
          "indexed": true,
          "internalType": "address",
          "name": "to",
          "type": "address"
        },
        {
          "indexed": false,
          "internalType": "uint256",
          "name": "value",
          "type": "uint256"
        }
      ],
      "name": "Transfer",
      "type": "event"
    },
    {
      "inputs": [
        {
          "internalType": "address",
          "name": "owner",
          "type": "address"
        },
        {
          "internalType": "address",
          "name": "spender",
          "type": "address"
        }
      ],
      "name": "allowance",
      "outputs": [
        {
          "internalType": "uint256",
          "name": "",
          "type": "uint256"
        }
      ],
      "stateMutability": "view",
      "type": "function"
    },
    {
      "inputs": [
        {
          "internalType": "address",
          "name": "spender",
          "type": "address"
        },
        {
          "internalType": "uint256",
          "name": "amount",
          "type": "uint256"
        }
      ],
      "name": "approve",
      "outputs": [
        {
          "internalType": "bool",
          "name": "",
          "type": "bool"
        }
      ],
      "stateMutability": "nonpayable",
      "type": "function"
    },
    {
      "inputs": [
        {
          "internalType": "address",
          "name": "_account",
          "type": "address"
        }
      ],
      "name": "balanceOf",
      "outputs": [
        {
          "internalType": "uint256",
          "name": "",
          "type": "uint256"
        }
      ],
      "stateMutability": "view",
      "type": "function"
    },
    {
      "inputs": [],
      "name": "decimals",
      "outputs": [
        {
          "internalType": "uint8",
          "name": "",
          "type": "uint8"
        }
      ],
      "stateMutability": "view",
      "type": "function"
    },
    {
      "inputs": [
        {
          "internalType": "address",
          "name": "spender",
          "type": "address"
        },
        {
          "internalType": "uint256",
          "name": "subtractedValue",
          "type": "uint256"
        }
      ],
      "name": "decreaseAllowance",
      "outputs": [
        {
          "internalType": "bool",
          "name": "",
          "type": "bool"
        }
      ],
      "stateMutability": "nonpayable",
      "type": "function"
    },
    {
      "inputs": [
        {
          "internalType": "uint32",
          "name": "",
          "type": "uint32"
        }
      ],
      "name": "destinationGas",
      "outputs": [
        {
          "internalType": "uint256",
          "name": "",
          "type": "uint256"
        }
      ],
      "stateMutability": "view",
      "type": "function"
    },
    {
      "inputs": [],
      "name": "domains",
      "outputs": [
        {
          "internalType": "uint32[]",
          "name": "",
          "type": "uint32[]"
        }
      ],
      "stateMutability": "view",
      "type": "function"
    },
    {
      "inputs": [
        {
          "internalType": "uint32",
          "name": "_domain",
          "type": "uint32"
        },
        {
          "internalType": "bytes32",
          "name": "_router",
          "type": "bytes32"
        }
      ],
      "name": "enrollRemoteRouter",
      "outputs": [],
      "stateMutability": "nonpayable",
      "type": "function"
    },
    {
      "inputs": [
        {
          "internalType": "uint32[]",
          "name": "_domains",
          "type": "uint32[]"
        },
        {
          "internalType": "bytes32[]",
          "name": "_addresses",
          "type": "bytes32[]"
        }
      ],
      "name": "enrollRemoteRouters",
      "outputs": [],
      "stateMutability": "nonpayable",
      "type": "function"
    },
    {
      "inputs": [
        {
          "internalType": "uint32",
          "name": "_origin",
          "type": "uint32"
        },
        {
          "internalType": "bytes32",
          "name": "_sender",
          "type": "bytes32"
        },
        {
          "internalType": "bytes",
          "name": "_message",
          "type": "bytes"
        }
      ],
      "name": "handle",
      "outputs": [],
      "stateMutability": "payable",
      "type": "function"
    },
    {
      "inputs": [],
      "name": "hook",
      "outputs": [
        {
          "internalType": "contract IPostDispatchHook",
          "name": "",
          "type": "address"
        }
      ],
      "stateMutability": "view",
      "type": "function"
    },
    {
      "inputs": [
        {
          "internalType": "address",
          "name": "spender",
          "type": "address"
        },
        {
          "internalType": "uint256",
          "name": "addedValue",
          "type": "uint256"
        }
      ],
      "name": "increaseAllowance",
      "outputs": [
        {
          "internalType": "bool",
          "name": "",
          "type": "bool"
        }
      ],
      "stateMutability": "nonpayable",
      "type": "function"
    },
    {
      "inputs": [
        {
          "internalType": "uint256",
          "name": "_totalSupply",
          "type": "uint256"
        },
        {
          "internalType": "string",
          "name": "_name",
          "type": "string"
        },
        {
          "internalType": "string",
          "name": "_symbol",
          "type": "string"
        },
        {
          "internalType": "address",
          "name": "_hook",
          "type": "address"
        },
        {
          "internalType": "address",
          "name": "_interchainSecurityModule",
          "type": "address"
        },
        {
          "internalType": "address",
          "name": "_owner",
          "type": "address"
        }
      ],
      "name": "initialize",
      "outputs": [],
      "stateMutability": "nonpayable",
      "type": "function"
    },
    {
      "inputs": [],
      "name": "interchainSecurityModule",
      "outputs": [
        {
          "internalType": "contract IInterchainSecurityModule",
          "name": "",
          "type": "address"
        }
      ],
      "stateMutability": "view",
      "type": "function"
    },
    {
      "inputs": [],
      "name": "localDomain",
      "outputs": [
        {
          "internalType": "uint32",
          "name": "",
          "type": "uint32"
        }
      ],
      "stateMutability": "view",
      "type": "function"
    },
    {
      "inputs": [],
      "name": "mailbox",
      "outputs": [
        {
          "internalType": "contract IMailbox",
          "name": "",
          "type": "address"
        }
      ],
      "stateMutability": "view",
      "type": "function"
    },
    {
      "inputs": [],
      "name": "name",
      "outputs": [
        {
          "internalType": "string",
          "name": "",
          "type": "string"
        }
      ],
      "stateMutability": "view",
      "type": "function"
    },
    {
      "inputs": [],
      "name": "owner",
      "outputs": [
        {
          "internalType": "address",
          "name": "",
          "type": "address"
        }
      ],
      "stateMutability": "view",
      "type": "function"
    },
    {
      "inputs": [
        {
          "internalType": "uint32",
          "name": "_destinationDomain",
          "type": "uint32"
        }
      ],
      "name": "quoteGasPayment",
      "outputs": [
        {
          "internalType": "uint256",
          "name": "",
          "type": "uint256"
        }
      ],
      "stateMutability": "view",
      "type": "function"
    },
    {
      "inputs": [],
      "name": "renounceOwnership",
      "outputs": [],
      "stateMutability": "nonpayable",
      "type": "function"
    },
    {
      "inputs": [
        {
          "internalType": "uint32",
          "name": "_domain",
          "type": "uint32"
        }
      ],
      "name": "routers",
      "outputs": [
        {
          "internalType": "bytes32",
          "name": "",
          "type": "bytes32"
        }
      ],
      "stateMutability": "view",
      "type": "function"
    },
    {
      "inputs": [
        {
          "internalType": "uint32",
          "name": "domain",
          "type": "uint32"
        },
        {
          "internalType": "uint256",
          "name": "gas",
          "type": "uint256"
        }
      ],
      "name": "setDestinationGas",
      "outputs": [],
      "stateMutability": "nonpayable",
      "type": "function"
    },
    {
      "inputs": [
        {
          "components": [
            {
              "internalType": "uint32",
              "name": "domain",
              "type": "uint32"
            },
            {
              "internalType": "uint256",
              "name": "gas",
              "type": "uint256"
            }
          ],
          "internalType": "struct GasRouter.GasRouterConfig[]",
          "name": "gasConfigs",
          "type": "tuple[]"
        }
      ],
      "name": "setDestinationGas",
      "outputs": [],
      "stateMutability": "nonpayable",
      "type": "function"
    },
    {
      "inputs": [
        {
          "internalType": "address",
          "name": "_hook",
          "type": "address"
        }
      ],
      "name": "setHook",
      "outputs": [],
      "stateMutability": "nonpayable",
      "type": "function"
    },
    {
      "inputs": [
        {
          "internalType": "address",
          "name": "_module",
          "type": "address"
        }
      ],
      "name": "setInterchainSecurityModule",
      "outputs": [],
      "stateMutability": "nonpayable",
      "type": "function"
    },
    {
      "inputs": [],
      "name": "symbol",
      "outputs": [
        {
          "internalType": "string",
          "name": "",
          "type": "string"
        }
      ],
      "stateMutability": "view",
      "type": "function"
    },
    {
      "inputs": [],
      "name": "totalSupply",
      "outputs": [
        {
          "internalType": "uint256",
          "name": "",
          "type": "uint256"
        }
      ],
      "stateMutability": "view",
      "type": "function"
    },
    {
      "inputs": [
        {
          "internalType": "address",
          "name": "to",
          "type": "address"
        },
        {
          "internalType": "uint256",
          "name": "amount",
          "type": "uint256"
        }
      ],
      "name": "transfer",
      "outputs": [
        {
          "internalType": "bool",
          "name": "",
          "type": "bool"
        }
      ],
      "stateMutability": "nonpayable",
      "type": "function"
    },
    {
      "inputs": [
        {
          "internalType": "address",
          "name": "from",
          "type": "address"
        },
        {
          "internalType": "address",
          "name": "to",
          "type": "address"
        },
        {
          "internalType": "uint256",
          "name": "amount",
          "type": "uint256"
        }
      ],
      "name": "transferFrom",
      "outputs": [
        {
          "internalType": "bool",
          "name": "",
          "type": "bool"
        }
      ],
      "stateMutability": "nonpayable",
      "type": "function"
    },
    {
      "inputs": [
        {
          "internalType": "address",
          "name": "newOwner",
          "type": "address"
        }
      ],
      "name": "transferOwnership",
      "outputs": [],
      "stateMutability": "nonpayable",
      "type": "function"
    },
    {
      "inputs": [
        {
          "internalType": "uint32",
          "name": "_destination",
          "type": "uint32"
        },
        {
          "internalType": "bytes32",
          "name": "_recipient",
          "type": "bytes32"
        },
        {
          "internalType": "uint256",
          "name": "_amountOrId",
          "type": "uint256"
        },
        {
          "internalType": "bytes",
          "name": "_hookMetadata",
          "type": "bytes"
        },
        {
          "internalType": "address",
          "name": "_hook",
          "type": "address"
        }
      ],
      "name": "transferRemote",
      "outputs": [
        {
          "internalType": "bytes32",
          "name": "messageId",
          "type": "bytes32"
        }
      ],
      "stateMutability": "payable",
      "type": "function"
    },
    {
      "inputs": [
        {
          "internalType": "uint32",
          "name": "_destination",
          "type": "uint32"
        },
        {
          "internalType": "bytes32",
          "name": "_recipient",
          "type": "bytes32"
        },
        {
          "internalType": "uint256",
          "name": "_amountOrId",
          "type": "uint256"
        }
      ],
      "name": "transferRemote",
      "outputs": [
        {
          "internalType": "bytes32",
          "name": "messageId",
          "type": "bytes32"
        }
      ],
      "stateMutability": "payable",
      "type": "function"
    },
    {
      "inputs": [
        {
          "internalType": "uint32",
          "name": "_domain",
          "type": "uint32"
        }
      ],
      "name": "unenrollRemoteRouter",
      "outputs": [],
      "stateMutability": "nonpayable",
      "type": "function"
    },
    {
      "inputs": [
        {
          "internalType": "uint32[]",
          "name": "_domains",
          "type": "uint32[]"
        }
      ],
      "name": "unenrollRemoteRouters",
      "outputs": [],
      "stateMutability": "nonpayable",
      "type": "function"
    }
  ],
  "bytecode": "0x60e06040523480156200001157600080fd5b506040516200358238038062003582833981016040819052620000349162000181565b80808080806001600160a01b0381163b620000955760405162461bcd60e51b815260206004820152601e60248201527f4d61696c626f78436c69656e743a20696e76616c6964206d61696c626f780000604482015260640160405180910390fd5b6001600160a01b03821660808190526040805163234d8e3d60e21b81529051638d3638f4916004808201926020929091908290030181865afa158015620000e0573d6000803e3d6000fd5b505050506040513d601f19601f82011682018060405250810190620001069190620001d0565b63ffffffff1660a0526200011a336200012f565b50505060ff90931660c05250620001ff915050565b606580546001600160a01b038381166001600160a01b0319831681179093556040519116919082907f8be0079c531659141344cd1fd0a4f28419497f9722a3daafe3b4186f6b6457e090600090a35050565b600080604083850312156200019557600080fd5b825160ff81168114620001a757600080fd5b60208401519092506001600160a01b0381168114620001c557600080fd5b809150509250929050565b600060208284031215620001e357600080fd5b815163ffffffff81168114620001f857600080fd5b9392505050565b60805160a05160c05161333e62000244600039600061030e015260006104d90152600081816105e201528181610b3101528181611eb801526121af015261333e6000f3fe6080604052600436106102195760003560e01c80637f5a7c7b1161011d578063b49c53a7116100b0578063e80a7c791161007f578063efae508a11610064578063efae508a146106c4578063f2ed8c53146106e4578063f2fde38b1461070457600080fd5b8063e80a7c7914610684578063e9198bf9146106a457600080fd5b8063b49c53a7146105b0578063d5438eae146105d0578063dd62ed3e14610604578063de523cf31461065757600080fd5b806395d89b41116100ec57806395d89b411461053b578063a457c2d714610550578063a9059cbb14610570578063b1bd64361461059057600080fd5b80637f5a7c7b1461046257806381b4e8b4146104b45780638d3638f4146104c75780638da5cb5b1461051057600080fd5b80633dfd3873116101b057806356d5d4751161017f578063715018a611610164578063715018a61461040057806371a15b3814610415578063775313a11461043557600080fd5b806356d5d475146103cd57806370a08231146103e057600080fd5b80633dfd387314610358578063440df4f41461037857806349d462ef1461039a57806351debffc146103ba57600080fd5b806323b872dd116101ec57806323b872dd146102ba5780632ead72f6146102da578063313ce567146102fa578063395093511461033857600080fd5b806306fdde031461021e578063095ea7b3146102495780630e72cc061461027957806318160ddd1461029b575b600080fd5b34801561022a57600080fd5b50610233610724565b6040516102409190612901565b60405180910390f35b34801561025557600080fd5b5061026961026436600461293d565b6107b6565b6040519015158152602001610240565b34801561028557600080fd5b50610299610294366004612967565b6107d0565b005b3480156102a757600080fd5b506035545b604051908152602001610240565b3480156102c657600080fd5b506102696102d5366004612982565b6108eb565b3480156102e657600080fd5b506102ac6102f53660046129d2565b61090f565b34801561030657600080fd5b5060405160ff7f0000000000000000000000000000000000000000000000000000000000000000168152602001610240565b34801561034457600080fd5b5061026961035336600461293d565b61092e565b34801561036457600080fd5b50610299610373366004612967565b61097a565b34801561038457600080fd5b5061038d610a90565b60405161024091906129ed565b3480156103a657600080fd5b506102996103b5366004612a37565b610aa1565b6102ac6103c8366004612a95565b610ac7565b6102996103db366004612b0c565b610b19565b3480156103ec57600080fd5b506102ac6103fb366004612967565b610c8d565b34801561040c57600080fd5b50610299610cb8565b34801561042157600080fd5b50610299610430366004612bab565b610ccc565b34801561044157600080fd5b506102ac6104503660046129d2565b60fc6020526000908152604090205481565b34801561046e57600080fd5b5060975461048f9073ffffffffffffffffffffffffffffffffffffffff1681565b60405173ffffffffffffffffffffffffffffffffffffffff9091168152602001610240565b6102ac6104c2366004612bed565b610d27565b3480156104d357600080fd5b506104fb7f000000000000000000000000000000000000000000000000000000000000000081565b60405163ffffffff9091168152602001610240565b34801561051c57600080fd5b5060655473ffffffffffffffffffffffffffffffffffffffff1661048f565b34801561054757600080fd5b50610233610d35565b34801561055c57600080fd5b5061026961056b36600461293d565b610d44565b34801561057c57600080fd5b5061026961058b36600461293d565b610e15565b34801561059c57600080fd5b506102996105ab366004612c20565b610e23565b3480156105bc57600080fd5b506102996105cb366004612a37565b610ead565b3480156105dc57600080fd5b5061048f7f000000000000000000000000000000000000000000000000000000000000000081565b34801561061057600080fd5b506102ac61061f366004612c95565b73ffffffffffffffffffffffffffffffffffffffff918216600090815260346020908152604080832093909416825291909152205490565b34801561066357600080fd5b5060985461048f9073ffffffffffffffffffffffffffffffffffffffff1681565b34801561069057600080fd5b5061029961069f366004612da2565b610ebf565b3480156106b057600080fd5b506102996106bf366004612e34565b61106e565b3480156106d057600080fd5b506102996106df3660046129d2565b61114d565b3480156106f057600080fd5b506102ac6106ff3660046129d2565b611161565b34801561071057600080fd5b5061029961071f366004612967565b611198565b60606036805461073390612e94565b80601f016020809104026020016040519081016040528092919081815260200182805461075f90612e94565b80156107ac5780601f10610781576101008083540402835291602001916107ac565b820191906000526020600020905b81548152906001019060200180831161078f57829003601f168201915b5050505050905090565b6000336107c481858561124c565b60019150505b92915050565b8073ffffffffffffffffffffffffffffffffffffffff81163b15158061080a575073ffffffffffffffffffffffffffffffffffffffff8116155b61089b576040517f08c379a000000000000000000000000000000000000000000000000000000000815260206004820152602760248201527f4d61696c626f78436c69656e743a20696e76616c696420636f6e74726163742060448201527f73657474696e670000000000000000000000000000000000000000000000000060648201526084015b60405180910390fd5b6108a36113ff565b50609880547fffffffffffffffffffffffff00000000000000000000000000000000000000001673ffffffffffffffffffffffffffffffffffffffff92909216919091179055565b6000336108f9858285611480565b610904858585611551565b506001949350505050565b60008061092660c963ffffffff808616906117c716565b949350505050565b33600081815260346020908152604080832073ffffffffffffffffffffffffffffffffffffffff871684529091528120549091906107c49082908690610975908790612f16565b61124c565b8073ffffffffffffffffffffffffffffffffffffffff81163b1515806109b4575073ffffffffffffffffffffffffffffffffffffffff8116155b610a40576040517f08c379a000000000000000000000000000000000000000000000000000000000815260206004820152602760248201527f4d61696c626f78436c69656e743a20696e76616c696420636f6e74726163742060448201527f73657474696e67000000000000000000000000000000000000000000000000006064820152608401610892565b610a486113ff565b50609780547fffffffffffffffffffffffff00000000000000000000000000000000000000001673ffffffffffffffffffffffffffffffffffffffff92909216919091179055565b6060610a9c60c96117e0565b905090565b610aa96113ff565b63ffffffff91909116600090815260fc6020526040902055565b5050565b6000610b0e8787873488888080601f0160208091040260200160405190810160405280939291908181526020018383808284376000920191909152508a925061189b915050565b979650505050505050565b3373ffffffffffffffffffffffffffffffffffffffff7f00000000000000000000000000000000000000000000000000000000000000001614610bde576040517f08c379a000000000000000000000000000000000000000000000000000000000815260206004820152602160248201527f4d61696c626f78436c69656e743a2073656e646572206e6f74206d61696c626f60448201527f78000000000000000000000000000000000000000000000000000000000000006064820152608401610892565b6000610be985611914565b9050838114610c7a576040517f08c379a000000000000000000000000000000000000000000000000000000000815260206004820152602560248201527f456e726f6c6c656420726f7574657220646f6573206e6f74206d61746368207360448201527f656e6465720000000000000000000000000000000000000000000000000000006064820152608401610892565b610c8685858585611979565b5050505050565b73ffffffffffffffffffffffffffffffffffffffff81166000908152603360205260408120546107ca565b610cc06113ff565b610cca6000611a03565b565b610cd46113ff565b8060005b81811015610d2157610d0f848483818110610cf557610cf5612f29565b9050602002016020810190610d0a91906129d2565b611a7a565b610d1a600182612f16565b9050610cd8565b50505050565b600061092684848434611acf565b60606037805461073390612e94565b33600081815260346020908152604080832073ffffffffffffffffffffffffffffffffffffffff8716845290915281205490919083811015610e08576040517f08c379a000000000000000000000000000000000000000000000000000000000815260206004820152602560248201527f45524332303a2064656372656173656420616c6c6f77616e63652062656c6f7760448201527f207a65726f0000000000000000000000000000000000000000000000000000006064820152608401610892565b610904828686840361124c565b6000336107c4818585611551565b610e2b6113ff565b60005b81811015610ea857610e96838383818110610e4b57610e4b612f29565b610e6192602060409092020190810191506129d2565b848484818110610e7357610e73612f29565b9050604002016020013563ffffffff909116600090815260fc6020526040902055565b610ea1600182612f16565b9050610e2e565b505050565b610eb56113ff565b610ac38282611b08565b600054610100900460ff1615808015610edf5750600054600160ff909116105b80610ef95750303b158015610ef9575060005460ff166001145b610f85576040517f08c379a000000000000000000000000000000000000000000000000000000000815260206004820152602e60248201527f496e697469616c697a61626c653a20636f6e747261637420697320616c72656160448201527f647920696e697469616c697a65640000000000000000000000000000000000006064820152608401610892565b600080547fffffffffffffffffffffffffffffffffffffffffffffffffffffffffffffff001660011790558015610fe357600080547fffffffffffffffffffffffffffffffffffffffffffffffffffffffffffff00ff166101001790555b610fed8686611b1e565b610ff73388611bbf565b611002848484611cb4565b801561106557600080547fffffffffffffffffffffffffffffffffffffffffffffffffffffffffffff00ff169055604051600181527f7f26b83ff96e1f2b6a682f133852f6798a09c465da95921460cefb38474024989060200160405180910390a15b50505050505050565b6110766113ff565b8281146110df576040517f08c379a000000000000000000000000000000000000000000000000000000000815260206004820152600760248201527f216c656e677468000000000000000000000000000000000000000000000000006044820152606401610892565b8260005b818110156111455761113386868381811061110057611100612f29565b905060200201602081019061111591906129d2565b85858481811061112757611127612f29565b90506020020135611b08565b61113e600182612f16565b90506110e3565b505050505050565b6111556113ff565b61115e81611a7a565b50565b6040805160208101909152600080825260975490916107ca9184919073ffffffffffffffffffffffffffffffffffffffff16611d6e565b6111a06113ff565b73ffffffffffffffffffffffffffffffffffffffff8116611243576040517f08c379a000000000000000000000000000000000000000000000000000000000815260206004820152602660248201527f4f776e61626c653a206e6577206f776e657220697320746865207a65726f206160448201527f64647265737300000000000000000000000000000000000000000000000000006064820152608401610892565b61115e81611a03565b73ffffffffffffffffffffffffffffffffffffffff83166112ee576040517f08c379a0000000000000000000000000000000000000000000000000000000008152602060048201526024808201527f45524332303a20617070726f76652066726f6d20746865207a65726f2061646460448201527f72657373000000000000000000000000000000000000000000000000000000006064820152608401610892565b73ffffffffffffffffffffffffffffffffffffffff8216611391576040517f08c379a000000000000000000000000000000000000000000000000000000000815260206004820152602260248201527f45524332303a20617070726f766520746f20746865207a65726f20616464726560448201527f73730000000000000000000000000000000000000000000000000000000000006064820152608401610892565b73ffffffffffffffffffffffffffffffffffffffff83811660008181526034602090815260408083209487168084529482529182902085905590518481527f8c5be1e5ebec7d5bd14f71427d1e84f3dd0314c0f7b2291e5b200ac8c7c3b925910160405180910390a3505050565b60655473ffffffffffffffffffffffffffffffffffffffff163314610cca576040517f08c379a000000000000000000000000000000000000000000000000000000000815260206004820181905260248201527f4f776e61626c653a2063616c6c6572206973206e6f7420746865206f776e65726044820152606401610892565b73ffffffffffffffffffffffffffffffffffffffff8381166000908152603460209081526040808320938616835292905220547fffffffffffffffffffffffffffffffffffffffffffffffffffffffffffffffff8114610d215781811015611544576040517f08c379a000000000000000000000000000000000000000000000000000000000815260206004820152601d60248201527f45524332303a20696e73756666696369656e7420616c6c6f77616e63650000006044820152606401610892565b610d21848484840361124c565b73ffffffffffffffffffffffffffffffffffffffff83166115f4576040517f08c379a000000000000000000000000000000000000000000000000000000000815260206004820152602560248201527f45524332303a207472616e736665722066726f6d20746865207a65726f20616460448201527f64726573730000000000000000000000000000000000000000000000000000006064820152608401610892565b73ffffffffffffffffffffffffffffffffffffffff8216611697576040517f08c379a000000000000000000000000000000000000000000000000000000000815260206004820152602360248201527f45524332303a207472616e7366657220746f20746865207a65726f206164647260448201527f65737300000000000000000000000000000000000000000000000000000000006064820152608401610892565b73ffffffffffffffffffffffffffffffffffffffff83166000908152603360205260409020548181101561174d576040517f08c379a000000000000000000000000000000000000000000000000000000000815260206004820152602660248201527f45524332303a207472616e7366657220616d6f756e742065786365656473206260448201527f616c616e636500000000000000000000000000000000000000000000000000006064820152608401610892565b73ffffffffffffffffffffffffffffffffffffffff80851660008181526033602052604080822086860390559286168082529083902080548601905591517fddf252ad1be2c89b69c2b068fc378daa952ba7f163c4a11628f55a4df523b3ef906117ba9086815260200190565b60405180910390a3610d21565b6000806117d48484611d84565b915091505b9250929050565b606060006117ed83611dbe565b9050805167ffffffffffffffff81111561180957611809612cc8565b604051908082528060200260200182016040528015611832578160200160208202803683370190505b50915060005b81518110156118945781818151811061185357611853612f29565b602002602001015183828151811061186d5761186d612f29565b63ffffffff909216602092830291909101909101528061188c81612f58565b915050611838565b5050919050565b6000806118a786611e59565b905060006118b6888884611e79565b90506118c58987838888611ea8565b9250878963ffffffff167fd229aacb94204188fe8042965fa6b269c62dc5818b21238779ab64bdd17efeec8960405161190091815260200190565b60405180910390a350509695505050505050565b6000808061192c60c963ffffffff808716906117c716565b91509150811561193d579392505050565b61194684611f5b565b6040517f08c379a00000000000000000000000000000000000000000000000000000000081526004016108929190612901565b60006119858383611f92565b905060006119938484611fb1565b90503660006119a28686611fc1565b915091506119b86119b08590565b848484611fd1565b838863ffffffff167fba20947a325f450d232530e5f5fce293e7963499d5309a07cee84a269f2f15a6856040516119f191815260200190565b60405180910390a35050505050505050565b6065805473ffffffffffffffffffffffffffffffffffffffff8381167fffffffffffffffffffffffff0000000000000000000000000000000000000000831681179093556040519116919082907f8be0079c531659141344cd1fd0a4f28419497f9722a3daafe3b4186f6b6457e090600090a35050565b611a8e60c963ffffffff80841690611fdb16565b611a9782611f5b565b90610ac3576040517f08c379a00000000000000000000000000000000000000000000000000000000081526004016108929190612901565b6000611aff85858585611ae18a611fe7565b60975473ffffffffffffffffffffffffffffffffffffffff1661189b565b95945050505050565b610ac360c963ffffffff80851690849061200916565b600054610100900460ff16611bb5576040517f08c379a000000000000000000000000000000000000000000000000000000000815260206004820152602b60248201527f496e697469616c697a61626c653a20636f6e7472616374206973206e6f74206960448201527f6e697469616c697a696e670000000000000000000000000000000000000000006064820152608401610892565b610ac38282612014565b73ffffffffffffffffffffffffffffffffffffffff8216611c3c576040517f08c379a000000000000000000000000000000000000000000000000000000000815260206004820152601f60248201527f45524332303a206d696e7420746f20746865207a65726f2061646472657373006044820152606401610892565b8060356000828254611c4e9190612f16565b909155505073ffffffffffffffffffffffffffffffffffffffff82166000818152603360209081526040808320805486019055518481527fddf252ad1be2c89b69c2b068fc378daa952ba7f163c4a11628f55a4df523b3ef910160405180910390a35050565b600054610100900460ff16611d4b576040517f08c379a000000000000000000000000000000000000000000000000000000000815260206004820152602b60248201527f496e697469616c697a61626c653a20636f6e7472616374206973206e6f74206960448201527f6e697469616c697a696e670000000000000000000000000000000000000000006064820152608401610892565b611d536120c4565b611d5c8361097a565b611d65826107d0565b610ea881611a03565b60006109268484611d7e87611fe7565b85612163565b6000818152600283016020526040812054819080611db357611da68585612237565b9250600091506117d99050565b6001925090506117d9565b60606000611dcb83612243565b90508067ffffffffffffffff811115611de657611de6612cc8565b604051908082528060200260200182016040528015611e0f578160200160208202803683370190505b50915060005b8181101561189457611e27848261224e565b60001c838281518110611e3c57611e3c612f29565b602090810291909101015280611e5181612f58565b915050611e15565b6060611e65338361225a565b505060408051602081019091526000815290565b6060838383604051602001611e9093929190612f90565b60405160208183030381529060405290509392505050565b600080611eb487611914565b90507f000000000000000000000000000000000000000000000000000000000000000073ffffffffffffffffffffffffffffffffffffffff166310b83dc08789848989896040518763ffffffff1660e01b8152600401611f18959493929190612fbd565b60206040518083038185885af1158015611f36573d6000803e3d6000fd5b50505050506040513d601f19601f82011682018060405250810190610b0e919061301d565b6060611f6c8263ffffffff16612420565b604051602001611f7c9190613036565b6040516020818303038152906040529050919050565b6000611fa1602082848661307b565b611faa916130a5565b9392505050565b6000611fa160406020848661307b565b3660006117d4836040818761307b565b610d218484611bbf565b6000611faa83836124de565b63ffffffff8116600090815260fc60205260409020546060906107ca906124fb565b610d21838383612519565b600054610100900460ff166120ab576040517f08c379a000000000000000000000000000000000000000000000000000000000815260206004820152602b60248201527f496e697469616c697a61626c653a20636f6e7472616374206973206e6f74206960448201527f6e697469616c697a696e670000000000000000000000000000000000000000006064820152608401610892565b60366120b78382613127565b506037610ea88282613127565b600054610100900460ff1661215b576040517f08c379a000000000000000000000000000000000000000000000000000000000815260206004820152602b60248201527f496e697469616c697a61626c653a20636f6e7472616374206973206e6f74206960448201527f6e697469616c697a696e670000000000000000000000000000000000000000006064820152608401610892565b610cca612536565b60008061216f86611914565b6040517f81d2ea9500000000000000000000000000000000000000000000000000000000815290915073ffffffffffffffffffffffffffffffffffffffff7f000000000000000000000000000000000000000000000000000000000000000016906381d2ea95906121ec90899085908a908a908a90600401612fbd565b602060405180830381865afa158015612209573d6000803e3d6000fd5b505050506040513d601f19601f8201168201806040525081019061222d919061301d565b9695505050505050565b6000611faa83836125d6565b60006107ca826125ee565b6000611faa83836125f8565b73ffffffffffffffffffffffffffffffffffffffff82166122fd576040517f08c379a000000000000000000000000000000000000000000000000000000000815260206004820152602160248201527f45524332303a206275726e2066726f6d20746865207a65726f2061646472657360448201527f73000000000000000000000000000000000000000000000000000000000000006064820152608401610892565b73ffffffffffffffffffffffffffffffffffffffff8216600090815260336020526040902054818110156123b3576040517f08c379a000000000000000000000000000000000000000000000000000000000815260206004820152602260248201527f45524332303a206275726e20616d6f756e7420657863656564732062616c616e60448201527f63650000000000000000000000000000000000000000000000000000000000006064820152608401610892565b73ffffffffffffffffffffffffffffffffffffffff831660008181526033602090815260408083208686039055603580548790039055518581529192917fddf252ad1be2c89b69c2b068fc378daa952ba7f163c4a11628f55a4df523b3ef910160405180910390a3505050565b6060600061242d83612622565b600101905060008167ffffffffffffffff81111561244d5761244d612cc8565b6040519080825280601f01601f191660200182016040528015612477576020820181803683370190505b5090508181016020015b7fffffffffffffffffffffffffffffffffffffffffffffffffffffffffffffffff017f3031323334353637383961626364656600000000000000000000000000000000600a86061a8153600a850494508461248157509392505050565b60008181526002830160205260408120819055611faa8383612704565b60606107ca6000833360405180602001604052806000815250612710565b600082815260028401602052604081208290556109268484612745565b600054610100900460ff166125cd576040517f08c379a000000000000000000000000000000000000000000000000000000000815260206004820152602b60248201527f496e697469616c697a61626c653a20636f6e7472616374206973206e6f74206960448201527f6e697469616c697a696e670000000000000000000000000000000000000000006064820152608401610892565b610cca33611a03565b60008181526001830160205260408120541515611faa565b60006107ca825490565b600082600001828154811061260f5761260f612f29565b9060005260206000200154905092915050565b6000807a184f03e93ff9f4daa797ed6e38ed64bf6a1f010000000000000000831061266b577a184f03e93ff9f4daa797ed6e38ed64bf6a1f010000000000000000830492506040015b6d04ee2d6d415b85acef81000000008310612697576d04ee2d6d415b85acef8100000000830492506020015b662386f26fc1000083106126b557662386f26fc10000830492506010015b6305f5e10083106126cd576305f5e100830492506008015b61271083106126e157612710830492506004015b606483106126f3576064830492506002015b600a83106107ca5760010192915050565b6000611faa8383612751565b606060018585858560405160200161272c959493929190613241565b6040516020818303038152906040529050949350505050565b6000611faa8383612844565b6000818152600183016020526040812054801561283a5760006127756001836132c6565b8554909150600090612789906001906132c6565b90508181146127ee5760008660000182815481106127a9576127a9612f29565b90600052602060002001549050808760000184815481106127cc576127cc612f29565b6000918252602080832090910192909255918252600188019052604090208390555b85548690806127ff576127ff6132d9565b6001900381819060005260206000200160009055905585600101600086815260200190815260200160002060009055600193505050506107ca565b60009150506107ca565b600081815260018301602052604081205461288b575081546001818101845560008481526020808220909301849055845484825282860190935260409020919091556107ca565b5060006107ca565b60005b838110156128ae578181015183820152602001612896565b50506000910152565b600081518084526128cf816020860160208601612893565b601f017fffffffffffffffffffffffffffffffffffffffffffffffffffffffffffffffe0169290920160200192915050565b602081526000611faa60208301846128b7565b803573ffffffffffffffffffffffffffffffffffffffff8116811461293857600080fd5b919050565b6000806040838503121561295057600080fd5b61295983612914565b946020939093013593505050565b60006020828403121561297957600080fd5b611faa82612914565b60008060006060848603121561299757600080fd5b6129a084612914565b92506129ae60208501612914565b9150604084013590509250925092565b803563ffffffff8116811461293857600080fd5b6000602082840312156129e457600080fd5b611faa826129be565b6020808252825182820181905260009190848201906040850190845b81811015612a2b57835163ffffffff1683529284019291840191600101612a09565b50909695505050505050565b60008060408385031215612a4a57600080fd5b612959836129be565b60008083601f840112612a6557600080fd5b50813567ffffffffffffffff811115612a7d57600080fd5b6020830191508360208285010111156117d957600080fd5b60008060008060008060a08789031215612aae57600080fd5b612ab7876129be565b95506020870135945060408701359350606087013567ffffffffffffffff811115612ae157600080fd5b612aed89828a01612a53565b9094509250612b00905060808801612914565b90509295509295509295565b60008060008060608587031215612b2257600080fd5b612b2b856129be565b935060208501359250604085013567ffffffffffffffff811115612b4e57600080fd5b612b5a87828801612a53565b95989497509550505050565b60008083601f840112612b7857600080fd5b50813567ffffffffffffffff811115612b9057600080fd5b6020830191508360208260051b85010111156117d957600080fd5b60008060208385031215612bbe57600080fd5b823567ffffffffffffffff811115612bd557600080fd5b612be185828601612b66565b90969095509350505050565b600080600060608486031215612c0257600080fd5b612c0b846129be565b95602085013595506040909401359392505050565b60008060208385031215612c3357600080fd5b823567ffffffffffffffff80821115612c4b57600080fd5b818501915085601f830112612c5f57600080fd5b813581811115612c6e57600080fd5b8660208260061b8501011115612c8357600080fd5b60209290920196919550909350505050565b60008060408385031215612ca857600080fd5b612cb183612914565b9150612cbf60208401612914565b90509250929050565b7f4e487b7100000000000000000000000000000000000000000000000000000000600052604160045260246000fd5b600082601f830112612d0857600080fd5b813567ffffffffffffffff80821115612d2357612d23612cc8565b604051601f83017fffffffffffffffffffffffffffffffffffffffffffffffffffffffffffffffe0908116603f01168101908282118183101715612d6957612d69612cc8565b81604052838152866020858801011115612d8257600080fd5b836020870160208301376000602085830101528094505050505092915050565b60008060008060008060c08789031215612dbb57600080fd5b86359550602087013567ffffffffffffffff80821115612dda57600080fd5b612de68a838b01612cf7565b96506040890135915080821115612dfc57600080fd5b50612e0989828a01612cf7565b945050612e1860608801612914565b9250612e2660808801612914565b9150612b0060a08801612914565b60008060008060408587031215612e4a57600080fd5b843567ffffffffffffffff80821115612e6257600080fd5b612e6e88838901612b66565b90965094506020870135915080821115612e8757600080fd5b50612b5a87828801612b66565b600181811c90821680612ea857607f821691505b602082108103612ee1577f4e487b7100000000000000000000000000000000000000000000000000000000600052602260045260246000fd5b50919050565b7f4e487b7100000000000000000000000000000000000000000000000000000000600052601160045260246000fd5b808201808211156107ca576107ca612ee7565b7f4e487b7100000000000000000000000000000000000000000000000000000000600052603260045260246000fd5b60007fffffffffffffffffffffffffffffffffffffffffffffffffffffffffffffffff8203612f8957612f89612ee7565b5060010190565b83815282602082015260008251612fae816040850160208701612893565b91909101604001949350505050565b63ffffffff8616815284602082015260a060408201526000612fe260a08301866128b7565b8281036060840152612ff481866128b7565b91505073ffffffffffffffffffffffffffffffffffffffff831660808301529695505050505050565b60006020828403121561302f57600080fd5b5051919050565b7f4e6f20726f7574657220656e726f6c6c656420666f7220646f6d61696e3a200081526000825161306e81601f850160208701612893565b91909101601f0192915050565b6000808585111561308b57600080fd5b8386111561309857600080fd5b5050820193919092039150565b803560208310156107ca577fffffffffffffffffffffffffffffffffffffffffffffffffffffffffffffffff602084900360031b1b1692915050565b601f821115610ea857600081815260208120601f850160051c810160208610156131085750805b601f850160051c820191505b8181101561114557828155600101613114565b815167ffffffffffffffff81111561314157613141612cc8565b6131558161314f8454612e94565b846130e1565b602080601f8311600181146131a857600084156131725750858301515b7fffffffffffffffffffffffffffffffffffffffffffffffffffffffffffffffff600386901b1c1916600185901b178555611145565b6000858152602081207fffffffffffffffffffffffffffffffffffffffffffffffffffffffffffffffe08616915b828110156131f5578886015182559484019460019091019084016131d6565b508582101561323157878501517fffffffffffffffffffffffffffffffffffffffffffffffffffffffffffffffff600388901b60f8161c191681555b5050505050600190811b01905550565b7fffff0000000000000000000000000000000000000000000000000000000000008660f01b1681528460028201528360228201527fffffffffffffffffffffffffffffffffffffffff0000000000000000000000008360601b166042820152600082516132b5816056850160208701612893565b919091016056019695505050505050565b818103818111156107ca576107ca612ee7565b7f4e487b7100000000000000000000000000000000000000000000000000000000600052603160045260246000fdfea2646970667358221220b1a5ed55e7c826415460e661afcb24bde662c25a0af4c210dc9520ae2696132864736f6c63430008130033",
  "linkReferences": {},
  "deployedLinkReferences": {}
}