{
  "_format": "hh-sol-artifact-1",
  "contractName": "HypFiatToken",
  "sourceName": "contracts/token/extensions/HypFiatToken.sol",
  "abi": [
    {
      "inputs": [
        {
          "internalType": "address",
          "name": "_fiatToken",
          "type": "address"
        },
        {
          "internalType": "address",
          "name": "_mailbox",
          "type": "address"
        }
      ],
      "stateMutability": "nonpayable",
      "type": "constructor"
    },
    {
      "anonymous": false,
      "inputs": [
        {
          "indexed": false,
          "internalType": "uint8",
          "name": "version",
          "type": "uint8"
        }
      ],
      "name": "Initialized",
      "type": "event"
    },
    {
      "anonymous": false,
      "inputs": [
        {
          "indexed": true,
          "internalType": "address",
          "name": "previousOwner",
          "type": "address"
        },
        {
          "indexed": true,
          "internalType": "address",
          "name": "newOwner",
          "type": "address"
        }
      ],
      "name": "OwnershipTransferred",
      "type": "event"
    },
    {
      "anonymous": false,
      "inputs": [
        {
          "indexed": true,
          "internalType": "uint32",
          "name": "origin",
          "type": "uint32"
        },
        {
          "indexed": true,
          "internalType": "bytes32",
          "name": "recipient",
          "type": "bytes32"
        },
        {
          "indexed": false,
          "internalType": "uint256",
          "name": "amount",
          "type": "uint256"
        }
      ],
      "name": "ReceivedTransferRemote",
      "type": "event"
    },
    {
      "anonymous": false,
      "inputs": [
        {
          "indexed": true,
          "internalType": "uint32",
          "name": "destination",
          "type": "uint32"
        },
        {
          "indexed": true,
          "internalType": "bytes32",
          "name": "recipient",
          "type": "bytes32"
        },
        {
          "indexed": false,
          "internalType": "uint256",
          "name": "amount",
          "type": "uint256"
        }
      ],
      "name": "SentTransferRemote",
      "type": "event"
    },
    {
      "inputs": [
        {
          "internalType": "address",
          "name": "_account",
          "type": "address"
        }
      ],
      "name": "balanceOf",
      "outputs": [
        {
          "internalType": "uint256",
          "name": "",
          "type": "uint256"
        }
      ],
      "stateMutability": "view",
      "type": "function"
    },
    {
      "inputs": [
        {
          "internalType": "uint32",
          "name": "",
          "type": "uint32"
        }
      ],
      "name": "destinationGas",
      "outputs": [
        {
          "internalType": "uint256",
          "name": "",
          "type": "uint256"
        }
      ],
      "stateMutability": "view",
      "type": "function"
    },
    {
      "inputs": [],
      "name": "domains",
      "outputs": [
        {
          "internalType": "uint32[]",
          "name": "",
          "type": "uint32[]"
        }
      ],
      "stateMutability": "view",
      "type": "function"
    },
    {
      "inputs": [
        {
          "internalType": "uint32",
          "name": "_domain",
          "type": "uint32"
        },
        {
          "internalType": "bytes32",
          "name": "_router",
          "type": "bytes32"
        }
      ],
      "name": "enrollRemoteRouter",
      "outputs": [],
      "stateMutability": "nonpayable",
      "type": "function"
    },
    {
      "inputs": [
        {
          "internalType": "uint32[]",
          "name": "_domains",
          "type": "uint32[]"
        },
        {
          "internalType": "bytes32[]",
          "name": "_addresses",
          "type": "bytes32[]"
        }
      ],
      "name": "enrollRemoteRouters",
      "outputs": [],
      "stateMutability": "nonpayable",
      "type": "function"
    },
    {
      "inputs": [
        {
          "internalType": "uint32",
          "name": "_origin",
          "type": "uint32"
        },
        {
          "internalType": "bytes32",
          "name": "_sender",
          "type": "bytes32"
        },
        {
          "internalType": "bytes",
          "name": "_message",
          "type": "bytes"
        }
      ],
      "name": "handle",
      "outputs": [],
      "stateMutability": "payable",
      "type": "function"
    },
    {
      "inputs": [],
      "name": "hook",
      "outputs": [
        {
          "internalType": "contract IPostDispatchHook",
          "name": "",
          "type": "address"
        }
      ],
      "stateMutability": "view",
      "type": "function"
    },
    {
      "inputs": [
        {
          "internalType": "address",
          "name": "_hook",
          "type": "address"
        },
        {
          "internalType": "address",
          "name": "_interchainSecurityModule",
          "type": "address"
        },
        {
          "internalType": "address",
          "name": "_owner",
          "type": "address"
        }
      ],
      "name": "initialize",
      "outputs": [],
      "stateMutability": "nonpayable",
      "type": "function"
    },
    {
      "inputs": [],
      "name": "interchainSecurityModule",
      "outputs": [
        {
          "internalType": "contract IInterchainSecurityModule",
          "name": "",
          "type": "address"
        }
      ],
      "stateMutability": "view",
      "type": "function"
    },
    {
      "inputs": [],
      "name": "localDomain",
      "outputs": [
        {
          "internalType": "uint32",
          "name": "",
          "type": "uint32"
        }
      ],
      "stateMutability": "view",
      "type": "function"
    },
    {
      "inputs": [],
      "name": "mailbox",
      "outputs": [
        {
          "internalType": "contract IMailbox",
          "name": "",
          "type": "address"
        }
      ],
      "stateMutability": "view",
      "type": "function"
    },
    {
      "inputs": [],
      "name": "owner",
      "outputs": [
        {
          "internalType": "address",
          "name": "",
          "type": "address"
        }
      ],
      "stateMutability": "view",
      "type": "function"
    },
    {
      "inputs": [
        {
          "internalType": "uint32",
          "name": "_destinationDomain",
          "type": "uint32"
        }
      ],
      "name": "quoteGasPayment",
      "outputs": [
        {
          "internalType": "uint256",
          "name": "",
          "type": "uint256"
        }
      ],
      "stateMutability": "view",
      "type": "function"
    },
    {
      "inputs": [],
      "name": "renounceOwnership",
      "outputs": [],
      "stateMutability": "nonpayable",
      "type": "function"
    },
    {
      "inputs": [
        {
          "internalType": "uint32",
          "name": "_domain",
          "type": "uint32"
        }
      ],
      "name": "routers",
      "outputs": [
        {
          "internalType": "bytes32",
          "name": "",
          "type": "bytes32"
        }
      ],
      "stateMutability": "view",
      "type": "function"
    },
    {
      "inputs": [
        {
          "internalType": "uint32",
          "name": "domain",
          "type": "uint32"
        },
        {
          "internalType": "uint256",
          "name": "gas",
          "type": "uint256"
        }
      ],
      "name": "setDestinationGas",
      "outputs": [],
      "stateMutability": "nonpayable",
      "type": "function"
    },
    {
      "inputs": [
        {
          "components": [
            {
              "internalType": "uint32",
              "name": "domain",
              "type": "uint32"
            },
            {
              "internalType": "uint256",
              "name": "gas",
              "type": "uint256"
            }
          ],
          "internalType": "struct GasRouter.GasRouterConfig[]",
          "name": "gasConfigs",
          "type": "tuple[]"
        }
      ],
      "name": "setDestinationGas",
      "outputs": [],
      "stateMutability": "nonpayable",
      "type": "function"
    },
    {
      "inputs": [
        {
          "internalType": "address",
          "name": "_hook",
          "type": "address"
        }
      ],
      "name": "setHook",
      "outputs": [],
      "stateMutability": "nonpayable",
      "type": "function"
    },
    {
      "inputs": [
        {
          "internalType": "address",
          "name": "_module",
          "type": "address"
        }
      ],
      "name": "setInterchainSecurityModule",
      "outputs": [],
      "stateMutability": "nonpayable",
      "type": "function"
    },
    {
      "inputs": [
        {
          "internalType": "address",
          "name": "newOwner",
          "type": "address"
        }
      ],
      "name": "transferOwnership",
      "outputs": [],
      "stateMutability": "nonpayable",
      "type": "function"
    },
    {
      "inputs": [
        {
          "internalType": "uint32",
          "name": "_destination",
          "type": "uint32"
        },
        {
          "internalType": "bytes32",
          "name": "_recipient",
          "type": "bytes32"
        },
        {
          "internalType": "uint256",
          "name": "_amountOrId",
          "type": "uint256"
        },
        {
          "internalType": "bytes",
          "name": "_hookMetadata",
          "type": "bytes"
        },
        {
          "internalType": "address",
          "name": "_hook",
          "type": "address"
        }
      ],
      "name": "transferRemote",
      "outputs": [
        {
          "internalType": "bytes32",
          "name": "messageId",
          "type": "bytes32"
        }
      ],
      "stateMutability": "payable",
      "type": "function"
    },
    {
      "inputs": [
        {
          "internalType": "uint32",
          "name": "_destination",
          "type": "uint32"
        },
        {
          "internalType": "bytes32",
          "name": "_recipient",
          "type": "bytes32"
        },
        {
          "internalType": "uint256",
          "name": "_amountOrId",
          "type": "uint256"
        }
      ],
      "name": "transferRemote",
      "outputs": [
        {
          "internalType": "bytes32",
          "name": "messageId",
          "type": "bytes32"
        }
      ],
      "stateMutability": "payable",
      "type": "function"
    },
    {
      "inputs": [
        {
          "internalType": "uint32",
          "name": "_domain",
          "type": "uint32"
        }
      ],
      "name": "unenrollRemoteRouter",
      "outputs": [],
      "stateMutability": "nonpayable",
      "type": "function"
    },
    {
      "inputs": [
        {
          "internalType": "uint32[]",
          "name": "_domains",
          "type": "uint32[]"
        }
      ],
      "name": "unenrollRemoteRouters",
      "outputs": [],
      "stateMutability": "nonpayable",
      "type": "function"
    },
    {
      "inputs": [],
      "name": "wrappedToken",
      "outputs": [
        {
          "internalType": "contract IERC20",
          "name": "",
          "type": "address"
        }
      ],
      "stateMutability": "view",
      "type": "function"
    }
  ],
  "bytecode": "0x60e06040523480156200001157600080fd5b5060405162002b4538038062002b458339810160408190526200003491620001a8565b818180808080806001600160a01b0381163b620000975760405162461bcd60e51b815260206004820152601e60248201527f4d61696c626f78436c69656e743a20696e76616c6964206d61696c626f780000604482015260640160405180910390fd5b6001600160a01b03821660808190526040805163234d8e3d60e21b81529051638d3638f4916004808201926020929091908290030181865afa158015620000e2573d6000803e3d6000fd5b505050506040513d601f19601f82011682018060405250810190620001089190620001e0565b63ffffffff1660a0526200011c3362000139565b5050506001600160a01b0390931660c052506200020f9350505050565b603380546001600160a01b038381166001600160a01b0319831681179093556040519116919082907f8be0079c531659141344cd1fd0a4f28419497f9722a3daafe3b4186f6b6457e090600090a35050565b80516001600160a01b0381168114620001a357600080fd5b919050565b60008060408385031215620001bc57600080fd5b620001c7836200018b565b9150620001d7602084016200018b565b90509250929050565b600060208284031215620001f357600080fd5b815163ffffffff811681146200020857600080fd5b9392505050565b60805160a05160c0516128d562000270600039600081816103e5015281816109dd01528181611498015281816116b2015261197001526000610371015260008181610479015281816108390152818161154d01526118a901526128d56000f3fe6080604052600436106101965760003560e01c806381b4e8b4116100e1578063c0c53b8b1161008a578063e9198bf911610064578063e9198bf9146104c8578063efae508a146104e8578063f2ed8c5314610508578063f2fde38b1461052857600080fd5b8063c0c53b8b14610447578063d5438eae14610467578063de523cf31461049b57600080fd5b8063996c6cc3116100bb578063996c6cc3146103d3578063b1bd643614610407578063b49c53a71461042757600080fd5b806381b4e8b41461034c5780638d3638f41461035f5780638da5cb5b146103a857600080fd5b806356d5d4751161014357806371a15b381161011d57806371a15b38146102ad578063775313a1146102cd5780637f5a7c7b146102fa57600080fd5b806356d5d4751461026557806370a0823114610278578063715018a61461029857600080fd5b8063440df4f411610174578063440df4f41461021057806349d462ef1461023257806351debffc1461025257600080fd5b80630e72cc061461019b5780632ead72f6146101bd5780633dfd3873146101f0575b600080fd5b3480156101a757600080fd5b506101bb6101b636600461214d565b610548565b005b3480156101c957600080fd5b506101dd6101d836600461217c565b610663565b6040519081526020015b60405180910390f35b3480156101fc57600080fd5b506101bb61020b36600461214d565b610682565b34801561021c57600080fd5b50610225610798565b6040516101e79190612197565b34801561023e57600080fd5b506101bb61024d3660046121e1565b6107a9565b6101dd61026036600461224d565b6107cf565b6101bb6102733660046122c4565b610821565b34801561028457600080fd5b506101dd61029336600461214d565b610995565b3480156102a457600080fd5b506101bb610a50565b3480156102b957600080fd5b506101bb6102c8366004612363565b610a64565b3480156102d957600080fd5b506101dd6102e836600461217c565b60ca6020526000908152604090205481565b34801561030657600080fd5b506065546103279073ffffffffffffffffffffffffffffffffffffffff1681565b60405173ffffffffffffffffffffffffffffffffffffffff90911681526020016101e7565b6101dd61035a3660046123a5565b610abf565b34801561036b57600080fd5b506103937f000000000000000000000000000000000000000000000000000000000000000081565b60405163ffffffff90911681526020016101e7565b3480156103b457600080fd5b5060335473ffffffffffffffffffffffffffffffffffffffff16610327565b3480156103df57600080fd5b506103277f000000000000000000000000000000000000000000000000000000000000000081565b34801561041357600080fd5b506101bb6104223660046123d8565b610acd565b34801561043357600080fd5b506101bb6104423660046121e1565b610b57565b34801561045357600080fd5b506101bb61046236600461244d565b610b69565b34801561047357600080fd5b506103277f000000000000000000000000000000000000000000000000000000000000000081565b3480156104a757600080fd5b506066546103279073ffffffffffffffffffffffffffffffffffffffff1681565b3480156104d457600080fd5b506101bb6104e3366004612490565b610d00565b3480156104f457600080fd5b506101bb61050336600461217c565b610ddf565b34801561051457600080fd5b506101dd61052336600461217c565b610df3565b34801561053457600080fd5b506101bb61054336600461214d565b610e2a565b8073ffffffffffffffffffffffffffffffffffffffff81163b151580610582575073ffffffffffffffffffffffffffffffffffffffff8116155b610613576040517f08c379a000000000000000000000000000000000000000000000000000000000815260206004820152602760248201527f4d61696c626f78436c69656e743a20696e76616c696420636f6e74726163742060448201527f73657474696e670000000000000000000000000000000000000000000000000060648201526084015b60405180910390fd5b61061b610ede565b50606680547fffffffffffffffffffffffff00000000000000000000000000000000000000001673ffffffffffffffffffffffffffffffffffffffff92909216919091179055565b60008061067a609763ffffffff80861690610f5f16565b949350505050565b8073ffffffffffffffffffffffffffffffffffffffff81163b1515806106bc575073ffffffffffffffffffffffffffffffffffffffff8116155b610748576040517f08c379a000000000000000000000000000000000000000000000000000000000815260206004820152602760248201527f4d61696c626f78436c69656e743a20696e76616c696420636f6e74726163742060448201527f73657474696e6700000000000000000000000000000000000000000000000000606482015260840161060a565b610750610ede565b50606580547fffffffffffffffffffffffff00000000000000000000000000000000000000001673ffffffffffffffffffffffffffffffffffffffff92909216919091179055565b60606107a46097610f78565b905090565b6107b1610ede565b63ffffffff91909116600090815260ca6020526040902055565b5050565b60006108168787873488888080601f0160208091040260200160405190810160405280939291908181526020018383808284376000920191909152508a9250611033915050565b979650505050505050565b3373ffffffffffffffffffffffffffffffffffffffff7f000000000000000000000000000000000000000000000000000000000000000016146108e6576040517f08c379a000000000000000000000000000000000000000000000000000000000815260206004820152602160248201527f4d61696c626f78436c69656e743a2073656e646572206e6f74206d61696c626f60448201527f7800000000000000000000000000000000000000000000000000000000000000606482015260840161060a565b60006108f1856110ac565b9050838114610982576040517f08c379a000000000000000000000000000000000000000000000000000000000815260206004820152602560248201527f456e726f6c6c656420726f7574657220646f6573206e6f74206d61746368207360448201527f656e646572000000000000000000000000000000000000000000000000000000606482015260840161060a565b61098e85858585611111565b5050505050565b6040517f70a0823100000000000000000000000000000000000000000000000000000000815273ffffffffffffffffffffffffffffffffffffffff82811660048301526000917f0000000000000000000000000000000000000000000000000000000000000000909116906370a0823190602401602060405180830381865afa158015610a26573d6000803e3d6000fd5b505050506040513d601f19601f82011682018060405250810190610a4a91906124f0565b92915050565b610a58610ede565b610a62600061119b565b565b610a6c610ede565b8060005b81811015610ab957610aa7848483818110610a8d57610a8d612509565b9050602002016020810190610aa2919061217c565b611212565b610ab2600182612567565b9050610a70565b50505050565b600061067a84848434611267565b610ad5610ede565b60005b81811015610b5257610b40838383818110610af557610af5612509565b610b0b926020604090920201908101915061217c565b848484818110610b1d57610b1d612509565b9050604002016020013563ffffffff909116600090815260ca6020526040902055565b610b4b600182612567565b9050610ad8565b505050565b610b5f610ede565b6107cb82826112a0565b600054610100900460ff1615808015610b895750600054600160ff909116105b80610ba35750303b158015610ba3575060005460ff166001145b610c2f576040517f08c379a000000000000000000000000000000000000000000000000000000000815260206004820152602e60248201527f496e697469616c697a61626c653a20636f6e747261637420697320616c72656160448201527f647920696e697469616c697a6564000000000000000000000000000000000000606482015260840161060a565b600080547fffffffffffffffffffffffffffffffffffffffffffffffffffffffffffffff001660011790558015610c8d57600080547fffffffffffffffffffffffffffffffffffffffffffffffffffffffffffff00ff166101001790555b610c988484846112b6565b8015610ab957600080547fffffffffffffffffffffffffffffffffffffffffffffffffffffffffffff00ff169055604051600181527f7f26b83ff96e1f2b6a682f133852f6798a09c465da95921460cefb38474024989060200160405180910390a150505050565b610d08610ede565b828114610d71576040517f08c379a000000000000000000000000000000000000000000000000000000000815260206004820152600760248201527f216c656e67746800000000000000000000000000000000000000000000000000604482015260640161060a565b8260005b81811015610dd757610dc5868683818110610d9257610d92612509565b9050602002016020810190610da7919061217c565b858584818110610db957610db9612509565b905060200201356112a0565b610dd0600182612567565b9050610d75565b505050505050565b610de7610ede565b610df081611212565b50565b604080516020810190915260008082526065549091610a4a9184919073ffffffffffffffffffffffffffffffffffffffff16611370565b610e32610ede565b73ffffffffffffffffffffffffffffffffffffffff8116610ed5576040517f08c379a000000000000000000000000000000000000000000000000000000000815260206004820152602660248201527f4f776e61626c653a206e6577206f776e657220697320746865207a65726f206160448201527f6464726573730000000000000000000000000000000000000000000000000000606482015260840161060a565b610df08161119b565b60335473ffffffffffffffffffffffffffffffffffffffff163314610a62576040517f08c379a000000000000000000000000000000000000000000000000000000000815260206004820181905260248201527f4f776e61626c653a2063616c6c6572206973206e6f7420746865206f776e6572604482015260640161060a565b600080610f6c8484611386565b915091505b9250929050565b60606000610f85836113c0565b9050805167ffffffffffffffff811115610fa157610fa161257a565b604051908082528060200260200182016040528015610fca578160200160208202803683370190505b50915060005b815181101561102c57818181518110610feb57610feb612509565b602002602001015183828151811061100557611005612509565b63ffffffff9092166020928302919091019091015280611024816125a9565b915050610fd0565b5050919050565b60008061103f8661145b565b9050600061104e88888461150e565b905061105d898783888861153d565b9250878963ffffffff167fd229aacb94204188fe8042965fa6b269c62dc5818b21238779ab64bdd17efeec8960405161109891815260200190565b60405180910390a350509695505050505050565b600080806110c4609763ffffffff80871690610f5f16565b9150915081156110d5579392505050565b6110de846115f0565b6040517f08c379a000000000000000000000000000000000000000000000000000000000815260040161060a919061264f565b600061111d8383611627565b9050600061112b8484611646565b905036600061113a8686611656565b915091506111506111488590565b848484611666565b838863ffffffff167fba20947a325f450d232530e5f5fce293e7963499d5309a07cee84a269f2f15a68560405161118991815260200190565b60405180910390a35050505050505050565b6033805473ffffffffffffffffffffffffffffffffffffffff8381167fffffffffffffffffffffffff0000000000000000000000000000000000000000831681179093556040519116919082907f8be0079c531659141344cd1fd0a4f28419497f9722a3daafe3b4186f6b6457e090600090a35050565b611226609763ffffffff8084169061178516565b61122f826115f0565b906107cb576040517f08c379a000000000000000000000000000000000000000000000000000000000815260040161060a919061264f565b6000611297858585856112798a611791565b60655473ffffffffffffffffffffffffffffffffffffffff16611033565b95945050505050565b6107cb609763ffffffff8085169084906117b316565b600054610100900460ff1661134d576040517f08c379a000000000000000000000000000000000000000000000000000000000815260206004820152602b60248201527f496e697469616c697a61626c653a20636f6e7472616374206973206e6f74206960448201527f6e697469616c697a696e67000000000000000000000000000000000000000000606482015260840161060a565b6113556117be565b61135e83610682565b61136782610548565b610b528161119b565b600061067a848461138087611791565b8561185d565b60008181526002830160205260408120548190806113b5576113a88585611931565b925060009150610f719050565b600192509050610f71565b606060006113cd8361193d565b90508067ffffffffffffffff8111156113e8576113e861257a565b604051908082528060200260200182016040528015611411578160200160208202803683370190505b50915060005b8181101561102c576114298482611948565b60001c83828151811061143e5761143e612509565b602090810291909101015280611453816125a9565b915050611417565b606061146682611954565b6040517f42966c68000000000000000000000000000000000000000000000000000000008152600481018490529091507f000000000000000000000000000000000000000000000000000000000000000073ffffffffffffffffffffffffffffffffffffffff16906342966c6890602401600060405180830381600087803b1580156114f157600080fd5b505af1158015611505573d6000803e3d6000fd5b50505050919050565b606083838360405160200161152593929190612662565b60405160208183030381529060405290509392505050565b600080611549876110ac565b90507f000000000000000000000000000000000000000000000000000000000000000073ffffffffffffffffffffffffffffffffffffffff166310b83dc08789848989896040518763ffffffff1660e01b81526004016115ad95949392919061268f565b60206040518083038185885af11580156115cb573d6000803e3d6000fd5b50505050506040513d601f19601f8201168201806040525081019061081691906124f0565b60606116018263ffffffff166119ac565b60405160200161161191906126ef565b6040516020818303038152906040529050919050565b60006116366020828486612734565b61163f9161275e565b9392505050565b6000611636604060208486612734565b366000610f6c8360408187612734565b6040517f40c10f1900000000000000000000000000000000000000000000000000000000815273ffffffffffffffffffffffffffffffffffffffff8581166004830152602482018590527f000000000000000000000000000000000000000000000000000000000000000016906340c10f19906044016020604051808303816000875af11580156116fb573d6000803e3d6000fd5b505050506040513d601f19601f8201168201806040525081019061171f919061279a565b610ab9576040517f08c379a000000000000000000000000000000000000000000000000000000000815260206004820152601560248201527f46696174546f6b656e206d696e74206661696c65640000000000000000000000604482015260640161060a565b600061163f8383611a6a565b63ffffffff8116600090815260ca6020526040902054606090610a4a90611a87565b610ab9838383611aa5565b600054610100900460ff16611855576040517f08c379a000000000000000000000000000000000000000000000000000000000815260206004820152602b60248201527f496e697469616c697a61626c653a20636f6e7472616374206973206e6f74206960448201527f6e697469616c697a696e67000000000000000000000000000000000000000000606482015260840161060a565b610a62611ac2565b600080611869866110ac565b6040517f81d2ea9500000000000000000000000000000000000000000000000000000000815290915073ffffffffffffffffffffffffffffffffffffffff7f000000000000000000000000000000000000000000000000000000000000000016906381d2ea95906118e690899085908a908a908a9060040161268f565b602060405180830381865afa158015611903573d6000803e3d6000fd5b505050506040513d601f19601f8201168201806040525081019061192791906124f0565b9695505050505050565b600061163f8383611b62565b6000610a4a82611b7a565b600061163f8383611b84565b606061199873ffffffffffffffffffffffffffffffffffffffff7f000000000000000000000000000000000000000000000000000000000000000016333085611bae565b505060408051602081019091526000815290565b606060006119b983611c43565b600101905060008167ffffffffffffffff8111156119d9576119d961257a565b6040519080825280601f01601f191660200182016040528015611a03576020820181803683370190505b5090508181016020015b7fffffffffffffffffffffffffffffffffffffffffffffffffffffffffffffffff017f3031323334353637383961626364656600000000000000000000000000000000600a86061a8153600a8504945084611a0d57509392505050565b6000818152600283016020526040812081905561163f8383611d25565b6060610a4a6000833360405180602001604052806000815250611d31565b6000828152600284016020526040812082905561067a8484611d66565b600054610100900460ff16611b59576040517f08c379a000000000000000000000000000000000000000000000000000000000815260206004820152602b60248201527f496e697469616c697a61626c653a20636f6e7472616374206973206e6f74206960448201527f6e697469616c697a696e67000000000000000000000000000000000000000000606482015260840161060a565b610a623361119b565b6000818152600183016020526040812054151561163f565b6000610a4a825490565b6000826000018281548110611b9b57611b9b612509565b9060005260206000200154905092915050565b6040805173ffffffffffffffffffffffffffffffffffffffff85811660248301528416604482015260648082018490528251808303909101815260849091019091526020810180517bffffffffffffffffffffffffffffffffffffffffffffffffffffffff167f23b872dd00000000000000000000000000000000000000000000000000000000179052610ab9908590611d72565b6000807a184f03e93ff9f4daa797ed6e38ed64bf6a1f0100000000000000008310611c8c577a184f03e93ff9f4daa797ed6e38ed64bf6a1f010000000000000000830492506040015b6d04ee2d6d415b85acef81000000008310611cb8576d04ee2d6d415b85acef8100000000830492506020015b662386f26fc100008310611cd657662386f26fc10000830492506010015b6305f5e1008310611cee576305f5e100830492506008015b6127108310611d0257612710830492506004015b60648310611d14576064830492506002015b600a8310610a4a5760010192915050565b600061163f8383611e81565b6060600185858585604051602001611d4d9594939291906127bc565b6040516020818303038152906040529050949350505050565b600061163f8383611f74565b6000611dd4826040518060400160405280602081526020017f5361666545524332303a206c6f772d6c6576656c2063616c6c206661696c65648152508573ffffffffffffffffffffffffffffffffffffffff16611fc39092919063ffffffff16565b9050805160001480611df5575080806020019051810190611df5919061279a565b610b52576040517f08c379a000000000000000000000000000000000000000000000000000000000815260206004820152602a60248201527f5361666545524332303a204552433230206f7065726174696f6e20646964206e60448201527f6f74207375636365656400000000000000000000000000000000000000000000606482015260840161060a565b60008181526001830160205260408120548015611f6a576000611ea5600183612841565b8554909150600090611eb990600190612841565b9050818114611f1e576000866000018281548110611ed957611ed9612509565b9060005260206000200154905080876000018481548110611efc57611efc612509565b6000918252602080832090910192909255918252600188019052604090208390555b8554869080611f2f57611f2f612854565b600190038181906000526020600020016000905590558560010160008681526020019081526020016000206000905560019350505050610a4a565b6000915050610a4a565b6000818152600183016020526040812054611fbb57508154600181810184556000848152602080822090930184905584548482528286019093526040902091909155610a4a565b506000610a4a565b606061067a8484600085856000808673ffffffffffffffffffffffffffffffffffffffff168587604051611ff79190612883565b60006040518083038185875af1925050503d8060008114612034576040519150601f19603f3d011682016040523d82523d6000602084013e612039565b606091505b509150915061081687838387606083156120db5782516000036120d45773ffffffffffffffffffffffffffffffffffffffff85163b6120d4576040517f08c379a000000000000000000000000000000000000000000000000000000000815260206004820152601d60248201527f416464726573733a2063616c6c20746f206e6f6e2d636f6e7472616374000000604482015260640161060a565b508161067a565b61067a83838151156120f05781518083602001fd5b806040517f08c379a000000000000000000000000000000000000000000000000000000000815260040161060a919061264f565b803573ffffffffffffffffffffffffffffffffffffffff8116811461214857600080fd5b919050565b60006020828403121561215f57600080fd5b61163f82612124565b803563ffffffff8116811461214857600080fd5b60006020828403121561218e57600080fd5b61163f82612168565b6020808252825182820181905260009190848201906040850190845b818110156121d557835163ffffffff16835292840192918401916001016121b3565b50909695505050505050565b600080604083850312156121f457600080fd5b6121fd83612168565b946020939093013593505050565b60008083601f84011261221d57600080fd5b50813567ffffffffffffffff81111561223557600080fd5b602083019150836020828501011115610f7157600080fd5b60008060008060008060a0878903121561226657600080fd5b61226f87612168565b95506020870135945060408701359350606087013567ffffffffffffffff81111561229957600080fd5b6122a589828a0161220b565b90945092506122b8905060808801612124565b90509295509295509295565b600080600080606085870312156122da57600080fd5b6122e385612168565b935060208501359250604085013567ffffffffffffffff81111561230657600080fd5b6123128782880161220b565b95989497509550505050565b60008083601f84011261233057600080fd5b50813567ffffffffffffffff81111561234857600080fd5b6020830191508360208260051b8501011115610f7157600080fd5b6000806020838503121561237657600080fd5b823567ffffffffffffffff81111561238d57600080fd5b6123998582860161231e565b90969095509350505050565b6000806000606084860312156123ba57600080fd5b6123c384612168565b95602085013595506040909401359392505050565b600080602083850312156123eb57600080fd5b823567ffffffffffffffff8082111561240357600080fd5b818501915085601f83011261241757600080fd5b81358181111561242657600080fd5b8660208260061b850101111561243b57600080fd5b60209290920196919550909350505050565b60008060006060848603121561246257600080fd5b61246b84612124565b925061247960208501612124565b915061248760408501612124565b90509250925092565b600080600080604085870312156124a657600080fd5b843567ffffffffffffffff808211156124be57600080fd5b6124ca8883890161231e565b909650945060208701359150808211156124e357600080fd5b506123128782880161231e565b60006020828403121561250257600080fd5b5051919050565b7f4e487b7100000000000000000000000000000000000000000000000000000000600052603260045260246000fd5b7f4e487b7100000000000000000000000000000000000000000000000000000000600052601160045260246000fd5b80820180821115610a4a57610a4a612538565b7f4e487b7100000000000000000000000000000000000000000000000000000000600052604160045260246000fd5b60007fffffffffffffffffffffffffffffffffffffffffffffffffffffffffffffffff82036125da576125da612538565b5060010190565b60005b838110156125fc5781810151838201526020016125e4565b50506000910152565b6000815180845261261d8160208601602086016125e1565b601f017fffffffffffffffffffffffffffffffffffffffffffffffffffffffffffffffe0169290920160200192915050565b60208152600061163f6020830184612605565b838152826020820152600082516126808160408501602087016125e1565b91909101604001949350505050565b63ffffffff8616815284602082015260a0604082015260006126b460a0830186612605565b82810360608401526126c68186612605565b91505073ffffffffffffffffffffffffffffffffffffffff831660808301529695505050505050565b7f4e6f20726f7574657220656e726f6c6c656420666f7220646f6d61696e3a200081526000825161272781601f8501602087016125e1565b91909101601f0192915050565b6000808585111561274457600080fd5b8386111561275157600080fd5b5050820193919092039150565b80356020831015610a4a577fffffffffffffffffffffffffffffffffffffffffffffffffffffffffffffffff602084900360031b1b1692915050565b6000602082840312156127ac57600080fd5b8151801515811461163f57600080fd5b7fffff0000000000000000000000000000000000000000000000000000000000008660f01b1681528460028201528360228201527fffffffffffffffffffffffffffffffffffffffff0000000000000000000000008360601b166042820152600082516128308160568501602087016125e1565b919091016056019695505050505050565b81810381811115610a4a57610a4a612538565b7f4e487b7100000000000000000000000000000000000000000000000000000000600052603160045260246000fd5b600082516128958184602087016125e1565b919091019291505056fea2646970667358221220a3fdabc8bc9659200bb2cd5f2c55ae6492249a78f6a17b18f6a7e9f1453fb76d64736f6c63430008130033",
  "linkReferences": {},
  "deployedLinkReferences": {}
}