{
  "_format": "hh-sol-artifact-1",
  "contractName": "HypNative",
  "sourceName": "contracts/token/HypNative.sol",
  "abi": [
    {
      "inputs": [
        {
          "internalType": "address",
          "name": "_mailbox",
          "type": "address"
        }
      ],
      "stateMutability": "nonpayable",
      "type": "constructor"
    },
    {
      "anonymous": false,
      "inputs": [
        {
          "indexed": true,
          "internalType": "address",
          "name": "sender",
          "type": "address"
        },
        {
          "indexed": false,
          "internalType": "uint256",
          "name": "amount",
          "type": "uint256"
        }
      ],
      "name": "Donation",
      "type": "event"
    },
    {
      "anonymous": false,
      "inputs": [
        {
          "indexed": false,
          "internalType": "uint8",
          "name": "version",
          "type": "uint8"
        }
      ],
      "name": "Initialized",
      "type": "event"
    },
    {
      "anonymous": false,
      "inputs": [
        {
          "indexed": true,
          "internalType": "address",
          "name": "previousOwner",
          "type": "address"
        },
        {
          "indexed": true,
          "internalType": "address",
          "name": "newOwner",
          "type": "address"
        }
      ],
      "name": "OwnershipTransferred",
      "type": "event"
    },
    {
      "anonymous": false,
      "inputs": [
        {
          "indexed": true,
          "internalType": "uint32",
          "name": "origin",
          "type": "uint32"
        },
        {
          "indexed": true,
          "internalType": "bytes32",
          "name": "recipient",
          "type": "bytes32"
        },
        {
          "indexed": false,
          "internalType": "uint256",
          "name": "amount",
          "type": "uint256"
        }
      ],
      "name": "ReceivedTransferRemote",
      "type": "event"
    },
    {
      "anonymous": false,
      "inputs": [
        {
          "indexed": true,
          "internalType": "uint32",
          "name": "destination",
          "type": "uint32"
        },
        {
          "indexed": true,
          "internalType": "bytes32",
          "name": "recipient",
          "type": "bytes32"
        },
        {
          "indexed": false,
          "internalType": "uint256",
          "name": "amount",
          "type": "uint256"
        }
      ],
      "name": "SentTransferRemote",
      "type": "event"
    },
    {
      "inputs": [
        {
          "internalType": "address",
          "name": "_account",
          "type": "address"
        }
      ],
      "name": "balanceOf",
      "outputs": [
        {
          "internalType": "uint256",
          "name": "",
          "type": "uint256"
        }
      ],
      "stateMutability": "view",
      "type": "function"
    },
    {
      "inputs": [
        {
          "internalType": "uint32",
          "name": "",
          "type": "uint32"
        }
      ],
      "name": "destinationGas",
      "outputs": [
        {
          "internalType": "uint256",
          "name": "",
          "type": "uint256"
        }
      ],
      "stateMutability": "view",
      "type": "function"
    },
    {
      "inputs": [],
      "name": "domains",
      "outputs": [
        {
          "internalType": "uint32[]",
          "name": "",
          "type": "uint32[]"
        }
      ],
      "stateMutability": "view",
      "type": "function"
    },
    {
      "inputs": [
        {
          "internalType": "uint32",
          "name": "_domain",
          "type": "uint32"
        },
        {
          "internalType": "bytes32",
          "name": "_router",
          "type": "bytes32"
        }
      ],
      "name": "enrollRemoteRouter",
      "outputs": [],
      "stateMutability": "nonpayable",
      "type": "function"
    },
    {
      "inputs": [
        {
          "internalType": "uint32[]",
          "name": "_domains",
          "type": "uint32[]"
        },
        {
          "internalType": "bytes32[]",
          "name": "_addresses",
          "type": "bytes32[]"
        }
      ],
      "name": "enrollRemoteRouters",
      "outputs": [],
      "stateMutability": "nonpayable",
      "type": "function"
    },
    {
      "inputs": [
        {
          "internalType": "uint32",
          "name": "_origin",
          "type": "uint32"
        },
        {
          "internalType": "bytes32",
          "name": "_sender",
          "type": "bytes32"
        },
        {
          "internalType": "bytes",
          "name": "_message",
          "type": "bytes"
        }
      ],
      "name": "handle",
      "outputs": [],
      "stateMutability": "payable",
      "type": "function"
    },
    {
      "inputs": [],
      "name": "hook",
      "outputs": [
        {
          "internalType": "contract IPostDispatchHook",
          "name": "",
          "type": "address"
        }
      ],
      "stateMutability": "view",
      "type": "function"
    },
    {
      "inputs": [
        {
          "internalType": "address",
          "name": "_hook",
          "type": "address"
        },
        {
          "internalType": "address",
          "name": "_interchainSecurityModule",
          "type": "address"
        },
        {
          "internalType": "address",
          "name": "_owner",
          "type": "address"
        }
      ],
      "name": "initialize",
      "outputs": [],
      "stateMutability": "nonpayable",
      "type": "function"
    },
    {
      "inputs": [],
      "name": "interchainSecurityModule",
      "outputs": [
        {
          "internalType": "contract IInterchainSecurityModule",
          "name": "",
          "type": "address"
        }
      ],
      "stateMutability": "view",
      "type": "function"
    },
    {
      "inputs": [],
      "name": "localDomain",
      "outputs": [
        {
          "internalType": "uint32",
          "name": "",
          "type": "uint32"
        }
      ],
      "stateMutability": "view",
      "type": "function"
    },
    {
      "inputs": [],
      "name": "mailbox",
      "outputs": [
        {
          "internalType": "contract IMailbox",
          "name": "",
          "type": "address"
        }
      ],
      "stateMutability": "view",
      "type": "function"
    },
    {
      "inputs": [],
      "name": "owner",
      "outputs": [
        {
          "internalType": "address",
          "name": "",
          "type": "address"
        }
      ],
      "stateMutability": "view",
      "type": "function"
    },
    {
      "inputs": [
        {
          "internalType": "uint32",
          "name": "_destinationDomain",
          "type": "uint32"
        }
      ],
      "name": "quoteGasPayment",
      "outputs": [
        {
          "internalType": "uint256",
          "name": "",
          "type": "uint256"
        }
      ],
      "stateMutability": "view",
      "type": "function"
    },
    {
      "inputs": [],
      "name": "renounceOwnership",
      "outputs": [],
      "stateMutability": "nonpayable",
      "type": "function"
    },
    {
      "inputs": [
        {
          "internalType": "uint32",
          "name": "_domain",
          "type": "uint32"
        }
      ],
      "name": "routers",
      "outputs": [
        {
          "internalType": "bytes32",
          "name": "",
          "type": "bytes32"
        }
      ],
      "stateMutability": "view",
      "type": "function"
    },
    {
      "inputs": [
        {
          "internalType": "uint32",
          "name": "domain",
          "type": "uint32"
        },
        {
          "internalType": "uint256",
          "name": "gas",
          "type": "uint256"
        }
      ],
      "name": "setDestinationGas",
      "outputs": [],
      "stateMutability": "nonpayable",
      "type": "function"
    },
    {
      "inputs": [
        {
          "components": [
            {
              "internalType": "uint32",
              "name": "domain",
              "type": "uint32"
            },
            {
              "internalType": "uint256",
              "name": "gas",
              "type": "uint256"
            }
          ],
          "internalType": "struct GasRouter.GasRouterConfig[]",
          "name": "gasConfigs",
          "type": "tuple[]"
        }
      ],
      "name": "setDestinationGas",
      "outputs": [],
      "stateMutability": "nonpayable",
      "type": "function"
    },
    {
      "inputs": [
        {
          "internalType": "address",
          "name": "_hook",
          "type": "address"
        }
      ],
      "name": "setHook",
      "outputs": [],
      "stateMutability": "nonpayable",
      "type": "function"
    },
    {
      "inputs": [
        {
          "internalType": "address",
          "name": "_module",
          "type": "address"
        }
      ],
      "name": "setInterchainSecurityModule",
      "outputs": [],
      "stateMutability": "nonpayable",
      "type": "function"
    },
    {
      "inputs": [
        {
          "internalType": "address",
          "name": "newOwner",
          "type": "address"
        }
      ],
      "name": "transferOwnership",
      "outputs": [],
      "stateMutability": "nonpayable",
      "type": "function"
    },
    {
      "inputs": [
        {
          "internalType": "uint32",
          "name": "_destination",
          "type": "uint32"
        },
        {
          "internalType": "bytes32",
          "name": "_recipient",
          "type": "bytes32"
        },
        {
          "internalType": "uint256",
          "name": "_amount",
          "type": "uint256"
        },
        {
          "internalType": "bytes",
          "name": "_hookMetadata",
          "type": "bytes"
        },
        {
          "internalType": "address",
          "name": "_hook",
          "type": "address"
        }
      ],
      "name": "transferRemote",
      "outputs": [
        {
          "internalType": "bytes32",
          "name": "messageId",
          "type": "bytes32"
        }
      ],
      "stateMutability": "payable",
      "type": "function"
    },
    {
      "inputs": [
        {
          "internalType": "uint32",
          "name": "_destination",
          "type": "uint32"
        },
        {
          "internalType": "bytes32",
          "name": "_recipient",
          "type": "bytes32"
        },
        {
          "internalType": "uint256",
          "name": "_amount",
          "type": "uint256"
        }
      ],
      "name": "transferRemote",
      "outputs": [
        {
          "internalType": "bytes32",
          "name": "messageId",
          "type": "bytes32"
        }
      ],
      "stateMutability": "payable",
      "type": "function"
    },
    {
      "inputs": [
        {
          "internalType": "uint32",
          "name": "_domain",
          "type": "uint32"
        }
      ],
      "name": "unenrollRemoteRouter",
      "outputs": [],
      "stateMutability": "nonpayable",
      "type": "function"
    },
    {
      "inputs": [
        {
          "internalType": "uint32[]",
          "name": "_domains",
          "type": "uint32[]"
        }
      ],
      "name": "unenrollRemoteRouters",
      "outputs": [],
      "stateMutability": "nonpayable",
      "type": "function"
    },
    {
      "stateMutability": "payable",
      "type": "receive"
    }
  ],
  "bytecode": "0x60c06040523480156200001157600080fd5b506040516200274238038062002742833981016040819052620000349162000178565b80808080806001600160a01b0381163b620000955760405162461bcd60e51b815260206004820152601e60248201527f4d61696c626f78436c69656e743a20696e76616c6964206d61696c626f780000604482015260640160405180910390fd5b6001600160a01b03821660808190526040805163234d8e3d60e21b81529051638d3638f4916004808201926020929091908290030181865afa158015620000e0573d6000803e3d6000fd5b505050506040513d601f19601f82011682018060405250810190620001069190620001aa565b63ffffffff1660a0526200011a3362000126565b505050505050620001d2565b603380546001600160a01b038381166001600160a01b0319831681179093556040519116919082907f8be0079c531659141344cd1fd0a4f28419497f9722a3daafe3b4186f6b6457e090600090a35050565b6000602082840312156200018b57600080fd5b81516001600160a01b0381168114620001a357600080fd5b9392505050565b600060208284031215620001bd57600080fd5b815163ffffffff81168114620001a357600080fd5b60805160a0516125356200020d60003960006103bb01526000818161048f015281816108c8015281816114f8015261174a01526125356000f3fe60806040526004361061018f5760003560e01c806381b4e8b4116100d6578063d5438eae1161007f578063efae508a11610059578063efae508a146104fe578063f2ed8c531461051e578063f2fde38b1461053e57600080fd5b8063d5438eae1461047d578063de523cf3146104b1578063e9198bf9146104de57600080fd5b8063b1bd6436116100b0578063b1bd64361461041d578063b49c53a71461043d578063c0c53b8b1461045d57600080fd5b806381b4e8b4146103965780638d3638f4146103a95780638da5cb5b146103f257600080fd5b806356d5d4751161013857806371a15b381161011257806371a15b38146102f7578063775313a1146103175780637f5a7c7b1461034457600080fd5b806356d5d4751461029a57806370a08231146102ad578063715018a6146102e257600080fd5b8063440df4f411610169578063440df4f41461024557806349d462ef1461026757806351debffc1461028757600080fd5b80630e72cc06146101d05780632ead72f6146101f25780633dfd38731461022557600080fd5b366101cb5760405134815233907f5d8bc849764969eb1bcc6d0a2f55999d0167c1ccec240a4f39cf664ca9c4148e9060200160405180910390a2005b600080fd5b3480156101dc57600080fd5b506101f06101eb366004611deb565b61055e565b005b3480156101fe57600080fd5b5061021261020d366004611e1a565b610679565b6040519081526020015b60405180910390f35b34801561023157600080fd5b506101f0610240366004611deb565b610698565b34801561025157600080fd5b5061025a6107ae565b60405161021c9190611e35565b34801561027357600080fd5b506101f0610282366004611e7f565b6107bf565b610212610295366004611eeb565b6107e5565b6101f06102a8366004611f62565b6108b0565b3480156102b957600080fd5b506102126102c8366004611deb565b73ffffffffffffffffffffffffffffffffffffffff163190565b3480156102ee57600080fd5b506101f0610a24565b34801561030357600080fd5b506101f0610312366004612001565b610a38565b34801561032357600080fd5b50610212610332366004611e1a565b60ca6020526000908152604090205481565b34801561035057600080fd5b506065546103719073ffffffffffffffffffffffffffffffffffffffff1681565b60405173ffffffffffffffffffffffffffffffffffffffff909116815260200161021c565b6102126103a4366004612043565b610a93565b3480156103b557600080fd5b506103dd7f000000000000000000000000000000000000000000000000000000000000000081565b60405163ffffffff909116815260200161021c565b3480156103fe57600080fd5b5060335473ffffffffffffffffffffffffffffffffffffffff16610371565b34801561042957600080fd5b506101f0610438366004612076565b610b22565b34801561044957600080fd5b506101f0610458366004611e7f565b610bac565b34801561046957600080fd5b506101f06104783660046120eb565b610bbe565b34801561048957600080fd5b506103717f000000000000000000000000000000000000000000000000000000000000000081565b3480156104bd57600080fd5b506066546103719073ffffffffffffffffffffffffffffffffffffffff1681565b3480156104ea57600080fd5b506101f06104f936600461212e565b610d55565b34801561050a57600080fd5b506101f0610519366004611e1a565b610e34565b34801561052a57600080fd5b50610212610539366004611e1a565b610e48565b34801561054a57600080fd5b506101f0610559366004611deb565b610e85565b8073ffffffffffffffffffffffffffffffffffffffff81163b151580610598575073ffffffffffffffffffffffffffffffffffffffff8116155b610629576040517f08c379a000000000000000000000000000000000000000000000000000000000815260206004820152602760248201527f4d61696c626f78436c69656e743a20696e76616c696420636f6e74726163742060448201527f73657474696e670000000000000000000000000000000000000000000000000060648201526084015b60405180910390fd5b610631610f39565b50606680547fffffffffffffffffffffffff00000000000000000000000000000000000000001673ffffffffffffffffffffffffffffffffffffffff92909216919091179055565b600080610690609763ffffffff80861690610fba16565b949350505050565b8073ffffffffffffffffffffffffffffffffffffffff81163b1515806106d2575073ffffffffffffffffffffffffffffffffffffffff8116155b61075e576040517f08c379a000000000000000000000000000000000000000000000000000000000815260206004820152602760248201527f4d61696c626f78436c69656e743a20696e76616c696420636f6e74726163742060448201527f73657474696e67000000000000000000000000000000000000000000000000006064820152608401610620565b610766610f39565b50606580547fffffffffffffffffffffffff00000000000000000000000000000000000000001673ffffffffffffffffffffffffffffffffffffffff92909216919091179055565b60606107ba6097610fd3565b905090565b6107c7610f39565b63ffffffff91909116600090815260ca6020526040902055565b5050565b600084341015610851576040517f08c379a000000000000000000000000000000000000000000000000000000000815260206004820181905260248201527f4e61746976653a20616d6f756e742065786365656473206d73672e76616c75656044820152606401610620565b600061085d86346121bd565b90506108a48888888489898080601f0160208091040260200160405190810160405280939291908181526020018383808284376000920191909152508b925061108e915050565b98975050505050505050565b3373ffffffffffffffffffffffffffffffffffffffff7f00000000000000000000000000000000000000000000000000000000000000001614610975576040517f08c379a000000000000000000000000000000000000000000000000000000000815260206004820152602160248201527f4d61696c626f78436c69656e743a2073656e646572206e6f74206d61696c626f60448201527f78000000000000000000000000000000000000000000000000000000000000006064820152608401610620565b600061098085611113565b9050838114610a11576040517f08c379a000000000000000000000000000000000000000000000000000000000815260206004820152602560248201527f456e726f6c6c656420726f7574657220646f6573206e6f74206d61746368207360448201527f656e6465720000000000000000000000000000000000000000000000000000006064820152608401610620565b610a1d85858585611178565b5050505050565b610a2c610f39565b610a366000611202565b565b610a40610f39565b8060005b81811015610a8d57610a7b848483818110610a6157610a616121d0565b9050602002016020810190610a769190611e1a565b611279565b610a866001826121ff565b9050610a44565b50505050565b600081341015610aff576040517f08c379a000000000000000000000000000000000000000000000000000000000815260206004820181905260248201527f4e61746976653a20616d6f756e742065786365656473206d73672e76616c75656044820152606401610620565b6000610b0b83346121bd565b9050610b19858585846112ce565b95945050505050565b610b2a610f39565b60005b81811015610ba757610b95838383818110610b4a57610b4a6121d0565b610b609260206040909202019081019150611e1a565b848484818110610b7257610b726121d0565b9050604002016020013563ffffffff909116600090815260ca6020526040902055565b610ba06001826121ff565b9050610b2d565b505050565b610bb4610f39565b6107e182826112fe565b600054610100900460ff1615808015610bde5750600054600160ff909116105b80610bf85750303b158015610bf8575060005460ff166001145b610c84576040517f08c379a000000000000000000000000000000000000000000000000000000000815260206004820152602e60248201527f496e697469616c697a61626c653a20636f6e747261637420697320616c72656160448201527f647920696e697469616c697a65640000000000000000000000000000000000006064820152608401610620565b600080547fffffffffffffffffffffffffffffffffffffffffffffffffffffffffffffff001660011790558015610ce257600080547fffffffffffffffffffffffffffffffffffffffffffffffffffffffffffff00ff166101001790555b610ced848484611314565b8015610a8d57600080547fffffffffffffffffffffffffffffffffffffffffffffffffffffffffffff00ff169055604051600181527f7f26b83ff96e1f2b6a682f133852f6798a09c465da95921460cefb38474024989060200160405180910390a150505050565b610d5d610f39565b828114610dc6576040517f08c379a000000000000000000000000000000000000000000000000000000000815260206004820152600760248201527f216c656e677468000000000000000000000000000000000000000000000000006044820152606401610620565b8260005b81811015610e2c57610e1a868683818110610de757610de76121d0565b9050602002016020810190610dfc9190611e1a565b858584818110610e0e57610e0e6121d0565b905060200201356112fe565b610e256001826121ff565b9050610dca565b505050505050565b610e3c610f39565b610e4581611279565b50565b604080516020810190915260008082526065549091610e7f9184919073ffffffffffffffffffffffffffffffffffffffff166113ce565b92915050565b610e8d610f39565b73ffffffffffffffffffffffffffffffffffffffff8116610f30576040517f08c379a000000000000000000000000000000000000000000000000000000000815260206004820152602660248201527f4f776e61626c653a206e6577206f776e657220697320746865207a65726f206160448201527f64647265737300000000000000000000000000000000000000000000000000006064820152608401610620565b610e4581611202565b60335473ffffffffffffffffffffffffffffffffffffffff163314610a36576040517f08c379a000000000000000000000000000000000000000000000000000000000815260206004820181905260248201527f4f776e61626c653a2063616c6c6572206973206e6f7420746865206f776e65726044820152606401610620565b600080610fc784846113e4565b915091505b9250929050565b60606000610fe08361141e565b9050805167ffffffffffffffff811115610ffc57610ffc612212565b604051908082528060200260200182016040528015611025578160200160208202803683370190505b50915060005b815181101561108757818181518110611046576110466121d0565b6020026020010151838281518110611060576110606121d0565b63ffffffff909216602092830291909101909101528061107f81612241565b91505061102b565b5050919050565b6000806110a660408051602081019091526000815290565b905060006110b58888846114b9565b90506110c489878388886114e8565b9250878963ffffffff167fd229aacb94204188fe8042965fa6b269c62dc5818b21238779ab64bdd17efeec896040516110ff91815260200190565b60405180910390a350509695505050505050565b6000808061112b609763ffffffff80871690610fba16565b91509150811561113c579392505050565b611145846115a6565b6040517f08c379a000000000000000000000000000000000000000000000000000000000815260040161062091906122e7565b600061118483836115dd565b9050600061119284846115fc565b90503660006111a1868661160c565b915091506111b76111af8590565b84848461161c565b838863ffffffff167fba20947a325f450d232530e5f5fce293e7963499d5309a07cee84a269f2f15a6856040516111f091815260200190565b60405180910390a35050505050505050565b6033805473ffffffffffffffffffffffffffffffffffffffff8381167fffffffffffffffffffffffff0000000000000000000000000000000000000000831681179093556040519116919082907f8be0079c531659141344cd1fd0a4f28419497f9722a3daafe3b4186f6b6457e090600090a35050565b61128d609763ffffffff8084169061162616565b611296826115a6565b906107e1576040517f08c379a000000000000000000000000000000000000000000000000000000000815260040161062091906122e7565b6000610b19858585856112e08a611632565b60655473ffffffffffffffffffffffffffffffffffffffff1661108e565b6107e1609763ffffffff80851690849061165416565b600054610100900460ff166113ab576040517f08c379a000000000000000000000000000000000000000000000000000000000815260206004820152602b60248201527f496e697469616c697a61626c653a20636f6e7472616374206973206e6f74206960448201527f6e697469616c697a696e670000000000000000000000000000000000000000006064820152608401610620565b6113b361165f565b6113bc83610698565b6113c58261055e565b610ba781611202565b600061069084846113de87611632565b856116fe565b60008181526002830160205260408120548190806114135761140685856117d2565b925060009150610fcc9050565b600192509050610fcc565b6060600061142b836117de565b90508067ffffffffffffffff81111561144657611446612212565b60405190808252806020026020018201604052801561146f578160200160208202803683370190505b50915060005b818110156110875761148784826117e9565b60001c83828151811061149c5761149c6121d0565b6020908102919091010152806114b181612241565b915050611475565b60608383836040516020016114d0939291906122fa565b60405160208183030381529060405290509392505050565b6000806114f487611113565b90507f000000000000000000000000000000000000000000000000000000000000000073ffffffffffffffffffffffffffffffffffffffff166310b83dc08789848989896040518763ffffffff1660e01b8152600401611558959493929190612327565b60206040518083038185885af1158015611576573d6000803e3d6000fd5b50505050506040513d601f19601f8201168201806040525081019061159b9190612387565b979650505050505050565b60606115b78263ffffffff166117f5565b6040516020016115c791906123a0565b6040516020818303038152906040529050919050565b60006115ec60208284866123e5565b6115f59161240f565b9392505050565b60006115ec6040602084866123e5565b366000610fc783604081876123e5565b610a8d84846118b3565b60006115f58383611a0d565b63ffffffff8116600090815260ca6020526040902054606090610e7f90611a2a565b610a8d838383611a48565b600054610100900460ff166116f6576040517f08c379a000000000000000000000000000000000000000000000000000000000815260206004820152602b60248201527f496e697469616c697a61626c653a20636f6e7472616374206973206e6f74206960448201527f6e697469616c697a696e670000000000000000000000000000000000000000006064820152608401610620565b610a36611a65565b60008061170a86611113565b6040517f81d2ea9500000000000000000000000000000000000000000000000000000000815290915073ffffffffffffffffffffffffffffffffffffffff7f000000000000000000000000000000000000000000000000000000000000000016906381d2ea959061178790899085908a908a908a90600401612327565b602060405180830381865afa1580156117a4573d6000803e3d6000fd5b505050506040513d601f19601f820116820180604052508101906117c89190612387565b9695505050505050565b60006115f58383611b05565b6000610e7f82611b1d565b60006115f58383611b27565b6060600061180283611b51565b600101905060008167ffffffffffffffff81111561182257611822612212565b6040519080825280601f01601f19166020018201604052801561184c576020820181803683370190505b5090508181016020015b7fffffffffffffffffffffffffffffffffffffffffffffffffffffffffffffffff017f3031323334353637383961626364656600000000000000000000000000000000600a86061a8153600a850494508461185657509392505050565b8047101561191d576040517f08c379a000000000000000000000000000000000000000000000000000000000815260206004820152601d60248201527f416464726573733a20696e73756666696369656e742062616c616e63650000006044820152606401610620565b60008273ffffffffffffffffffffffffffffffffffffffff168260405160006040518083038185875af1925050503d8060008114611977576040519150601f19603f3d011682016040523d82523d6000602084013e61197c565b606091505b5050905080610ba7576040517f08c379a000000000000000000000000000000000000000000000000000000000815260206004820152603a60248201527f416464726573733a20756e61626c6520746f2073656e642076616c75652c207260448201527f6563697069656e74206d617920686176652072657665727465640000000000006064820152608401610620565b600081815260028301602052604081208190556115f58383611c33565b6060610e7f6000833360405180602001604052806000815250611c3f565b600082815260028401602052604081208290556106908484611c74565b600054610100900460ff16611afc576040517f08c379a000000000000000000000000000000000000000000000000000000000815260206004820152602b60248201527f496e697469616c697a61626c653a20636f6e7472616374206973206e6f74206960448201527f6e697469616c697a696e670000000000000000000000000000000000000000006064820152608401610620565b610a3633611202565b600081815260018301602052604081205415156115f5565b6000610e7f825490565b6000826000018281548110611b3e57611b3e6121d0565b9060005260206000200154905092915050565b6000807a184f03e93ff9f4daa797ed6e38ed64bf6a1f0100000000000000008310611b9a577a184f03e93ff9f4daa797ed6e38ed64bf6a1f010000000000000000830492506040015b6d04ee2d6d415b85acef81000000008310611bc6576d04ee2d6d415b85acef8100000000830492506020015b662386f26fc100008310611be457662386f26fc10000830492506010015b6305f5e1008310611bfc576305f5e100830492506008015b6127108310611c1057612710830492506004015b60648310611c22576064830492506002015b600a8310610e7f5760010192915050565b60006115f58383611c80565b6060600185858585604051602001611c5b95949392919061244b565b6040516020818303038152906040529050949350505050565b60006115f58383611d73565b60008181526001830160205260408120548015611d69576000611ca46001836121bd565b8554909150600090611cb8906001906121bd565b9050818114611d1d576000866000018281548110611cd857611cd86121d0565b9060005260206000200154905080876000018481548110611cfb57611cfb6121d0565b6000918252602080832090910192909255918252600188019052604090208390555b8554869080611d2e57611d2e6124d0565b600190038181906000526020600020016000905590558560010160008681526020019081526020016000206000905560019350505050610e7f565b6000915050610e7f565b6000818152600183016020526040812054611dba57508154600181810184556000848152602080822090930184905584548482528286019093526040902091909155610e7f565b506000610e7f565b803573ffffffffffffffffffffffffffffffffffffffff81168114611de657600080fd5b919050565b600060208284031215611dfd57600080fd5b6115f582611dc2565b803563ffffffff81168114611de657600080fd5b600060208284031215611e2c57600080fd5b6115f582611e06565b6020808252825182820181905260009190848201906040850190845b81811015611e7357835163ffffffff1683529284019291840191600101611e51565b50909695505050505050565b60008060408385031215611e9257600080fd5b611e9b83611e06565b946020939093013593505050565b60008083601f840112611ebb57600080fd5b50813567ffffffffffffffff811115611ed357600080fd5b602083019150836020828501011115610fcc57600080fd5b60008060008060008060a08789031215611f0457600080fd5b611f0d87611e06565b95506020870135945060408701359350606087013567ffffffffffffffff811115611f3757600080fd5b611f4389828a01611ea9565b9094509250611f56905060808801611dc2565b90509295509295509295565b60008060008060608587031215611f7857600080fd5b611f8185611e06565b935060208501359250604085013567ffffffffffffffff811115611fa457600080fd5b611fb087828801611ea9565b95989497509550505050565b60008083601f840112611fce57600080fd5b50813567ffffffffffffffff811115611fe657600080fd5b6020830191508360208260051b8501011115610fcc57600080fd5b6000806020838503121561201457600080fd5b823567ffffffffffffffff81111561202b57600080fd5b61203785828601611fbc565b90969095509350505050565b60008060006060848603121561205857600080fd5b61206184611e06565b95602085013595506040909401359392505050565b6000806020838503121561208957600080fd5b823567ffffffffffffffff808211156120a157600080fd5b818501915085601f8301126120b557600080fd5b8135818111156120c457600080fd5b8660208260061b85010111156120d957600080fd5b60209290920196919550909350505050565b60008060006060848603121561210057600080fd5b61210984611dc2565b925061211760208501611dc2565b915061212560408501611dc2565b90509250925092565b6000806000806040858703121561214457600080fd5b843567ffffffffffffffff8082111561215c57600080fd5b61216888838901611fbc565b9096509450602087013591508082111561218157600080fd5b50611fb087828801611fbc565b7f4e487b7100000000000000000000000000000000000000000000000000000000600052601160045260246000fd5b81810381811115610e7f57610e7f61218e565b7f4e487b7100000000000000000000000000000000000000000000000000000000600052603260045260246000fd5b80820180821115610e7f57610e7f61218e565b7f4e487b7100000000000000000000000000000000000000000000000000000000600052604160045260246000fd5b60007fffffffffffffffffffffffffffffffffffffffffffffffffffffffffffffffff82036122725761227261218e565b5060010190565b60005b8381101561229457818101518382015260200161227c565b50506000910152565b600081518084526122b5816020860160208601612279565b601f017fffffffffffffffffffffffffffffffffffffffffffffffffffffffffffffffe0169290920160200192915050565b6020815260006115f5602083018461229d565b83815282602082015260008251612318816040850160208701612279565b91909101604001949350505050565b63ffffffff8616815284602082015260a06040820152600061234c60a083018661229d565b828103606084015261235e818661229d565b91505073ffffffffffffffffffffffffffffffffffffffff831660808301529695505050505050565b60006020828403121561239957600080fd5b5051919050565b7f4e6f20726f7574657220656e726f6c6c656420666f7220646f6d61696e3a20008152600082516123d881601f850160208701612279565b91909101601f0192915050565b600080858511156123f557600080fd5b8386111561240257600080fd5b5050820193919092039150565b80356020831015610e7f577fffffffffffffffffffffffffffffffffffffffffffffffffffffffffffffffff602084900360031b1b1692915050565b7fffff0000000000000000000000000000000000000000000000000000000000008660f01b1681528460028201528360228201527fffffffffffffffffffffffffffffffffffffffff0000000000000000000000008360601b166042820152600082516124bf816056850160208701612279565b919091016056019695505050505050565b7f4e487b7100000000000000000000000000000000000000000000000000000000600052603160045260246000fdfea2646970667358221220454d6771a8a47d6ce7e625b789eb28fd0fe75e915902d2806453b2d99cb2b17664736f6c63430008130033",
  "linkReferences": {},
  "deployedLinkReferences": {}
}