{
  "_format": "hh-sol-artifact-1",
  "contractName": "InterchainGasPaymaster",
  "sourceName": "contracts/hooks/igp/InterchainGasPaymaster.sol",
  "abi": [
    {
      "anonymous": false,
      "inputs": [
        {
          "indexed": false,
          "internalType": "address",
          "name": "beneficiary",
          "type": "address"
        }
      ],
      "name": "BeneficiarySet",
      "type": "event"
    },
    {
      "anonymous": false,
      "inputs": [
        {
          "indexed": false,
          "internalType": "uint32",
          "name": "remoteDomain",
          "type": "uint32"
        },
        {
          "indexed": false,
          "internalType": "address",
          "name": "gasOracle",
          "type": "address"
        },
        {
          "indexed": false,
          "internalType": "uint96",
          "name": "gasOverhead",
          "type": "uint96"
        }
      ],
      "name": "DestinationGasConfigSet",
      "type": "event"
    },
    {
      "anonymous": false,
      "inputs": [
        {
          "indexed": true,
          "internalType": "bytes32",
          "name": "messageId",
          "type": "bytes32"
        },
        {
          "indexed": true,
          "internalType": "uint32",
          "name": "destinationDomain",
          "type": "uint32"
        },
        {
          "indexed": false,
          "internalType": "uint256",
          "name": "gasAmount",
          "type": "uint256"
        },
        {
          "indexed": false,
          "internalType": "uint256",
          "name": "payment",
          "type": "uint256"
        }
      ],
      "name": "GasPayment",
      "type": "event"
    },
    {
      "anonymous": false,
      "inputs": [
        {
          "indexed": false,
          "internalType": "uint8",
          "name": "version",
          "type": "uint8"
        }
      ],
      "name": "Initialized",
      "type": "event"
    },
    {
      "anonymous": false,
      "inputs": [
        {
          "indexed": true,
          "internalType": "address",
          "name": "previousOwner",
          "type": "address"
        },
        {
          "indexed": true,
          "internalType": "address",
          "name": "newOwner",
          "type": "address"
        }
      ],
      "name": "OwnershipTransferred",
      "type": "event"
    },
    {
      "inputs": [],
      "name": "beneficiary",
      "outputs": [
        {
          "internalType": "address",
          "name": "",
          "type": "address"
        }
      ],
      "stateMutability": "view",
      "type": "function"
    },
    {
      "inputs": [],
      "name": "claim",
      "outputs": [],
      "stateMutability": "nonpayable",
      "type": "function"
    },
    {
      "inputs": [],
      "name": "deployedBlock",
      "outputs": [
        {
          "internalType": "uint256",
          "name": "",
          "type": "uint256"
        }
      ],
      "stateMutability": "view",
      "type": "function"
    },
    {
      "inputs": [
        {
          "internalType": "uint32",
          "name": "",
          "type": "uint32"
        }
      ],
      "name": "destinationGasConfigs",
      "outputs": [
        {
          "internalType": "contract IGasOracle",
          "name": "gasOracle",
          "type": "address"
        },
        {
          "internalType": "uint96",
          "name": "gasOverhead",
          "type": "uint96"
        }
      ],
      "stateMutability": "view",
      "type": "function"
    },
    {
      "inputs": [
        {
          "internalType": "uint32",
          "name": "_destinationDomain",
          "type": "uint32"
        },
        {
          "internalType": "uint256",
          "name": "_gasLimit",
          "type": "uint256"
        }
      ],
      "name": "destinationGasLimit",
      "outputs": [
        {
          "internalType": "uint256",
          "name": "",
          "type": "uint256"
        }
      ],
      "stateMutability": "view",
      "type": "function"
    },
    {
      "inputs": [
        {
          "internalType": "uint32",
          "name": "_destinationDomain",
          "type": "uint32"
        }
      ],
      "name": "getExchangeRateAndGasPrice",
      "outputs": [
        {
          "internalType": "uint128",
          "name": "tokenExchangeRate",
          "type": "uint128"
        },
        {
          "internalType": "uint128",
          "name": "gasPrice",
          "type": "uint128"
        }
      ],
      "stateMutability": "view",
      "type": "function"
    },
    {
      "inputs": [],
      "name": "hookType",
      "outputs": [
        {
          "internalType": "uint8",
          "name": "",
          "type": "uint8"
        }
      ],
      "stateMutability": "pure",
      "type": "function"
    },
    {
      "inputs": [
        {
          "internalType": "address",
          "name": "_owner",
          "type": "address"
        },
        {
          "internalType": "address",
          "name": "_beneficiary",
          "type": "address"
        }
      ],
      "name": "initialize",
      "outputs": [],
      "stateMutability": "nonpayable",
      "type": "function"
    },
    {
      "inputs": [],
      "name": "owner",
      "outputs": [
        {
          "internalType": "address",
          "name": "",
          "type": "address"
        }
      ],
      "stateMutability": "view",
      "type": "function"
    },
    {
      "inputs": [
        {
          "internalType": "bytes32",
          "name": "_messageId",
          "type": "bytes32"
        },
        {
          "internalType": "uint32",
          "name": "_destinationDomain",
          "type": "uint32"
        },
        {
          "internalType": "uint256",
          "name": "_gasLimit",
          "type": "uint256"
        },
        {
          "internalType": "address",
          "name": "_refundAddress",
          "type": "address"
        }
      ],
      "name": "payForGas",
      "outputs": [],
      "stateMutability": "payable",
      "type": "function"
    },
    {
      "inputs": [
        {
          "internalType": "bytes",
          "name": "metadata",
          "type": "bytes"
        },
        {
          "internalType": "bytes",
          "name": "message",
          "type": "bytes"
        }
      ],
      "name": "postDispatch",
      "outputs": [],
      "stateMutability": "payable",
      "type": "function"
    },
    {
      "inputs": [
        {
          "internalType": "bytes",
          "name": "metadata",
          "type": "bytes"
        },
        {
          "internalType": "bytes",
          "name": "message",
          "type": "bytes"
        }
      ],
      "name": "quoteDispatch",
      "outputs": [
        {
          "internalType": "uint256",
          "name": "",
          "type": "uint256"
        }
      ],
      "stateMutability": "view",
      "type": "function"
    },
    {
      "inputs": [
        {
          "internalType": "uint32",
          "name": "_destinationDomain",
          "type": "uint32"
        },
        {
          "internalType": "uint256",
          "name": "_gasLimit",
          "type": "uint256"
        }
      ],
      "name": "quoteGasPayment",
      "outputs": [
        {
          "internalType": "uint256",
          "name": "",
          "type": "uint256"
        }
      ],
      "stateMutability": "view",
      "type": "function"
    },
    {
      "inputs": [],
      "name": "renounceOwnership",
      "outputs": [],
      "stateMutability": "nonpayable",
      "type": "function"
    },
    {
      "inputs": [
        {
          "internalType": "address",
          "name": "_beneficiary",
          "type": "address"
        }
      ],
      "name": "setBeneficiary",
      "outputs": [],
      "stateMutability": "nonpayable",
      "type": "function"
    },
    {
      "inputs": [
        {
          "components": [
            {
              "internalType": "uint32",
              "name": "remoteDomain",
              "type": "uint32"
            },
            {
              "components": [
                {
                  "internalType": "contract IGasOracle",
                  "name": "gasOracle",
                  "type": "address"
                },
                {
                  "internalType": "uint96",
                  "name": "gasOverhead",
                  "type": "uint96"
                }
              ],
              "internalType": "struct InterchainGasPaymaster.DomainGasConfig",
              "name": "config",
              "type": "tuple"
            }
          ],
          "internalType": "struct InterchainGasPaymaster.GasParam[]",
          "name": "_configs",
          "type": "tuple[]"
        }
      ],
      "name": "setDestinationGasConfigs",
      "outputs": [],
      "stateMutability": "nonpayable",
      "type": "function"
    },
    {
      "inputs": [
        {
          "internalType": "bytes",
          "name": "metadata",
          "type": "bytes"
        }
      ],
      "name": "supportsMetadata",
      "outputs": [
        {
          "internalType": "bool",
          "name": "",
          "type": "bool"
        }
      ],
      "stateMutability": "pure",
      "type": "function"
    },
    {
      "inputs": [
        {
          "internalType": "address",
          "name": "newOwner",
          "type": "address"
        }
      ],
      "name": "transferOwnership",
      "outputs": [],
      "stateMutability": "nonpayable",
      "type": "function"
    }
  ],
  "bytecode": "0x60c060405261c35060a05234801561001657600080fd5b504360805260805160a051611c7b6100406000396000610dd0015260006103640152611c7b6000f3fe6080604052600436106101295760003560e01c806360fcef7c116100a5578063a692979311610074578063e445e7dd11610059578063e445e7dd146103f1578063e5320bb91461040d578063f2fde38b1461043d57600080fd5b8063a6929793146103b1578063aaccd230146103d157600080fd5b806360fcef7c146102f4578063715018a61461033d57806382ea7bfe146103525780638da5cb5b1461038657600080fd5b806338af3eed116100fc578063485cc955116100e1578063485cc9551461029f57806348f4e6c1146102bf5780634e71d92d146102df57600080fd5b806338af3eed146101a957806343c467c0146101fb57600080fd5b8063086011b91461012e57806311bf2c18146101435780631c31f7101461015657806326d5b1a614610176575b600080fd5b61014161013c366004611613565b61045d565b005b6101416101513660046116ba565b61050a565b34801561016257600080fd5b50610141610171366004611702565b6106a4565b34801561018257600080fd5b5061019661019136600461171f565b6106b8565b6040519081526020015b60405180910390f35b3480156101b557600080fd5b506066546101d69073ffffffffffffffffffffffffffffffffffffffff1681565b60405173ffffffffffffffffffffffffffffffffffffffff90911681526020016101a0565b34801561020757600080fd5b50610266610216366004611749565b60656020526000908152604090205473ffffffffffffffffffffffffffffffffffffffff8116907401000000000000000000000000000000000000000090046bffffffffffffffffffffffff1682565b6040805173ffffffffffffffffffffffffffffffffffffffff90931683526bffffffffffffffffffffffff9091166020830152016101a0565b3480156102ab57600080fd5b506101416102ba366004611764565b610708565b3480156102cb57600080fd5b506101416102da36600461179d565b6108af565b3480156102eb57600080fd5b50610141610959565b34801561030057600080fd5b5061031461030f366004611749565b610a23565b604080516fffffffffffffffffffffffffffffffff9384168152929091166020830152016101a0565b34801561034957600080fd5b50610141610b70565b34801561035e57600080fd5b506101967f000000000000000000000000000000000000000000000000000000000000000081565b34801561039257600080fd5b5060335473ffffffffffffffffffffffffffffffffffffffff166101d6565b3480156103bd57600080fd5b506101966103cc36600461171f565b610b84565b3480156103dd57600080fd5b506101966103ec366004611613565b610bed565b3480156103fd57600080fd5b50604051600481526020016101a0565b34801561041957600080fd5b5061042d610428366004611812565b610c9a565b60405190151581526020016101a0565b34801561044957600080fd5b50610141610458366004611702565b610cbc565b6104678484610c9a565b6104f8576040517f08c379a000000000000000000000000000000000000000000000000000000000815260206004820152603260248201527f4162737472616374506f73744469737061746368486f6f6b3a20696e76616c6960448201527f64206d657461646174612076617269616e74000000000000000000000000000060648201526084015b60405180910390fd5b61050484848484610d70565b50505050565b60006105168484610b84565b9050803410156105a8576040517f08c379a000000000000000000000000000000000000000000000000000000000815260206004820152602860248201527f4947503a20696e73756666696369656e7420696e746572636861696e2067617360448201527f207061796d656e7400000000000000000000000000000000000000000000000060648201526084016104ef565b60006105b48234611883565b905080156106595773ffffffffffffffffffffffffffffffffffffffff8316610639576040517f08c379a000000000000000000000000000000000000000000000000000000000815260206004820152601160248201527f6e6f20726566756e64206164647265737300000000000000000000000000000060448201526064016104ef565b61065973ffffffffffffffffffffffffffffffffffffffff841682610e0a565b604080518581526020810184905263ffffffff87169188917f65695c3748edae85a24cc2c60b299b31f463050bc259150d2e5802ec8d11720a910160405180910390a3505050505050565b6106ac610f64565b6106b581610fe5565b50565b63ffffffff82166000908152606560205260408120546106ff9083907401000000000000000000000000000000000000000090046bffffffffffffffffffffffff16611896565b90505b92915050565b600054610100900460ff16158080156107285750600054600160ff909116105b806107425750303b158015610742575060005460ff166001145b6107ce576040517f08c379a000000000000000000000000000000000000000000000000000000000815260206004820152602e60248201527f496e697469616c697a61626c653a20636f6e747261637420697320616c72656160448201527f647920696e697469616c697a656400000000000000000000000000000000000060648201526084016104ef565b600080547fffffffffffffffffffffffffffffffffffffffffffffffffffffffffffffff00166001179055801561082c57600080547fffffffffffffffffffffffffffffffffffffffffffffffffffffffffffff00ff166101001790555b61083461105e565b61083d836110fd565b61084682610fe5565b80156108aa57600080547fffffffffffffffffffffffffffffffffffffffffffffffffffffffffffff00ff169055604051600181527f7f26b83ff96e1f2b6a682f133852f6798a09c465da95921460cefb3847402498906020015b60405180910390a15b505050565b6108b7610f64565b8060005b81811015610504576109478484838181106108d8576108d86118a9565b6108ee9260206060909202019081019150611749565b858584818110610900576109006118a9565b6109199260406060909202019081019150602001611702565b86868581811061092b5761092b6118a9565b6109429260609182020190810191506040016118d8565b611174565b8061095181611906565b9150506108bb565b60665460405160009173ffffffffffffffffffffffffffffffffffffffff169047908381818185875af1925050503d80600081146109b3576040519150601f19603f3d011682016040523d82523d6000602084013e6109b8565b606091505b50509050806106b5576040517f08c379a000000000000000000000000000000000000000000000000000000000815260206004820152601160248201527f4947503a20636c61696d206661696c656400000000000000000000000000000060448201526064016104ef565b63ffffffff8116600090815260656020526040812054819073ffffffffffffffffffffffffffffffffffffffff1680610ad357610a658463ffffffff16611221565b604051602001610a759190611962565b604080517fffffffffffffffffffffffffffffffffffffffffffffffffffffffffffffffe0818403018152908290527f08c379a00000000000000000000000000000000000000000000000000000000082526104ef916004016119cd565b6040517f60fcef7c00000000000000000000000000000000000000000000000000000000815263ffffffff8516600482015273ffffffffffffffffffffffffffffffffffffffff8216906360fcef7c906024016040805180830381865afa158015610b42573d6000803e3d6000fd5b505050506040513d601f19601f82011682018060405250810190610b669190611a3e565b9250925050915091565b610b78610f64565b610b8260006110fd565b565b6000806000610b9285610a23565b90925090506000610bb56fffffffffffffffffffffffffffffffff831686611a71565b90506402540be400610bd96fffffffffffffffffffffffffffffffff851683611a71565b610be39190611a88565b9695505050505050565b6000610bf98585610c9a565b610c85576040517f08c379a000000000000000000000000000000000000000000000000000000000815260206004820152603260248201527f4162737472616374506f73744469737061746368486f6f6b3a20696e76616c6960448201527f64206d657461646174612076617269616e74000000000000000000000000000060648201526084016104ef565b610c91858585856112df565b95945050505050565b60008115806106ff57506001610cb084846112fb565b61ffff16149392505050565b610cc4610f64565b73ffffffffffffffffffffffffffffffffffffffff8116610d67576040517f08c379a000000000000000000000000000000000000000000000000000000000815260206004820152602660248201527f4f776e61626c653a206e6577206f776e657220697320746865207a65726f206160448201527f646472657373000000000000000000000000000000000000000000000000000060648201526084016104ef565b6106b5816110fd565b610504610db283838080601f01602080910402602001604051908101604052809392919081815260200183838082843760009201919091525061134c92505050565b610dbc8484611357565b610df4610dc98686611357565b61019189897f000000000000000000000000000000000000000000000000000000000000000061137a565b610151610e0187876113cb565b899089906113dd565b80471015610e74576040517f08c379a000000000000000000000000000000000000000000000000000000000815260206004820152601d60248201527f416464726573733a20696e73756666696369656e742062616c616e636500000060448201526064016104ef565b60008273ffffffffffffffffffffffffffffffffffffffff168260405160006040518083038185875af1925050503d8060008114610ece576040519150601f19603f3d011682016040523d82523d6000602084013e610ed3565b606091505b50509050806108aa576040517f08c379a000000000000000000000000000000000000000000000000000000000815260206004820152603a60248201527f416464726573733a20756e61626c6520746f2073656e642076616c75652c207260448201527f6563697069656e74206d6179206861766520726576657274656400000000000060648201526084016104ef565b60335473ffffffffffffffffffffffffffffffffffffffff163314610b82576040517f08c379a000000000000000000000000000000000000000000000000000000000815260206004820181905260248201527f4f776e61626c653a2063616c6c6572206973206e6f7420746865206f776e657260448201526064016104ef565b606680547fffffffffffffffffffffffff00000000000000000000000000000000000000001673ffffffffffffffffffffffffffffffffffffffff83169081179091556040519081527f04d55a8be181fb8d75b76f2d48aa0b2ee40f47e53d6e61763eeeec46feea8a249060200160405180910390a150565b600054610100900460ff166110f5576040517f08c379a000000000000000000000000000000000000000000000000000000000815260206004820152602b60248201527f496e697469616c697a61626c653a20636f6e7472616374206973206e6f74206960448201527f6e697469616c697a696e6700000000000000000000000000000000000000000060648201526084016104ef565b610b8261142f565b6033805473ffffffffffffffffffffffffffffffffffffffff8381167fffffffffffffffffffffffff0000000000000000000000000000000000000000831681179093556040519116919082907f8be0079c531659141344cd1fd0a4f28419497f9722a3daafe3b4186f6b6457e090600090a35050565b60408051808201825273ffffffffffffffffffffffffffffffffffffffff8481168083526bffffffffffffffffffffffff858116602080860182815263ffffffff8b16600081815260658452899020975191519094167401000000000000000000000000000000000000000002951694909417909455845190815291820152918201527f676a23191c2989bd7cc8446122cca792bcdaa0f2d6bbd9c30d8ca031ca946343906060016108a1565b6060600061122e836114cf565b600101905060008167ffffffffffffffff81111561124e5761124e611ac3565b6040519080825280601f01601f191660200182016040528015611278576020820181803683370190505b5090508181016020015b7fffffffffffffffffffffffffffffffffffffffffffffffffffffffffffffffff017f3031323334353637383961626364656600000000000000000000000000000000600a86061a8153600a850494508461128257509392505050565b6000610c916112ee8484611357565b6103cc610dc98686611357565b6000611308816002611af2565b60ff1682101561131a57506000610702565b82600083611329826002611af2565b60ff169261133993929190611b0b565b61134291611b35565b60f01c9392505050565b805160209091012090565b6000611367602d60298486611b0b565b61137091611b7d565b60e01c9392505050565b600061138860226020611af2565b60ff168310156113995750806113c4565b836022846113a8826020611af2565b60ff16926113b893929190611b0b565b6113c191611bc3565b90505b9392505050565b60006106ff6113da84846115b1565b90565b60006113eb60426014611af2565b60ff168310156113fc5750806113c4565b8360428461140b826014611af2565b60ff169261141b93929190611b0b565b61142491611bff565b60601c949350505050565b600054610100900460ff166114c6576040517f08c379a000000000000000000000000000000000000000000000000000000000815260206004820152602b60248201527f496e697469616c697a61626c653a20636f6e7472616374206973206e6f74206960448201527f6e697469616c697a696e6700000000000000000000000000000000000000000060648201526084016104ef565b610b82336110fd565b6000807a184f03e93ff9f4daa797ed6e38ed64bf6a1f0100000000000000008310611518577a184f03e93ff9f4daa797ed6e38ed64bf6a1f010000000000000000830492506040015b6d04ee2d6d415b85acef81000000008310611544576d04ee2d6d415b85acef8100000000830492506020015b662386f26fc10000831061156257662386f26fc10000830492506010015b6305f5e100831061157a576305f5e100830492506008015b612710831061158e57612710830492506004015b606483106115a0576064830492506002015b600a83106107025760010192915050565b60006115c1602960098486611b0b565b6106ff91611bc3565b60008083601f8401126115dc57600080fd5b50813567ffffffffffffffff8111156115f457600080fd5b60208301915083602082850101111561160c57600080fd5b9250929050565b6000806000806040858703121561162957600080fd5b843567ffffffffffffffff8082111561164157600080fd5b61164d888389016115ca565b9096509450602087013591508082111561166657600080fd5b50611673878288016115ca565b95989497509550505050565b803563ffffffff8116811461169357600080fd5b919050565b73ffffffffffffffffffffffffffffffffffffffff811681146106b557600080fd5b600080600080608085870312156116d057600080fd5b843593506116e06020860161167f565b92506040850135915060608501356116f781611698565b939692955090935050565b60006020828403121561171457600080fd5b81356113c481611698565b6000806040838503121561173257600080fd5b61173b8361167f565b946020939093013593505050565b60006020828403121561175b57600080fd5b6106ff8261167f565b6000806040838503121561177757600080fd5b823561178281611698565b9150602083013561179281611698565b809150509250929050565b600080602083850312156117b057600080fd5b823567ffffffffffffffff808211156117c857600080fd5b818501915085601f8301126117dc57600080fd5b8135818111156117eb57600080fd5b86602060608302850101111561180057600080fd5b60209290920196919550909350505050565b6000806020838503121561182557600080fd5b823567ffffffffffffffff81111561183c57600080fd5b611848858286016115ca565b90969095509350505050565b7f4e487b7100000000000000000000000000000000000000000000000000000000600052601160045260246000fd5b8181038181111561070257610702611854565b8082018082111561070257610702611854565b7f4e487b7100000000000000000000000000000000000000000000000000000000600052603260045260246000fd5b6000602082840312156118ea57600080fd5b81356bffffffffffffffffffffffff811681146113c457600080fd5b60007fffffffffffffffffffffffffffffffffffffffffffffffffffffffffffffffff820361193757611937611854565b5060010190565b60005b83811015611959578181015183820152602001611941565b50506000910152565b7f436f6e666967757265642049475020646f65736e277420737570706f7274206481527f6f6d61696e2000000000000000000000000000000000000000000000000000006020820152600082516119c081602685016020870161193e565b9190910160260192915050565b60208152600082518060208401526119ec81604085016020870161193e565b601f017fffffffffffffffffffffffffffffffffffffffffffffffffffffffffffffffe0169190910160400192915050565b80516fffffffffffffffffffffffffffffffff8116811461169357600080fd5b60008060408385031215611a5157600080fd5b611a5a83611a1e565b9150611a6860208401611a1e565b90509250929050565b808202811582820484141761070257610702611854565b600082611abe577f4e487b7100000000000000000000000000000000000000000000000000000000600052601260045260246000fd5b500490565b7f4e487b7100000000000000000000000000000000000000000000000000000000600052604160045260246000fd5b60ff818116838216019081111561070257610702611854565b60008085851115611b1b57600080fd5b83861115611b2857600080fd5b5050820193919092039150565b7fffff0000000000000000000000000000000000000000000000000000000000008135818116916002851015611b755780818660020360031b1b83161692505b505092915050565b7fffffffff000000000000000000000000000000000000000000000000000000008135818116916004851015611b755760049490940360031b84901b1690921692915050565b80356020831015610702577fffffffffffffffffffffffffffffffffffffffffffffffffffffffffffffffff602084900360031b1b1692915050565b7fffffffffffffffffffffffffffffffffffffffff0000000000000000000000008135818116916014851015611b755760149490940360031b84901b169092169291505056fea2646970667358221220921454e7c764107fd23b42cf62eba398d85c28d21f58f10a09de9841118258cd64736f6c63430008130033",
  "linkReferences": {},
  "deployedLinkReferences": {}
}