{
  "_format": "hh-sol-artifact-1",
  "contractName": "RateLimitedHook",
  "sourceName": "contracts/hooks/warp-route/RateLimitedHook.sol",
  "abi": [
    {
      "inputs": [
        {
          "internalType": "address",
          "name": "_mailbox",
          "type": "address"
        },
        {
          "internalType": "uint256",
          "name": "_maxCapacity",
          "type": "uint256"
        }
      ],
      "stateMutability": "nonpayable",
      "type": "constructor"
    },
    {
      "inputs": [
        {
          "internalType": "uint256",
          "name": "newLimit",
          "type": "uint256"
        },
        {
          "internalType": "uint256",
          "name": "targetLimit",
          "type": "uint256"
        }
      ],
      "name": "RateLimitExceeded",
      "type": "error"
    },
    {
      "anonymous": false,
      "inputs": [
        {
          "indexed": false,
          "internalType": "uint8",
          "name": "version",
          "type": "uint8"
        }
      ],
      "name": "Initialized",
      "type": "event"
    },
    {
      "anonymous": false,
      "inputs": [
        {
          "indexed": true,
          "internalType": "address",
          "name": "previousOwner",
          "type": "address"
        },
        {
          "indexed": true,
          "internalType": "address",
          "name": "newOwner",
          "type": "address"
        }
      ],
      "name": "OwnershipTransferred",
      "type": "event"
    },
    {
      "anonymous": false,
      "inputs": [
        {
          "indexed": false,
          "internalType": "uint256",
          "name": "_oldCapacity",
          "type": "uint256"
        },
        {
          "indexed": false,
          "internalType": "uint256",
          "name": "_newCapacity",
          "type": "uint256"
        }
      ],
      "name": "RateLimitSet",
      "type": "event"
    },
    {
      "inputs": [],
      "name": "DURATION",
      "outputs": [
        {
          "internalType": "uint256",
          "name": "",
          "type": "uint256"
        }
      ],
      "stateMutability": "view",
      "type": "function"
    },
    {
      "inputs": [],
      "name": "calculateCurrentLevel",
      "outputs": [
        {
          "internalType": "uint256",
          "name": "",
          "type": "uint256"
        }
      ],
      "stateMutability": "view",
      "type": "function"
    },
    {
      "inputs": [],
      "name": "filledLevel",
      "outputs": [
        {
          "internalType": "uint256",
          "name": "",
          "type": "uint256"
        }
      ],
      "stateMutability": "view",
      "type": "function"
    },
    {
      "inputs": [],
      "name": "hook",
      "outputs": [
        {
          "internalType": "contract IPostDispatchHook",
          "name": "",
          "type": "address"
        }
      ],
      "stateMutability": "view",
      "type": "function"
    },
    {
      "inputs": [],
      "name": "hookType",
      "outputs": [
        {
          "internalType": "uint8",
          "name": "",
          "type": "uint8"
        }
      ],
      "stateMutability": "pure",
      "type": "function"
    },
    {
      "inputs": [],
      "name": "interchainSecurityModule",
      "outputs": [
        {
          "internalType": "contract IInterchainSecurityModule",
          "name": "",
          "type": "address"
        }
      ],
      "stateMutability": "view",
      "type": "function"
    },
    {
      "inputs": [],
      "name": "lastUpdated",
      "outputs": [
        {
          "internalType": "uint256",
          "name": "",
          "type": "uint256"
        }
      ],
      "stateMutability": "view",
      "type": "function"
    },
    {
      "inputs": [],
      "name": "localDomain",
      "outputs": [
        {
          "internalType": "uint32",
          "name": "",
          "type": "uint32"
        }
      ],
      "stateMutability": "view",
      "type": "function"
    },
    {
      "inputs": [],
      "name": "mailbox",
      "outputs": [
        {
          "internalType": "contract IMailbox",
          "name": "",
          "type": "address"
        }
      ],
      "stateMutability": "view",
      "type": "function"
    },
    {
      "inputs": [],
      "name": "maxCapacity",
      "outputs": [
        {
          "internalType": "uint256",
          "name": "",
          "type": "uint256"
        }
      ],
      "stateMutability": "view",
      "type": "function"
    },
    {
      "inputs": [
        {
          "internalType": "bytes32",
          "name": "messageId",
          "type": "bytes32"
        }
      ],
      "name": "messageValidated",
      "outputs": [
        {
          "internalType": "bool",
          "name": "validated",
          "type": "bool"
        }
      ],
      "stateMutability": "view",
      "type": "function"
    },
    {
      "inputs": [],
      "name": "owner",
      "outputs": [
        {
          "internalType": "address",
          "name": "",
          "type": "address"
        }
      ],
      "stateMutability": "view",
      "type": "function"
    },
    {
      "inputs": [
        {
          "internalType": "bytes",
          "name": "",
          "type": "bytes"
        },
        {
          "internalType": "bytes",
          "name": "_message",
          "type": "bytes"
        }
      ],
      "name": "postDispatch",
      "outputs": [],
      "stateMutability": "payable",
      "type": "function"
    },
    {
      "inputs": [
        {
          "internalType": "bytes",
          "name": "",
          "type": "bytes"
        },
        {
          "internalType": "bytes",
          "name": "",
          "type": "bytes"
        }
      ],
      "name": "quoteDispatch",
      "outputs": [
        {
          "internalType": "uint256",
          "name": "",
          "type": "uint256"
        }
      ],
      "stateMutability": "pure",
      "type": "function"
    },
    {
      "inputs": [],
      "name": "refillRate",
      "outputs": [
        {
          "internalType": "uint256",
          "name": "",
          "type": "uint256"
        }
      ],
      "stateMutability": "view",
      "type": "function"
    },
    {
      "inputs": [],
      "name": "renounceOwnership",
      "outputs": [],
      "stateMutability": "nonpayable",
      "type": "function"
    },
    {
      "inputs": [
        {
          "internalType": "address",
          "name": "_hook",
          "type": "address"
        }
      ],
      "name": "setHook",
      "outputs": [],
      "stateMutability": "nonpayable",
      "type": "function"
    },
    {
      "inputs": [
        {
          "internalType": "address",
          "name": "_module",
          "type": "address"
        }
      ],
      "name": "setInterchainSecurityModule",
      "outputs": [],
      "stateMutability": "nonpayable",
      "type": "function"
    },
    {
      "inputs": [
        {
          "internalType": "uint256",
          "name": "_capacity",
          "type": "uint256"
        }
      ],
      "name": "setRefillRate",
      "outputs": [
        {
          "internalType": "uint256",
          "name": "",
          "type": "uint256"
        }
      ],
      "stateMutability": "nonpayable",
      "type": "function"
    },
    {
      "inputs": [
        {
          "internalType": "bytes",
          "name": "",
          "type": "bytes"
        }
      ],
      "name": "supportsMetadata",
      "outputs": [
        {
          "internalType": "bool",
          "name": "",
          "type": "bool"
        }
      ],
      "stateMutability": "pure",
      "type": "function"
    },
    {
      "inputs": [
        {
          "internalType": "address",
          "name": "newOwner",
          "type": "address"
        }
      ],
      "name": "transferOwnership",
      "outputs": [],
      "stateMutability": "nonpayable",
      "type": "function"
    },
    {
      "inputs": [
        {
          "internalType": "uint256",
          "name": "_newAmount",
          "type": "uint256"
        }
      ],
      "name": "validateAndConsumeFilledLevel",
      "outputs": [
        {
          "internalType": "uint256",
          "name": "",
          "type": "uint256"
        }
      ],
      "stateMutability": "nonpayable",
      "type": "function"
    }
  ],
  "bytecode": "0x60c06040523480156200001157600080fd5b50604051620012f2380380620012f2833981016040819052620000349162000257565b8082806001600160a01b0381163b620000945760405162461bcd60e51b815260206004820152601e60248201527f4d61696c626f78436c69656e743a20696e76616c6964206d61696c626f78000060448201526064015b60405180910390fd5b6001600160a01b03821660808190526040805163234d8e3d60e21b81529051638d3638f4916004808201926020929091908290030181865afa158015620000df573d6000803e3d6000fd5b505050506040513d601f19601f8201168201806040525081019062000105919062000293565b63ffffffff1660a05262000119336200013f565b50620001279050336200013f565b620001328162000191565b5060975550620002e59050565b603380546001600160a01b038381166001600160a01b0319831681179093556040519116919082907f8be0079c531659141344cd1fd0a4f28419497f9722a3daafe3b4186f6b6457e090600090a35050565b60006200019d620001f9565b6098546000620001b16201518085620002c2565b609881905560408051848152602081018390529192507f120d3d0ec313528ff2b46390b335f973cae83e92345e3431ded6795864543c16910160405180910390a19392505050565b6033546001600160a01b03163314620002555760405162461bcd60e51b815260206004820181905260248201527f4f776e61626c653a2063616c6c6572206973206e6f7420746865206f776e657260448201526064016200008b565b565b600080604083850312156200026b57600080fd5b82516001600160a01b03811681146200028357600080fd5b6020939093015192949293505050565b600060208284031215620002a657600080fd5b815163ffffffff81168114620002bb57600080fd5b9392505050565b600082620002e057634e487b7160e01b600052601260045260246000fd5b500490565b60805160a051610fe06200031260003960006103130152600081816103f70152610b560152610fe06000f3fe6080604052600436106101755760003560e01c80638d3638f4116100cb578063d0b06f5d1161007f578063e445e7dd11610059578063e445e7dd14610446578063e5320bb914610462578063f2fde38b1461048257600080fd5b8063d0b06f5d146103cf578063d5438eae146103e5578063de523cf31461041957600080fd5b8063a66352fa116100b0578063a66352fa14610375578063aaccd23014610395578063c0bc6d84146103ba57600080fd5b80638d3638f4146103015780638da5cb5b1461034a57600080fd5b806349a3e3d01161012d57806373f250eb1161010757806373f250eb1461024f5780637f5a7c7b1461028f57806380f264ee146102e157600080fd5b806349a3e3d01461020f57806359b6a0c914610225578063715018a61461023a57600080fd5b80631be052891161015e5780631be05289146101af5780633dfd3873146101d9578063435635a1146101f957600080fd5b8063086011b91461017a5780630e72cc061461018f575b600080fd5b61018d610188366004610d87565b6104a2565b005b34801561019b57600080fd5b5061018d6101aa366004610df3565b610673565b3480156101bb57600080fd5b506101c66201518081565b6040519081526020015b60405180910390f35b3480156101e557600080fd5b5061018d6101f4366004610df3565b610789565b34801561020557600080fd5b506101c660985481565b34801561021b57600080fd5b506101c660975481565b34801561023157600080fd5b506101c661089f565b34801561024657600080fd5b5061018d6108b7565b34801561025b57600080fd5b5061027f61026a366004610e29565b609a6020526000908152604090205460ff1681565b60405190151581526020016101d0565b34801561029b57600080fd5b506065546102bc9073ffffffffffffffffffffffffffffffffffffffff1681565b60405173ffffffffffffffffffffffffffffffffffffffff90911681526020016101d0565b3480156102ed57600080fd5b506101c66102fc366004610e29565b6108cb565b34801561030d57600080fd5b506103357f000000000000000000000000000000000000000000000000000000000000000081565b60405163ffffffff90911681526020016101d0565b34801561035657600080fd5b5060335473ffffffffffffffffffffffffffffffffffffffff166102bc565b34801561038157600080fd5b506101c6610390366004610e29565b61092f565b3480156103a157600080fd5b506101c66103b0366004610d87565b6000949350505050565b3480156103c657600080fd5b506101c66109c3565b3480156103db57600080fd5b506101c660995481565b3480156103f157600080fd5b506102bc7f000000000000000000000000000000000000000000000000000000000000000081565b34801561042557600080fd5b506066546102bc9073ffffffffffffffffffffffffffffffffffffffff1681565b34801561045257600080fd5b50604051600a81526020016101d0565b34801561046e57600080fd5b5061027f61047d366004610e42565b610a86565b34801561048e57600080fd5b5061018d61049d366004610df3565b610a8f565b818160006104e583838080601f016020809104026020016040519081016040528093929190818152602001838380828437600092019190915250610b4692505050565b6000818152609a602052604090205490915060ff1615610566576040517f08c379a000000000000000000000000000000000000000000000000000000000815260206004820152601760248201527f4d657373616765416c726561647956616c69646174656400000000000000000060448201526064015b60405180910390fd5b6105ad6105a886868080601f016020809104026020016040519081016040528093929190818152602001838380828437600092019190915250610b4692505050565b610b51565b610613576040517f08c379a000000000000000000000000000000000000000000000000000000000815260206004820152601860248201527f496e76616c6964446973706174636865644d6573736167650000000000000000604482015260640161055d565b60006106276106228787610bea565b610c06565b90506106328161092f565b50506000908152609a6020526040902080547fffffffffffffffffffffffffffffffffffffffffffffffffffffffffffffff00166001179055505050505050565b8073ffffffffffffffffffffffffffffffffffffffff81163b1515806106ad575073ffffffffffffffffffffffffffffffffffffffff8116155b610739576040517f08c379a000000000000000000000000000000000000000000000000000000000815260206004820152602760248201527f4d61696c626f78436c69656e743a20696e76616c696420636f6e74726163742060448201527f73657474696e6700000000000000000000000000000000000000000000000000606482015260840161055d565b610741610c26565b50606680547fffffffffffffffffffffffff00000000000000000000000000000000000000001673ffffffffffffffffffffffffffffffffffffffff92909216919091179055565b8073ffffffffffffffffffffffffffffffffffffffff81163b1515806107c3575073ffffffffffffffffffffffffffffffffffffffff8116155b61084f576040517f08c379a000000000000000000000000000000000000000000000000000000000815260206004820152602760248201527f4d61696c626f78436c69656e743a20696e76616c696420636f6e74726163742060448201527f73657474696e6700000000000000000000000000000000000000000000000000606482015260840161055d565b610857610c26565b50606580547fffffffffffffffffffffffff00000000000000000000000000000000000000001673ffffffffffffffffffffffffffffffffffffffff92909216919091179055565b6000620151806098546108b29190610eb3565b905090565b6108bf610c26565b6108c96000610ca7565b565b60006108d5610c26565b60985460006108e76201518085610eca565b609881905560408051848152602081018390529192507f120d3d0ec313528ff2b46390b335f973cae83e92345e3431ded6795864543c16910160405180910390a19392505050565b60008061093a6109c3565b9050808311156109a6576040517f08c379a000000000000000000000000000000000000000000000000000000000815260206004820152601160248201527f526174654c696d69744578636565646564000000000000000000000000000000604482015260640161055d565b60006109b28483610f05565b609781905542609955949350505050565b6000806109ce61089f565b905060008111610a3a576040517f08c379a000000000000000000000000000000000000000000000000000000000815260206004820152600f60248201527f526174654c696d69744e6f745365740000000000000000000000000000000000604482015260640161055d565b62015180609954610a4b9190610f18565b421115610a5757919050565b6000610a61610d1e565b609754610a6e9190610f18565b9050818111610a7d5780610a7f565b815b9250505090565b60005b92915050565b610a97610c26565b73ffffffffffffffffffffffffffffffffffffffff8116610b3a576040517f08c379a000000000000000000000000000000000000000000000000000000000815260206004820152602660248201527f4f776e61626c653a206e6577206f776e657220697320746865207a65726f206160448201527f6464726573730000000000000000000000000000000000000000000000000000606482015260840161055d565b610b4381610ca7565b50565b805160209091012090565b6000817f000000000000000000000000000000000000000000000000000000000000000073ffffffffffffffffffffffffffffffffffffffff1663134fbb4f6040518163ffffffff1660e01b8152600401602060405180830381865afa158015610bbf573d6000803e3d6000fd5b505050506040513d601f19601f82011682018060405250810190610be39190610f2b565b1492915050565b366000610bfa83604d8187610f44565b915091505b9250929050565b6000610c16604060208486610f44565b610c1f91610f6e565b9392505050565b60335473ffffffffffffffffffffffffffffffffffffffff1633146108c9576040517f08c379a000000000000000000000000000000000000000000000000000000000815260206004820181905260248201527f4f776e61626c653a2063616c6c6572206973206e6f7420746865206f776e6572604482015260640161055d565b6033805473ffffffffffffffffffffffffffffffffffffffff8381167fffffffffffffffffffffffff0000000000000000000000000000000000000000831681179093556040519116919082907f8be0079c531659141344cd1fd0a4f28419497f9722a3daafe3b4186f6b6457e090600090a35050565b60008060995442610d2f9190610f05565b905060985481610d3f9190610eb3565b91505090565b60008083601f840112610d5757600080fd5b50813567ffffffffffffffff811115610d6f57600080fd5b602083019150836020828501011115610bff57600080fd5b60008060008060408587031215610d9d57600080fd5b843567ffffffffffffffff80821115610db557600080fd5b610dc188838901610d45565b90965094506020870135915080821115610dda57600080fd5b50610de787828801610d45565b95989497509550505050565b600060208284031215610e0557600080fd5b813573ffffffffffffffffffffffffffffffffffffffff81168114610c1f57600080fd5b600060208284031215610e3b57600080fd5b5035919050565b60008060208385031215610e5557600080fd5b823567ffffffffffffffff811115610e6c57600080fd5b610e7885828601610d45565b90969095509350505050565b7f4e487b7100000000000000000000000000000000000000000000000000000000600052601160045260246000fd5b8082028115828204841417610a8957610a89610e84565b600082610f00577f4e487b7100000000000000000000000000000000000000000000000000000000600052601260045260246000fd5b500490565b81810381811115610a8957610a89610e84565b80820180821115610a8957610a89610e84565b600060208284031215610f3d57600080fd5b5051919050565b60008085851115610f5457600080fd5b83861115610f6157600080fd5b5050820193919092039150565b80356020831015610a89577fffffffffffffffffffffffffffffffffffffffffffffffffffffffffffffffff602084900360031b1b169291505056fea264697066735822122003df1cdc8c8c889e148bd4989c0a385160c4b7360e8d394e0ba0a59e9547454164736f6c63430008130033",
  "linkReferences": {},
  "deployedLinkReferences": {}
}