{
  "_format": "hh-sol-artifact-1",
  "contractName": "RateLimitedIsm",
  "sourceName": "contracts/isms/warp-route/RateLimitedIsm.sol",
  "abi": [
    {
      "inputs": [
        {
          "internalType": "address",
          "name": "_mailbox",
          "type": "address"
        },
        {
          "internalType": "uint256",
          "name": "_maxCapacity",
          "type": "uint256"
        }
      ],
      "stateMutability": "nonpayable",
      "type": "constructor"
    },
    {
      "inputs": [
        {
          "internalType": "uint256",
          "name": "newLimit",
          "type": "uint256"
        },
        {
          "internalType": "uint256",
          "name": "targetLimit",
          "type": "uint256"
        }
      ],
      "name": "RateLimitExceeded",
      "type": "error"
    },
    {
      "anonymous": false,
      "inputs": [
        {
          "indexed": false,
          "internalType": "uint8",
          "name": "version",
          "type": "uint8"
        }
      ],
      "name": "Initialized",
      "type": "event"
    },
    {
      "anonymous": false,
      "inputs": [
        {
          "indexed": true,
          "internalType": "address",
          "name": "previousOwner",
          "type": "address"
        },
        {
          "indexed": true,
          "internalType": "address",
          "name": "newOwner",
          "type": "address"
        }
      ],
      "name": "OwnershipTransferred",
      "type": "event"
    },
    {
      "anonymous": false,
      "inputs": [
        {
          "indexed": false,
          "internalType": "uint256",
          "name": "_oldCapacity",
          "type": "uint256"
        },
        {
          "indexed": false,
          "internalType": "uint256",
          "name": "_newCapacity",
          "type": "uint256"
        }
      ],
      "name": "RateLimitSet",
      "type": "event"
    },
    {
      "inputs": [],
      "name": "DURATION",
      "outputs": [
        {
          "internalType": "uint256",
          "name": "",
          "type": "uint256"
        }
      ],
      "stateMutability": "view",
      "type": "function"
    },
    {
      "inputs": [],
      "name": "calculateCurrentLevel",
      "outputs": [
        {
          "internalType": "uint256",
          "name": "",
          "type": "uint256"
        }
      ],
      "stateMutability": "view",
      "type": "function"
    },
    {
      "inputs": [],
      "name": "filledLevel",
      "outputs": [
        {
          "internalType": "uint256",
          "name": "",
          "type": "uint256"
        }
      ],
      "stateMutability": "view",
      "type": "function"
    },
    {
      "inputs": [],
      "name": "hook",
      "outputs": [
        {
          "internalType": "contract IPostDispatchHook",
          "name": "",
          "type": "address"
        }
      ],
      "stateMutability": "view",
      "type": "function"
    },
    {
      "inputs": [],
      "name": "interchainSecurityModule",
      "outputs": [
        {
          "internalType": "contract IInterchainSecurityModule",
          "name": "",
          "type": "address"
        }
      ],
      "stateMutability": "view",
      "type": "function"
    },
    {
      "inputs": [],
      "name": "lastUpdated",
      "outputs": [
        {
          "internalType": "uint256",
          "name": "",
          "type": "uint256"
        }
      ],
      "stateMutability": "view",
      "type": "function"
    },
    {
      "inputs": [],
      "name": "localDomain",
      "outputs": [
        {
          "internalType": "uint32",
          "name": "",
          "type": "uint32"
        }
      ],
      "stateMutability": "view",
      "type": "function"
    },
    {
      "inputs": [],
      "name": "mailbox",
      "outputs": [
        {
          "internalType": "contract IMailbox",
          "name": "",
          "type": "address"
        }
      ],
      "stateMutability": "view",
      "type": "function"
    },
    {
      "inputs": [],
      "name": "maxCapacity",
      "outputs": [
        {
          "internalType": "uint256",
          "name": "",
          "type": "uint256"
        }
      ],
      "stateMutability": "view",
      "type": "function"
    },
    {
      "inputs": [
        {
          "internalType": "bytes32",
          "name": "messageId",
          "type": "bytes32"
        }
      ],
      "name": "messageValidated",
      "outputs": [
        {
          "internalType": "bool",
          "name": "validated",
          "type": "bool"
        }
      ],
      "stateMutability": "view",
      "type": "function"
    },
    {
      "inputs": [],
      "name": "moduleType",
      "outputs": [
        {
          "internalType": "uint8",
          "name": "",
          "type": "uint8"
        }
      ],
      "stateMutability": "pure",
      "type": "function"
    },
    {
      "inputs": [],
      "name": "owner",
      "outputs": [
        {
          "internalType": "address",
          "name": "",
          "type": "address"
        }
      ],
      "stateMutability": "view",
      "type": "function"
    },
    {
      "inputs": [],
      "name": "refillRate",
      "outputs": [
        {
          "internalType": "uint256",
          "name": "",
          "type": "uint256"
        }
      ],
      "stateMutability": "view",
      "type": "function"
    },
    {
      "inputs": [],
      "name": "renounceOwnership",
      "outputs": [],
      "stateMutability": "nonpayable",
      "type": "function"
    },
    {
      "inputs": [
        {
          "internalType": "address",
          "name": "_hook",
          "type": "address"
        }
      ],
      "name": "setHook",
      "outputs": [],
      "stateMutability": "nonpayable",
      "type": "function"
    },
    {
      "inputs": [
        {
          "internalType": "address",
          "name": "_module",
          "type": "address"
        }
      ],
      "name": "setInterchainSecurityModule",
      "outputs": [],
      "stateMutability": "nonpayable",
      "type": "function"
    },
    {
      "inputs": [
        {
          "internalType": "uint256",
          "name": "_capacity",
          "type": "uint256"
        }
      ],
      "name": "setRefillRate",
      "outputs": [
        {
          "internalType": "uint256",
          "name": "",
          "type": "uint256"
        }
      ],
      "stateMutability": "nonpayable",
      "type": "function"
    },
    {
      "inputs": [
        {
          "internalType": "address",
          "name": "newOwner",
          "type": "address"
        }
      ],
      "name": "transferOwnership",
      "outputs": [],
      "stateMutability": "nonpayable",
      "type": "function"
    },
    {
      "inputs": [
        {
          "internalType": "uint256",
          "name": "_newAmount",
          "type": "uint256"
        }
      ],
      "name": "validateAndConsumeFilledLevel",
      "outputs": [
        {
          "internalType": "uint256",
          "name": "",
          "type": "uint256"
        }
      ],
      "stateMutability": "nonpayable",
      "type": "function"
    },
    {
      "inputs": [
        {
          "internalType": "bytes",
          "name": "",
          "type": "bytes"
        },
        {
          "internalType": "bytes",
          "name": "_message",
          "type": "bytes"
        }
      ],
      "name": "verify",
      "outputs": [
        {
          "internalType": "bool",
          "name": "",
          "type": "bool"
        }
      ],
      "stateMutability": "nonpayable",
      "type": "function"
    }
  ],
  "bytecode": "0x60c06040523480156200001157600080fd5b506040516200119138038062001191833981016040819052620000349162000257565b8082806001600160a01b0381163b620000945760405162461bcd60e51b815260206004820152601e60248201527f4d61696c626f78436c69656e743a20696e76616c6964206d61696c626f78000060448201526064015b60405180910390fd5b6001600160a01b03821660808190526040805163234d8e3d60e21b81529051638d3638f4916004808201926020929091908290030181865afa158015620000df573d6000803e3d6000fd5b505050506040513d601f19601f8201168201806040525081019062000105919062000293565b63ffffffff1660a05262000119336200013f565b50620001279050336200013f565b620001328162000191565b5060975550620002e59050565b603380546001600160a01b038381166001600160a01b0319831681179093556040519116919082907f8be0079c531659141344cd1fd0a4f28419497f9722a3daafe3b4186f6b6457e090600090a35050565b60006200019d620001f9565b6098546000620001b16201518085620002c2565b609881905560408051848152602081018390529192507f120d3d0ec313528ff2b46390b335f973cae83e92345e3431ded6795864543c16910160405180910390a19392505050565b6033546001600160a01b03163314620002555760405162461bcd60e51b815260206004820181905260248201527f4f776e61626c653a2063616c6c6572206973206e6f7420746865206f776e657260448201526064016200008b565b565b600080604083850312156200026b57600080fd5b82516001600160a01b03811681146200028357600080fd5b6020939093015192949293505050565b600060208284031215620002a657600080fd5b815163ffffffff81168114620002bb57600080fd5b9392505050565b600082620002e057634e487b7160e01b600052601260045260246000fd5b500490565b60805160a051610e7f6200031260003960006102770152600081816102f50152610b5b0152610e7f6000f3fe608060405234801561001057600080fd5b506004361061016c5760003560e01c806380f264ee116100cd578063d0b06f5d11610081578063de523cf311610066578063de523cf314610317578063f2fde38b14610337578063f7e83aee1461034a57600080fd5b8063d0b06f5d146102e7578063d5438eae146102f057600080fd5b80638da5cb5b116100b25780638da5cb5b146102ae578063a66352fa146102cc578063c0bc6d84146102df57600080fd5b806380f264ee1461025f5780638d3638f41461027257600080fd5b806359b6a0c911610124578063715018a611610109578063715018a6146101df57806373f250eb146101e75780637f5a7c7b1461021a57600080fd5b806359b6a0c9146101c85780636465e69f146101d057600080fd5b80633dfd3873116101555780633dfd3873146101a3578063435635a1146101b657806349a3e3d0146101bf57600080fd5b80630e72cc06146101715780631be0528914610186575b600080fd5b61018461017f366004610c1d565b61035d565b005b6101906201518081565b6040519081526020015b60405180910390f35b6101846101b1366004610c1d565b610478565b61019060985481565b61019060975481565b61019061058e565b6040516000815260200161019a565b6101846105a6565b61020a6101f5366004610c53565b609a6020526000908152604090205460ff1681565b604051901515815260200161019a565b60655461023a9073ffffffffffffffffffffffffffffffffffffffff1681565b60405173ffffffffffffffffffffffffffffffffffffffff909116815260200161019a565b61019061026d366004610c53565b6105ba565b6102997f000000000000000000000000000000000000000000000000000000000000000081565b60405163ffffffff909116815260200161019a565b60335473ffffffffffffffffffffffffffffffffffffffff1661023a565b6101906102da366004610c53565b61061e565b6101906106b2565b61019060995481565b61023a7f000000000000000000000000000000000000000000000000000000000000000081565b60665461023a9073ffffffffffffffffffffffffffffffffffffffff1681565b610184610345366004610c1d565b610775565b61020a610358366004610cae565b61082c565b8073ffffffffffffffffffffffffffffffffffffffff81163b151580610397575073ffffffffffffffffffffffffffffffffffffffff8116155b610428576040517f08c379a000000000000000000000000000000000000000000000000000000000815260206004820152602760248201527f4d61696c626f78436c69656e743a20696e76616c696420636f6e74726163742060448201527f73657474696e670000000000000000000000000000000000000000000000000060648201526084015b60405180910390fd5b6104306109ff565b50606680547fffffffffffffffffffffffff00000000000000000000000000000000000000001673ffffffffffffffffffffffffffffffffffffffff92909216919091179055565b8073ffffffffffffffffffffffffffffffffffffffff81163b1515806104b2575073ffffffffffffffffffffffffffffffffffffffff8116155b61053e576040517f08c379a000000000000000000000000000000000000000000000000000000000815260206004820152602760248201527f4d61696c626f78436c69656e743a20696e76616c696420636f6e74726163742060448201527f73657474696e6700000000000000000000000000000000000000000000000000606482015260840161041f565b6105466109ff565b50606580547fffffffffffffffffffffffff00000000000000000000000000000000000000001673ffffffffffffffffffffffffffffffffffffffff92909216919091179055565b6000620151806098546105a19190610d49565b905090565b6105ae6109ff565b6105b86000610a80565b565b60006105c46109ff565b60985460006105d66201518085610d60565b609881905560408051848152602081018390529192507f120d3d0ec313528ff2b46390b335f973cae83e92345e3431ded6795864543c16910160405180910390a19392505050565b6000806106296106b2565b905080831115610695576040517f08c379a000000000000000000000000000000000000000000000000000000000815260206004820152601160248201527f526174654c696d69744578636565646564000000000000000000000000000000604482015260640161041f565b60006106a18483610d9b565b609781905542609955949350505050565b6000806106bd61058e565b905060008111610729576040517f08c379a000000000000000000000000000000000000000000000000000000000815260206004820152600f60248201527f526174654c696d69744e6f745365740000000000000000000000000000000000604482015260640161041f565b6201518060995461073a9190610dae565b42111561074657919050565b6000610750610af7565b60975461075d9190610dae565b905081811161076c578061076e565b815b9250505090565b61077d6109ff565b73ffffffffffffffffffffffffffffffffffffffff8116610820576040517f08c379a000000000000000000000000000000000000000000000000000000000815260206004820152602660248201527f4f776e61626c653a206e6577206f776e657220697320746865207a65726f206160448201527f6464726573730000000000000000000000000000000000000000000000000000606482015260840161041f565b61082981610a80565b50565b60008282600061087183838080601f016020809104026020016040519081016040528093929190818152602001838380828437600092019190915250610b1e92505050565b6000818152609a602052604090205490915060ff16156108ed576040517f08c379a000000000000000000000000000000000000000000000000000000000815260206004820152601760248201527f4d657373616765416c726561647956616c696461746564000000000000000000604482015260640161041f565b6000818152609a602090815260409182902080547fffffffffffffffffffffffffffffffffffffffffffffffffffffffffffffff001660011790558151601f880182900482028101820190925286825261096a91610965918990899081908401838280828437600092019190915250610b1e92505050565b610b29565b6109d0576040517f08c379a000000000000000000000000000000000000000000000000000000000815260206004820152601760248201527f496e76616c696444656c6976657265644d657373616765000000000000000000604482015260640161041f565b60006109e46109df8888610be1565b610bfd565b90506109ef8161061e565b5060019998505050505050505050565b60335473ffffffffffffffffffffffffffffffffffffffff1633146105b8576040517f08c379a000000000000000000000000000000000000000000000000000000000815260206004820181905260248201527f4f776e61626c653a2063616c6c6572206973206e6f7420746865206f776e6572604482015260640161041f565b6033805473ffffffffffffffffffffffffffffffffffffffff8381167fffffffffffffffffffffffff0000000000000000000000000000000000000000831681179093556040519116919082907f8be0079c531659141344cd1fd0a4f28419497f9722a3daafe3b4186f6b6457e090600090a35050565b60008060995442610b089190610d9b565b905060985481610b189190610d49565b91505090565b805160209091012090565b6040517fe495f1d4000000000000000000000000000000000000000000000000000000008152600481018290526000907f000000000000000000000000000000000000000000000000000000000000000073ffffffffffffffffffffffffffffffffffffffff169063e495f1d490602401602060405180830381865afa158015610bb7573d6000803e3d6000fd5b505050506040513d601f19601f82011682018060405250810190610bdb9190610dc1565b92915050565b366000610bf183604d8187610de3565b915091505b9250929050565b6000610c0d604060208486610de3565b610c1691610e0d565b9392505050565b600060208284031215610c2f57600080fd5b813573ffffffffffffffffffffffffffffffffffffffff81168114610c1657600080fd5b600060208284031215610c6557600080fd5b5035919050565b60008083601f840112610c7e57600080fd5b50813567ffffffffffffffff811115610c9657600080fd5b602083019150836020828501011115610bf657600080fd5b60008060008060408587031215610cc457600080fd5b843567ffffffffffffffff80821115610cdc57600080fd5b610ce888838901610c6c565b90965094506020870135915080821115610d0157600080fd5b50610d0e87828801610c6c565b95989497509550505050565b7f4e487b7100000000000000000000000000000000000000000000000000000000600052601160045260246000fd5b8082028115828204841417610bdb57610bdb610d1a565b600082610d96577f4e487b7100000000000000000000000000000000000000000000000000000000600052601260045260246000fd5b500490565b81810381811115610bdb57610bdb610d1a565b80820180821115610bdb57610bdb610d1a565b600060208284031215610dd357600080fd5b81518015158114610c1657600080fd5b60008085851115610df357600080fd5b83861115610e0057600080fd5b5050820193919092039150565b80356020831015610bdb577fffffffffffffffffffffffffffffffffffffffffffffffffffffffffffffffff602084900360031b1b169291505056fea26469706673582212205dc75bd505582bc599883d2526b7468c3c7b3e7c242a9ccc7bec9a0b7ca6aefc64736f6c63430008130033",
  "linkReferences": {},
  "deployedLinkReferences": {}
}