{
  "_format": "hh-sol-artifact-1",
  "contractName": "TrustedRelayerIsm",
  "sourceName": "contracts/isms/TrustedRelayerIsm.sol",
  "abi": [
    {
      "inputs": [
        {
          "internalType": "address",
          "name": "_mailbox",
          "type": "address"
        },
        {
          "internalType": "address",
          "name": "_trustedRelayer",
          "type": "address"
        }
      ],
      "stateMutability": "nonpayable",
      "type": "constructor"
    },
    {
      "inputs": [],
      "name": "mailbox",
      "outputs": [
        {
          "internalType": "contract Mailbox",
          "name": "",
          "type": "address"
        }
      ],
      "stateMutability": "view",
      "type": "function"
    },
    {
      "inputs": [],
      "name": "moduleType",
      "outputs": [
        {
          "internalType": "uint8",
          "name": "",
          "type": "uint8"
        }
      ],
      "stateMutability": "view",
      "type": "function"
    },
    {
      "inputs": [],
      "name": "trustedRelayer",
      "outputs": [
        {
          "internalType": "address",
          "name": "",
          "type": "address"
        }
      ],
      "stateMutability": "view",
      "type": "function"
    },
    {
      "inputs": [
        {
          "internalType": "bytes",
          "name": "",
          "type": "bytes"
        },
        {
          "internalType": "bytes",
          "name": "message",
          "type": "bytes"
        }
      ],
      "name": "verify",
      "outputs": [
        {
          "internalType": "bool",
          "name": "",
          "type": "bool"
        }
      ],
      "stateMutability": "view",
      "type": "function"
    }
  ],
  "bytecode": "0x60e0604052600660805234801561001557600080fd5b5060405161045f38038061045f83398101604081905261003491610067565b6001600160a01b0391821660a0521660c05261009a565b80516001600160a01b038116811461006257600080fd5b919050565b6000806040838503121561007a57600080fd5b6100838361004b565b91506100916020840161004b565b90509250929050565b60805160a05160c05161038b6100d4600039600081816094015261012901526000818160e00152610160015260006056015261038b6000f3fe608060405234801561001057600080fd5b506004361061004c5760003560e01c80636465e69f146100515780638596c2261461008f578063d5438eae146100db578063f7e83aee14610102575b600080fd5b6100787f000000000000000000000000000000000000000000000000000000000000000081565b60405160ff90911681526020015b60405180910390f35b6100b67f000000000000000000000000000000000000000000000000000000000000000081565b60405173ffffffffffffffffffffffffffffffffffffffff9091168152602001610086565b6100b67f000000000000000000000000000000000000000000000000000000000000000081565b6101156101103660046102ac565b610125565b6040519015158152602001610086565b60007f000000000000000000000000000000000000000000000000000000000000000073ffffffffffffffffffffffffffffffffffffffff167f000000000000000000000000000000000000000000000000000000000000000073ffffffffffffffffffffffffffffffffffffffff16635d1fe5a96101d986868080601f01602080910402602001604051908101604052809392919081815260200183838082843760009201919091525061025892505050565b6040518263ffffffff1660e01b81526004016101f791815260200190565b602060405180830381865afa158015610214573d6000803e3d6000fd5b505050506040513d601f19601f820116820180604052508101906102389190610318565b73ffffffffffffffffffffffffffffffffffffffff161495945050505050565b805160209091012090565b60008083601f84011261027557600080fd5b50813567ffffffffffffffff81111561028d57600080fd5b6020830191508360208285010111156102a557600080fd5b9250929050565b600080600080604085870312156102c257600080fd5b843567ffffffffffffffff808211156102da57600080fd5b6102e688838901610263565b909650945060208701359150808211156102ff57600080fd5b5061030c87828801610263565b95989497509550505050565b60006020828403121561032a57600080fd5b815173ffffffffffffffffffffffffffffffffffffffff8116811461034e57600080fd5b939250505056fea264697066735822122014b728f887668bf1a20962cfcd2e9408f28d967302a9096582432ad5584219db64736f6c63430008130033",
  "linkReferences": {},
  "deployedLinkReferences": {}
}