{
  "_format": "hh-sol-artifact-1",
  "contractName": "ValidatorAnnounce",
  "sourceName": "contracts/isms/multisig/ValidatorAnnounce.sol",
  "abi": [
    {
      "inputs": [
        {
          "internalType": "address",
          "name": "_mailbox",
          "type": "address"
        }
      ],
      "stateMutability": "nonpayable",
      "type": "constructor"
    },
    {
      "anonymous": false,
      "inputs": [
        {
          "indexed": false,
          "internalType": "uint8",
          "name": "version",
          "type": "uint8"
        }
      ],
      "name": "Initialized",
      "type": "event"
    },
    {
      "anonymous": false,
      "inputs": [
        {
          "indexed": true,
          "internalType": "address",
          "name": "previousOwner",
          "type": "address"
        },
        {
          "indexed": true,
          "internalType": "address",
          "name": "newOwner",
          "type": "address"
        }
      ],
      "name": "OwnershipTransferred",
      "type": "event"
    },
    {
      "anonymous": false,
      "inputs": [
        {
          "indexed": true,
          "internalType": "address",
          "name": "validator",
          "type": "address"
        },
        {
          "indexed": false,
          "internalType": "string",
          "name": "storageLocation",
          "type": "string"
        }
      ],
      "name": "ValidatorAnnouncement",
      "type": "event"
    },
    {
      "inputs": [
        {
          "internalType": "address",
          "name": "_validator",
          "type": "address"
        },
        {
          "internalType": "string",
          "name": "_storageLocation",
          "type": "string"
        },
        {
          "internalType": "bytes",
          "name": "_signature",
          "type": "bytes"
        }
      ],
      "name": "announce",
      "outputs": [
        {
          "internalType": "bool",
          "name": "",
          "type": "bool"
        }
      ],
      "stateMutability": "nonpayable",
      "type": "function"
    },
    {
      "inputs": [
        {
          "internalType": "address[]",
          "name": "_validators",
          "type": "address[]"
        }
      ],
      "name": "getAnnouncedStorageLocations",
      "outputs": [
        {
          "internalType": "string[][]",
          "name": "",
          "type": "string[][]"
        }
      ],
      "stateMutability": "view",
      "type": "function"
    },
    {
      "inputs": [],
      "name": "getAnnouncedValidators",
      "outputs": [
        {
          "internalType": "address[]",
          "name": "",
          "type": "address[]"
        }
      ],
      "stateMutability": "view",
      "type": "function"
    },
    {
      "inputs": [
        {
          "internalType": "string",
          "name": "_storageLocation",
          "type": "string"
        }
      ],
      "name": "getAnnouncementDigest",
      "outputs": [
        {
          "internalType": "bytes32",
          "name": "",
          "type": "bytes32"
        }
      ],
      "stateMutability": "view",
      "type": "function"
    },
    {
      "inputs": [],
      "name": "hook",
      "outputs": [
        {
          "internalType": "contract IPostDispatchHook",
          "name": "",
          "type": "address"
        }
      ],
      "stateMutability": "view",
      "type": "function"
    },
    {
      "inputs": [],
      "name": "interchainSecurityModule",
      "outputs": [
        {
          "internalType": "contract IInterchainSecurityModule",
          "name": "",
          "type": "address"
        }
      ],
      "stateMutability": "view",
      "type": "function"
    },
    {
      "inputs": [],
      "name": "localDomain",
      "outputs": [
        {
          "internalType": "uint32",
          "name": "",
          "type": "uint32"
        }
      ],
      "stateMutability": "view",
      "type": "function"
    },
    {
      "inputs": [],
      "name": "mailbox",
      "outputs": [
        {
          "internalType": "contract IMailbox",
          "name": "",
          "type": "address"
        }
      ],
      "stateMutability": "view",
      "type": "function"
    },
    {
      "inputs": [],
      "name": "owner",
      "outputs": [
        {
          "internalType": "address",
          "name": "",
          "type": "address"
        }
      ],
      "stateMutability": "view",
      "type": "function"
    },
    {
      "inputs": [],
      "name": "renounceOwnership",
      "outputs": [],
      "stateMutability": "nonpayable",
      "type": "function"
    },
    {
      "inputs": [
        {
          "internalType": "address",
          "name": "_hook",
          "type": "address"
        }
      ],
      "name": "setHook",
      "outputs": [],
      "stateMutability": "nonpayable",
      "type": "function"
    },
    {
      "inputs": [
        {
          "internalType": "address",
          "name": "_module",
          "type": "address"
        }
      ],
      "name": "setInterchainSecurityModule",
      "outputs": [],
      "stateMutability": "nonpayable",
      "type": "function"
    },
    {
      "inputs": [
        {
          "internalType": "address",
          "name": "newOwner",
          "type": "address"
        }
      ],
      "name": "transferOwnership",
      "outputs": [],
      "stateMutability": "nonpayable",
      "type": "function"
    }
  ],
  "bytecode": "0x60c06040523480156200001157600080fd5b50604051620019c3380380620019c3833981016040819052620000349162000172565b80806001600160a01b0381163b620000925760405162461bcd60e51b815260206004820152601e60248201527f4d61696c626f78436c69656e743a20696e76616c6964206d61696c626f780000604482015260640160405180910390fd5b6001600160a01b03821660808190526040805163234d8e3d60e21b81529051638d3638f4916004808201926020929091908290030181865afa158015620000dd573d6000803e3d6000fd5b505050506040513d601f19601f82011682018060405250810190620001039190620001a4565b63ffffffff1660a052620001173362000120565b505050620001cc565b603380546001600160a01b038381166001600160a01b0319831681179093556040519116919082907f8be0079c531659141344cd1fd0a4f28419497f9722a3daafe3b4186f6b6457e090600090a35050565b6000602082840312156200018557600080fd5b81516001600160a01b03811681146200019d57600080fd5b9392505050565b600060208284031215620001b757600080fd5b815163ffffffff811681146200019d57600080fd5b60805160a0516117c362000200600039600081816101bb015261098c01526000818161023601526109c201526117c36000f3fe608060405234801561001057600080fd5b50600436106100df5760003560e01c80637f5a7c7b1161008c578063b91e6a5111610066578063b91e6a5114610210578063d5438eae14610231578063de523cf314610258578063f2fde38b1461027857600080fd5b80637f5a7c7b146101715780638d3638f4146101b65780638da5cb5b146101f257600080fd5b806351abe7cc116100bd57806351abe7cc14610134578063690cb78614610154578063715018a61461016957600080fd5b80630e72cc06146100e457806321f71781146100f95780633dfd387314610121575b600080fd5b6100f76100f236600461109d565b61028b565b005b61010c6101073660046110fa565b6103a6565b60405190151581526020015b60405180910390f35b6100f761012f36600461109d565b610678565b61014761014236600461117b565b61078e565b6040516101189190611214565b61015c61095b565b6040516101189190611315565b6100f761096c565b6065546101919073ffffffffffffffffffffffffffffffffffffffff1681565b60405173ffffffffffffffffffffffffffffffffffffffff9091168152602001610118565b6101dd7f000000000000000000000000000000000000000000000000000000000000000081565b60405163ffffffff9091168152602001610118565b60335473ffffffffffffffffffffffffffffffffffffffff16610191565b61022361021e366004611392565b610980565b604051908152602001610118565b6101917f000000000000000000000000000000000000000000000000000000000000000081565b6066546101919073ffffffffffffffffffffffffffffffffffffffff1681565b6100f761028636600461109d565b610ab6565b8073ffffffffffffffffffffffffffffffffffffffff81163b1515806102c5575073ffffffffffffffffffffffffffffffffffffffff8116155b610356576040517f08c379a000000000000000000000000000000000000000000000000000000000815260206004820152602760248201527f4d61696c626f78436c69656e743a20696e76616c696420636f6e74726163742060448201527f73657474696e670000000000000000000000000000000000000000000000000060648201526084015b60405180910390fd5b61035e610b6d565b50606680547fffffffffffffffffffffffff00000000000000000000000000000000000000001673ffffffffffffffffffffffffffffffffffffffff92909216919091179055565b6000808686866040516020016103be93929190611461565b604080517fffffffffffffffffffffffffffffffffffffffffffffffffffffffffffffffe081840301815291815281516020928301206000818152609a90935291205490915060ff161561046e576040517f08c379a000000000000000000000000000000000000000000000000000000000815260206004820152600660248201527f7265706c61790000000000000000000000000000000000000000000000000000604482015260640161034d565b6000818152609a6020908152604080832080547fffffffffffffffffffffffffffffffffffffffffffffffffffffffffffffff001660011790558051601f89018390048302810183019091528781526104e191899089908190840183828082843760009201919091525061098092505050565b905060006105258287878080601f016020809104026020016040519081016040528093929190818152602001838380828437600092019190915250610bee92505050565b90508873ffffffffffffffffffffffffffffffffffffffff168173ffffffffffffffffffffffffffffffffffffffff16146105bc576040517f08c379a000000000000000000000000000000000000000000000000000000000815260206004820152600a60248201527f217369676e617475726500000000000000000000000000000000000000000000604482015260640161034d565b6105c760978a610c0a565b6105d8576105d660978a610c3c565b505b73ffffffffffffffffffffffffffffffffffffffff8916600090815260996020908152604082208054600181018255908352912001610618888a83611542565b508873ffffffffffffffffffffffffffffffffffffffff167f78066d8adb677a1353d1fc8be28cf03e2a8de7157bbab979953587d78076c11e898960405161066192919061165d565b60405180910390a250600198975050505050505050565b8073ffffffffffffffffffffffffffffffffffffffff81163b1515806106b2575073ffffffffffffffffffffffffffffffffffffffff8116155b61073e576040517f08c379a000000000000000000000000000000000000000000000000000000000815260206004820152602760248201527f4d61696c626f78436c69656e743a20696e76616c696420636f6e74726163742060448201527f73657474696e6700000000000000000000000000000000000000000000000000606482015260840161034d565b610746610b6d565b50606580547fffffffffffffffffffffffff00000000000000000000000000000000000000001673ffffffffffffffffffffffffffffffffffffffff92909216919091179055565b606060008267ffffffffffffffff8111156107ab576107ab611363565b6040519080825280602002602001820160405280156107de57816020015b60608152602001906001900390816107c95790505b50905060005b838110156109515760996000868684818110610802576108026116aa565b9050602002016020810190610817919061109d565b73ffffffffffffffffffffffffffffffffffffffff1673ffffffffffffffffffffffffffffffffffffffff168152602001908152602001600020805480602002602001604051908101604052809291908181526020016000905b8282101561091d578382906000526020600020018054610890906114a0565b80601f01602080910402602001604051908101604052809291908181526020018280546108bc906114a0565b80156109095780601f106108de57610100808354040283529160200191610909565b820191906000526020600020905b8154815290600101906020018083116108ec57829003601f168201915b505050505081526020019060010190610871565b50505050828281518110610933576109336116aa565b60200260200101819052508080610949906116d9565b9150506107e4565b5090505b92915050565b60606109676097610c5e565b905090565b610974610b6d565b61097e6000610c6b565b565b6000610955610a5b60007f000000000000000000000000000000000000000000000000000000000000000073ffffffffffffffffffffffffffffffffffffffff7f00000000000000000000000000000000000000000000000000000000000000001660405160e09290921b7fffffffff0000000000000000000000000000000000000000000000000000000016602083015260248201527f48595045524c414e455f414e4e4f554e43454d454e54000000000000000000006044820152605a0160405160208183030381529060405280519060200120905090565b83604051602001610a6d929190611738565b604051602081830303815290604052805190602001207f19457468657265756d205369676e6564204d6573736167653a0a3332000000006000908152601c91909152603c902090565b610abe610b6d565b73ffffffffffffffffffffffffffffffffffffffff8116610b61576040517f08c379a000000000000000000000000000000000000000000000000000000000815260206004820152602660248201527f4f776e61626c653a206e6577206f776e657220697320746865207a65726f206160448201527f6464726573730000000000000000000000000000000000000000000000000000606482015260840161034d565b610b6a81610c6b565b50565b60335473ffffffffffffffffffffffffffffffffffffffff16331461097e576040517f08c379a000000000000000000000000000000000000000000000000000000000815260206004820181905260248201527f4f776e61626c653a2063616c6c6572206973206e6f7420746865206f776e6572604482015260640161034d565b6000806000610bfd8585610ce2565b9150915061095181610d27565b73ffffffffffffffffffffffffffffffffffffffff8116600090815260018301602052604081205415155b9392505050565b6000610c358373ffffffffffffffffffffffffffffffffffffffff8416610eda565b60606000610c3583610f29565b6033805473ffffffffffffffffffffffffffffffffffffffff8381167fffffffffffffffffffffffff0000000000000000000000000000000000000000831681179093556040519116919082907f8be0079c531659141344cd1fd0a4f28419497f9722a3daafe3b4186f6b6457e090600090a35050565b6000808251604103610d185760208301516040840151606085015160001a610d0c87828585610f85565b94509450505050610d20565b506000905060025b9250929050565b6000816004811115610d3b57610d3b61175e565b03610d435750565b6001816004811115610d5757610d5761175e565b03610dbe576040517f08c379a000000000000000000000000000000000000000000000000000000000815260206004820152601860248201527f45434453413a20696e76616c6964207369676e61747572650000000000000000604482015260640161034d565b6002816004811115610dd257610dd261175e565b03610e39576040517f08c379a000000000000000000000000000000000000000000000000000000000815260206004820152601f60248201527f45434453413a20696e76616c6964207369676e6174757265206c656e67746800604482015260640161034d565b6003816004811115610e4d57610e4d61175e565b03610b6a576040517f08c379a000000000000000000000000000000000000000000000000000000000815260206004820152602260248201527f45434453413a20696e76616c6964207369676e6174757265202773272076616c60448201527f7565000000000000000000000000000000000000000000000000000000000000606482015260840161034d565b6000818152600183016020526040812054610f2157508154600181810184556000848152602080822090930184905584548482528286019093526040902091909155610955565b506000610955565b606081600001805480602002602001604051908101604052809291908181526020018280548015610f7957602002820191906000526020600020905b815481526020019060010190808311610f65575b50505050509050919050565b6000807f7fffffffffffffffffffffffffffffff5d576e7357a4501ddfe92f46681b20a0831115610fbc575060009050600361106b565b6040805160008082526020820180845289905260ff881692820192909252606081018690526080810185905260019060a0016020604051602081039080840390855afa158015611010573d6000803e3d6000fd5b50506040517fffffffffffffffffffffffffffffffffffffffffffffffffffffffffffffffe0015191505073ffffffffffffffffffffffffffffffffffffffff81166110645760006001925092505061106b565b9150600090505b94509492505050565b803573ffffffffffffffffffffffffffffffffffffffff8116811461109857600080fd5b919050565b6000602082840312156110af57600080fd5b610c3582611074565b60008083601f8401126110ca57600080fd5b50813567ffffffffffffffff8111156110e257600080fd5b602083019150836020828501011115610d2057600080fd5b60008060008060006060868803121561111257600080fd5b61111b86611074565b9450602086013567ffffffffffffffff8082111561113857600080fd5b61114489838a016110b8565b9096509450604088013591508082111561115d57600080fd5b5061116a888289016110b8565b969995985093965092949392505050565b6000806020838503121561118e57600080fd5b823567ffffffffffffffff808211156111a657600080fd5b818501915085601f8301126111ba57600080fd5b8135818111156111c957600080fd5b8660208260051b85010111156111de57600080fd5b60209290920196919550909350505050565b60005b8381101561120b5781810151838201526020016111f3565b50506000910152565b60208152600060208201835180825260408401915060408160051b8501016020860160005b83811015611309578683037fffffffffffffffffffffffffffffffffffffffffffffffffffffffffffffffc0018552815180518085526020918201918086019190600582901b87010160005b828110156112ef577fffffffffffffffffffffffffffffffffffffffffffffffffffffffffffffffe080898403018552855180518085526112cd8160208701602085016111f0565b60209788019796870196601f9190910190921693909301019150600101611285565b506020988901989096509490940193505050600101611239565b50909695505050505050565b6020808252825182820181905260009190848201906040850190845b8181101561130957835173ffffffffffffffffffffffffffffffffffffffff1683529284019291840191600101611331565b7f4e487b7100000000000000000000000000000000000000000000000000000000600052604160045260246000fd5b6000602082840312156113a457600080fd5b813567ffffffffffffffff808211156113bc57600080fd5b818401915084601f8301126113d057600080fd5b8135818111156113e2576113e2611363565b604051601f82017fffffffffffffffffffffffffffffffffffffffffffffffffffffffffffffffe0908116603f0116810190838211818310171561142857611428611363565b8160405282815287602084870101111561144157600080fd5b826020860160208301376000928101602001929092525095945050505050565b7fffffffffffffffffffffffffffffffffffffffff0000000000000000000000008460601b168152818360148301376000910160140190815292915050565b600181811c908216806114b457607f821691505b6020821081036114ed577f4e487b7100000000000000000000000000000000000000000000000000000000600052602260045260246000fd5b50919050565b601f82111561153d57600081815260208120601f850160051c8101602086101561151a5750805b601f850160051c820191505b8181101561153957828155600101611526565b5050505b505050565b67ffffffffffffffff83111561155a5761155a611363565b61156e8361156883546114a0565b836114f3565b6000601f8411600181146115c0576000851561158a5750838201355b7fffffffffffffffffffffffffffffffffffffffffffffffffffffffffffffffff600387901b1c1916600186901b178355611656565b6000838152602090207fffffffffffffffffffffffffffffffffffffffffffffffffffffffffffffffe0861690835b8281101561160f57868501358255602094850194600190920191016115ef565b508682101561164a577fffffffffffffffffffffffffffffffffffffffffffffffffffffffffffffffff60f88860031b161c19848701351681555b505060018560011b0183555b5050505050565b60208152816020820152818360408301376000818301604090810191909152601f9092017fffffffffffffffffffffffffffffffffffffffffffffffffffffffffffffffe0160101919050565b7f4e487b7100000000000000000000000000000000000000000000000000000000600052603260045260246000fd5b60007fffffffffffffffffffffffffffffffffffffffffffffffffffffffffffffffff8203611731577f4e487b7100000000000000000000000000000000000000000000000000000000600052601160045260246000fd5b5060010190565b828152600082516117508160208501602087016111f0565b919091016020019392505050565b7f4e487b7100000000000000000000000000000000000000000000000000000000600052602160045260246000fdfea26469706673582212201167c935ed72bd7422ff8a22b570968681883e2e661901c80196f332556a75e864736f6c63430008130033",
  "linkReferences": {},
  "deployedLinkReferences": {}
}