{
  "_format": "hh-sol-artifact-1",
  "contractName": "Versioned",
  "sourceName": "contracts/upgrade/Versioned.sol",
  "abi": [
    {
      "inputs": [],
      "name": "VERSION",
      "outputs": [
        {
          "internalType": "uint8",
          "name": "",
          "type": "uint8"
        }
      ],
      "stateMutability": "view",
      "type": "function"
    }
  ],
  "bytecode": "0x6080604052348015600f57600080fd5b5060808061001e6000396000f3fe6080604052348015600f57600080fd5b506004361060285760003560e01c8063ffa1ad7414602d575b600080fd5b6034600381565b60405160ff909116815260200160405180910390f3fea2646970667358221220d7b63e36b03cf3d35c0d88a8e021688c2a651d46b0915f0b92519ec1af8e9e8064736f6c63430008130033",
  "linkReferences": {},
  "deployedLinkReferences": {}
}